{
  "_format": "hh-sol-artifact-1",
  "contractName": "NFT",
  "sourceName": "contracts/NFT.sol",
  "abi": [
    {
      "inputs": [
        {
          "internalType": "address",
          "name": "marketPlcaeAddress_",
          "type": "address"
        }
      ],
      "stateMutability": "nonpayable",
      "type": "constructor"
    },
    {
      "anonymous": false,
      "inputs": [
        {
          "indexed": true,
          "internalType": "address",
          "name": "owner",
          "type": "address"
        },
        {
          "indexed": true,
          "internalType": "address",
          "name": "approved",
          "type": "address"
        },
        {
          "indexed": true,
          "internalType": "uint256",
          "name": "tokenId",
          "type": "uint256"
        }
      ],
      "name": "Approval",
      "type": "event"
    },
    {
      "anonymous": false,
      "inputs": [
        {
          "indexed": true,
          "internalType": "address",
          "name": "owner",
          "type": "address"
        },
        {
          "indexed": true,
          "internalType": "address",
          "name": "operator",
          "type": "address"
        },
        {
          "indexed": false,
          "internalType": "bool",
          "name": "approved",
          "type": "bool"
        }
      ],
      "name": "ApprovalForAll",
      "type": "event"
    },
    {
      "anonymous": false,
      "inputs": [
        {
          "indexed": true,
          "internalType": "address",
          "name": "from",
          "type": "address"
        },
        {
          "indexed": true,
          "internalType": "address",
          "name": "to",
          "type": "address"
        },
        {
          "indexed": true,
          "internalType": "uint256",
          "name": "tokenId",
          "type": "uint256"
        }
      ],
      "name": "Transfer",
      "type": "event"
    },
    {
      "inputs": [
        {
          "internalType": "address",
          "name": "to",
          "type": "address"
        },
        {
          "internalType": "uint256",
          "name": "tokenId",
          "type": "uint256"
        }
      ],
      "name": "approve",
      "outputs": [],
      "stateMutability": "nonpayable",
      "type": "function"
    },
    {
      "inputs": [
        {
          "internalType": "address",
          "name": "owner",
          "type": "address"
        }
      ],
      "name": "balanceOf",
      "outputs": [
        {
          "internalType": "uint256",
          "name": "",
          "type": "uint256"
        }
      ],
      "stateMutability": "view",
      "type": "function"
    },
    {
      "inputs": [
        {
          "internalType": "string",
          "name": "tokenURI_",
          "type": "string"
        }
      ],
      "name": "createNewToken",
      "outputs": [
        {
          "internalType": "uint256",
          "name": "",
          "type": "uint256"
        }
      ],
      "stateMutability": "payable",
      "type": "function"
    },
    {
      "inputs": [
        {
          "internalType": "uint256",
          "name": "tokenId",
          "type": "uint256"
        }
      ],
      "name": "getApproved",
      "outputs": [
        {
          "internalType": "address",
          "name": "",
          "type": "address"
        }
      ],
      "stateMutability": "view",
      "type": "function"
    },
    {
      "inputs": [],
      "name": "getMintedNFT",
      "outputs": [
        {
          "components": [
            {
              "internalType": "uint256",
              "name": "itemId",
              "type": "uint256"
            },
            {
              "internalType": "address",
              "name": "nftContract",
              "type": "address"
            },
            {
              "internalType": "uint256",
              "name": "tokenId",
              "type": "uint256"
            },
            {
              "internalType": "address payable",
              "name": "seller",
              "type": "address"
            },
            {
              "internalType": "address payable",
              "name": "owner",
              "type": "address"
            },
            {
              "internalType": "bool",
              "name": "sold",
              "type": "bool"
            }
          ],
          "internalType": "struct NFT.MintedItem[]",
          "name": "",
          "type": "tuple[]"
        }
      ],
      "stateMutability": "view",
      "type": "function"
    },
    {
      "inputs": [
        {
          "internalType": "address",
          "name": "owner",
          "type": "address"
        },
        {
          "internalType": "address",
          "name": "operator",
          "type": "address"
        }
      ],
      "name": "isApprovedForAll",
      "outputs": [
        {
          "internalType": "bool",
          "name": "",
          "type": "bool"
        }
      ],
      "stateMutability": "view",
      "type": "function"
    },
    {
      "inputs": [],
      "name": "name",
      "outputs": [
        {
          "internalType": "string",
          "name": "",
          "type": "string"
        }
      ],
      "stateMutability": "view",
      "type": "function"
    },
    {
      "inputs": [
        {
          "internalType": "uint256",
          "name": "tokenId",
          "type": "uint256"
        }
      ],
      "name": "ownerOf",
      "outputs": [
        {
          "internalType": "address",
          "name": "",
          "type": "address"
        }
      ],
      "stateMutability": "view",
      "type": "function"
    },
    {
      "inputs": [
        {
          "internalType": "address",
          "name": "from",
          "type": "address"
        },
        {
          "internalType": "address",
          "name": "to",
          "type": "address"
        },
        {
          "internalType": "uint256",
          "name": "tokenId",
          "type": "uint256"
        }
      ],
      "name": "safeTransferFrom",
      "outputs": [],
      "stateMutability": "nonpayable",
      "type": "function"
    },
    {
      "inputs": [
        {
          "internalType": "address",
          "name": "from",
          "type": "address"
        },
        {
          "internalType": "address",
          "name": "to",
          "type": "address"
        },
        {
          "internalType": "uint256",
          "name": "tokenId",
          "type": "uint256"
        },
        {
          "internalType": "bytes",
          "name": "_data",
          "type": "bytes"
        }
      ],
      "name": "safeTransferFrom",
      "outputs": [],
      "stateMutability": "nonpayable",
      "type": "function"
    },
    {
      "inputs": [
        {
          "internalType": "address",
          "name": "operator",
          "type": "address"
        },
        {
          "internalType": "bool",
          "name": "approved",
          "type": "bool"
        }
      ],
      "name": "setApprovalForAll",
      "outputs": [],
      "stateMutability": "nonpayable",
      "type": "function"
    },
    {
      "inputs": [
        {
          "internalType": "bytes4",
          "name": "interfaceId",
          "type": "bytes4"
        }
      ],
      "name": "supportsInterface",
      "outputs": [
        {
          "internalType": "bool",
          "name": "",
          "type": "bool"
        }
      ],
      "stateMutability": "view",
      "type": "function"
    },
    {
      "inputs": [],
      "name": "symbol",
      "outputs": [
        {
          "internalType": "string",
          "name": "",
          "type": "string"
        }
      ],
      "stateMutability": "view",
      "type": "function"
    },
    {
      "inputs": [
        {
          "internalType": "uint256",
          "name": "tokenId",
          "type": "uint256"
        }
      ],
      "name": "tokenURI",
      "outputs": [
        {
          "internalType": "string",
          "name": "",
          "type": "string"
        }
      ],
      "stateMutability": "view",
      "type": "function"
    },
    {
      "inputs": [
        {
          "internalType": "address",
          "name": "from",
          "type": "address"
        },
        {
          "internalType": "address",
          "name": "to",
          "type": "address"
        },
        {
          "internalType": "uint256",
          "name": "tokenId",
          "type": "uint256"
        }
      ],
      "name": "transferFrom",
      "outputs": [],
      "stateMutability": "nonpayable",
      "type": "function"
    }
  ],
  "bytecode": "0x60806040523480156200001157600080fd5b50604051620037f5380380620037f5833981810160405281019062000037919062000239565b6040518060400160405280600381526020017f56697600000000000000000000000000000000000000000000000000000000008152506040518060400160405280600281526020017f56530000000000000000000000000000000000000000000000000000000000008152508160009080519060200190620000bb9291906200011f565b508060019080519060200190620000d49291906200011f565b50505080600960006101000a81548173ffffffffffffffffffffffffffffffffffffffff021916908373ffffffffffffffffffffffffffffffffffffffff16021790555050620002d0565b8280546200012d906200029a565b90600052602060002090601f0160209004810192826200015157600085556200019d565b82601f106200016c57805160ff19168380011785556200019d565b828001600101855582156200019d579182015b828111156200019c5782518255916020019190600101906200017f565b5b509050620001ac9190620001b0565b5090565b5b80821115620001cb576000816000905550600101620001b1565b5090565b600080fd5b600073ffffffffffffffffffffffffffffffffffffffff82169050919050565b60006200020182620001d4565b9050919050565b6200021381620001f4565b81146200021f57600080fd5b50565b600081519050620002338162000208565b92915050565b600060208284031215620002525762000251620001cf565b5b6000620002628482850162000222565b91505092915050565b7f4e487b7100000000000000000000000000000000000000000000000000000000600052602260045260246000fd5b60006002820490506001821680620002b357607f821691505b60208210811415620002ca57620002c96200026b565b5b50919050565b61351580620002e06000396000f3fe6080604052600436106100e85760003560e01c80636352211e1161008a578063b88d4fde11610059578063b88d4fde14610306578063b90f1aaa1461032f578063c87b56dd1461035f578063e985e9c51461039c576100e8565b80636352211e1461023857806370a082311461027557806395d89b41146102b2578063a22cb465146102dd576100e8565b8063095ea7b3116100c6578063095ea7b3146101925780631bcffe81146101bb57806323b872dd146101e657806342842e0e1461020f576100e8565b806301ffc9a7146100ed57806306fdde031461012a578063081812fc14610155575b600080fd5b3480156100f957600080fd5b50610114600480360381019061010f91906120c0565b6103d9565b6040516101219190612108565b60405180910390f35b34801561013657600080fd5b5061013f6104bb565b60405161014c91906121bc565b60405180910390f35b34801561016157600080fd5b5061017c60048036038101906101779190612214565b61054d565b6040516101899190612282565b60405180910390f35b34801561019e57600080fd5b506101b960048036038101906101b491906122c9565b6105d2565b005b3480156101c757600080fd5b506101d06106ea565b6040516101dd9190612481565b60405180910390f35b3480156101f257600080fd5b5061020d600480360381019061020891906124a3565b610a44565b005b34801561021b57600080fd5b50610236600480360381019061023191906124a3565b610aa4565b005b34801561024457600080fd5b5061025f600480360381019061025a9190612214565b610ac4565b60405161026c9190612282565b60405180910390f35b34801561028157600080fd5b5061029c600480360381019061029791906124f6565b610b76565b6040516102a99190612532565b60405180910390f35b3480156102be57600080fd5b506102c7610c2e565b6040516102d491906121bc565b60405180910390f35b3480156102e957600080fd5b5061030460048036038101906102ff9190612579565b610cc0565b005b34801561031257600080fd5b5061032d600480360381019061032891906126ee565b610cd6565b005b61034960048036038101906103449190612812565b610d38565b6040516103569190612532565b60405180910390f35b34801561036b57600080fd5b5061038660048036038101906103819190612214565b610de4565b60405161039391906121bc565b60405180910390f35b3480156103a857600080fd5b506103c360048036038101906103be919061285b565b610f36565b6040516103d09190612108565b60405180910390f35b60007f80ac58cd000000000000000000000000000000000000000000000000000000007bffffffffffffffffffffffffffffffffffffffffffffffffffffffff1916827bffffffffffffffffffffffffffffffffffffffffffffffffffffffff191614806104a457507f5b5e139f000000000000000000000000000000000000000000000000000000007bffffffffffffffffffffffffffffffffffffffffffffffffffffffff1916827bffffffffffffffffffffffffffffffffffffffffffffffffffffffff1916145b806104b457506104b382610fca565b5b9050919050565b6060600080546104ca906128ca565b80601f01602080910402602001604051908101604052809291908181526020018280546104f6906128ca565b80156105435780601f1061051857610100808354040283529160200191610543565b820191906000526020600020905b81548152906001019060200180831161052657829003601f168201915b5050505050905090565b600061055882611034565b610597576040517f08c379a000000000000000000000000000000000000000000000000000000000815260040161058e9061296e565b60405180910390fd5b6004600083815260200190815260200160002060009054906101000a900473ffffffffffffffffffffffffffffffffffffffff169050919050565b60006105dd82610ac4565b90508073ffffffffffffffffffffffffffffffffffffffff168373ffffffffffffffffffffffffffffffffffffffff16141561064e576040517f08c379a000000000000000000000000000000000000000000000000000000000815260040161064590612a00565b60405180910390fd5b8073ffffffffffffffffffffffffffffffffffffffff1661066d6110a0565b73ffffffffffffffffffffffffffffffffffffffff16148061069c575061069b816106966110a0565b610f36565b5b6106db576040517f08c379a00000000000000000000000000000000000000000000000000000000081526004016106d290612a92565b60405180910390fd5b6106e583836110a8565b505050565b606060006106f86008611161565b905060008060005b838110156107a1573373ffffffffffffffffffffffffffffffffffffffff16600a60006001846107309190612ae1565b815260200190815260200160002060030160009054906101000a900473ffffffffffffffffffffffffffffffffffffffff1673ffffffffffffffffffffffffffffffffffffffff16141561078e5760018361078b9190612ae1565b92505b808061079990612b37565b915050610700565b5060008267ffffffffffffffff8111156107be576107bd6125c3565b5b6040519080825280602002602001820160405280156107f757816020015b6107e4611f37565b8152602001906001900390816107dc5790505b50905060005b84811015610a39573373ffffffffffffffffffffffffffffffffffffffff16600a600060018461082d9190612ae1565b815260200190815260200160002060030160009054906101000a900473ffffffffffffffffffffffffffffffffffffffff1673ffffffffffffffffffffffffffffffffffffffff161415610a26576000600a600060018461088e9190612ae1565b81526020019081526020016000206000015490506000600a60008381526020019081526020016000209050806040518060c0016040529081600082015481526020016001820160009054906101000a900473ffffffffffffffffffffffffffffffffffffffff1673ffffffffffffffffffffffffffffffffffffffff1673ffffffffffffffffffffffffffffffffffffffff168152602001600282015481526020016003820160009054906101000a900473ffffffffffffffffffffffffffffffffffffffff1673ffffffffffffffffffffffffffffffffffffffff1673ffffffffffffffffffffffffffffffffffffffff1681526020016004820160009054906101000a900473ffffffffffffffffffffffffffffffffffffffff1673ffffffffffffffffffffffffffffffffffffffff1673ffffffffffffffffffffffffffffffffffffffff1681526020016004820160149054906101000a900460ff161515151581525050848681518110610a0957610a08612b80565b5b6020026020010181905250600185610a219190612ae1565b945050505b8080610a3190612b37565b9150506107fd565b508094505050505090565b610a55610a4f6110a0565b8261116f565b610a94576040517f08c379a0000000000000000000000000000000000000000000000000000000008152600401610a8b90612c21565b60405180910390fd5b610a9f83838361124d565b505050565b610abf83838360405180602001604052806000815250610cd6565b505050565b6000806002600084815260200190815260200160002060009054906101000a900473ffffffffffffffffffffffffffffffffffffffff169050600073ffffffffffffffffffffffffffffffffffffffff168173ffffffffffffffffffffffffffffffffffffffff161415610b6d576040517f08c379a0000000000000000000000000000000000000000000000000000000008152600401610b6490612cb3565b60405180910390fd5b80915050919050565b60008073ffffffffffffffffffffffffffffffffffffffff168273ffffffffffffffffffffffffffffffffffffffff161415610be7576040517f08c379a0000000000000000000000000000000000000000000000000000000008152600401610bde90612d45565b60405180910390fd5b600360008373ffffffffffffffffffffffffffffffffffffffff1673ffffffffffffffffffffffffffffffffffffffff168152602001908152602001600020549050919050565b606060018054610c3d906128ca565b80601f0160208091040260200160405190810160405280929190818152602001828054610c69906128ca565b8015610cb65780601f10610c8b57610100808354040283529160200191610cb6565b820191906000526020600020905b815481529060010190602001808311610c9957829003601f168201915b5050505050905090565b610cd2610ccb6110a0565b83836114b4565b5050565b610ce7610ce16110a0565b8361116f565b610d26576040517f08c379a0000000000000000000000000000000000000000000000000000000008152600401610d1d90612c21565b60405180910390fd5b610d3284848484611621565b50505050565b6000610d44600761167d565b6000610d506007611161565b9050610d5c3382611693565b610d66818461186d565b610d93600960009054906101000a900473ffffffffffffffffffffffffffffffffffffffff166001610cc0565b610d9c816118e1565b610ddb6040518060400160405280600881526020017f546f6b656e20496400000000000000000000000000000000000000000000000081525082611a8f565b80915050919050565b6060610def82611034565b610e2e576040517f08c379a0000000000000000000000000000000000000000000000000000000008152600401610e2590612dd7565b60405180910390fd5b6000600660008481526020019081526020016000208054610e4e906128ca565b80601f0160208091040260200160405190810160405280929190818152602001828054610e7a906128ca565b8015610ec75780601f10610e9c57610100808354040283529160200191610ec7565b820191906000526020600020905b815481529060010190602001808311610eaa57829003601f168201915b505050505090506000610ed8611b2b565b9050600081511415610eee578192505050610f31565b600082511115610f23578082604051602001610f0b929190612e33565b60405160208183030381529060405292505050610f31565b610f2c84611b42565b925050505b919050565b6000600560008473ffffffffffffffffffffffffffffffffffffffff1673ffffffffffffffffffffffffffffffffffffffff16815260200190815260200160002060008373ffffffffffffffffffffffffffffffffffffffff1673ffffffffffffffffffffffffffffffffffffffff16815260200190815260200160002060009054906101000a900460ff16905092915050565b60007f01ffc9a7000000000000000000000000000000000000000000000000000000007bffffffffffffffffffffffffffffffffffffffffffffffffffffffff1916827bffffffffffffffffffffffffffffffffffffffffffffffffffffffff1916149050919050565b60008073ffffffffffffffffffffffffffffffffffffffff166002600084815260200190815260200160002060009054906101000a900473ffffffffffffffffffffffffffffffffffffffff1673ffffffffffffffffffffffffffffffffffffffff1614159050919050565b600033905090565b816004600083815260200190815260200160002060006101000a81548173ffffffffffffffffffffffffffffffffffffffff021916908373ffffffffffffffffffffffffffffffffffffffff160217905550808273ffffffffffffffffffffffffffffffffffffffff1661111b83610ac4565b73ffffffffffffffffffffffffffffffffffffffff167f8c5be1e5ebec7d5bd14f71427d1e84f3dd0314c0f7b2291e5b200ac8c7c3b92560405160405180910390a45050565b600081600001549050919050565b600061117a82611034565b6111b9576040517f08c379a00000000000000000000000000000000000000000000000000000000081526004016111b090612ec9565b60405180910390fd5b60006111c483610ac4565b90508073ffffffffffffffffffffffffffffffffffffffff168473ffffffffffffffffffffffffffffffffffffffff16148061120657506112058185610f36565b5b8061124457508373ffffffffffffffffffffffffffffffffffffffff1661122c8461054d565b73ffffffffffffffffffffffffffffffffffffffff16145b91505092915050565b8273ffffffffffffffffffffffffffffffffffffffff1661126d82610ac4565b73ffffffffffffffffffffffffffffffffffffffff16146112c3576040517f08c379a00000000000000000000000000000000000000000000000000000000081526004016112ba90612f5b565b60405180910390fd5b600073ffffffffffffffffffffffffffffffffffffffff168273ffffffffffffffffffffffffffffffffffffffff161415611333576040517f08c379a000000000000000000000000000000000000000000000000000000000815260040161132a90612fed565b60405180910390fd5b61133e838383611be9565b6113496000826110a8565b6001600360008573ffffffffffffffffffffffffffffffffffffffff1673ffffffffffffffffffffffffffffffffffffffff1681526020019081526020016000206000828254611399919061300d565b925050819055506001600360008473ffffffffffffffffffffffffffffffffffffffff1673ffffffffffffffffffffffffffffffffffffffff16815260200190815260200160002060008282546113f09190612ae1565b92505081905550816002600083815260200190815260200160002060006101000a81548173ffffffffffffffffffffffffffffffffffffffff021916908373ffffffffffffffffffffffffffffffffffffffff160217905550808273ffffffffffffffffffffffffffffffffffffffff168473ffffffffffffffffffffffffffffffffffffffff167fddf252ad1be2c89b69c2b068fc378daa952ba7f163c4a11628f55a4df523b3ef60405160405180910390a46114af838383611bee565b505050565b8173ffffffffffffffffffffffffffffffffffffffff168373ffffffffffffffffffffffffffffffffffffffff161415611523576040517f08c379a000000000000000000000000000000000000000000000000000000000815260040161151a9061308d565b60405180910390fd5b80600560008573ffffffffffffffffffffffffffffffffffffffff1673ffffffffffffffffffffffffffffffffffffffff16815260200190815260200160002060008473ffffffffffffffffffffffffffffffffffffffff1673ffffffffffffffffffffffffffffffffffffffff16815260200190815260200160002060006101000a81548160ff0219169083151502179055508173ffffffffffffffffffffffffffffffffffffffff168373ffffffffffffffffffffffffffffffffffffffff167f17307eab39ab6107e8899845ad3d59bd9653f200f220920489ca2b5937696c31836040516116149190612108565b60405180910390a3505050565b61162c84848461124d565b61163884848484611bf3565b611677576040517f08c379a000000000000000000000000000000000000000000000000000000000815260040161166e9061311f565b60405180910390fd5b50505050565b6001816000016000828254019250508190555050565b600073ffffffffffffffffffffffffffffffffffffffff168273ffffffffffffffffffffffffffffffffffffffff161415611703576040517f08c379a00000000000000000000000000000000000000000000000000000000081526004016116fa9061318b565b60405180910390fd5b61170c81611034565b1561174c576040517f08c379a0000000000000000000000000000000000000000000000000000000008152600401611743906131f7565b60405180910390fd5b61175860008383611be9565b6001600360008473ffffffffffffffffffffffffffffffffffffffff1673ffffffffffffffffffffffffffffffffffffffff16815260200190815260200160002060008282546117a89190612ae1565b92505081905550816002600083815260200190815260200160002060006101000a81548173ffffffffffffffffffffffffffffffffffffffff021916908373ffffffffffffffffffffffffffffffffffffffff160217905550808273ffffffffffffffffffffffffffffffffffffffff16600073ffffffffffffffffffffffffffffffffffffffff167fddf252ad1be2c89b69c2b068fc378daa952ba7f163c4a11628f55a4df523b3ef60405160405180910390a461186960008383611bee565b5050565b61187682611034565b6118b5576040517f08c379a00000000000000000000000000000000000000000000000000000000081526004016118ac90613289565b60405180910390fd5b806006600084815260200190815260200160002090805190602001906118dc929190611fb1565b505050565b6118eb600861167d565b60006118f76008611161565b90506040518060c001604052808281526020013073ffffffffffffffffffffffffffffffffffffffff1681526020018381526020013373ffffffffffffffffffffffffffffffffffffffff168152602001600073ffffffffffffffffffffffffffffffffffffffff16815260200160001515815250600a60008381526020019081526020016000206000820151816000015560208201518160010160006101000a81548173ffffffffffffffffffffffffffffffffffffffff021916908373ffffffffffffffffffffffffffffffffffffffff1602179055506040820151816002015560608201518160030160006101000a81548173ffffffffffffffffffffffffffffffffffffffff021916908373ffffffffffffffffffffffffffffffffffffffff16021790555060808201518160040160006101000a81548173ffffffffffffffffffffffffffffffffffffffff021916908373ffffffffffffffffffffffffffffffffffffffff16021790555060a08201518160040160146101000a81548160ff0219169083151502179055509050505050565b611b278282604051602401611aa59291906132a9565b6040516020818303038152906040527f9710a9d0000000000000000000000000000000000000000000000000000000007bffffffffffffffffffffffffffffffffffffffffffffffffffffffff19166020820180517bffffffffffffffffffffffffffffffffffffffffffffffffffffffff8381831617835250505050611d8a565b5050565b606060405180602001604052806000815250905090565b6060611b4d82611034565b611b8c576040517f08c379a0000000000000000000000000000000000000000000000000000000008152600401611b839061334b565b60405180910390fd5b6000611b96611b2b565b90506000815111611bb65760405180602001604052806000815250611be1565b80611bc084611db3565b604051602001611bd1929190612e33565b6040516020818303038152906040525b915050919050565b505050565b505050565b6000611c148473ffffffffffffffffffffffffffffffffffffffff16611f14565b15611d7d578373ffffffffffffffffffffffffffffffffffffffff1663150b7a02611c3d6110a0565b8786866040518563ffffffff1660e01b8152600401611c5f94939291906133c0565b602060405180830381600087803b158015611c7957600080fd5b505af1925050508015611caa57506040513d601f19601f82011682018060405250810190611ca79190613421565b60015b611d2d573d8060008114611cda576040519150601f19603f3d011682016040523d82523d6000602084013e611cdf565b606091505b50600081511415611d25576040517f08c379a0000000000000000000000000000000000000000000000000000000008152600401611d1c9061311f565b60405180910390fd5b805181602001fd5b63150b7a0260e01b7bffffffffffffffffffffffffffffffffffffffffffffffffffffffff1916817bffffffffffffffffffffffffffffffffffffffffffffffffffffffff191614915050611d82565b600190505b949350505050565b60008151905060006a636f6e736f6c652e6c6f679050602083016000808483855afa5050505050565b60606000821415611dfb576040518060400160405280600181526020017f30000000000000000000000000000000000000000000000000000000000000008152509050611f0f565b600082905060005b60008214611e2d578080611e1690612b37565b915050600a82611e26919061347d565b9150611e03565b60008167ffffffffffffffff811115611e4957611e486125c3565b5b6040519080825280601f01601f191660200182016040528015611e7b5781602001600182028036833780820191505090505b5090505b60008514611f0857600182611e94919061300d565b9150600a85611ea391906134ae565b6030611eaf9190612ae1565b60f81b818381518110611ec557611ec4612b80565b5b60200101907effffffffffffffffffffffffffffffffffffffffffffffffffffffffffffff1916908160001a905350600a85611f01919061347d565b9450611e7f565b8093505050505b919050565b6000808273ffffffffffffffffffffffffffffffffffffffff163b119050919050565b6040518060c0016040528060008152602001600073ffffffffffffffffffffffffffffffffffffffff16815260200160008152602001600073ffffffffffffffffffffffffffffffffffffffff168152602001600073ffffffffffffffffffffffffffffffffffffffff1681526020016000151581525090565b828054611fbd906128ca565b90600052602060002090601f016020900481019282611fdf5760008555612026565b82601f10611ff857805160ff1916838001178555612026565b82800160010185558215612026579182015b8281111561202557825182559160200191906001019061200a565b5b5090506120339190612037565b5090565b5b80821115612050576000816000905550600101612038565b5090565b6000604051905090565b600080fd5b600080fd5b60007fffffffff0000000000000000000000000000000000000000000000000000000082169050919050565b61209d81612068565b81146120a857600080fd5b50565b6000813590506120ba81612094565b92915050565b6000602082840312156120d6576120d561205e565b5b60006120e4848285016120ab565b91505092915050565b60008115159050919050565b612102816120ed565b82525050565b600060208201905061211d60008301846120f9565b92915050565b600081519050919050565b600082825260208201905092915050565b60005b8381101561215d578082015181840152602081019050612142565b8381111561216c576000848401525b50505050565b6000601f19601f8301169050919050565b600061218e82612123565b612198818561212e565b93506121a881856020860161213f565b6121b181612172565b840191505092915050565b600060208201905081810360008301526121d68184612183565b905092915050565b6000819050919050565b6121f1816121de565b81146121fc57600080fd5b50565b60008135905061220e816121e8565b92915050565b60006020828403121561222a5761222961205e565b5b6000612238848285016121ff565b91505092915050565b600073ffffffffffffffffffffffffffffffffffffffff82169050919050565b600061226c82612241565b9050919050565b61227c81612261565b82525050565b60006020820190506122976000830184612273565b92915050565b6122a681612261565b81146122b157600080fd5b50565b6000813590506122c38161229d565b92915050565b600080604083850312156122e0576122df61205e565b5b60006122ee858286016122b4565b92505060206122ff858286016121ff565b9150509250929050565b600081519050919050565b600082825260208201905092915050565b6000819050602082019050919050565b61233e816121de565b82525050565b61234d81612261565b82525050565b600061235e82612241565b9050919050565b61236e81612353565b82525050565b61237d816120ed565b82525050565b60c0820160008201516123996000850182612335565b5060208201516123ac6020850182612344565b5060408201516123bf6040850182612335565b5060608201516123d26060850182612365565b5060808201516123e56080850182612365565b5060a08201516123f860a0850182612374565b50505050565b600061240a8383612383565b60c08301905092915050565b6000602082019050919050565b600061242e82612309565b6124388185612314565b935061244383612325565b8060005b8381101561247457815161245b88826123fe565b975061246683612416565b925050600181019050612447565b5085935050505092915050565b6000602082019050818103600083015261249b8184612423565b905092915050565b6000806000606084860312156124bc576124bb61205e565b5b60006124ca868287016122b4565b93505060206124db868287016122b4565b92505060406124ec868287016121ff565b9150509250925092565b60006020828403121561250c5761250b61205e565b5b600061251a848285016122b4565b91505092915050565b61252c816121de565b82525050565b60006020820190506125476000830184612523565b92915050565b612556816120ed565b811461256157600080fd5b50565b6000813590506125738161254d565b92915050565b600080604083850312156125905761258f61205e565b5b600061259e858286016122b4565b92505060206125af85828601612564565b9150509250929050565b600080fd5b600080fd5b7f4e487b7100000000000000000000000000000000000000000000000000000000600052604160045260246000fd5b6125fb82612172565b810181811067ffffffffffffffff8211171561261a576126196125c3565b5b80604052505050565b600061262d612054565b905061263982826125f2565b919050565b600067ffffffffffffffff821115612659576126586125c3565b5b61266282612172565b9050602081019050919050565b82818337600083830152505050565b600061269161268c8461263e565b612623565b9050828152602081018484840111156126ad576126ac6125be565b5b6126b884828561266f565b509392505050565b600082601f8301126126d5576126d46125b9565b5b81356126e584826020860161267e565b91505092915050565b600080600080608085870312156127085761270761205e565b5b6000612716878288016122b4565b9450506020612727878288016122b4565b9350506040612738878288016121ff565b925050606085013567ffffffffffffffff81111561275957612758612063565b5b612765878288016126c0565b91505092959194509250565b600067ffffffffffffffff82111561278c5761278b6125c3565b5b61279582612172565b9050602081019050919050565b60006127b56127b084612771565b612623565b9050828152602081018484840111156127d1576127d06125be565b5b6127dc84828561266f565b509392505050565b600082601f8301126127f9576127f86125b9565b5b81356128098482602086016127a2565b91505092915050565b6000602082840312156128285761282761205e565b5b600082013567ffffffffffffffff81111561284657612845612063565b5b612852848285016127e4565b91505092915050565b600080604083850312156128725761287161205e565b5b6000612880858286016122b4565b9250506020612891858286016122b4565b9150509250929050565b7f4e487b7100000000000000000000000000000000000000000000000000000000600052602260045260246000fd5b600060028204905060018216806128e257607f821691505b602082108114156128f6576128f561289b565b5b50919050565b7f4552433732313a20617070726f76656420717565727920666f72206e6f6e657860008201527f697374656e7420746f6b656e0000000000000000000000000000000000000000602082015250565b6000612958602c8361212e565b9150612963826128fc565b604082019050919050565b600060208201905081810360008301526129878161294b565b9050919050565b7f4552433732313a20617070726f76616c20746f2063757272656e74206f776e6560008201527f7200000000000000000000000000000000000000000000000000000000000000602082015250565b60006129ea60218361212e565b91506129f58261298e565b604082019050919050565b60006020820190508181036000830152612a19816129dd565b9050919050565b7f4552433732313a20617070726f76652063616c6c6572206973206e6f74206f7760008201527f6e6572206e6f7220617070726f76656420666f7220616c6c0000000000000000602082015250565b6000612a7c60388361212e565b9150612a8782612a20565b604082019050919050565b60006020820190508181036000830152612aab81612a6f565b9050919050565b7f4e487b7100000000000000000000000000000000000000000000000000000000600052601160045260246000fd5b6000612aec826121de565b9150612af7836121de565b9250827fffffffffffffffffffffffffffffffffffffffffffffffffffffffffffffffff03821115612b2c57612b2b612ab2565b5b828201905092915050565b6000612b42826121de565b91507fffffffffffffffffffffffffffffffffffffffffffffffffffffffffffffffff821415612b7557612b74612ab2565b5b600182019050919050565b7f4e487b7100000000000000000000000000000000000000000000000000000000600052603260045260246000fd5b7f4552433732313a207472616e736665722063616c6c6572206973206e6f74206f60008201527f776e6572206e6f7220617070726f766564000000000000000000000000000000602082015250565b6000612c0b60318361212e565b9150612c1682612baf565b604082019050919050565b60006020820190508181036000830152612c3a81612bfe565b9050919050565b7f4552433732313a206f776e657220717565727920666f72206e6f6e657869737460008201527f656e7420746f6b656e0000000000000000000000000000000000000000000000602082015250565b6000612c9d60298361212e565b9150612ca882612c41565b604082019050919050565b60006020820190508181036000830152612ccc81612c90565b9050919050565b7f4552433732313a2062616c616e636520717565727920666f7220746865207a6560008201527f726f206164647265737300000000000000000000000000000000000000000000602082015250565b6000612d2f602a8361212e565b9150612d3a82612cd3565b604082019050919050565b60006020820190508181036000830152612d5e81612d22565b9050919050565b7f45524337323155524953746f726167653a2055524920717565727920666f722060008201527f6e6f6e6578697374656e7420746f6b656e000000000000000000000000000000602082015250565b6000612dc160318361212e565b9150612dcc82612d65565b604082019050919050565b60006020820190508181036000830152612df081612db4565b9050919050565b600081905092915050565b6000612e0d82612123565b612e178185612df7565b9350612e2781856020860161213f565b80840191505092915050565b6000612e3f8285612e02565b9150612e4b8284612e02565b91508190509392505050565b7f4552433732313a206f70657261746f7220717565727920666f72206e6f6e657860008201527f697374656e7420746f6b656e0000000000000000000000000000000000000000602082015250565b6000612eb3602c8361212e565b9150612ebe82612e57565b604082019050919050565b60006020820190508181036000830152612ee281612ea6565b9050919050565b7f4552433732313a207472616e736665722066726f6d20696e636f72726563742060008201527f6f776e6572000000000000000000000000000000000000000000000000000000602082015250565b6000612f4560258361212e565b9150612f5082612ee9565b604082019050919050565b60006020820190508181036000830152612f7481612f38565b9050919050565b7f4552433732313a207472616e7366657220746f20746865207a65726f2061646460008201527f7265737300000000000000000000000000000000000000000000000000000000602082015250565b6000612fd760248361212e565b9150612fe282612f7b565b604082019050919050565b6000602082019050818103600083015261300681612fca565b9050919050565b6000613018826121de565b9150613023836121de565b92508282101561303657613035612ab2565b5b828203905092915050565b7f4552433732313a20617070726f766520746f2063616c6c657200000000000000600082015250565b600061307760198361212e565b915061308282613041565b602082019050919050565b600060208201905081810360008301526130a68161306a565b9050919050565b7f4552433732313a207472616e7366657220746f206e6f6e20455243373231526560008201527f63656976657220696d706c656d656e7465720000000000000000000000000000602082015250565b600061310960328361212e565b9150613114826130ad565b604082019050919050565b60006020820190508181036000830152613138816130fc565b9050919050565b7f4552433732313a206d696e7420746f20746865207a65726f2061646472657373600082015250565b600061317560208361212e565b91506131808261313f565b602082019050919050565b600060208201905081810360008301526131a481613168565b9050919050565b7f4552433732313a20746f6b656e20616c7265616479206d696e74656400000000600082015250565b60006131e1601c8361212e565b91506131ec826131ab565b602082019050919050565b60006020820190508181036000830152613210816131d4565b9050919050565b7f45524337323155524953746f726167653a2055524920736574206f66206e6f6e60008201527f6578697374656e7420746f6b656e000000000000000000000000000000000000602082015250565b6000613273602e8361212e565b915061327e82613217565b604082019050919050565b600060208201905081810360008301526132a281613266565b9050919050565b600060408201905081810360008301526132c38185612183565b90506132d26020830184612523565b9392505050565b7f4552433732314d657461646174613a2055524920717565727920666f72206e6f60008201527f6e6578697374656e7420746f6b656e0000000000000000000000000000000000602082015250565b6000613335602f8361212e565b9150613340826132d9565b604082019050919050565b6000602082019050818103600083015261336481613328565b9050919050565b600081519050919050565b600082825260208201905092915050565b60006133928261336b565b61339c8185613376565b93506133ac81856020860161213f565b6133b581612172565b840191505092915050565b60006080820190506133d56000830187612273565b6133e26020830186612273565b6133ef6040830185612523565b81810360608301526134018184613387565b905095945050505050565b60008151905061341b81612094565b92915050565b6000602082840312156134375761343661205e565b5b60006134458482850161340c565b91505092915050565b7f4e487b7100000000000000000000000000000000000000000000000000000000600052601260045260246000fd5b6000613488826121de565b9150613493836121de565b9250826134a3576134a261344e565b5b828204905092915050565b60006134b9826121de565b91506134c4836121de565b9250826134d4576134d361344e565b5b82820690509291505056fea264697066735822122005e5a99d389b023b953ce9d63068158879dfdc5cb997cc5bded68508240920ee64736f6c63430008090033",
  "linkReferences": {},
  "deployedLinkReferences": {}
}