{
  "_format": "hh-sol-artifact-1",
  "contractName": "NFT",
  "sourceName": "contracts/NFT.sol",
  "abi": [
    {
      "inputs": [
        {
          "internalType": "address",
          "name": "marketPlcaeAddress_",
          "type": "address"
        }
      ],
      "stateMutability": "nonpayable",
      "type": "constructor"
    },
    {
      "anonymous": false,
      "inputs": [
        {
          "indexed": true,
          "internalType": "address",
          "name": "owner",
          "type": "address"
        },
        {
          "indexed": true,
          "internalType": "address",
          "name": "approved",
          "type": "address"
        },
        {
          "indexed": true,
          "internalType": "uint256",
          "name": "tokenId",
          "type": "uint256"
        }
      ],
      "name": "Approval",
      "type": "event"
    },
    {
      "anonymous": false,
      "inputs": [
        {
          "indexed": true,
          "internalType": "address",
          "name": "owner",
          "type": "address"
        },
        {
          "indexed": true,
          "internalType": "address",
          "name": "operator",
          "type": "address"
        },
        {
          "indexed": false,
          "internalType": "bool",
          "name": "approved",
          "type": "bool"
        }
      ],
      "name": "ApprovalForAll",
      "type": "event"
    },
    {
      "anonymous": false,
      "inputs": [
        {
          "indexed": true,
          "internalType": "address",
          "name": "from",
          "type": "address"
        },
        {
          "indexed": true,
          "internalType": "address",
          "name": "to",
          "type": "address"
        },
        {
          "indexed": true,
          "internalType": "uint256",
          "name": "tokenId",
          "type": "uint256"
        }
      ],
      "name": "Transfer",
      "type": "event"
    },
    {
      "inputs": [
        {
          "internalType": "address",
          "name": "to",
          "type": "address"
        },
        {
          "internalType": "uint256",
          "name": "tokenId",
          "type": "uint256"
        }
      ],
      "name": "approve",
      "outputs": [],
      "stateMutability": "nonpayable",
      "type": "function"
    },
    {
      "inputs": [
        {
          "internalType": "address",
          "name": "owner",
          "type": "address"
        }
      ],
      "name": "balanceOf",
      "outputs": [
        {
          "internalType": "uint256",
          "name": "",
          "type": "uint256"
        }
      ],
      "stateMutability": "view",
      "type": "function"
    },
    {
      "inputs": [
        {
          "internalType": "string",
          "name": "tokenURI_",
          "type": "string"
        }
      ],
      "name": "createNewToken",
      "outputs": [
        {
          "internalType": "uint256",
          "name": "",
          "type": "uint256"
        }
      ],
      "stateMutability": "payable",
      "type": "function"
    },
    {
      "inputs": [
        {
          "internalType": "uint256",
          "name": "tokenId",
          "type": "uint256"
        }
      ],
      "name": "getApproved",
      "outputs": [
        {
          "internalType": "address",
          "name": "",
          "type": "address"
        }
      ],
      "stateMutability": "view",
      "type": "function"
    },
    {
      "inputs": [],
      "name": "getMintedNFT",
      "outputs": [
        {
          "components": [
            {
              "internalType": "uint256",
              "name": "itemId",
              "type": "uint256"
            },
            {
              "internalType": "address",
              "name": "nftContract",
              "type": "address"
            },
            {
              "internalType": "uint256",
              "name": "tokenId",
              "type": "uint256"
            },
            {
              "internalType": "address payable",
              "name": "creator",
              "type": "address"
            },
            {
              "internalType": "address payable",
              "name": "owner",
              "type": "address"
            },
            {
              "internalType": "bool",
              "name": "sold",
              "type": "bool"
            }
          ],
          "internalType": "struct NFT.MintedItem[]",
          "name": "",
          "type": "tuple[]"
        }
      ],
      "stateMutability": "view",
      "type": "function"
    },
    {
      "inputs": [
        {
          "internalType": "address",
          "name": "owner",
          "type": "address"
        },
        {
          "internalType": "address",
          "name": "operator",
          "type": "address"
        }
      ],
      "name": "isApprovedForAll",
      "outputs": [
        {
          "internalType": "bool",
          "name": "",
          "type": "bool"
        }
      ],
      "stateMutability": "view",
      "type": "function"
    },
    {
      "inputs": [],
      "name": "name",
      "outputs": [
        {
          "internalType": "string",
          "name": "",
          "type": "string"
        }
      ],
      "stateMutability": "view",
      "type": "function"
    },
    {
      "inputs": [
        {
          "internalType": "uint256",
          "name": "tokenId",
          "type": "uint256"
        }
      ],
      "name": "ownerOf",
      "outputs": [
        {
          "internalType": "address",
          "name": "",
          "type": "address"
        }
      ],
      "stateMutability": "view",
      "type": "function"
    },
    {
      "inputs": [
        {
          "internalType": "address",
          "name": "from",
          "type": "address"
        },
        {
          "internalType": "address",
          "name": "to",
          "type": "address"
        },
        {
          "internalType": "uint256",
          "name": "tokenId",
          "type": "uint256"
        }
      ],
      "name": "safeTransferFrom",
      "outputs": [],
      "stateMutability": "nonpayable",
      "type": "function"
    },
    {
      "inputs": [
        {
          "internalType": "address",
          "name": "from",
          "type": "address"
        },
        {
          "internalType": "address",
          "name": "to",
          "type": "address"
        },
        {
          "internalType": "uint256",
          "name": "tokenId",
          "type": "uint256"
        },
        {
          "internalType": "bytes",
          "name": "_data",
          "type": "bytes"
        }
      ],
      "name": "safeTransferFrom",
      "outputs": [],
      "stateMutability": "nonpayable",
      "type": "function"
    },
    {
      "inputs": [
        {
          "internalType": "address",
          "name": "operator",
          "type": "address"
        },
        {
          "internalType": "bool",
          "name": "approved",
          "type": "bool"
        }
      ],
      "name": "setApprovalForAll",
      "outputs": [],
      "stateMutability": "nonpayable",
      "type": "function"
    },
    {
      "inputs": [
        {
          "internalType": "bytes4",
          "name": "interfaceId",
          "type": "bytes4"
        }
      ],
      "name": "supportsInterface",
      "outputs": [
        {
          "internalType": "bool",
          "name": "",
          "type": "bool"
        }
      ],
      "stateMutability": "view",
      "type": "function"
    },
    {
      "inputs": [],
      "name": "symbol",
      "outputs": [
        {
          "internalType": "string",
          "name": "",
          "type": "string"
        }
      ],
      "stateMutability": "view",
      "type": "function"
    },
    {
      "inputs": [
        {
          "internalType": "uint256",
          "name": "tokenId",
          "type": "uint256"
        }
      ],
      "name": "tokenURI",
      "outputs": [
        {
          "internalType": "string",
          "name": "",
          "type": "string"
        }
      ],
      "stateMutability": "view",
      "type": "function"
    },
    {
      "inputs": [
        {
          "internalType": "address",
          "name": "from",
          "type": "address"
        },
        {
          "internalType": "address",
          "name": "to",
          "type": "address"
        },
        {
          "internalType": "uint256",
          "name": "tokenId",
          "type": "uint256"
        }
      ],
      "name": "transferFrom",
      "outputs": [],
      "stateMutability": "nonpayable",
      "type": "function"
    }
  ],
  "bytecode": "0x60806040523480156200001157600080fd5b50604051620037c1380380620037c1833981810160405281019062000037919062000239565b6040518060400160405280600381526020017f56697600000000000000000000000000000000000000000000000000000000008152506040518060400160405280600281526020017f56530000000000000000000000000000000000000000000000000000000000008152508160009080519060200190620000bb9291906200011f565b508060019080519060200190620000d49291906200011f565b50505080600960006101000a81548173ffffffffffffffffffffffffffffffffffffffff021916908373ffffffffffffffffffffffffffffffffffffffff16021790555050620002d0565b8280546200012d906200029a565b90600052602060002090601f0160209004810192826200015157600085556200019d565b82601f106200016c57805160ff19168380011785556200019d565b828001600101855582156200019d579182015b828111156200019c5782518255916020019190600101906200017f565b5b509050620001ac9190620001b0565b5090565b5b80821115620001cb576000816000905550600101620001b1565b5090565b600080fd5b600073ffffffffffffffffffffffffffffffffffffffff82169050919050565b60006200020182620001d4565b9050919050565b6200021381620001f4565b81146200021f57600080fd5b50565b600081519050620002338162000208565b92915050565b600060208284031215620002525762000251620001cf565b5b6000620002628482850162000222565b91505092915050565b7f4e487b7100000000000000000000000000000000000000000000000000000000600052602260045260246000fd5b60006002820490506001821680620002b357607f821691505b60208210811415620002ca57620002c96200026b565b5b50919050565b6134e180620002e06000396000f3fe6080604052600436106100e85760003560e01c80636352211e1161008a578063b88d4fde11610059578063b88d4fde14610306578063b90f1aaa1461032f578063c87b56dd1461035f578063e985e9c51461039c576100e8565b80636352211e1461023857806370a082311461027557806395d89b41146102b2578063a22cb465146102dd576100e8565b8063095ea7b3116100c6578063095ea7b3146101925780631bcffe81146101bb57806323b872dd146101e657806342842e0e1461020f576100e8565b806301ffc9a7146100ed57806306fdde031461012a578063081812fc14610155575b600080fd5b3480156100f957600080fd5b50610114600480360381019061010f919061208c565b6103d9565b60405161012191906120d4565b60405180910390f35b34801561013657600080fd5b5061013f6104bb565b60405161014c9190612188565b60405180910390f35b34801561016157600080fd5b5061017c600480360381019061017791906121e0565b61054d565b604051610189919061224e565b60405180910390f35b34801561019e57600080fd5b506101b960048036038101906101b49190612295565b6105d2565b005b3480156101c757600080fd5b506101d06106ea565b6040516101dd919061244d565b60405180910390f35b3480156101f257600080fd5b5061020d6004803603810190610208919061246f565b610a44565b005b34801561021b57600080fd5b506102366004803603810190610231919061246f565b610aa4565b005b34801561024457600080fd5b5061025f600480360381019061025a91906121e0565b610ac4565b60405161026c919061224e565b60405180910390f35b34801561028157600080fd5b5061029c600480360381019061029791906124c2565b610b76565b6040516102a991906124fe565b60405180910390f35b3480156102be57600080fd5b506102c7610c2e565b6040516102d49190612188565b60405180910390f35b3480156102e957600080fd5b5061030460048036038101906102ff9190612545565b610cc0565b005b34801561031257600080fd5b5061032d600480360381019061032891906126ba565b610ccf565b005b610349600480360381019061034491906127de565b610d31565b60405161035691906124fe565b60405180910390f35b34801561036b57600080fd5b50610386600480360381019061038191906121e0565b610db0565b6040516103939190612188565b60405180910390f35b3480156103a857600080fd5b506103c360048036038101906103be9190612827565b610f02565b6040516103d091906120d4565b60405180910390f35b60007f80ac58cd000000000000000000000000000000000000000000000000000000007bffffffffffffffffffffffffffffffffffffffffffffffffffffffff1916827bffffffffffffffffffffffffffffffffffffffffffffffffffffffff191614806104a457507f5b5e139f000000000000000000000000000000000000000000000000000000007bffffffffffffffffffffffffffffffffffffffffffffffffffffffff1916827bffffffffffffffffffffffffffffffffffffffffffffffffffffffff1916145b806104b457506104b382610f96565b5b9050919050565b6060600080546104ca90612896565b80601f01602080910402602001604051908101604052809291908181526020018280546104f690612896565b80156105435780601f1061051857610100808354040283529160200191610543565b820191906000526020600020905b81548152906001019060200180831161052657829003601f168201915b5050505050905090565b600061055882611000565b610597576040517f08c379a000000000000000000000000000000000000000000000000000000000815260040161058e9061293a565b60405180910390fd5b6004600083815260200190815260200160002060009054906101000a900473ffffffffffffffffffffffffffffffffffffffff169050919050565b60006105dd82610ac4565b90508073ffffffffffffffffffffffffffffffffffffffff168373ffffffffffffffffffffffffffffffffffffffff16141561064e576040517f08c379a0000000000000000000000000000000000000000000000000000000008152600401610645906129cc565b60405180910390fd5b8073ffffffffffffffffffffffffffffffffffffffff1661066d61106c565b73ffffffffffffffffffffffffffffffffffffffff16148061069c575061069b8161069661106c565b610f02565b5b6106db576040517f08c379a00000000000000000000000000000000000000000000000000000000081526004016106d290612a5e565b60405180910390fd5b6106e58383611074565b505050565b606060006106f8600861112d565b905060008060005b838110156107a1573373ffffffffffffffffffffffffffffffffffffffff16600a60006001846107309190612aad565b815260200190815260200160002060030160009054906101000a900473ffffffffffffffffffffffffffffffffffffffff1673ffffffffffffffffffffffffffffffffffffffff16141561078e5760018361078b9190612aad565b92505b808061079990612b03565b915050610700565b5060008267ffffffffffffffff8111156107be576107bd61258f565b5b6040519080825280602002602001820160405280156107f757816020015b6107e4611f03565b8152602001906001900390816107dc5790505b50905060005b84811015610a39573373ffffffffffffffffffffffffffffffffffffffff16600a600060018461082d9190612aad565b815260200190815260200160002060030160009054906101000a900473ffffffffffffffffffffffffffffffffffffffff1673ffffffffffffffffffffffffffffffffffffffff161415610a26576000600a600060018461088e9190612aad565b81526020019081526020016000206000015490506000600a60008381526020019081526020016000209050806040518060c0016040529081600082015481526020016001820160009054906101000a900473ffffffffffffffffffffffffffffffffffffffff1673ffffffffffffffffffffffffffffffffffffffff1673ffffffffffffffffffffffffffffffffffffffff168152602001600282015481526020016003820160009054906101000a900473ffffffffffffffffffffffffffffffffffffffff1673ffffffffffffffffffffffffffffffffffffffff1673ffffffffffffffffffffffffffffffffffffffff1681526020016004820160009054906101000a900473ffffffffffffffffffffffffffffffffffffffff1673ffffffffffffffffffffffffffffffffffffffff1673ffffffffffffffffffffffffffffffffffffffff1681526020016004820160149054906101000a900460ff161515151581525050848681518110610a0957610a08612b4c565b5b6020026020010181905250600185610a219190612aad565b945050505b8080610a3190612b03565b9150506107fd565b508094505050505090565b610a55610a4f61106c565b8261113b565b610a94576040517f08c379a0000000000000000000000000000000000000000000000000000000008152600401610a8b90612bed565b60405180910390fd5b610a9f838383611219565b505050565b610abf83838360405180602001604052806000815250610ccf565b505050565b6000806002600084815260200190815260200160002060009054906101000a900473ffffffffffffffffffffffffffffffffffffffff169050600073ffffffffffffffffffffffffffffffffffffffff168173ffffffffffffffffffffffffffffffffffffffff161415610b6d576040517f08c379a0000000000000000000000000000000000000000000000000000000008152600401610b6490612c7f565b60405180910390fd5b80915050919050565b60008073ffffffffffffffffffffffffffffffffffffffff168273ffffffffffffffffffffffffffffffffffffffff161415610be7576040517f08c379a0000000000000000000000000000000000000000000000000000000008152600401610bde90612d11565b60405180910390fd5b600360008373ffffffffffffffffffffffffffffffffffffffff1673ffffffffffffffffffffffffffffffffffffffff168152602001908152602001600020549050919050565b606060018054610c3d90612896565b80601f0160208091040260200160405190810160405280929190818152602001828054610c6990612896565b8015610cb65780601f10610c8b57610100808354040283529160200191610cb6565b820191906000526020600020905b815481529060010190602001808311610c9957829003601f168201915b5050505050905090565b610ccb328383611480565b5050565b610ce0610cda61106c565b8361113b565b610d1f576040517f08c379a0000000000000000000000000000000000000000000000000000000008152600401610d1690612bed565b60405180910390fd5b610d2b848484846115ed565b50505050565b6000610d3d6007611649565b6000610d49600761112d565b9050610d55338261165f565b610d5f8184611839565b610d68816118ad565b610da76040518060400160405280600881526020017f546f6b656e20496400000000000000000000000000000000000000000000000081525082611a5b565b80915050919050565b6060610dbb82611000565b610dfa576040517f08c379a0000000000000000000000000000000000000000000000000000000008152600401610df190612da3565b60405180910390fd5b6000600660008481526020019081526020016000208054610e1a90612896565b80601f0160208091040260200160405190810160405280929190818152602001828054610e4690612896565b8015610e935780601f10610e6857610100808354040283529160200191610e93565b820191906000526020600020905b815481529060010190602001808311610e7657829003601f168201915b505050505090506000610ea4611af7565b9050600081511415610eba578192505050610efd565b600082511115610eef578082604051602001610ed7929190612dff565b60405160208183030381529060405292505050610efd565b610ef884611b0e565b925050505b919050565b6000600560008473ffffffffffffffffffffffffffffffffffffffff1673ffffffffffffffffffffffffffffffffffffffff16815260200190815260200160002060008373ffffffffffffffffffffffffffffffffffffffff1673ffffffffffffffffffffffffffffffffffffffff16815260200190815260200160002060009054906101000a900460ff16905092915050565b60007f01ffc9a7000000000000000000000000000000000000000000000000000000007bffffffffffffffffffffffffffffffffffffffffffffffffffffffff1916827bffffffffffffffffffffffffffffffffffffffffffffffffffffffff1916149050919050565b60008073ffffffffffffffffffffffffffffffffffffffff166002600084815260200190815260200160002060009054906101000a900473ffffffffffffffffffffffffffffffffffffffff1673ffffffffffffffffffffffffffffffffffffffff1614159050919050565b600033905090565b816004600083815260200190815260200160002060006101000a81548173ffffffffffffffffffffffffffffffffffffffff021916908373ffffffffffffffffffffffffffffffffffffffff160217905550808273ffffffffffffffffffffffffffffffffffffffff166110e783610ac4565b73ffffffffffffffffffffffffffffffffffffffff167f8c5be1e5ebec7d5bd14f71427d1e84f3dd0314c0f7b2291e5b200ac8c7c3b92560405160405180910390a45050565b600081600001549050919050565b600061114682611000565b611185576040517f08c379a000000000000000000000000000000000000000000000000000000000815260040161117c90612e95565b60405180910390fd5b600061119083610ac4565b90508073ffffffffffffffffffffffffffffffffffffffff168473ffffffffffffffffffffffffffffffffffffffff1614806111d257506111d18185610f02565b5b8061121057508373ffffffffffffffffffffffffffffffffffffffff166111f88461054d565b73ffffffffffffffffffffffffffffffffffffffff16145b91505092915050565b8273ffffffffffffffffffffffffffffffffffffffff1661123982610ac4565b73ffffffffffffffffffffffffffffffffffffffff161461128f576040517f08c379a000000000000000000000000000000000000000000000000000000000815260040161128690612f27565b60405180910390fd5b600073ffffffffffffffffffffffffffffffffffffffff168273ffffffffffffffffffffffffffffffffffffffff1614156112ff576040517f08c379a00000000000000000000000000000000000000000000000000000000081526004016112f690612fb9565b60405180910390fd5b61130a838383611bb5565b611315600082611074565b6001600360008573ffffffffffffffffffffffffffffffffffffffff1673ffffffffffffffffffffffffffffffffffffffff16815260200190815260200160002060008282546113659190612fd9565b925050819055506001600360008473ffffffffffffffffffffffffffffffffffffffff1673ffffffffffffffffffffffffffffffffffffffff16815260200190815260200160002060008282546113bc9190612aad565b92505081905550816002600083815260200190815260200160002060006101000a81548173ffffffffffffffffffffffffffffffffffffffff021916908373ffffffffffffffffffffffffffffffffffffffff160217905550808273ffffffffffffffffffffffffffffffffffffffff168473ffffffffffffffffffffffffffffffffffffffff167fddf252ad1be2c89b69c2b068fc378daa952ba7f163c4a11628f55a4df523b3ef60405160405180910390a461147b838383611bba565b505050565b8173ffffffffffffffffffffffffffffffffffffffff168373ffffffffffffffffffffffffffffffffffffffff1614156114ef576040517f08c379a00000000000000000000000000000000000000000000000000000000081526004016114e690613059565b60405180910390fd5b80600560008573ffffffffffffffffffffffffffffffffffffffff1673ffffffffffffffffffffffffffffffffffffffff16815260200190815260200160002060008473ffffffffffffffffffffffffffffffffffffffff1673ffffffffffffffffffffffffffffffffffffffff16815260200190815260200160002060006101000a81548160ff0219169083151502179055508173ffffffffffffffffffffffffffffffffffffffff168373ffffffffffffffffffffffffffffffffffffffff167f17307eab39ab6107e8899845ad3d59bd9653f200f220920489ca2b5937696c31836040516115e091906120d4565b60405180910390a3505050565b6115f8848484611219565b61160484848484611bbf565b611643576040517f08c379a000000000000000000000000000000000000000000000000000000000815260040161163a906130eb565b60405180910390fd5b50505050565b6001816000016000828254019250508190555050565b600073ffffffffffffffffffffffffffffffffffffffff168273ffffffffffffffffffffffffffffffffffffffff1614156116cf576040517f08c379a00000000000000000000000000000000000000000000000000000000081526004016116c690613157565b60405180910390fd5b6116d881611000565b15611718576040517f08c379a000000000000000000000000000000000000000000000000000000000815260040161170f906131c3565b60405180910390fd5b61172460008383611bb5565b6001600360008473ffffffffffffffffffffffffffffffffffffffff1673ffffffffffffffffffffffffffffffffffffffff16815260200190815260200160002060008282546117749190612aad565b92505081905550816002600083815260200190815260200160002060006101000a81548173ffffffffffffffffffffffffffffffffffffffff021916908373ffffffffffffffffffffffffffffffffffffffff160217905550808273ffffffffffffffffffffffffffffffffffffffff16600073ffffffffffffffffffffffffffffffffffffffff167fddf252ad1be2c89b69c2b068fc378daa952ba7f163c4a11628f55a4df523b3ef60405160405180910390a461183560008383611bba565b5050565b61184282611000565b611881576040517f08c379a000000000000000000000000000000000000000000000000000000000815260040161187890613255565b60405180910390fd5b806006600084815260200190815260200160002090805190602001906118a8929190611f7d565b505050565b6118b76008611649565b60006118c3600861112d565b90506040518060c001604052808281526020013073ffffffffffffffffffffffffffffffffffffffff1681526020018381526020013373ffffffffffffffffffffffffffffffffffffffff168152602001600073ffffffffffffffffffffffffffffffffffffffff16815260200160001515815250600a60008381526020019081526020016000206000820151816000015560208201518160010160006101000a81548173ffffffffffffffffffffffffffffffffffffffff021916908373ffffffffffffffffffffffffffffffffffffffff1602179055506040820151816002015560608201518160030160006101000a81548173ffffffffffffffffffffffffffffffffffffffff021916908373ffffffffffffffffffffffffffffffffffffffff16021790555060808201518160040160006101000a81548173ffffffffffffffffffffffffffffffffffffffff021916908373ffffffffffffffffffffffffffffffffffffffff16021790555060a08201518160040160146101000a81548160ff0219169083151502179055509050505050565b611af38282604051602401611a71929190613275565b6040516020818303038152906040527f9710a9d0000000000000000000000000000000000000000000000000000000007bffffffffffffffffffffffffffffffffffffffffffffffffffffffff19166020820180517bffffffffffffffffffffffffffffffffffffffffffffffffffffffff8381831617835250505050611d56565b5050565b606060405180602001604052806000815250905090565b6060611b1982611000565b611b58576040517f08c379a0000000000000000000000000000000000000000000000000000000008152600401611b4f90613317565b60405180910390fd5b6000611b62611af7565b90506000815111611b825760405180602001604052806000815250611bad565b80611b8c84611d7f565b604051602001611b9d929190612dff565b6040516020818303038152906040525b915050919050565b505050565b505050565b6000611be08473ffffffffffffffffffffffffffffffffffffffff16611ee0565b15611d49578373ffffffffffffffffffffffffffffffffffffffff1663150b7a02611c0961106c565b8786866040518563ffffffff1660e01b8152600401611c2b949392919061338c565b602060405180830381600087803b158015611c4557600080fd5b505af1925050508015611c7657506040513d601f19601f82011682018060405250810190611c7391906133ed565b60015b611cf9573d8060008114611ca6576040519150601f19603f3d011682016040523d82523d6000602084013e611cab565b606091505b50600081511415611cf1576040517f08c379a0000000000000000000000000000000000000000000000000000000008152600401611ce8906130eb565b60405180910390fd5b805181602001fd5b63150b7a0260e01b7bffffffffffffffffffffffffffffffffffffffffffffffffffffffff1916817bffffffffffffffffffffffffffffffffffffffffffffffffffffffff191614915050611d4e565b600190505b949350505050565b60008151905060006a636f6e736f6c652e6c6f679050602083016000808483855afa5050505050565b60606000821415611dc7576040518060400160405280600181526020017f30000000000000000000000000000000000000000000000000000000000000008152509050611edb565b600082905060005b60008214611df9578080611de290612b03565b915050600a82611df29190613449565b9150611dcf565b60008167ffffffffffffffff811115611e1557611e1461258f565b5b6040519080825280601f01601f191660200182016040528015611e475781602001600182028036833780820191505090505b5090505b60008514611ed457600182611e609190612fd9565b9150600a85611e6f919061347a565b6030611e7b9190612aad565b60f81b818381518110611e9157611e90612b4c565b5b60200101907effffffffffffffffffffffffffffffffffffffffffffffffffffffffffffff1916908160001a905350600a85611ecd9190613449565b9450611e4b565b8093505050505b919050565b6000808273ffffffffffffffffffffffffffffffffffffffff163b119050919050565b6040518060c0016040528060008152602001600073ffffffffffffffffffffffffffffffffffffffff16815260200160008152602001600073ffffffffffffffffffffffffffffffffffffffff168152602001600073ffffffffffffffffffffffffffffffffffffffff1681526020016000151581525090565b828054611f8990612896565b90600052602060002090601f016020900481019282611fab5760008555611ff2565b82601f10611fc457805160ff1916838001178555611ff2565b82800160010185558215611ff2579182015b82811115611ff1578251825591602001919060010190611fd6565b5b509050611fff9190612003565b5090565b5b8082111561201c576000816000905550600101612004565b5090565b6000604051905090565b600080fd5b600080fd5b60007fffffffff0000000000000000000000000000000000000000000000000000000082169050919050565b61206981612034565b811461207457600080fd5b50565b60008135905061208681612060565b92915050565b6000602082840312156120a2576120a161202a565b5b60006120b084828501612077565b91505092915050565b60008115159050919050565b6120ce816120b9565b82525050565b60006020820190506120e960008301846120c5565b92915050565b600081519050919050565b600082825260208201905092915050565b60005b8381101561212957808201518184015260208101905061210e565b83811115612138576000848401525b50505050565b6000601f19601f8301169050919050565b600061215a826120ef565b61216481856120fa565b935061217481856020860161210b565b61217d8161213e565b840191505092915050565b600060208201905081810360008301526121a2818461214f565b905092915050565b6000819050919050565b6121bd816121aa565b81146121c857600080fd5b50565b6000813590506121da816121b4565b92915050565b6000602082840312156121f6576121f561202a565b5b6000612204848285016121cb565b91505092915050565b600073ffffffffffffffffffffffffffffffffffffffff82169050919050565b60006122388261220d565b9050919050565b6122488161222d565b82525050565b6000602082019050612263600083018461223f565b92915050565b6122728161222d565b811461227d57600080fd5b50565b60008135905061228f81612269565b92915050565b600080604083850312156122ac576122ab61202a565b5b60006122ba85828601612280565b92505060206122cb858286016121cb565b9150509250929050565b600081519050919050565b600082825260208201905092915050565b6000819050602082019050919050565b61230a816121aa565b82525050565b6123198161222d565b82525050565b600061232a8261220d565b9050919050565b61233a8161231f565b82525050565b612349816120b9565b82525050565b60c0820160008201516123656000850182612301565b5060208201516123786020850182612310565b50604082015161238b6040850182612301565b50606082015161239e6060850182612331565b5060808201516123b16080850182612331565b5060a08201516123c460a0850182612340565b50505050565b60006123d6838361234f565b60c08301905092915050565b6000602082019050919050565b60006123fa826122d5565b61240481856122e0565b935061240f836122f1565b8060005b8381101561244057815161242788826123ca565b9750612432836123e2565b925050600181019050612413565b5085935050505092915050565b6000602082019050818103600083015261246781846123ef565b905092915050565b6000806000606084860312156124885761248761202a565b5b600061249686828701612280565b93505060206124a786828701612280565b92505060406124b8868287016121cb565b9150509250925092565b6000602082840312156124d8576124d761202a565b5b60006124e684828501612280565b91505092915050565b6124f8816121aa565b82525050565b600060208201905061251360008301846124ef565b92915050565b612522816120b9565b811461252d57600080fd5b50565b60008135905061253f81612519565b92915050565b6000806040838503121561255c5761255b61202a565b5b600061256a85828601612280565b925050602061257b85828601612530565b9150509250929050565b600080fd5b600080fd5b7f4e487b7100000000000000000000000000000000000000000000000000000000600052604160045260246000fd5b6125c78261213e565b810181811067ffffffffffffffff821117156125e6576125e561258f565b5b80604052505050565b60006125f9612020565b905061260582826125be565b919050565b600067ffffffffffffffff8211156126255761262461258f565b5b61262e8261213e565b9050602081019050919050565b82818337600083830152505050565b600061265d6126588461260a565b6125ef565b9050828152602081018484840111156126795761267861258a565b5b61268484828561263b565b509392505050565b600082601f8301126126a1576126a0612585565b5b81356126b184826020860161264a565b91505092915050565b600080600080608085870312156126d4576126d361202a565b5b60006126e287828801612280565b94505060206126f387828801612280565b9350506040612704878288016121cb565b925050606085013567ffffffffffffffff8111156127255761272461202f565b5b6127318782880161268c565b91505092959194509250565b600067ffffffffffffffff8211156127585761275761258f565b5b6127618261213e565b9050602081019050919050565b600061278161277c8461273d565b6125ef565b90508281526020810184848401111561279d5761279c61258a565b5b6127a884828561263b565b509392505050565b600082601f8301126127c5576127c4612585565b5b81356127d584826020860161276e565b91505092915050565b6000602082840312156127f4576127f361202a565b5b600082013567ffffffffffffffff8111156128125761281161202f565b5b61281e848285016127b0565b91505092915050565b6000806040838503121561283e5761283d61202a565b5b600061284c85828601612280565b925050602061285d85828601612280565b9150509250929050565b7f4e487b7100000000000000000000000000000000000000000000000000000000600052602260045260246000fd5b600060028204905060018216806128ae57607f821691505b602082108114156128c2576128c1612867565b5b50919050565b7f4552433732313a20617070726f76656420717565727920666f72206e6f6e657860008201527f697374656e7420746f6b656e0000000000000000000000000000000000000000602082015250565b6000612924602c836120fa565b915061292f826128c8565b604082019050919050565b6000602082019050818103600083015261295381612917565b9050919050565b7f4552433732313a20617070726f76616c20746f2063757272656e74206f776e6560008201527f7200000000000000000000000000000000000000000000000000000000000000602082015250565b60006129b66021836120fa565b91506129c18261295a565b604082019050919050565b600060208201905081810360008301526129e5816129a9565b9050919050565b7f4552433732313a20617070726f76652063616c6c6572206973206e6f74206f7760008201527f6e6572206e6f7220617070726f76656420666f7220616c6c0000000000000000602082015250565b6000612a486038836120fa565b9150612a53826129ec565b604082019050919050565b60006020820190508181036000830152612a7781612a3b565b9050919050565b7f4e487b7100000000000000000000000000000000000000000000000000000000600052601160045260246000fd5b6000612ab8826121aa565b9150612ac3836121aa565b9250827fffffffffffffffffffffffffffffffffffffffffffffffffffffffffffffffff03821115612af857612af7612a7e565b5b828201905092915050565b6000612b0e826121aa565b91507fffffffffffffffffffffffffffffffffffffffffffffffffffffffffffffffff821415612b4157612b40612a7e565b5b600182019050919050565b7f4e487b7100000000000000000000000000000000000000000000000000000000600052603260045260246000fd5b7f4552433732313a207472616e736665722063616c6c6572206973206e6f74206f60008201527f776e6572206e6f7220617070726f766564000000000000000000000000000000602082015250565b6000612bd76031836120fa565b9150612be282612b7b565b604082019050919050565b60006020820190508181036000830152612c0681612bca565b9050919050565b7f4552433732313a206f776e657220717565727920666f72206e6f6e657869737460008201527f656e7420746f6b656e0000000000000000000000000000000000000000000000602082015250565b6000612c696029836120fa565b9150612c7482612c0d565b604082019050919050565b60006020820190508181036000830152612c9881612c5c565b9050919050565b7f4552433732313a2062616c616e636520717565727920666f7220746865207a6560008201527f726f206164647265737300000000000000000000000000000000000000000000602082015250565b6000612cfb602a836120fa565b9150612d0682612c9f565b604082019050919050565b60006020820190508181036000830152612d2a81612cee565b9050919050565b7f45524337323155524953746f726167653a2055524920717565727920666f722060008201527f6e6f6e6578697374656e7420746f6b656e000000000000000000000000000000602082015250565b6000612d8d6031836120fa565b9150612d9882612d31565b604082019050919050565b60006020820190508181036000830152612dbc81612d80565b9050919050565b600081905092915050565b6000612dd9826120ef565b612de38185612dc3565b9350612df381856020860161210b565b80840191505092915050565b6000612e0b8285612dce565b9150612e178284612dce565b91508190509392505050565b7f4552433732313a206f70657261746f7220717565727920666f72206e6f6e657860008201527f697374656e7420746f6b656e0000000000000000000000000000000000000000602082015250565b6000612e7f602c836120fa565b9150612e8a82612e23565b604082019050919050565b60006020820190508181036000830152612eae81612e72565b9050919050565b7f4552433732313a207472616e736665722066726f6d20696e636f72726563742060008201527f6f776e6572000000000000000000000000000000000000000000000000000000602082015250565b6000612f116025836120fa565b9150612f1c82612eb5565b604082019050919050565b60006020820190508181036000830152612f4081612f04565b9050919050565b7f4552433732313a207472616e7366657220746f20746865207a65726f2061646460008201527f7265737300000000000000000000000000000000000000000000000000000000602082015250565b6000612fa36024836120fa565b9150612fae82612f47565b604082019050919050565b60006020820190508181036000830152612fd281612f96565b9050919050565b6000612fe4826121aa565b9150612fef836121aa565b92508282101561300257613001612a7e565b5b828203905092915050565b7f4552433732313a20617070726f766520746f2063616c6c657200000000000000600082015250565b60006130436019836120fa565b915061304e8261300d565b602082019050919050565b6000602082019050818103600083015261307281613036565b9050919050565b7f4552433732313a207472616e7366657220746f206e6f6e20455243373231526560008201527f63656976657220696d706c656d656e7465720000000000000000000000000000602082015250565b60006130d56032836120fa565b91506130e082613079565b604082019050919050565b60006020820190508181036000830152613104816130c8565b9050919050565b7f4552433732313a206d696e7420746f20746865207a65726f2061646472657373600082015250565b60006131416020836120fa565b915061314c8261310b565b602082019050919050565b6000602082019050818103600083015261317081613134565b9050919050565b7f4552433732313a20746f6b656e20616c7265616479206d696e74656400000000600082015250565b60006131ad601c836120fa565b91506131b882613177565b602082019050919050565b600060208201905081810360008301526131dc816131a0565b9050919050565b7f45524337323155524953746f726167653a2055524920736574206f66206e6f6e60008201527f6578697374656e7420746f6b656e000000000000000000000000000000000000602082015250565b600061323f602e836120fa565b915061324a826131e3565b604082019050919050565b6000602082019050818103600083015261326e81613232565b9050919050565b6000604082019050818103600083015261328f818561214f565b905061329e60208301846124ef565b9392505050565b7f4552433732314d657461646174613a2055524920717565727920666f72206e6f60008201527f6e6578697374656e7420746f6b656e0000000000000000000000000000000000602082015250565b6000613301602f836120fa565b915061330c826132a5565b604082019050919050565b60006020820190508181036000830152613330816132f4565b9050919050565b600081519050919050565b600082825260208201905092915050565b600061335e82613337565b6133688185613342565b935061337881856020860161210b565b6133818161213e565b840191505092915050565b60006080820190506133a1600083018761223f565b6133ae602083018661223f565b6133bb60408301856124ef565b81810360608301526133cd8184613353565b905095945050505050565b6000815190506133e781612060565b92915050565b6000602082840312156134035761340261202a565b5b6000613411848285016133d8565b91505092915050565b7f4e487b7100000000000000000000000000000000000000000000000000000000600052601260045260246000fd5b6000613454826121aa565b915061345f836121aa565b92508261346f5761346e61341a565b5b828204905092915050565b6000613485826121aa565b9150613490836121aa565b9250826134a05761349f61341a565b5b82820690509291505056fea26469706673582212202527773b5825f19ece5addbef71a369dca503b89be0fb3aee2944c2b75737bb064736f6c63430008090033",
  "linkReferences": {},
  "deployedLinkReferences": {}
}