{
  "_format": "hh-sol-artifact-1",
  "contractName": "NFT",
  "sourceName": "contracts/NFT.sol",
  "abi": [
    {
      "inputs": [
        {
          "internalType": "address",
          "name": "marketPlcaeAddress_",
          "type": "address"
        }
      ],
      "stateMutability": "nonpayable",
      "type": "constructor"
    },
    {
      "anonymous": false,
      "inputs": [
        {
          "indexed": true,
          "internalType": "address",
          "name": "owner",
          "type": "address"
        },
        {
          "indexed": true,
          "internalType": "address",
          "name": "approved",
          "type": "address"
        },
        {
          "indexed": true,
          "internalType": "uint256",
          "name": "tokenId",
          "type": "uint256"
        }
      ],
      "name": "Approval",
      "type": "event"
    },
    {
      "anonymous": false,
      "inputs": [
        {
          "indexed": true,
          "internalType": "address",
          "name": "owner",
          "type": "address"
        },
        {
          "indexed": true,
          "internalType": "address",
          "name": "operator",
          "type": "address"
        },
        {
          "indexed": false,
          "internalType": "bool",
          "name": "approved",
          "type": "bool"
        }
      ],
      "name": "ApprovalForAll",
      "type": "event"
    },
    {
      "anonymous": false,
      "inputs": [
        {
          "indexed": true,
          "internalType": "address",
          "name": "from",
          "type": "address"
        },
        {
          "indexed": true,
          "internalType": "address",
          "name": "to",
          "type": "address"
        },
        {
          "indexed": true,
          "internalType": "uint256",
          "name": "tokenId",
          "type": "uint256"
        }
      ],
      "name": "Transfer",
      "type": "event"
    },
    {
      "inputs": [
        {
          "internalType": "address",
          "name": "to",
          "type": "address"
        },
        {
          "internalType": "uint256",
          "name": "tokenId",
          "type": "uint256"
        }
      ],
      "name": "approve",
      "outputs": [],
      "stateMutability": "nonpayable",
      "type": "function"
    },
    {
      "inputs": [
        {
          "internalType": "address",
          "name": "owner",
          "type": "address"
        }
      ],
      "name": "balanceOf",
      "outputs": [
        {
          "internalType": "uint256",
          "name": "",
          "type": "uint256"
        }
      ],
      "stateMutability": "view",
      "type": "function"
    },
    {
      "inputs": [
        {
          "internalType": "string",
          "name": "tokenURI_",
          "type": "string"
        },
        {
          "internalType": "uint256",
          "name": "price",
          "type": "uint256"
        }
      ],
      "name": "createNewToken",
      "outputs": [
        {
          "internalType": "uint256",
          "name": "",
          "type": "uint256"
        }
      ],
      "stateMutability": "payable",
      "type": "function"
    },
    {
      "inputs": [
        {
          "internalType": "uint256",
          "name": "tokenId",
          "type": "uint256"
        }
      ],
      "name": "getApproved",
      "outputs": [
        {
          "internalType": "address",
          "name": "",
          "type": "address"
        }
      ],
      "stateMutability": "view",
      "type": "function"
    },
    {
      "inputs": [],
      "name": "getMintedNFT",
      "outputs": [
        {
          "components": [
            {
              "internalType": "uint256",
              "name": "itemId",
              "type": "uint256"
            },
            {
              "internalType": "address",
              "name": "nftContract",
              "type": "address"
            },
            {
              "internalType": "uint256",
              "name": "tokenId",
              "type": "uint256"
            },
            {
              "internalType": "address payable",
              "name": "seller",
              "type": "address"
            },
            {
              "internalType": "address payable",
              "name": "owner",
              "type": "address"
            },
            {
              "internalType": "uint256",
              "name": "price",
              "type": "uint256"
            },
            {
              "internalType": "bool",
              "name": "sold",
              "type": "bool"
            }
          ],
          "internalType": "struct NFT.MintedItem[]",
          "name": "",
          "type": "tuple[]"
        }
      ],
      "stateMutability": "view",
      "type": "function"
    },
    {
      "inputs": [
        {
          "internalType": "address",
          "name": "owner",
          "type": "address"
        },
        {
          "internalType": "address",
          "name": "operator",
          "type": "address"
        }
      ],
      "name": "isApprovedForAll",
      "outputs": [
        {
          "internalType": "bool",
          "name": "",
          "type": "bool"
        }
      ],
      "stateMutability": "view",
      "type": "function"
    },
    {
      "inputs": [],
      "name": "name",
      "outputs": [
        {
          "internalType": "string",
          "name": "",
          "type": "string"
        }
      ],
      "stateMutability": "view",
      "type": "function"
    },
    {
      "inputs": [
        {
          "internalType": "uint256",
          "name": "tokenId",
          "type": "uint256"
        }
      ],
      "name": "ownerOf",
      "outputs": [
        {
          "internalType": "address",
          "name": "",
          "type": "address"
        }
      ],
      "stateMutability": "view",
      "type": "function"
    },
    {
      "inputs": [
        {
          "internalType": "address",
          "name": "from",
          "type": "address"
        },
        {
          "internalType": "address",
          "name": "to",
          "type": "address"
        },
        {
          "internalType": "uint256",
          "name": "tokenId",
          "type": "uint256"
        }
      ],
      "name": "safeTransferFrom",
      "outputs": [],
      "stateMutability": "nonpayable",
      "type": "function"
    },
    {
      "inputs": [
        {
          "internalType": "address",
          "name": "from",
          "type": "address"
        },
        {
          "internalType": "address",
          "name": "to",
          "type": "address"
        },
        {
          "internalType": "uint256",
          "name": "tokenId",
          "type": "uint256"
        },
        {
          "internalType": "bytes",
          "name": "_data",
          "type": "bytes"
        }
      ],
      "name": "safeTransferFrom",
      "outputs": [],
      "stateMutability": "nonpayable",
      "type": "function"
    },
    {
      "inputs": [
        {
          "internalType": "address",
          "name": "operator",
          "type": "address"
        },
        {
          "internalType": "bool",
          "name": "approved",
          "type": "bool"
        }
      ],
      "name": "setApprovalForAll",
      "outputs": [],
      "stateMutability": "nonpayable",
      "type": "function"
    },
    {
      "inputs": [
        {
          "internalType": "bytes4",
          "name": "interfaceId",
          "type": "bytes4"
        }
      ],
      "name": "supportsInterface",
      "outputs": [
        {
          "internalType": "bool",
          "name": "",
          "type": "bool"
        }
      ],
      "stateMutability": "view",
      "type": "function"
    },
    {
      "inputs": [],
      "name": "symbol",
      "outputs": [
        {
          "internalType": "string",
          "name": "",
          "type": "string"
        }
      ],
      "stateMutability": "view",
      "type": "function"
    },
    {
      "inputs": [
        {
          "internalType": "uint256",
          "name": "tokenId",
          "type": "uint256"
        }
      ],
      "name": "tokenURI",
      "outputs": [
        {
          "internalType": "string",
          "name": "",
          "type": "string"
        }
      ],
      "stateMutability": "view",
      "type": "function"
    },
    {
      "inputs": [
        {
          "internalType": "address",
          "name": "from",
          "type": "address"
        },
        {
          "internalType": "address",
          "name": "to",
          "type": "address"
        },
        {
          "internalType": "uint256",
          "name": "tokenId",
          "type": "uint256"
        }
      ],
      "name": "transferFrom",
      "outputs": [],
      "stateMutability": "nonpayable",
      "type": "function"
    }
  ],
  "bytecode": "0x60806040523480156200001157600080fd5b50604051620036fc380380620036fc833981810160405281019062000037919062000239565b6040518060400160405280600f81526020017f4e4654204d61726b6574506c61636500000000000000000000000000000000008152506040518060400160405280600581526020017f53756e6e790000000000000000000000000000000000000000000000000000008152508160009080519060200190620000bb9291906200011f565b508060019080519060200190620000d49291906200011f565b50505080600960006101000a81548173ffffffffffffffffffffffffffffffffffffffff021916908373ffffffffffffffffffffffffffffffffffffffff16021790555050620002d0565b8280546200012d906200029a565b90600052602060002090601f0160209004810192826200015157600085556200019d565b82601f106200016c57805160ff19168380011785556200019d565b828001600101855582156200019d579182015b828111156200019c5782518255916020019190600101906200017f565b5b509050620001ac9190620001b0565b5090565b5b80821115620001cb576000816000905550600101620001b1565b5090565b600080fd5b600073ffffffffffffffffffffffffffffffffffffffff82169050919050565b60006200020182620001d4565b9050919050565b6200021381620001f4565b81146200021f57600080fd5b50565b600081519050620002338162000208565b92915050565b600060208284031215620002525762000251620001cf565b5b6000620002628482850162000222565b91505092915050565b7f4e487b7100000000000000000000000000000000000000000000000000000000600052602260045260246000fd5b60006002820490506001821680620002b357607f821691505b60208210811415620002ca57620002c96200026b565b5b50919050565b61341c80620002e06000396000f3fe6080604052600436106100e85760003560e01c806342842e0e1161008a578063a22cb46511610059578063a22cb4651461030d578063b88d4fde14610336578063c87b56dd1461035f578063e985e9c51461039c576100e8565b806342842e0e1461023f5780636352211e1461026857806370a08231146102a557806395d89b41146102e2576100e8565b8063095ea7b3116100c6578063095ea7b3146101925780631bcffe81146101bb5780631dcb7ca0146101e657806323b872dd14610216576100e8565b806301ffc9a7146100ed57806306fdde031461012a578063081812fc14610155575b600080fd5b3480156100f957600080fd5b50610114600480360381019061010f9190611fd1565b6103d9565b6040516101219190612019565b60405180910390f35b34801561013657600080fd5b5061013f6104bb565b60405161014c91906120cd565b60405180910390f35b34801561016157600080fd5b5061017c60048036038101906101779190612125565b61054d565b6040516101899190612193565b60405180910390f35b34801561019e57600080fd5b506101b960048036038101906101b491906121da565b6105d2565b005b3480156101c757600080fd5b506101d06106ea565b6040516101dd91906123a5565b60405180910390f35b61020060048036038101906101fb91906124fc565b610a4e565b60405161020d9190612567565b60405180910390f35b34801561022257600080fd5b5061023d60048036038101906102389190612582565b610abd565b005b34801561024b57600080fd5b5061026660048036038101906102619190612582565b610b1d565b005b34801561027457600080fd5b5061028f600480360381019061028a9190612125565b610b3d565b60405161029c9190612193565b60405180910390f35b3480156102b157600080fd5b506102cc60048036038101906102c791906125d5565b610bef565b6040516102d99190612567565b60405180910390f35b3480156102ee57600080fd5b506102f7610ca7565b60405161030491906120cd565b60405180910390f35b34801561031957600080fd5b50610334600480360381019061032f919061262e565b610d39565b005b34801561034257600080fd5b5061035d6004803603810190610358919061270f565b610d4f565b005b34801561036b57600080fd5b5061038660048036038101906103819190612125565b610db1565b60405161039391906120cd565b60405180910390f35b3480156103a857600080fd5b506103c360048036038101906103be9190612792565b610f03565b6040516103d09190612019565b60405180910390f35b60007f80ac58cd000000000000000000000000000000000000000000000000000000007bffffffffffffffffffffffffffffffffffffffffffffffffffffffff1916827bffffffffffffffffffffffffffffffffffffffffffffffffffffffff191614806104a457507f5b5e139f000000000000000000000000000000000000000000000000000000007bffffffffffffffffffffffffffffffffffffffffffffffffffffffff1916827bffffffffffffffffffffffffffffffffffffffffffffffffffffffff1916145b806104b457506104b382610f97565b5b9050919050565b6060600080546104ca90612801565b80601f01602080910402602001604051908101604052809291908181526020018280546104f690612801565b80156105435780601f1061051857610100808354040283529160200191610543565b820191906000526020600020905b81548152906001019060200180831161052657829003601f168201915b5050505050905090565b600061055882611001565b610597576040517f08c379a000000000000000000000000000000000000000000000000000000000815260040161058e906128a5565b60405180910390fd5b6004600083815260200190815260200160002060009054906101000a900473ffffffffffffffffffffffffffffffffffffffff169050919050565b60006105dd82610b3d565b90508073ffffffffffffffffffffffffffffffffffffffff168373ffffffffffffffffffffffffffffffffffffffff16141561064e576040517f08c379a000000000000000000000000000000000000000000000000000000000815260040161064590612937565b60405180910390fd5b8073ffffffffffffffffffffffffffffffffffffffff1661066d61106d565b73ffffffffffffffffffffffffffffffffffffffff16148061069c575061069b8161069661106d565b610f03565b5b6106db576040517f08c379a00000000000000000000000000000000000000000000000000000000081526004016106d2906129c9565b60405180910390fd5b6106e58383611075565b505050565b606060006106f8600861112e565b905060008060005b838110156107a1573373ffffffffffffffffffffffffffffffffffffffff16600a60006001846107309190612a18565b815260200190815260200160002060030160009054906101000a900473ffffffffffffffffffffffffffffffffffffffff1673ffffffffffffffffffffffffffffffffffffffff16141561078e5760018361078b9190612a18565b92505b808061079990612a6e565b915050610700565b5060008267ffffffffffffffff8111156107be576107bd6123d1565b5b6040519080825280602002602001820160405280156107f757816020015b6107e4611e41565b8152602001906001900390816107dc5790505b50905060005b84811015610a43573373ffffffffffffffffffffffffffffffffffffffff16600a600060018461082d9190612a18565b815260200190815260200160002060030160009054906101000a900473ffffffffffffffffffffffffffffffffffffffff1673ffffffffffffffffffffffffffffffffffffffff161415610a30576000600a600060018461088e9190612a18565b81526020019081526020016000206000015490506000600a60008381526020019081526020016000209050806040518060e0016040529081600082015481526020016001820160009054906101000a900473ffffffffffffffffffffffffffffffffffffffff1673ffffffffffffffffffffffffffffffffffffffff1673ffffffffffffffffffffffffffffffffffffffff168152602001600282015481526020016003820160009054906101000a900473ffffffffffffffffffffffffffffffffffffffff1673ffffffffffffffffffffffffffffffffffffffff1673ffffffffffffffffffffffffffffffffffffffff1681526020016004820160009054906101000a900473ffffffffffffffffffffffffffffffffffffffff1673ffffffffffffffffffffffffffffffffffffffff1673ffffffffffffffffffffffffffffffffffffffff168152602001600582015481526020016006820160009054906101000a900460ff161515151581525050848681518110610a1357610a12612ab7565b5b6020026020010181905250600185610a2b9190612a18565b945050505b8080610a3b90612a6e565b9150506107fd565b508094505050505090565b6000610a5a600761113c565b6000610a66600761112e565b9050610a723382611152565b610a7c818561132c565b610aa9600960009054906101000a900473ffffffffffffffffffffffffffffffffffffffff166001610d39565b610ab381846113a0565b8091505092915050565b610ace610ac861106d565b8261155f565b610b0d576040517f08c379a0000000000000000000000000000000000000000000000000000000008152600401610b0490612b58565b60405180910390fd5b610b1883838361163d565b505050565b610b3883838360405180602001604052806000815250610d4f565b505050565b6000806002600084815260200190815260200160002060009054906101000a900473ffffffffffffffffffffffffffffffffffffffff169050600073ffffffffffffffffffffffffffffffffffffffff168173ffffffffffffffffffffffffffffffffffffffff161415610be6576040517f08c379a0000000000000000000000000000000000000000000000000000000008152600401610bdd90612bea565b60405180910390fd5b80915050919050565b60008073ffffffffffffffffffffffffffffffffffffffff168273ffffffffffffffffffffffffffffffffffffffff161415610c60576040517f08c379a0000000000000000000000000000000000000000000000000000000008152600401610c5790612c7c565b60405180910390fd5b600360008373ffffffffffffffffffffffffffffffffffffffff1673ffffffffffffffffffffffffffffffffffffffff168152602001908152602001600020549050919050565b606060018054610cb690612801565b80601f0160208091040260200160405190810160405280929190818152602001828054610ce290612801565b8015610d2f5780601f10610d0457610100808354040283529160200191610d2f565b820191906000526020600020905b815481529060010190602001808311610d1257829003601f168201915b5050505050905090565b610d4b610d4461106d565b83836118a4565b5050565b610d60610d5a61106d565b8361155f565b610d9f576040517f08c379a0000000000000000000000000000000000000000000000000000000008152600401610d9690612b58565b60405180910390fd5b610dab84848484611a11565b50505050565b6060610dbc82611001565b610dfb576040517f08c379a0000000000000000000000000000000000000000000000000000000008152600401610df290612d0e565b60405180910390fd5b6000600660008481526020019081526020016000208054610e1b90612801565b80601f0160208091040260200160405190810160405280929190818152602001828054610e4790612801565b8015610e945780601f10610e6957610100808354040283529160200191610e94565b820191906000526020600020905b815481529060010190602001808311610e7757829003601f168201915b505050505090506000610ea5611a6d565b9050600081511415610ebb578192505050610efe565b600082511115610ef0578082604051602001610ed8929190612d6a565b60405160208183030381529060405292505050610efe565b610ef984611a84565b925050505b919050565b6000600560008473ffffffffffffffffffffffffffffffffffffffff1673ffffffffffffffffffffffffffffffffffffffff16815260200190815260200160002060008373ffffffffffffffffffffffffffffffffffffffff1673ffffffffffffffffffffffffffffffffffffffff16815260200190815260200160002060009054906101000a900460ff16905092915050565b60007f01ffc9a7000000000000000000000000000000000000000000000000000000007bffffffffffffffffffffffffffffffffffffffffffffffffffffffff1916827bffffffffffffffffffffffffffffffffffffffffffffffffffffffff1916149050919050565b60008073ffffffffffffffffffffffffffffffffffffffff166002600084815260200190815260200160002060009054906101000a900473ffffffffffffffffffffffffffffffffffffffff1673ffffffffffffffffffffffffffffffffffffffff1614159050919050565b600033905090565b816004600083815260200190815260200160002060006101000a81548173ffffffffffffffffffffffffffffffffffffffff021916908373ffffffffffffffffffffffffffffffffffffffff160217905550808273ffffffffffffffffffffffffffffffffffffffff166110e883610b3d565b73ffffffffffffffffffffffffffffffffffffffff167f8c5be1e5ebec7d5bd14f71427d1e84f3dd0314c0f7b2291e5b200ac8c7c3b92560405160405180910390a45050565b600081600001549050919050565b6001816000016000828254019250508190555050565b600073ffffffffffffffffffffffffffffffffffffffff168273ffffffffffffffffffffffffffffffffffffffff1614156111c2576040517f08c379a00000000000000000000000000000000000000000000000000000000081526004016111b990612dda565b60405180910390fd5b6111cb81611001565b1561120b576040517f08c379a000000000000000000000000000000000000000000000000000000000815260040161120290612e46565b60405180910390fd5b61121760008383611b2b565b6001600360008473ffffffffffffffffffffffffffffffffffffffff1673ffffffffffffffffffffffffffffffffffffffff16815260200190815260200160002060008282546112679190612a18565b92505081905550816002600083815260200190815260200160002060006101000a81548173ffffffffffffffffffffffffffffffffffffffff021916908373ffffffffffffffffffffffffffffffffffffffff160217905550808273ffffffffffffffffffffffffffffffffffffffff16600073ffffffffffffffffffffffffffffffffffffffff167fddf252ad1be2c89b69c2b068fc378daa952ba7f163c4a11628f55a4df523b3ef60405160405180910390a461132860008383611b30565b5050565b61133582611001565b611374576040517f08c379a000000000000000000000000000000000000000000000000000000000815260040161136b90612ed8565b60405180910390fd5b8060066000848152602001908152602001600020908051906020019061139b929190611ec2565b505050565b6113aa600861113c565b60006113b6600861112e565b90506040518060e001604052808281526020013073ffffffffffffffffffffffffffffffffffffffff1681526020018481526020013373ffffffffffffffffffffffffffffffffffffffff168152602001600073ffffffffffffffffffffffffffffffffffffffff16815260200183815260200160001515815250600a60008381526020019081526020016000206000820151816000015560208201518160010160006101000a81548173ffffffffffffffffffffffffffffffffffffffff021916908373ffffffffffffffffffffffffffffffffffffffff1602179055506040820151816002015560608201518160030160006101000a81548173ffffffffffffffffffffffffffffffffffffffff021916908373ffffffffffffffffffffffffffffffffffffffff16021790555060808201518160040160006101000a81548173ffffffffffffffffffffffffffffffffffffffff021916908373ffffffffffffffffffffffffffffffffffffffff16021790555060a0820151816005015560c08201518160060160006101000a81548160ff021916908315150217905550905050505050565b600061156a82611001565b6115a9576040517f08c379a00000000000000000000000000000000000000000000000000000000081526004016115a090612f6a565b60405180910390fd5b60006115b483610b3d565b90508073ffffffffffffffffffffffffffffffffffffffff168473ffffffffffffffffffffffffffffffffffffffff1614806115f657506115f58185610f03565b5b8061163457508373ffffffffffffffffffffffffffffffffffffffff1661161c8461054d565b73ffffffffffffffffffffffffffffffffffffffff16145b91505092915050565b8273ffffffffffffffffffffffffffffffffffffffff1661165d82610b3d565b73ffffffffffffffffffffffffffffffffffffffff16146116b3576040517f08c379a00000000000000000000000000000000000000000000000000000000081526004016116aa90612ffc565b60405180910390fd5b600073ffffffffffffffffffffffffffffffffffffffff168273ffffffffffffffffffffffffffffffffffffffff161415611723576040517f08c379a000000000000000000000000000000000000000000000000000000000815260040161171a9061308e565b60405180910390fd5b61172e838383611b2b565b611739600082611075565b6001600360008573ffffffffffffffffffffffffffffffffffffffff1673ffffffffffffffffffffffffffffffffffffffff168152602001908152602001600020600082825461178991906130ae565b925050819055506001600360008473ffffffffffffffffffffffffffffffffffffffff1673ffffffffffffffffffffffffffffffffffffffff16815260200190815260200160002060008282546117e09190612a18565b92505081905550816002600083815260200190815260200160002060006101000a81548173ffffffffffffffffffffffffffffffffffffffff021916908373ffffffffffffffffffffffffffffffffffffffff160217905550808273ffffffffffffffffffffffffffffffffffffffff168473ffffffffffffffffffffffffffffffffffffffff167fddf252ad1be2c89b69c2b068fc378daa952ba7f163c4a11628f55a4df523b3ef60405160405180910390a461189f838383611b30565b505050565b8173ffffffffffffffffffffffffffffffffffffffff168373ffffffffffffffffffffffffffffffffffffffff161415611913576040517f08c379a000000000000000000000000000000000000000000000000000000000815260040161190a9061312e565b60405180910390fd5b80600560008573ffffffffffffffffffffffffffffffffffffffff1673ffffffffffffffffffffffffffffffffffffffff16815260200190815260200160002060008473ffffffffffffffffffffffffffffffffffffffff1673ffffffffffffffffffffffffffffffffffffffff16815260200190815260200160002060006101000a81548160ff0219169083151502179055508173ffffffffffffffffffffffffffffffffffffffff168373ffffffffffffffffffffffffffffffffffffffff167f17307eab39ab6107e8899845ad3d59bd9653f200f220920489ca2b5937696c3183604051611a049190612019565b60405180910390a3505050565b611a1c84848461163d565b611a2884848484611b35565b611a67576040517f08c379a0000000000000000000000000000000000000000000000000000000008152600401611a5e906131c0565b60405180910390fd5b50505050565b606060405180602001604052806000815250905090565b6060611a8f82611001565b611ace576040517f08c379a0000000000000000000000000000000000000000000000000000000008152600401611ac590613252565b60405180910390fd5b6000611ad8611a6d565b90506000815111611af85760405180602001604052806000815250611b23565b80611b0284611cbd565b604051602001611b13929190612d6a565b6040516020818303038152906040525b915050919050565b505050565b505050565b6000611b568473ffffffffffffffffffffffffffffffffffffffff16611e1e565b15611cb0578373ffffffffffffffffffffffffffffffffffffffff1663150b7a02611b7f61106d565b8786866040518563ffffffff1660e01b8152600401611ba194939291906132c7565b6020604051808303816000875af1925050508015611bdd57506040513d601f19601f82011682018060405250810190611bda9190613328565b60015b611c60573d8060008114611c0d576040519150601f19603f3d011682016040523d82523d6000602084013e611c12565b606091505b50600081511415611c58576040517f08c379a0000000000000000000000000000000000000000000000000000000008152600401611c4f906131c0565b60405180910390fd5b805181602001fd5b63150b7a0260e01b7bffffffffffffffffffffffffffffffffffffffffffffffffffffffff1916817bffffffffffffffffffffffffffffffffffffffffffffffffffffffff191614915050611cb5565b600190505b949350505050565b60606000821415611d05576040518060400160405280600181526020017f30000000000000000000000000000000000000000000000000000000000000008152509050611e19565b600082905060005b60008214611d37578080611d2090612a6e565b915050600a82611d309190613384565b9150611d0d565b60008167ffffffffffffffff811115611d5357611d526123d1565b5b6040519080825280601f01601f191660200182016040528015611d855781602001600182028036833780820191505090505b5090505b60008514611e1257600182611d9e91906130ae565b9150600a85611dad91906133b5565b6030611db99190612a18565b60f81b818381518110611dcf57611dce612ab7565b5b60200101907effffffffffffffffffffffffffffffffffffffffffffffffffffffffffffff1916908160001a905350600a85611e0b9190613384565b9450611d89565b8093505050505b919050565b6000808273ffffffffffffffffffffffffffffffffffffffff163b119050919050565b6040518060e0016040528060008152602001600073ffffffffffffffffffffffffffffffffffffffff16815260200160008152602001600073ffffffffffffffffffffffffffffffffffffffff168152602001600073ffffffffffffffffffffffffffffffffffffffff168152602001600081526020016000151581525090565b828054611ece90612801565b90600052602060002090601f016020900481019282611ef05760008555611f37565b82601f10611f0957805160ff1916838001178555611f37565b82800160010185558215611f37579182015b82811115611f36578251825591602001919060010190611f1b565b5b509050611f449190611f48565b5090565b5b80821115611f61576000816000905550600101611f49565b5090565b6000604051905090565b600080fd5b600080fd5b60007fffffffff0000000000000000000000000000000000000000000000000000000082169050919050565b611fae81611f79565b8114611fb957600080fd5b50565b600081359050611fcb81611fa5565b92915050565b600060208284031215611fe757611fe6611f6f565b5b6000611ff584828501611fbc565b91505092915050565b60008115159050919050565b61201381611ffe565b82525050565b600060208201905061202e600083018461200a565b92915050565b600081519050919050565b600082825260208201905092915050565b60005b8381101561206e578082015181840152602081019050612053565b8381111561207d576000848401525b50505050565b6000601f19601f8301169050919050565b600061209f82612034565b6120a9818561203f565b93506120b9818560208601612050565b6120c281612083565b840191505092915050565b600060208201905081810360008301526120e78184612094565b905092915050565b6000819050919050565b612102816120ef565b811461210d57600080fd5b50565b60008135905061211f816120f9565b92915050565b60006020828403121561213b5761213a611f6f565b5b600061214984828501612110565b91505092915050565b600073ffffffffffffffffffffffffffffffffffffffff82169050919050565b600061217d82612152565b9050919050565b61218d81612172565b82525050565b60006020820190506121a86000830184612184565b92915050565b6121b781612172565b81146121c257600080fd5b50565b6000813590506121d4816121ae565b92915050565b600080604083850312156121f1576121f0611f6f565b5b60006121ff858286016121c5565b925050602061221085828601612110565b9150509250929050565b600081519050919050565b600082825260208201905092915050565b6000819050602082019050919050565b61224f816120ef565b82525050565b61225e81612172565b82525050565b600061226f82612152565b9050919050565b61227f81612264565b82525050565b61228e81611ffe565b82525050565b60e0820160008201516122aa6000850182612246565b5060208201516122bd6020850182612255565b5060408201516122d06040850182612246565b5060608201516122e36060850182612276565b5060808201516122f66080850182612276565b5060a082015161230960a0850182612246565b5060c082015161231c60c0850182612285565b50505050565b600061232e8383612294565b60e08301905092915050565b6000602082019050919050565b60006123528261221a565b61235c8185612225565b935061236783612236565b8060005b8381101561239857815161237f8882612322565b975061238a8361233a565b92505060018101905061236b565b5085935050505092915050565b600060208201905081810360008301526123bf8184612347565b905092915050565b600080fd5b600080fd5b7f4e487b7100000000000000000000000000000000000000000000000000000000600052604160045260246000fd5b61240982612083565b810181811067ffffffffffffffff82111715612428576124276123d1565b5b80604052505050565b600061243b611f65565b90506124478282612400565b919050565b600067ffffffffffffffff821115612467576124666123d1565b5b61247082612083565b9050602081019050919050565b82818337600083830152505050565b600061249f61249a8461244c565b612431565b9050828152602081018484840111156124bb576124ba6123cc565b5b6124c684828561247d565b509392505050565b600082601f8301126124e3576124e26123c7565b5b81356124f384826020860161248c565b91505092915050565b6000806040838503121561251357612512611f6f565b5b600083013567ffffffffffffffff81111561253157612530611f74565b5b61253d858286016124ce565b925050602061254e85828601612110565b9150509250929050565b612561816120ef565b82525050565b600060208201905061257c6000830184612558565b92915050565b60008060006060848603121561259b5761259a611f6f565b5b60006125a9868287016121c5565b93505060206125ba868287016121c5565b92505060406125cb86828701612110565b9150509250925092565b6000602082840312156125eb576125ea611f6f565b5b60006125f9848285016121c5565b91505092915050565b61260b81611ffe565b811461261657600080fd5b50565b60008135905061262881612602565b92915050565b6000806040838503121561264557612644611f6f565b5b6000612653858286016121c5565b925050602061266485828601612619565b9150509250929050565b600067ffffffffffffffff821115612689576126886123d1565b5b61269282612083565b9050602081019050919050565b60006126b26126ad8461266e565b612431565b9050828152602081018484840111156126ce576126cd6123cc565b5b6126d984828561247d565b509392505050565b600082601f8301126126f6576126f56123c7565b5b813561270684826020860161269f565b91505092915050565b6000806000806080858703121561272957612728611f6f565b5b6000612737878288016121c5565b9450506020612748878288016121c5565b935050604061275987828801612110565b925050606085013567ffffffffffffffff81111561277a57612779611f74565b5b612786878288016126e1565b91505092959194509250565b600080604083850312156127a9576127a8611f6f565b5b60006127b7858286016121c5565b92505060206127c8858286016121c5565b9150509250929050565b7f4e487b7100000000000000000000000000000000000000000000000000000000600052602260045260246000fd5b6000600282049050600182168061281957607f821691505b6020821081141561282d5761282c6127d2565b5b50919050565b7f4552433732313a20617070726f76656420717565727920666f72206e6f6e657860008201527f697374656e7420746f6b656e0000000000000000000000000000000000000000602082015250565b600061288f602c8361203f565b915061289a82612833565b604082019050919050565b600060208201905081810360008301526128be81612882565b9050919050565b7f4552433732313a20617070726f76616c20746f2063757272656e74206f776e6560008201527f7200000000000000000000000000000000000000000000000000000000000000602082015250565b600061292160218361203f565b915061292c826128c5565b604082019050919050565b6000602082019050818103600083015261295081612914565b9050919050565b7f4552433732313a20617070726f76652063616c6c6572206973206e6f74206f7760008201527f6e6572206e6f7220617070726f76656420666f7220616c6c0000000000000000602082015250565b60006129b360388361203f565b91506129be82612957565b604082019050919050565b600060208201905081810360008301526129e2816129a6565b9050919050565b7f4e487b7100000000000000000000000000000000000000000000000000000000600052601160045260246000fd5b6000612a23826120ef565b9150612a2e836120ef565b9250827fffffffffffffffffffffffffffffffffffffffffffffffffffffffffffffffff03821115612a6357612a626129e9565b5b828201905092915050565b6000612a79826120ef565b91507fffffffffffffffffffffffffffffffffffffffffffffffffffffffffffffffff821415612aac57612aab6129e9565b5b600182019050919050565b7f4e487b7100000000000000000000000000000000000000000000000000000000600052603260045260246000fd5b7f4552433732313a207472616e736665722063616c6c6572206973206e6f74206f60008201527f776e6572206e6f7220617070726f766564000000000000000000000000000000602082015250565b6000612b4260318361203f565b9150612b4d82612ae6565b604082019050919050565b60006020820190508181036000830152612b7181612b35565b9050919050565b7f4552433732313a206f776e657220717565727920666f72206e6f6e657869737460008201527f656e7420746f6b656e0000000000000000000000000000000000000000000000602082015250565b6000612bd460298361203f565b9150612bdf82612b78565b604082019050919050565b60006020820190508181036000830152612c0381612bc7565b9050919050565b7f4552433732313a2062616c616e636520717565727920666f7220746865207a6560008201527f726f206164647265737300000000000000000000000000000000000000000000602082015250565b6000612c66602a8361203f565b9150612c7182612c0a565b604082019050919050565b60006020820190508181036000830152612c9581612c59565b9050919050565b7f45524337323155524953746f726167653a2055524920717565727920666f722060008201527f6e6f6e6578697374656e7420746f6b656e000000000000000000000000000000602082015250565b6000612cf860318361203f565b9150612d0382612c9c565b604082019050919050565b60006020820190508181036000830152612d2781612ceb565b9050919050565b600081905092915050565b6000612d4482612034565b612d4e8185612d2e565b9350612d5e818560208601612050565b80840191505092915050565b6000612d768285612d39565b9150612d828284612d39565b91508190509392505050565b7f4552433732313a206d696e7420746f20746865207a65726f2061646472657373600082015250565b6000612dc460208361203f565b9150612dcf82612d8e565b602082019050919050565b60006020820190508181036000830152612df381612db7565b9050919050565b7f4552433732313a20746f6b656e20616c7265616479206d696e74656400000000600082015250565b6000612e30601c8361203f565b9150612e3b82612dfa565b602082019050919050565b60006020820190508181036000830152612e5f81612e23565b9050919050565b7f45524337323155524953746f726167653a2055524920736574206f66206e6f6e60008201527f6578697374656e7420746f6b656e000000000000000000000000000000000000602082015250565b6000612ec2602e8361203f565b9150612ecd82612e66565b604082019050919050565b60006020820190508181036000830152612ef181612eb5565b9050919050565b7f4552433732313a206f70657261746f7220717565727920666f72206e6f6e657860008201527f697374656e7420746f6b656e0000000000000000000000000000000000000000602082015250565b6000612f54602c8361203f565b9150612f5f82612ef8565b604082019050919050565b60006020820190508181036000830152612f8381612f47565b9050919050565b7f4552433732313a207472616e736665722066726f6d20696e636f72726563742060008201527f6f776e6572000000000000000000000000000000000000000000000000000000602082015250565b6000612fe660258361203f565b9150612ff182612f8a565b604082019050919050565b6000602082019050818103600083015261301581612fd9565b9050919050565b7f4552433732313a207472616e7366657220746f20746865207a65726f2061646460008201527f7265737300000000000000000000000000000000000000000000000000000000602082015250565b600061307860248361203f565b91506130838261301c565b604082019050919050565b600060208201905081810360008301526130a78161306b565b9050919050565b60006130b9826120ef565b91506130c4836120ef565b9250828210156130d7576130d66129e9565b5b828203905092915050565b7f4552433732313a20617070726f766520746f2063616c6c657200000000000000600082015250565b600061311860198361203f565b9150613123826130e2565b602082019050919050565b600060208201905081810360008301526131478161310b565b9050919050565b7f4552433732313a207472616e7366657220746f206e6f6e20455243373231526560008201527f63656976657220696d706c656d656e7465720000000000000000000000000000602082015250565b60006131aa60328361203f565b91506131b58261314e565b604082019050919050565b600060208201905081810360008301526131d98161319d565b9050919050565b7f4552433732314d657461646174613a2055524920717565727920666f72206e6f60008201527f6e6578697374656e7420746f6b656e0000000000000000000000000000000000602082015250565b600061323c602f8361203f565b9150613247826131e0565b604082019050919050565b6000602082019050818103600083015261326b8161322f565b9050919050565b600081519050919050565b600082825260208201905092915050565b600061329982613272565b6132a3818561327d565b93506132b3818560208601612050565b6132bc81612083565b840191505092915050565b60006080820190506132dc6000830187612184565b6132e96020830186612184565b6132f66040830185612558565b8181036060830152613308818461328e565b905095945050505050565b60008151905061332281611fa5565b92915050565b60006020828403121561333e5761333d611f6f565b5b600061334c84828501613313565b91505092915050565b7f4e487b7100000000000000000000000000000000000000000000000000000000600052601260045260246000fd5b600061338f826120ef565b915061339a836120ef565b9250826133aa576133a9613355565b5b828204905092915050565b60006133c0826120ef565b91506133cb836120ef565b9250826133db576133da613355565b5b82820690509291505056fea264697066735822122073379b6afe39baca2153cd2b96c6289f258a45a56e2be9b5f3dcaf8d51185b5f64736f6c634300080b0033",
  "linkReferences": {},
  "deployedLinkReferences": {}
}