{
  "_format": "hh-sol-artifact-1",
  "contractName": "NFTMarket",
  "sourceName": "contracts/NFTMarket.sol",
  "abi": [
    {
      "inputs": [],
      "stateMutability": "nonpayable",
      "type": "constructor"
    },
    {
      "anonymous": false,
      "inputs": [
        {
          "indexed": true,
          "internalType": "uint256",
          "name": "itemId",
          "type": "uint256"
        },
        {
          "indexed": true,
          "internalType": "address",
          "name": "nftContract",
          "type": "address"
        },
        {
          "indexed": true,
          "internalType": "uint256",
          "name": "tokenId",
          "type": "uint256"
        },
        {
          "indexed": false,
          "internalType": "address payable",
          "name": "seller",
          "type": "address"
        },
        {
          "indexed": false,
          "internalType": "address payable",
          "name": "owner",
          "type": "address"
        },
        {
          "indexed": false,
          "internalType": "uint256",
          "name": "price",
          "type": "uint256"
        },
        {
          "indexed": false,
          "internalType": "bool",
          "name": "sold",
          "type": "bool"
        }
      ],
      "name": "MarketItemCreated",
      "type": "event"
    },
    {
      "inputs": [
        {
          "internalType": "address",
          "name": "nftContract",
          "type": "address"
        },
        {
          "internalType": "uint256",
          "name": "tokenId",
          "type": "uint256"
        },
        {
          "internalType": "uint256",
          "name": "price",
          "type": "uint256"
        }
      ],
      "name": "addItemInMarket",
      "outputs": [],
      "stateMutability": "payable",
      "type": "function"
    },
    {
      "inputs": [
        {
          "internalType": "address",
          "name": "con",
          "type": "address"
        },
        {
          "internalType": "uint256",
          "name": "itemId",
          "type": "uint256"
        },
        {
          "internalType": "address",
          "name": "nftContract",
          "type": "address"
        }
      ],
      "name": "buyNftFromMarket",
      "outputs": [],
      "stateMutability": "nonpayable",
      "type": "function"
    },
    {
      "inputs": [],
      "name": "fetchItemsCreated",
      "outputs": [
        {
          "components": [
            {
              "internalType": "uint256",
              "name": "itemId",
              "type": "uint256"
            },
            {
              "internalType": "address",
              "name": "nftContract",
              "type": "address"
            },
            {
              "internalType": "uint256",
              "name": "tokenId",
              "type": "uint256"
            },
            {
              "internalType": "address payable",
              "name": "seller",
              "type": "address"
            },
            {
              "internalType": "address payable",
              "name": "owner",
              "type": "address"
            },
            {
              "internalType": "uint256",
              "name": "price",
              "type": "uint256"
            },
            {
              "internalType": "bool",
              "name": "sold",
              "type": "bool"
            }
          ],
          "internalType": "struct NFTMarket.MarketItem[]",
          "name": "",
          "type": "tuple[]"
        }
      ],
      "stateMutability": "view",
      "type": "function"
    },
    {
      "inputs": [],
      "name": "fetchMarketItems",
      "outputs": [
        {
          "components": [
            {
              "internalType": "uint256",
              "name": "itemId",
              "type": "uint256"
            },
            {
              "internalType": "address",
              "name": "nftContract",
              "type": "address"
            },
            {
              "internalType": "uint256",
              "name": "tokenId",
              "type": "uint256"
            },
            {
              "internalType": "address payable",
              "name": "seller",
              "type": "address"
            },
            {
              "internalType": "address payable",
              "name": "owner",
              "type": "address"
            },
            {
              "internalType": "uint256",
              "name": "price",
              "type": "uint256"
            },
            {
              "internalType": "bool",
              "name": "sold",
              "type": "bool"
            }
          ],
          "internalType": "struct NFTMarket.MarketItem[]",
          "name": "",
          "type": "tuple[]"
        }
      ],
      "stateMutability": "view",
      "type": "function"
    },
    {
      "inputs": [],
      "name": "fetchMyNft",
      "outputs": [
        {
          "components": [
            {
              "internalType": "uint256",
              "name": "itemId",
              "type": "uint256"
            },
            {
              "internalType": "address",
              "name": "nftContract",
              "type": "address"
            },
            {
              "internalType": "uint256",
              "name": "tokenId",
              "type": "uint256"
            },
            {
              "internalType": "address payable",
              "name": "seller",
              "type": "address"
            },
            {
              "internalType": "address payable",
              "name": "owner",
              "type": "address"
            },
            {
              "internalType": "uint256",
              "name": "price",
              "type": "uint256"
            },
            {
              "internalType": "bool",
              "name": "sold",
              "type": "bool"
            }
          ],
          "internalType": "struct NFTMarket.MarketItem[]",
          "name": "",
          "type": "tuple[]"
        }
      ],
      "stateMutability": "view",
      "type": "function"
    },
    {
      "inputs": [],
      "name": "getMarketListingPrice",
      "outputs": [
        {
          "internalType": "uint256",
          "name": "",
          "type": "uint256"
        }
      ],
      "stateMutability": "view",
      "type": "function"
    },
    {
      "inputs": [],
      "name": "initialize",
      "outputs": [],
      "stateMutability": "nonpayable",
      "type": "function"
    }
  ],
  "bytecode": "0x608060405234801561001057600080fd5b5033600360006101000a81548173ffffffffffffffffffffffffffffffffffffffff021916908373ffffffffffffffffffffffffffffffffffffffff160217905550662386f26fc10000600481905550611cc08061006f6000396000f3fe6080604052600436106100705760003560e01c80639f7699eb1161004e5780639f7699eb146100d3578063bc87597b146100fe578063f005933f14610127578063f064c32e1461015257610070565b80630f08efe01461007557806343fe10d1146100a05780638129fc1c146100bc575b600080fd5b34801561008157600080fd5b5061008a61017d565b604051610097919061167d565b60405180910390f35b6100ba60048036038101906100b591906116fc565b6104d4565b005b3480156100c857600080fd5b506100d1610839565b005b3480156100df57600080fd5b506100e8610843565b6040516100f5919061167d565b60405180910390f35b34801561010a57600080fd5b506101256004803603810190610120919061174f565b610ba7565b005b34801561013357600080fd5b5061013c610e9d565b60405161014991906117b1565b60405180910390f35b34801561015e57600080fd5b50610167610ea7565b604051610174919061167d565b60405180910390f35b6060600061018b600161120b565b90506000610199600261120b565b826101a491906117fb565b90506000808267ffffffffffffffff8111156101c3576101c261182f565b5b6040519080825280602002602001820160405280156101fc57816020015b6101e9611429565b8152602001906001900390816101e15790505b50905060005b848110156104c957600073ffffffffffffffffffffffffffffffffffffffff1660056000600184610233919061185e565b815260200190815260200160002060040160009054906101000a900473ffffffffffffffffffffffffffffffffffffffff1673ffffffffffffffffffffffffffffffffffffffff1614156104b6576102f86040518060400160405280601381526020017f456e74657220696e746f2066756e6374696f6e000000000000000000000000008152506005600084815260200190815260200160002060040160009054906101000a900473ffffffffffffffffffffffffffffffffffffffff166000611219565b60006005600060018461030b919061185e565b8152602001908152602001600020600001549050600060056000838152602001908152602001600020905061033f856112b8565b806040518060e0016040529081600082015481526020016001820160009054906101000a900473ffffffffffffffffffffffffffffffffffffffff1673ffffffffffffffffffffffffffffffffffffffff1673ffffffffffffffffffffffffffffffffffffffff168152602001600282015481526020016003820160009054906101000a900473ffffffffffffffffffffffffffffffffffffffff1673ffffffffffffffffffffffffffffffffffffffff1673ffffffffffffffffffffffffffffffffffffffff1681526020016004820160009054906101000a900473ffffffffffffffffffffffffffffffffffffffff1673ffffffffffffffffffffffffffffffffffffffff1673ffffffffffffffffffffffffffffffffffffffff168152602001600582015481526020016006820160009054906101000a900460ff161515151581525050848681518110610499576104986118b4565b5b60200260200101819052506001856104b1919061185e565b945050505b80806104c1906118e3565b915050610202565b508094505050505090565b6002600054141561051a576040517f08c379a000000000000000000000000000000000000000000000000000000000815260040161051190611989565b60405180910390fd5b600260008190555060008111610565576040517f08c379a000000000000000000000000000000000000000000000000000000000815260040161055c906119f5565b60405180910390fd5b6004543410156105aa576040517f08c379a00000000000000000000000000000000000000000000000000000000081526004016105a190611a87565b60405180910390fd5b6105b46001611351565b60006105c0600161120b565b90506040518060e001604052808281526020018573ffffffffffffffffffffffffffffffffffffffff1681526020018481526020013373ffffffffffffffffffffffffffffffffffffffff168152602001600073ffffffffffffffffffffffffffffffffffffffff16815260200183815260200160001515815250600560008381526020019081526020016000206000820151816000015560208201518160010160006101000a81548173ffffffffffffffffffffffffffffffffffffffff021916908373ffffffffffffffffffffffffffffffffffffffff1602179055506040820151816002015560608201518160030160006101000a81548173ffffffffffffffffffffffffffffffffffffffff021916908373ffffffffffffffffffffffffffffffffffffffff16021790555060808201518160040160006101000a81548173ffffffffffffffffffffffffffffffffffffffff021916908373ffffffffffffffffffffffffffffffffffffffff16021790555060a0820151816005015560c08201518160060160006101000a81548160ff0219169083151502179055509050508373ffffffffffffffffffffffffffffffffffffffff166323b872dd3330866040518463ffffffff1660e01b81526004016107a193929190611ab6565b600060405180830381600087803b1580156107bb57600080fd5b505af11580156107cf573d6000803e3d6000fd5b50505050828473ffffffffffffffffffffffffffffffffffffffff16827f045dfa01dcba2b36aba1d3dc4a874f4b0c5d2fbeb8d2c4b34a7d88c8d8f929d13360008760006040516108239493929190611b0b565b60405180910390a4506001600081905550505050565b6001600081905550565b60606000610851600161120b565b905060008060005b838110156108fa573373ffffffffffffffffffffffffffffffffffffffff1660056000600184610889919061185e565b815260200190815260200160002060040160009054906101000a900473ffffffffffffffffffffffffffffffffffffffff1673ffffffffffffffffffffffffffffffffffffffff1614156108e7576001836108e4919061185e565b92505b80806108f2906118e3565b915050610859565b5060008267ffffffffffffffff8111156109175761091661182f565b5b60405190808252806020026020018201604052801561095057816020015b61093d611429565b8152602001906001900390816109355790505b50905060005b84811015610b9c573373ffffffffffffffffffffffffffffffffffffffff1660056000600184610986919061185e565b815260200190815260200160002060040160009054906101000a900473ffffffffffffffffffffffffffffffffffffffff1673ffffffffffffffffffffffffffffffffffffffff161415610b89576000600560006001846109e7919061185e565b81526020019081526020016000206000015490506000600560008381526020019081526020016000209050806040518060e0016040529081600082015481526020016001820160009054906101000a900473ffffffffffffffffffffffffffffffffffffffff1673ffffffffffffffffffffffffffffffffffffffff1673ffffffffffffffffffffffffffffffffffffffff168152602001600282015481526020016003820160009054906101000a900473ffffffffffffffffffffffffffffffffffffffff1673ffffffffffffffffffffffffffffffffffffffff1673ffffffffffffffffffffffffffffffffffffffff1681526020016004820160009054906101000a900473ffffffffffffffffffffffffffffffffffffffff1673ffffffffffffffffffffffffffffffffffffffff1673ffffffffffffffffffffffffffffffffffffffff168152602001600582015481526020016006820160009054906101000a900460ff161515151581525050848681518110610b6c57610b6b6118b4565b5b6020026020010181905250600185610b84919061185e565b945050505b8080610b94906118e3565b915050610956565b508094505050505090565b60006005600084815260200190815260200160002060050154905060006005600085815260200190815260200160002060020154905060006005600086815260200190815260200160002060030160009054906101000a900473ffffffffffffffffffffffffffffffffffffffff169050600086905060008173ffffffffffffffffffffffffffffffffffffffff166323b872dd3330886040518463ffffffff1660e01b8152600401610c5c93929190611ab6565b6020604051808303816000875af1158015610c7b573d6000803e3d6000fd5b505050506040513d601f19601f82011682018060405250810190610c9f9190611b7c565b9050610caa81611367565b8173ffffffffffffffffffffffffffffffffffffffff1663a5f2a1523085886040518463ffffffff1660e01b8152600401610ce793929190611ab6565b6020604051808303816000875af1158015610d06573d6000803e3d6000fd5b505050506040513d601f19601f82011682018060405250810190610d2a9190611b7c565b508573ffffffffffffffffffffffffffffffffffffffff166323b872dd3033876040518463ffffffff1660e01b8152600401610d6893929190611ab6565b600060405180830381600087803b158015610d8257600080fd5b505af1158015610d96573d6000803e3d6000fd5b50505050336005600089815260200190815260200160002060040160006101000a81548173ffffffffffffffffffffffffffffffffffffffff021916908373ffffffffffffffffffffffffffffffffffffffff16021790555060016005600089815260200190815260200160002060060160006101000a81548160ff021916908315150217905550610e286002611351565b600360009054906101000a900473ffffffffffffffffffffffffffffffffffffffff1673ffffffffffffffffffffffffffffffffffffffff166108fc6004549081150290604051600060405180830381858888f19350505050158015610e92573d6000803e3d6000fd5b505050505050505050565b6000600454905090565b60606000610eb5600161120b565b905060008060005b83811015610f5e573373ffffffffffffffffffffffffffffffffffffffff1660056000600184610eed919061185e565b815260200190815260200160002060030160009054906101000a900473ffffffffffffffffffffffffffffffffffffffff1673ffffffffffffffffffffffffffffffffffffffff161415610f4b57600183610f48919061185e565b92505b8080610f56906118e3565b915050610ebd565b5060008267ffffffffffffffff811115610f7b57610f7a61182f565b5b604051908082528060200260200182016040528015610fb457816020015b610fa1611429565b815260200190600190039081610f995790505b50905060005b84811015611200573373ffffffffffffffffffffffffffffffffffffffff1660056000600184610fea919061185e565b815260200190815260200160002060030160009054906101000a900473ffffffffffffffffffffffffffffffffffffffff1673ffffffffffffffffffffffffffffffffffffffff1614156111ed5760006005600060018461104b919061185e565b81526020019081526020016000206000015490506000600560008381526020019081526020016000209050806040518060e0016040529081600082015481526020016001820160009054906101000a900473ffffffffffffffffffffffffffffffffffffffff1673ffffffffffffffffffffffffffffffffffffffff1673ffffffffffffffffffffffffffffffffffffffff168152602001600282015481526020016003820160009054906101000a900473ffffffffffffffffffffffffffffffffffffffff1673ffffffffffffffffffffffffffffffffffffffff1673ffffffffffffffffffffffffffffffffffffffff1681526020016004820160009054906101000a900473ffffffffffffffffffffffffffffffffffffffff1673ffffffffffffffffffffffffffffffffffffffff1673ffffffffffffffffffffffffffffffffffffffff168152602001600582015481526020016006820160009054906101000a900460ff1615151515815250508486815181106111d0576111cf6118b4565b5b60200260200101819052506001856111e8919061185e565b945050505b80806111f8906118e3565b915050610fba565b508094505050505090565b600081600001549050919050565b6112b383838360405160240161123193929190611c31565b6040516020818303038152906040527ffcec75e0000000000000000000000000000000000000000000000000000000007bffffffffffffffffffffffffffffffffffffffffffffffffffffffff19166020820180517bffffffffffffffffffffffffffffffffffffffffffffffffffffffff8381831617835250505050611400565b505050565b61134e816040516024016112cc91906117b1565b6040516020818303038152906040527ff5b1bba9000000000000000000000000000000000000000000000000000000007bffffffffffffffffffffffffffffffffffffffffffffffffffffffff19166020820180517bffffffffffffffffffffffffffffffffffffffffffffffffffffffff8381831617835250505050611400565b50565b6001816000016000828254019250508190555050565b6113fd8160405160240161137b9190611c6f565b6040516020818303038152906040527f32458eed000000000000000000000000000000000000000000000000000000007bffffffffffffffffffffffffffffffffffffffffffffffffffffffff19166020820180517bffffffffffffffffffffffffffffffffffffffffffffffffffffffff8381831617835250505050611400565b50565b60008151905060006a636f6e736f6c652e6c6f679050602083016000808483855afa5050505050565b6040518060e0016040528060008152602001600073ffffffffffffffffffffffffffffffffffffffff16815260200160008152602001600073ffffffffffffffffffffffffffffffffffffffff168152602001600073ffffffffffffffffffffffffffffffffffffffff168152602001600081526020016000151581525090565b600081519050919050565b600082825260208201905092915050565b6000819050602082019050919050565b6000819050919050565b6114e9816114d6565b82525050565b600073ffffffffffffffffffffffffffffffffffffffff82169050919050565b600061151a826114ef565b9050919050565b61152a8161150f565b82525050565b600061153b826114ef565b9050919050565b61154b81611530565b82525050565b60008115159050919050565b61156681611551565b82525050565b60e08201600082015161158260008501826114e0565b5060208201516115956020850182611521565b5060408201516115a860408501826114e0565b5060608201516115bb6060850182611542565b5060808201516115ce6080850182611542565b5060a08201516115e160a08501826114e0565b5060c08201516115f460c085018261155d565b50505050565b6000611606838361156c565b60e08301905092915050565b6000602082019050919050565b600061162a826114aa565b61163481856114b5565b935061163f836114c6565b8060005b8381101561167057815161165788826115fa565b975061166283611612565b925050600181019050611643565b5085935050505092915050565b60006020820190508181036000830152611697818461161f565b905092915050565b600080fd5b6116ad8161150f565b81146116b857600080fd5b50565b6000813590506116ca816116a4565b92915050565b6116d9816114d6565b81146116e457600080fd5b50565b6000813590506116f6816116d0565b92915050565b6000806000606084860312156117155761171461169f565b5b6000611723868287016116bb565b9350506020611734868287016116e7565b9250506040611745868287016116e7565b9150509250925092565b6000806000606084860312156117685761176761169f565b5b6000611776868287016116bb565b9350506020611787868287016116e7565b9250506040611798868287016116bb565b9150509250925092565b6117ab816114d6565b82525050565b60006020820190506117c660008301846117a2565b92915050565b7f4e487b7100000000000000000000000000000000000000000000000000000000600052601160045260246000fd5b6000611806826114d6565b9150611811836114d6565b925082821015611824576118236117cc565b5b828203905092915050565b7f4e487b7100000000000000000000000000000000000000000000000000000000600052604160045260246000fd5b6000611869826114d6565b9150611874836114d6565b9250827fffffffffffffffffffffffffffffffffffffffffffffffffffffffffffffffff038211156118a9576118a86117cc565b5b828201905092915050565b7f4e487b7100000000000000000000000000000000000000000000000000000000600052603260045260246000fd5b60006118ee826114d6565b91507fffffffffffffffffffffffffffffffffffffffffffffffffffffffffffffffff821415611921576119206117cc565b5b600182019050919050565b600082825260208201905092915050565b7f5265656e7472616e637947756172643a207265656e7472616e742063616c6c00600082015250565b6000611973601f8361192c565b915061197e8261193d565b602082019050919050565b600060208201905081810360008301526119a281611966565b9050919050565b7f5072696365206d757374206265206174206c6561737420317765690000000000600082015250565b60006119df601b8361192c565b91506119ea826119a9565b602082019050919050565b60006020820190508181036000830152611a0e816119d2565b9050919050565b7f596f75206861766520746f2070617920302e303120657468657220746f20637260008201527f65617465204e6674000000000000000000000000000000000000000000000000602082015250565b6000611a7160288361192c565b9150611a7c82611a15565b604082019050919050565b60006020820190508181036000830152611aa081611a64565b9050919050565b611ab08161150f565b82525050565b6000606082019050611acb6000830186611aa7565b611ad86020830185611aa7565b611ae560408301846117a2565b949350505050565b611af681611530565b82525050565b611b0581611551565b82525050565b6000608082019050611b206000830187611aed565b611b2d6020830186611aed565b611b3a60408301856117a2565b611b476060830184611afc565b95945050505050565b611b5981611551565b8114611b6457600080fd5b50565b600081519050611b7681611b50565b92915050565b600060208284031215611b9257611b9161169f565b5b6000611ba084828501611b67565b91505092915050565b600081519050919050565b60005b83811015611bd2578082015181840152602081019050611bb7565b83811115611be1576000848401525b50505050565b6000601f19601f8301169050919050565b6000611c0382611ba9565b611c0d818561192c565b9350611c1d818560208601611bb4565b611c2681611be7565b840191505092915050565b60006060820190508181036000830152611c4b8186611bf8565b9050611c5a6020830185611aa7565b611c676040830184611aa7565b949350505050565b6000602082019050611c846000830184611afc565b9291505056fea264697066735822122096cf64c1c7c01ea492cf052bbae83c7079ab7973027ce0d30d84e7c0dbf06e8864736f6c634300080b0033",
  "linkReferences": {},
  "deployedLinkReferences": {}
}