{
  "_format": "hh-sol-artifact-1",
  "contractName": "NFTMarket",
  "sourceName": "contracts/NFTMarket.sol",
  "abi": [
    {
      "inputs": [],
      "stateMutability": "nonpayable",
      "type": "constructor"
    },
    {
      "anonymous": false,
      "inputs": [
        {
          "indexed": true,
          "internalType": "uint256",
          "name": "itemId",
          "type": "uint256"
        },
        {
          "indexed": true,
          "internalType": "address",
          "name": "nftContract",
          "type": "address"
        },
        {
          "indexed": true,
          "internalType": "uint256",
          "name": "tokenId",
          "type": "uint256"
        },
        {
          "indexed": false,
          "internalType": "address payable",
          "name": "seller",
          "type": "address"
        },
        {
          "indexed": false,
          "internalType": "address payable",
          "name": "owner",
          "type": "address"
        },
        {
          "indexed": false,
          "internalType": "uint256",
          "name": "price",
          "type": "uint256"
        },
        {
          "indexed": false,
          "internalType": "bool",
          "name": "sold",
          "type": "bool"
        }
      ],
      "name": "MarketItemCreated",
      "type": "event"
    },
    {
      "inputs": [
        {
          "internalType": "address",
          "name": "nftContract",
          "type": "address"
        },
        {
          "internalType": "uint256",
          "name": "tokenId",
          "type": "uint256"
        },
        {
          "internalType": "uint256",
          "name": "price",
          "type": "uint256"
        }
      ],
      "name": "addItemInMarket",
      "outputs": [],
      "stateMutability": "payable",
      "type": "function"
    },
    {
      "inputs": [
        {
          "internalType": "address",
          "name": "con",
          "type": "address"
        },
        {
          "internalType": "uint256",
          "name": "itemId",
          "type": "uint256"
        },
        {
          "internalType": "address",
          "name": "nftContract",
          "type": "address"
        }
      ],
      "name": "buyNftFromMarket",
      "outputs": [],
      "stateMutability": "nonpayable",
      "type": "function"
    },
    {
      "inputs": [],
      "name": "fetchItemsCreated",
      "outputs": [
        {
          "components": [
            {
              "internalType": "uint256",
              "name": "itemId",
              "type": "uint256"
            },
            {
              "internalType": "address",
              "name": "nftContract",
              "type": "address"
            },
            {
              "internalType": "uint256",
              "name": "tokenId",
              "type": "uint256"
            },
            {
              "internalType": "address payable",
              "name": "seller",
              "type": "address"
            },
            {
              "internalType": "address payable",
              "name": "owner",
              "type": "address"
            },
            {
              "internalType": "uint256",
              "name": "price",
              "type": "uint256"
            },
            {
              "internalType": "bool",
              "name": "sold",
              "type": "bool"
            }
          ],
          "internalType": "struct NFTMarket.MarketItem[]",
          "name": "",
          "type": "tuple[]"
        }
      ],
      "stateMutability": "view",
      "type": "function"
    },
    {
      "inputs": [],
      "name": "fetchMarketItems",
      "outputs": [
        {
          "components": [
            {
              "internalType": "uint256",
              "name": "itemId",
              "type": "uint256"
            },
            {
              "internalType": "address",
              "name": "nftContract",
              "type": "address"
            },
            {
              "internalType": "uint256",
              "name": "tokenId",
              "type": "uint256"
            },
            {
              "internalType": "address payable",
              "name": "seller",
              "type": "address"
            },
            {
              "internalType": "address payable",
              "name": "owner",
              "type": "address"
            },
            {
              "internalType": "uint256",
              "name": "price",
              "type": "uint256"
            },
            {
              "internalType": "bool",
              "name": "sold",
              "type": "bool"
            }
          ],
          "internalType": "struct NFTMarket.MarketItem[]",
          "name": "",
          "type": "tuple[]"
        }
      ],
      "stateMutability": "view",
      "type": "function"
    },
    {
      "inputs": [],
      "name": "fetchMyNft",
      "outputs": [
        {
          "components": [
            {
              "internalType": "uint256",
              "name": "itemId",
              "type": "uint256"
            },
            {
              "internalType": "address",
              "name": "nftContract",
              "type": "address"
            },
            {
              "internalType": "uint256",
              "name": "tokenId",
              "type": "uint256"
            },
            {
              "internalType": "address payable",
              "name": "seller",
              "type": "address"
            },
            {
              "internalType": "address payable",
              "name": "owner",
              "type": "address"
            },
            {
              "internalType": "uint256",
              "name": "price",
              "type": "uint256"
            },
            {
              "internalType": "bool",
              "name": "sold",
              "type": "bool"
            }
          ],
          "internalType": "struct NFTMarket.MarketItem[]",
          "name": "",
          "type": "tuple[]"
        }
      ],
      "stateMutability": "view",
      "type": "function"
    },
    {
      "inputs": [],
      "name": "getMarketListingPrice",
      "outputs": [
        {
          "internalType": "uint256",
          "name": "",
          "type": "uint256"
        }
      ],
      "stateMutability": "view",
      "type": "function"
    }
  ],
  "bytecode": "0x608060405234801561001057600080fd5b50600160008190555033600360006101000a81548173ffffffffffffffffffffffffffffffffffffffff021916908373ffffffffffffffffffffffffffffffffffffffff160217905550662386f26fc10000600481905550611d1a806100776000396000f3fe6080604052600436106100555760003560e01c80630f08efe01461005a57806343fe10d1146100855780639f7699eb146100a1578063bc87597b146100cc578063f005933f146100f5578063f064c32e14610120575b600080fd5b34801561006657600080fd5b5061006f61014b565b60405161007c91906116ae565b60405180910390f35b61009f600480360381019061009a919061172d565b6104a2565b005b3480156100ad57600080fd5b506100b6610874565b6040516100c391906116ae565b60405180910390f35b3480156100d857600080fd5b506100f360048036038101906100ee9190611780565b610bd8565b005b34801561010157600080fd5b5061010a610ece565b60405161011791906117e2565b60405180910390f35b34801561012c57600080fd5b50610135610ed8565b60405161014291906116ae565b60405180910390f35b60606000610159600161123c565b90506000610167600261123c565b82610172919061182c565b90506000808267ffffffffffffffff81111561019157610190611860565b5b6040519080825280602002602001820160405280156101ca57816020015b6101b761145a565b8152602001906001900390816101af5790505b50905060005b8481101561049757600073ffffffffffffffffffffffffffffffffffffffff1660056000600184610201919061188f565b815260200190815260200160002060040160009054906101000a900473ffffffffffffffffffffffffffffffffffffffff1673ffffffffffffffffffffffffffffffffffffffff161415610484576102c66040518060400160405280601381526020017f456e74657220696e746f2066756e6374696f6e000000000000000000000000008152506005600084815260200190815260200160002060040160009054906101000a900473ffffffffffffffffffffffffffffffffffffffff16600061124a565b6000600560006001846102d9919061188f565b8152602001908152602001600020600001549050600060056000838152602001908152602001600020905061030d856112e9565b806040518060e0016040529081600082015481526020016001820160009054906101000a900473ffffffffffffffffffffffffffffffffffffffff1673ffffffffffffffffffffffffffffffffffffffff1673ffffffffffffffffffffffffffffffffffffffff168152602001600282015481526020016003820160009054906101000a900473ffffffffffffffffffffffffffffffffffffffff1673ffffffffffffffffffffffffffffffffffffffff1673ffffffffffffffffffffffffffffffffffffffff1681526020016004820160009054906101000a900473ffffffffffffffffffffffffffffffffffffffff1673ffffffffffffffffffffffffffffffffffffffff1673ffffffffffffffffffffffffffffffffffffffff168152602001600582015481526020016006820160009054906101000a900460ff161515151581525050848681518110610467576104666118e5565b5b602002602001018190525060018561047f919061188f565b945050505b808061048f90611914565b9150506101d0565b508094505050505090565b600260005414156104e8576040517f08c379a00000000000000000000000000000000000000000000000000000000081526004016104df906119ba565b60405180910390fd5b600260008190555060008111610533576040517f08c379a000000000000000000000000000000000000000000000000000000000815260040161052a90611a26565b60405180910390fd5b600454341015610578576040517f08c379a000000000000000000000000000000000000000000000000000000000815260040161056f90611ab8565b60405180910390fd5b6105826001611382565b600061058e600161123c565b90506040518060e001604052808281526020018573ffffffffffffffffffffffffffffffffffffffff1681526020018481526020013373ffffffffffffffffffffffffffffffffffffffff168152602001600073ffffffffffffffffffffffffffffffffffffffff16815260200183815260200160001515815250600560008381526020019081526020016000206000820151816000015560208201518160010160006101000a81548173ffffffffffffffffffffffffffffffffffffffff021916908373ffffffffffffffffffffffffffffffffffffffff1602179055506040820151816002015560608201518160030160006101000a81548173ffffffffffffffffffffffffffffffffffffffff021916908373ffffffffffffffffffffffffffffffffffffffff16021790555060808201518160040160006101000a81548173ffffffffffffffffffffffffffffffffffffffff021916908373ffffffffffffffffffffffffffffffffffffffff16021790555060a0820151816005015560c08201518160060160006101000a81548160ff0219169083151502179055509050508373ffffffffffffffffffffffffffffffffffffffff1663095ea7b330856040518363ffffffff1660e01b815260040161076d929190611ae7565b600060405180830381600087803b15801561078757600080fd5b505af115801561079b573d6000803e3d6000fd5b505050508373ffffffffffffffffffffffffffffffffffffffff166323b872dd3330866040518463ffffffff1660e01b81526004016107dc93929190611b10565b600060405180830381600087803b1580156107f657600080fd5b505af115801561080a573d6000803e3d6000fd5b50505050828473ffffffffffffffffffffffffffffffffffffffff16827f045dfa01dcba2b36aba1d3dc4a874f4b0c5d2fbeb8d2c4b34a7d88c8d8f929d133600087600060405161085e9493929190611b65565b60405180910390a4506001600081905550505050565b60606000610882600161123c565b905060008060005b8381101561092b573373ffffffffffffffffffffffffffffffffffffffff16600560006001846108ba919061188f565b815260200190815260200160002060040160009054906101000a900473ffffffffffffffffffffffffffffffffffffffff1673ffffffffffffffffffffffffffffffffffffffff16141561091857600183610915919061188f565b92505b808061092390611914565b91505061088a565b5060008267ffffffffffffffff81111561094857610947611860565b5b60405190808252806020026020018201604052801561098157816020015b61096e61145a565b8152602001906001900390816109665790505b50905060005b84811015610bcd573373ffffffffffffffffffffffffffffffffffffffff16600560006001846109b7919061188f565b815260200190815260200160002060040160009054906101000a900473ffffffffffffffffffffffffffffffffffffffff1673ffffffffffffffffffffffffffffffffffffffff161415610bba57600060056000600184610a18919061188f565b81526020019081526020016000206000015490506000600560008381526020019081526020016000209050806040518060e0016040529081600082015481526020016001820160009054906101000a900473ffffffffffffffffffffffffffffffffffffffff1673ffffffffffffffffffffffffffffffffffffffff1673ffffffffffffffffffffffffffffffffffffffff168152602001600282015481526020016003820160009054906101000a900473ffffffffffffffffffffffffffffffffffffffff1673ffffffffffffffffffffffffffffffffffffffff1673ffffffffffffffffffffffffffffffffffffffff1681526020016004820160009054906101000a900473ffffffffffffffffffffffffffffffffffffffff1673ffffffffffffffffffffffffffffffffffffffff1673ffffffffffffffffffffffffffffffffffffffff168152602001600582015481526020016006820160009054906101000a900460ff161515151581525050848681518110610b9d57610b9c6118e5565b5b6020026020010181905250600185610bb5919061188f565b945050505b8080610bc590611914565b915050610987565b508094505050505090565b60006005600084815260200190815260200160002060050154905060006005600085815260200190815260200160002060020154905060006005600086815260200190815260200160002060030160009054906101000a900473ffffffffffffffffffffffffffffffffffffffff169050600086905060008173ffffffffffffffffffffffffffffffffffffffff166323b872dd3330886040518463ffffffff1660e01b8152600401610c8d93929190611b10565b6020604051808303816000875af1158015610cac573d6000803e3d6000fd5b505050506040513d601f19601f82011682018060405250810190610cd09190611bd6565b9050610cdb81611398565b8173ffffffffffffffffffffffffffffffffffffffff1663a5f2a1523085886040518463ffffffff1660e01b8152600401610d1893929190611b10565b6020604051808303816000875af1158015610d37573d6000803e3d6000fd5b505050506040513d601f19601f82011682018060405250810190610d5b9190611bd6565b508573ffffffffffffffffffffffffffffffffffffffff166323b872dd3033876040518463ffffffff1660e01b8152600401610d9993929190611b10565b600060405180830381600087803b158015610db357600080fd5b505af1158015610dc7573d6000803e3d6000fd5b50505050336005600089815260200190815260200160002060040160006101000a81548173ffffffffffffffffffffffffffffffffffffffff021916908373ffffffffffffffffffffffffffffffffffffffff16021790555060016005600089815260200190815260200160002060060160006101000a81548160ff021916908315150217905550610e596002611382565b600360009054906101000a900473ffffffffffffffffffffffffffffffffffffffff1673ffffffffffffffffffffffffffffffffffffffff166108fc6004549081150290604051600060405180830381858888f19350505050158015610ec3573d6000803e3d6000fd5b505050505050505050565b6000600454905090565b60606000610ee6600161123c565b905060008060005b83811015610f8f573373ffffffffffffffffffffffffffffffffffffffff1660056000600184610f1e919061188f565b815260200190815260200160002060030160009054906101000a900473ffffffffffffffffffffffffffffffffffffffff1673ffffffffffffffffffffffffffffffffffffffff161415610f7c57600183610f79919061188f565b92505b8080610f8790611914565b915050610eee565b5060008267ffffffffffffffff811115610fac57610fab611860565b5b604051908082528060200260200182016040528015610fe557816020015b610fd261145a565b815260200190600190039081610fca5790505b50905060005b84811015611231573373ffffffffffffffffffffffffffffffffffffffff166005600060018461101b919061188f565b815260200190815260200160002060030160009054906101000a900473ffffffffffffffffffffffffffffffffffffffff1673ffffffffffffffffffffffffffffffffffffffff16141561121e5760006005600060018461107c919061188f565b81526020019081526020016000206000015490506000600560008381526020019081526020016000209050806040518060e0016040529081600082015481526020016001820160009054906101000a900473ffffffffffffffffffffffffffffffffffffffff1673ffffffffffffffffffffffffffffffffffffffff1673ffffffffffffffffffffffffffffffffffffffff168152602001600282015481526020016003820160009054906101000a900473ffffffffffffffffffffffffffffffffffffffff1673ffffffffffffffffffffffffffffffffffffffff1673ffffffffffffffffffffffffffffffffffffffff1681526020016004820160009054906101000a900473ffffffffffffffffffffffffffffffffffffffff1673ffffffffffffffffffffffffffffffffffffffff1673ffffffffffffffffffffffffffffffffffffffff168152602001600582015481526020016006820160009054906101000a900460ff161515151581525050848681518110611201576112006118e5565b5b6020026020010181905250600185611219919061188f565b945050505b808061122990611914565b915050610feb565b508094505050505090565b600081600001549050919050565b6112e483838360405160240161126293929190611c8b565b6040516020818303038152906040527ffcec75e0000000000000000000000000000000000000000000000000000000007bffffffffffffffffffffffffffffffffffffffffffffffffffffffff19166020820180517bffffffffffffffffffffffffffffffffffffffffffffffffffffffff8381831617835250505050611431565b505050565b61137f816040516024016112fd91906117e2565b6040516020818303038152906040527ff5b1bba9000000000000000000000000000000000000000000000000000000007bffffffffffffffffffffffffffffffffffffffffffffffffffffffff19166020820180517bffffffffffffffffffffffffffffffffffffffffffffffffffffffff8381831617835250505050611431565b50565b6001816000016000828254019250508190555050565b61142e816040516024016113ac9190611cc9565b6040516020818303038152906040527f32458eed000000000000000000000000000000000000000000000000000000007bffffffffffffffffffffffffffffffffffffffffffffffffffffffff19166020820180517bffffffffffffffffffffffffffffffffffffffffffffffffffffffff8381831617835250505050611431565b50565b60008151905060006a636f6e736f6c652e6c6f679050602083016000808483855afa5050505050565b6040518060e0016040528060008152602001600073ffffffffffffffffffffffffffffffffffffffff16815260200160008152602001600073ffffffffffffffffffffffffffffffffffffffff168152602001600073ffffffffffffffffffffffffffffffffffffffff168152602001600081526020016000151581525090565b600081519050919050565b600082825260208201905092915050565b6000819050602082019050919050565b6000819050919050565b61151a81611507565b82525050565b600073ffffffffffffffffffffffffffffffffffffffff82169050919050565b600061154b82611520565b9050919050565b61155b81611540565b82525050565b600061156c82611520565b9050919050565b61157c81611561565b82525050565b60008115159050919050565b61159781611582565b82525050565b60e0820160008201516115b36000850182611511565b5060208201516115c66020850182611552565b5060408201516115d96040850182611511565b5060608201516115ec6060850182611573565b5060808201516115ff6080850182611573565b5060a082015161161260a0850182611511565b5060c082015161162560c085018261158e565b50505050565b6000611637838361159d565b60e08301905092915050565b6000602082019050919050565b600061165b826114db565b61166581856114e6565b9350611670836114f7565b8060005b838110156116a1578151611688888261162b565b975061169383611643565b925050600181019050611674565b5085935050505092915050565b600060208201905081810360008301526116c88184611650565b905092915050565b600080fd5b6116de81611540565b81146116e957600080fd5b50565b6000813590506116fb816116d5565b92915050565b61170a81611507565b811461171557600080fd5b50565b60008135905061172781611701565b92915050565b600080600060608486031215611746576117456116d0565b5b6000611754868287016116ec565b935050602061176586828701611718565b925050604061177686828701611718565b9150509250925092565b600080600060608486031215611799576117986116d0565b5b60006117a7868287016116ec565b93505060206117b886828701611718565b92505060406117c9868287016116ec565b9150509250925092565b6117dc81611507565b82525050565b60006020820190506117f760008301846117d3565b92915050565b7f4e487b7100000000000000000000000000000000000000000000000000000000600052601160045260246000fd5b600061183782611507565b915061184283611507565b925082821015611855576118546117fd565b5b828203905092915050565b7f4e487b7100000000000000000000000000000000000000000000000000000000600052604160045260246000fd5b600061189a82611507565b91506118a583611507565b9250827fffffffffffffffffffffffffffffffffffffffffffffffffffffffffffffffff038211156118da576118d96117fd565b5b828201905092915050565b7f4e487b7100000000000000000000000000000000000000000000000000000000600052603260045260246000fd5b600061191f82611507565b91507fffffffffffffffffffffffffffffffffffffffffffffffffffffffffffffffff821415611952576119516117fd565b5b600182019050919050565b600082825260208201905092915050565b7f5265656e7472616e637947756172643a207265656e7472616e742063616c6c00600082015250565b60006119a4601f8361195d565b91506119af8261196e565b602082019050919050565b600060208201905081810360008301526119d381611997565b9050919050565b7f5072696365206d757374206265206174206c6561737420317765690000000000600082015250565b6000611a10601b8361195d565b9150611a1b826119da565b602082019050919050565b60006020820190508181036000830152611a3f81611a03565b9050919050565b7f596f75206861766520746f2070617920302e303120657468657220746f20637260008201527f65617465204e6674000000000000000000000000000000000000000000000000602082015250565b6000611aa260288361195d565b9150611aad82611a46565b604082019050919050565b60006020820190508181036000830152611ad181611a95565b9050919050565b611ae181611540565b82525050565b6000604082019050611afc6000830185611ad8565b611b0960208301846117d3565b9392505050565b6000606082019050611b256000830186611ad8565b611b326020830185611ad8565b611b3f60408301846117d3565b949350505050565b611b5081611561565b82525050565b611b5f81611582565b82525050565b6000608082019050611b7a6000830187611b47565b611b876020830186611b47565b611b9460408301856117d3565b611ba16060830184611b56565b95945050505050565b611bb381611582565b8114611bbe57600080fd5b50565b600081519050611bd081611baa565b92915050565b600060208284031215611bec57611beb6116d0565b5b6000611bfa84828501611bc1565b91505092915050565b600081519050919050565b60005b83811015611c2c578082015181840152602081019050611c11565b83811115611c3b576000848401525b50505050565b6000601f19601f8301169050919050565b6000611c5d82611c03565b611c67818561195d565b9350611c77818560208601611c0e565b611c8081611c41565b840191505092915050565b60006060820190508181036000830152611ca58186611c52565b9050611cb46020830185611ad8565b611cc16040830184611ad8565b949350505050565b6000602082019050611cde6000830184611b56565b9291505056fea26469706673582212202eca8c06bb89bccd0795e94404bcf1ae0b664c09e96ca5014546dec55bb6afd964736f6c634300080b0033",
  "linkReferences": {},
  "deployedLinkReferences": {}
}