{
  "_format": "hh-sol-artifact-1",
  "contractName": "NFTMarket",
  "sourceName": "contracts/NFTMarket.sol",
  "abi": [
    {
      "inputs": [],
      "stateMutability": "nonpayable",
      "type": "constructor"
    },
    {
      "anonymous": false,
      "inputs": [
        {
          "indexed": false,
          "internalType": "address",
          "name": "winner",
          "type": "address"
        },
        {
          "indexed": false,
          "internalType": "uint256",
          "name": "amount",
          "type": "uint256"
        }
      ],
      "name": "AuctionEnded",
      "type": "event"
    },
    {
      "anonymous": false,
      "inputs": [
        {
          "indexed": false,
          "internalType": "uint256",
          "name": "startTime",
          "type": "uint256"
        }
      ],
      "name": "AuctionStarted",
      "type": "event"
    },
    {
      "anonymous": false,
      "inputs": [
        {
          "indexed": false,
          "internalType": "address",
          "name": "seller",
          "type": "address"
        },
        {
          "indexed": false,
          "internalType": "uint256",
          "name": "amount",
          "type": "uint256"
        }
      ],
      "name": "BeneficiaryPaid",
      "type": "event"
    },
    {
      "anonymous": false,
      "inputs": [
        {
          "indexed": false,
          "internalType": "address",
          "name": "bidder",
          "type": "address"
        },
        {
          "indexed": false,
          "internalType": "uint256",
          "name": "amount",
          "type": "uint256"
        }
      ],
      "name": "HighestBidIncreased",
      "type": "event"
    },
    {
      "anonymous": false,
      "inputs": [
        {
          "indexed": true,
          "internalType": "uint256",
          "name": "itemId",
          "type": "uint256"
        },
        {
          "indexed": true,
          "internalType": "address",
          "name": "nftContract",
          "type": "address"
        },
        {
          "indexed": true,
          "internalType": "uint256",
          "name": "tokenId",
          "type": "uint256"
        },
        {
          "indexed": false,
          "internalType": "address payable",
          "name": "seller",
          "type": "address"
        },
        {
          "indexed": false,
          "internalType": "address payable",
          "name": "owner",
          "type": "address"
        },
        {
          "indexed": false,
          "internalType": "uint256",
          "name": "price",
          "type": "uint256"
        },
        {
          "indexed": false,
          "internalType": "bool",
          "name": "sold",
          "type": "bool"
        }
      ],
      "name": "MarketItemCreated",
      "type": "event"
    },
    {
      "inputs": [
        {
          "internalType": "address",
          "name": "nftContract",
          "type": "address"
        },
        {
          "internalType": "uint256",
          "name": "tokenId",
          "type": "uint256"
        },
        {
          "internalType": "uint256",
          "name": "price",
          "type": "uint256"
        }
      ],
      "name": "addItemInMarket",
      "outputs": [],
      "stateMutability": "payable",
      "type": "function"
    },
    {
      "inputs": [
        {
          "internalType": "uint256",
          "name": "_auctionId",
          "type": "uint256"
        },
        {
          "internalType": "address",
          "name": "_tokenAddr",
          "type": "address"
        },
        {
          "internalType": "uint256",
          "name": "_itemId",
          "type": "uint256"
        },
        {
          "internalType": "address",
          "name": "nftContract",
          "type": "address"
        }
      ],
      "name": "auctionEnd",
      "outputs": [],
      "stateMutability": "nonpayable",
      "type": "function"
    },
    {
      "inputs": [
        {
          "internalType": "uint256",
          "name": "",
          "type": "uint256"
        }
      ],
      "name": "auctionItems",
      "outputs": [
        {
          "internalType": "uint256",
          "name": "id",
          "type": "uint256"
        },
        {
          "internalType": "uint256",
          "name": "itemId",
          "type": "uint256"
        },
        {
          "internalType": "address",
          "name": "nftContract",
          "type": "address"
        },
        {
          "internalType": "uint256",
          "name": "tokenId",
          "type": "uint256"
        },
        {
          "internalType": "address payable",
          "name": "seller",
          "type": "address"
        },
        {
          "internalType": "uint256",
          "name": "auctionEndTime",
          "type": "uint256"
        },
        {
          "internalType": "uint256",
          "name": "baseValue",
          "type": "uint256"
        },
        {
          "internalType": "address",
          "name": "highestBidder",
          "type": "address"
        },
        {
          "internalType": "uint256",
          "name": "highestBid",
          "type": "uint256"
        },
        {
          "internalType": "bool",
          "name": "ended",
          "type": "bool"
        },
        {
          "internalType": "bool",
          "name": "sold",
          "type": "bool"
        }
      ],
      "stateMutability": "view",
      "type": "function"
    },
    {
      "inputs": [
        {
          "internalType": "uint256",
          "name": "_auctionId",
          "type": "uint256"
        },
        {
          "internalType": "uint256",
          "name": "_amount",
          "type": "uint256"
        },
        {
          "internalType": "address",
          "name": "_tokenAddr",
          "type": "address"
        }
      ],
      "name": "bid",
      "outputs": [],
      "stateMutability": "nonpayable",
      "type": "function"
    },
    {
      "inputs": [
        {
          "internalType": "address",
          "name": "con",
          "type": "address"
        },
        {
          "internalType": "uint256",
          "name": "itemId",
          "type": "uint256"
        },
        {
          "internalType": "address",
          "name": "nftContract",
          "type": "address"
        }
      ],
      "name": "buyNftFromMarket",
      "outputs": [],
      "stateMutability": "nonpayable",
      "type": "function"
    },
    {
      "inputs": [],
      "name": "fetchItemsCreated",
      "outputs": [
        {
          "components": [
            {
              "internalType": "uint256",
              "name": "itemId",
              "type": "uint256"
            },
            {
              "internalType": "address",
              "name": "nftContract",
              "type": "address"
            },
            {
              "internalType": "uint256",
              "name": "tokenId",
              "type": "uint256"
            },
            {
              "internalType": "address payable",
              "name": "seller",
              "type": "address"
            },
            {
              "internalType": "address payable",
              "name": "owner",
              "type": "address"
            },
            {
              "internalType": "uint256",
              "name": "price",
              "type": "uint256"
            },
            {
              "internalType": "bool",
              "name": "sold",
              "type": "bool"
            }
          ],
          "internalType": "struct NFTMarket.MarketItem[]",
          "name": "",
          "type": "tuple[]"
        }
      ],
      "stateMutability": "view",
      "type": "function"
    },
    {
      "inputs": [],
      "name": "fetchMarketItems",
      "outputs": [
        {
          "components": [
            {
              "internalType": "uint256",
              "name": "itemId",
              "type": "uint256"
            },
            {
              "internalType": "address",
              "name": "nftContract",
              "type": "address"
            },
            {
              "internalType": "uint256",
              "name": "tokenId",
              "type": "uint256"
            },
            {
              "internalType": "address payable",
              "name": "seller",
              "type": "address"
            },
            {
              "internalType": "address payable",
              "name": "owner",
              "type": "address"
            },
            {
              "internalType": "uint256",
              "name": "price",
              "type": "uint256"
            },
            {
              "internalType": "bool",
              "name": "sold",
              "type": "bool"
            }
          ],
          "internalType": "struct NFTMarket.MarketItem[]",
          "name": "",
          "type": "tuple[]"
        }
      ],
      "stateMutability": "view",
      "type": "function"
    },
    {
      "inputs": [],
      "name": "fetchMyNft",
      "outputs": [
        {
          "components": [
            {
              "internalType": "uint256",
              "name": "itemId",
              "type": "uint256"
            },
            {
              "internalType": "address",
              "name": "nftContract",
              "type": "address"
            },
            {
              "internalType": "uint256",
              "name": "tokenId",
              "type": "uint256"
            },
            {
              "internalType": "address payable",
              "name": "seller",
              "type": "address"
            },
            {
              "internalType": "address payable",
              "name": "owner",
              "type": "address"
            },
            {
              "internalType": "uint256",
              "name": "price",
              "type": "uint256"
            },
            {
              "internalType": "bool",
              "name": "sold",
              "type": "bool"
            }
          ],
          "internalType": "struct NFTMarket.MarketItem[]",
          "name": "",
          "type": "tuple[]"
        }
      ],
      "stateMutability": "view",
      "type": "function"
    },
    {
      "inputs": [
        {
          "internalType": "uint256",
          "name": "_id",
          "type": "uint256"
        }
      ],
      "name": "getHighestBid",
      "outputs": [
        {
          "internalType": "uint256",
          "name": "",
          "type": "uint256"
        }
      ],
      "stateMutability": "view",
      "type": "function"
    },
    {
      "inputs": [
        {
          "internalType": "uint256",
          "name": "_id",
          "type": "uint256"
        }
      ],
      "name": "getHighestBidder",
      "outputs": [
        {
          "internalType": "address",
          "name": "",
          "type": "address"
        }
      ],
      "stateMutability": "view",
      "type": "function"
    },
    {
      "inputs": [
        {
          "internalType": "uint256",
          "name": "_auctionId",
          "type": "uint256"
        }
      ],
      "name": "getItem",
      "outputs": [
        {
          "components": [
            {
              "internalType": "uint256",
              "name": "id",
              "type": "uint256"
            },
            {
              "internalType": "uint256",
              "name": "itemId",
              "type": "uint256"
            },
            {
              "internalType": "address",
              "name": "nftContract",
              "type": "address"
            },
            {
              "internalType": "uint256",
              "name": "tokenId",
              "type": "uint256"
            },
            {
              "internalType": "address payable",
              "name": "seller",
              "type": "address"
            },
            {
              "internalType": "uint256",
              "name": "auctionEndTime",
              "type": "uint256"
            },
            {
              "internalType": "uint256",
              "name": "baseValue",
              "type": "uint256"
            },
            {
              "internalType": "address",
              "name": "highestBidder",
              "type": "address"
            },
            {
              "internalType": "uint256",
              "name": "highestBid",
              "type": "uint256"
            },
            {
              "internalType": "bool",
              "name": "ended",
              "type": "bool"
            },
            {
              "internalType": "bool",
              "name": "sold",
              "type": "bool"
            }
          ],
          "internalType": "struct NFTMarket.AuctionItem",
          "name": "",
          "type": "tuple"
        }
      ],
      "stateMutability": "view",
      "type": "function"
    },
    {
      "inputs": [],
      "name": "getMarketListingPrice",
      "outputs": [
        {
          "internalType": "uint256",
          "name": "",
          "type": "uint256"
        }
      ],
      "stateMutability": "view",
      "type": "function"
    },
    {
      "inputs": [],
      "name": "getauctionItems",
      "outputs": [
        {
          "components": [
            {
              "internalType": "uint256",
              "name": "id",
              "type": "uint256"
            },
            {
              "internalType": "uint256",
              "name": "itemId",
              "type": "uint256"
            },
            {
              "internalType": "address",
              "name": "nftContract",
              "type": "address"
            },
            {
              "internalType": "uint256",
              "name": "tokenId",
              "type": "uint256"
            },
            {
              "internalType": "address payable",
              "name": "seller",
              "type": "address"
            },
            {
              "internalType": "uint256",
              "name": "auctionEndTime",
              "type": "uint256"
            },
            {
              "internalType": "uint256",
              "name": "baseValue",
              "type": "uint256"
            },
            {
              "internalType": "address",
              "name": "highestBidder",
              "type": "address"
            },
            {
              "internalType": "uint256",
              "name": "highestBid",
              "type": "uint256"
            },
            {
              "internalType": "bool",
              "name": "ended",
              "type": "bool"
            },
            {
              "internalType": "bool",
              "name": "sold",
              "type": "bool"
            }
          ],
          "internalType": "struct NFTMarket.AuctionItem[]",
          "name": "",
          "type": "tuple[]"
        }
      ],
      "stateMutability": "view",
      "type": "function"
    },
    {
      "inputs": [
        {
          "internalType": "uint256",
          "name": "_biddingTime",
          "type": "uint256"
        },
        {
          "internalType": "uint256",
          "name": "_baseValue",
          "type": "uint256"
        },
        {
          "internalType": "address",
          "name": "_nftContract",
          "type": "address"
        },
        {
          "internalType": "uint256",
          "name": "_itemId",
          "type": "uint256"
        },
        {
          "internalType": "uint256",
          "name": "_tokenId",
          "type": "uint256"
        }
      ],
      "name": "startAuction",
      "outputs": [],
      "stateMutability": "payable",
      "type": "function"
    }
  ],
  "bytecode": "0x608060405234801561001057600080fd5b50600160008190555033600360006101000a81548173ffffffffffffffffffffffffffffffffffffffff021916908373ffffffffffffffffffffffffffffffffffffffff160217905550662386f26fc10000600481905550613f7d806100776000396000f3fe6080604052600436106100dd5760003560e01c80639f7699eb1161007f578063c750cb7911610059578063c750cb7914610290578063d2c069f0146102cd578063f005933f14610314578063f064c32e1461033f576100dd565b80639f7699eb14610220578063b374ca651461024b578063bc87597b14610267576100dd565b806343fe10d1116100bb57806343fe10d1146101735780635ac645b21461018f578063742f0a90146101ba5780638f288644146101e3576100dd565b80630f08efe0146100e257806316efb4751461010d5780633129e77314610136575b600080fd5b3480156100ee57600080fd5b506100f761036a565b604051610104919061300c565b60405180910390f35b34801561011957600080fd5b50610134600480360381019061012f919061308b565b6106c1565b005b34801561014257600080fd5b5061015d600480360381019061015891906130f2565b610b97565b60405161016a9190613200565b60405180910390f35b61018d6004803603810190610188919061321c565b610d48565b005b34801561019b57600080fd5b506101a46110b6565b6040516101b19190613400565b60405180910390f35b3480156101c657600080fd5b506101e160048036038101906101dc9190613422565b61128a565b005b3480156101ef57600080fd5b5061020a600480360381019061020591906130f2565b611b89565b6040516102179190613484565b60405180910390f35b34801561022c57600080fd5b50610235611bb8565b604051610242919061300c565b60405180910390f35b6102656004803603810190610260919061349f565b611f1c565b005b34801561027357600080fd5b5061028e6004803603810190610289919061351a565b61221b565b005b34801561029c57600080fd5b506102b760048036038101906102b291906130f2565b612521565b6040516102c4919061357c565b60405180910390f35b3480156102d957600080fd5b506102f460048036038101906102ef91906130f2565b612570565b60405161030b9b9a999897969594939291906135b5565b60405180910390f35b34801561032057600080fd5b50610329612654565b6040516103369190613484565b60405180910390f35b34801561034b57600080fd5b5061035461265e565b604051610361919061300c565b60405180910390f35b6060600061037860016129c2565b9050600061038660026129c2565b82610391919061368f565b90506000808267ffffffffffffffff8111156103b0576103af6136c3565b5b6040519080825280602002602001820160405280156103e957816020015b6103d6612d18565b8152602001906001900390816103ce5790505b50905060005b848110156106b657600073ffffffffffffffffffffffffffffffffffffffff166006600060018461042091906136f2565b815260200190815260200160002060040160009054906101000a900473ffffffffffffffffffffffffffffffffffffffff1673ffffffffffffffffffffffffffffffffffffffff1614156106a3576104e56040518060400160405280601381526020017f456e74657220696e746f2066756e6374696f6e000000000000000000000000008152506006600084815260200190815260200160002060040160009054906101000a900473ffffffffffffffffffffffffffffffffffffffff1660006129d0565b6000600660006001846104f891906136f2565b8152602001908152602001600020600001549050600060066000838152602001908152602001600020905061052c85612a6f565b806040518060e0016040529081600082015481526020016001820160009054906101000a900473ffffffffffffffffffffffffffffffffffffffff1673ffffffffffffffffffffffffffffffffffffffff1673ffffffffffffffffffffffffffffffffffffffff168152602001600282015481526020016003820160009054906101000a900473ffffffffffffffffffffffffffffffffffffffff1673ffffffffffffffffffffffffffffffffffffffff1673ffffffffffffffffffffffffffffffffffffffff1681526020016004820160009054906101000a900473ffffffffffffffffffffffffffffffffffffffff1673ffffffffffffffffffffffffffffffffffffffff1673ffffffffffffffffffffffffffffffffffffffff168152602001600582015481526020016006820160009054906101000a900460ff16151515158152505084868151811061068657610685613748565b5b602002602001018190525060018561069e91906136f2565b945050505b80806106ae90613777565b9150506103ef565b508094505050505090565b6106ca82612a6f565b6000600585815481106106e0576106df613748565b5b90600052602060002090600a02016003015490506005858154811061070857610707613748565b5b90600052602060002090600a02016005015442101561075c576040517f08c379a000000000000000000000000000000000000000000000000000000000815260040161075390613843565b60405180910390fd5b600585815481106107705761076f613748565b5b90600052602060002090600a020160090160009054906101000a900460ff16156107cf576040517f08c379a00000000000000000000000000000000000000000000000000000000081526004016107c6906138d5565b60405180910390fd5b600073ffffffffffffffffffffffffffffffffffffffff16600586815481106107fb576107fa613748565b5b90600052602060002090600a020160070160009054906101000a900473ffffffffffffffffffffffffffffffffffffffff1673ffffffffffffffffffffffffffffffffffffffff161415610884576040517f08c379a000000000000000000000000000000000000000000000000000000000815260040161087b90613941565b60405180910390fd5b60006005868154811061089a57610899613748565b5b90600052602060002090600a02016008015490506000600587815481106108c4576108c3613748565b5b90600052602060002090600a020160040160009054906101000a900473ffffffffffffffffffffffffffffffffffffffff16905060006005888154811061090e5761090d613748565b5b90600052602060002090600a020160070160009054906101000a900473ffffffffffffffffffffffffffffffffffffffff16905061094b84612a6f565b60016005898154811061096157610960613748565b5b90600052602060002090600a020160090160006101000a81548160ff0219169083151502179055507fdaec4582d5d9595688c8c98545fdd1c696d41c6aeaeb636737e84ed2f5c00eda81846040516109ba929190613961565b60405180910390a18673ffffffffffffffffffffffffffffffffffffffff166323b872dd8284866040518463ffffffff1660e01b81526004016109ff9392919061398a565b602060405180830381600087803b158015610a1957600080fd5b505af1158015610a2d573d6000803e3d6000fd5b505050506040513d601f19601f82011682018060405250810190610a5191906139ed565b508473ffffffffffffffffffffffffffffffffffffffff166323b872dd3083876040518463ffffffff1660e01b8152600401610a8f9392919061398a565b600060405180830381600087803b158015610aa957600080fd5b505af1158015610abd573d6000803e3d6000fd5b50505050336006600088815260200190815260200160002060040160006101000a81548173ffffffffffffffffffffffffffffffffffffffff021916908373ffffffffffffffffffffffffffffffffffffffff16021790555060016006600088815260200190815260200160002060060160006101000a81548160ff021916908315150217905550600160058981548110610b5b57610b5a613748565b5b90600052602060002090600a020160090160016101000a81548160ff021916908315150217905550610b8d6002612b08565b5050505050505050565b610b9f612d99565b60058281548110610bb357610bb2613748565b5b90600052602060002090600a02016040518061016001604052908160008201548152602001600182015481526020016002820160009054906101000a900473ffffffffffffffffffffffffffffffffffffffff1673ffffffffffffffffffffffffffffffffffffffff1673ffffffffffffffffffffffffffffffffffffffff168152602001600382015481526020016004820160009054906101000a900473ffffffffffffffffffffffffffffffffffffffff1673ffffffffffffffffffffffffffffffffffffffff1673ffffffffffffffffffffffffffffffffffffffff16815260200160058201548152602001600682015481526020016007820160009054906101000a900473ffffffffffffffffffffffffffffffffffffffff1673ffffffffffffffffffffffffffffffffffffffff1673ffffffffffffffffffffffffffffffffffffffff168152602001600882015481526020016009820160009054906101000a900460ff161515151581526020016009820160019054906101000a900460ff1615151515815250509050919050565b60026000541415610d8e576040517f08c379a0000000000000000000000000000000000000000000000000000000008152600401610d8590613a66565b60405180910390fd5b600260008190555060008111610dd9576040517f08c379a0000000000000000000000000000000000000000000000000000000008152600401610dd090613ad2565b60405180910390fd5b600454341015610e1e576040517f08c379a0000000000000000000000000000000000000000000000000000000008152600401610e1590613b64565b60405180910390fd5b610e286001612b08565b6000610e3460016129c2565b90506040518060e001604052808281526020018573ffffffffffffffffffffffffffffffffffffffff1681526020018481526020013373ffffffffffffffffffffffffffffffffffffffff168152602001600073ffffffffffffffffffffffffffffffffffffffff16815260200183815260200160001515815250600660008381526020019081526020016000206000820151816000015560208201518160010160006101000a81548173ffffffffffffffffffffffffffffffffffffffff021916908373ffffffffffffffffffffffffffffffffffffffff1602179055506040820151816002015560608201518160030160006101000a81548173ffffffffffffffffffffffffffffffffffffffff021916908373ffffffffffffffffffffffffffffffffffffffff16021790555060808201518160040160006101000a81548173ffffffffffffffffffffffffffffffffffffffff021916908373ffffffffffffffffffffffffffffffffffffffff16021790555060a0820151816005015560c08201518160060160006101000a81548160ff021916908315150217905550905050610fe184612b1e565b8373ffffffffffffffffffffffffffffffffffffffff166323b872dd3330866040518463ffffffff1660e01b815260040161101e9392919061398a565b600060405180830381600087803b15801561103857600080fd5b505af115801561104c573d6000803e3d6000fd5b50505050828473ffffffffffffffffffffffffffffffffffffffff16827f045dfa01dcba2b36aba1d3dc4a874f4b0c5d2fbeb8d2c4b34a7d88c8d8f929d13360008760006040516110a09493929190613b84565b60405180910390a4506001600081905550505050565b60606005805480602002602001604051908101604052809291908181526020016000905b8282101561128157838290600052602060002090600a02016040518061016001604052908160008201548152602001600182015481526020016002820160009054906101000a900473ffffffffffffffffffffffffffffffffffffffff1673ffffffffffffffffffffffffffffffffffffffff1673ffffffffffffffffffffffffffffffffffffffff168152602001600382015481526020016004820160009054906101000a900473ffffffffffffffffffffffffffffffffffffffff1673ffffffffffffffffffffffffffffffffffffffff1673ffffffffffffffffffffffffffffffffffffffff16815260200160058201548152602001600682015481526020016007820160009054906101000a900473ffffffffffffffffffffffffffffffffffffffff1673ffffffffffffffffffffffffffffffffffffffff1673ffffffffffffffffffffffffffffffffffffffff168152602001600882015481526020016009820160009054906101000a900460ff161515151581526020016009820160019054906101000a900460ff161515151581525050815260200190600101906110da565b50505050905090565b6005838154811061129e5761129d613748565b5b90600052602060002090600a0201600501544211156112f2576040517f08c379a00000000000000000000000000000000000000000000000000000000081526004016112e990613c3b565b60405180910390fd5b6005838154811061130657611305613748565b5b90600052602060002090600a0201600601548211611359576040517f08c379a000000000000000000000000000000000000000000000000000000000815260040161135090613ccd565b60405180910390fd5b6005838154811061136d5761136c613748565b5b90600052602060002090600a02016008015482116113c0576040517f08c379a00000000000000000000000000000000000000000000000000000000081526004016113b790613d5f565b60405180910390fd5b60008173ffffffffffffffffffffffffffffffffffffffff1663dd62ed3e33306040518363ffffffff1660e01b81526004016113fd929190613d7f565b60206040518083038186803b15801561141557600080fd5b505afa158015611429573d6000803e3d6000fd5b505050506040513d601f19601f8201168201806040525081019061144d9190613dbd565b905061148e6040518060400160405280601081526020017f63757272656e74416c6c6f77616e63650000000000000000000000000000000081525082612bb7565b6114cd6040518060400160405280601881526020017f6d73672e73656e64657220696e2062696420666e3a202573000000000000000081525033612c53565b60008111611690578173ffffffffffffffffffffffffffffffffffffffff1663095ea7b330856040518363ffffffff1660e01b8152600401611510929190613961565b602060405180830381600087803b15801561152a57600080fd5b505af115801561153e573d6000803e3d6000fd5b505050506040513d601f19601f8201168201806040525081019061156291906139ed565b5060006005858154811061157957611578613748565b5b90600052602060002090600a0201600801541461168b578173ffffffffffffffffffffffffffffffffffffffff16638fea1e4d30600587815481106115c1576115c0613748565b5b90600052602060002090600a020160080154600588815481106115e7576115e6613748565b5b90600052602060002090600a020160070160009054906101000a900473ffffffffffffffffffffffffffffffffffffffff166040518463ffffffff1660e01b815260040161163793929190613dea565b602060405180830381600087803b15801561165157600080fd5b505af1158015611665573d6000803e3d6000fd5b505050506040513d601f19601f8201168201806040525081019061168991906139ed565b505b611a52565b600584815481106116a4576116a3613748565b5b90600052602060002090600a020160070160009054906101000a900473ffffffffffffffffffffffffffffffffffffffff1673ffffffffffffffffffffffffffffffffffffffff163373ffffffffffffffffffffffffffffffffffffffff161415611898578173ffffffffffffffffffffffffffffffffffffffff16638fea1e4d306005878154811061173a57611739613748565b5b90600052602060002090600a020160080154600588815481106117605761175f613748565b5b90600052602060002090600a020160070160009054906101000a900473ffffffffffffffffffffffffffffffffffffffff166040518463ffffffff1660e01b81526004016117b093929190613dea565b602060405180830381600087803b1580156117ca57600080fd5b505af11580156117de573d6000803e3d6000fd5b505050506040513d601f19601f8201168201806040525081019061180291906139ed565b508173ffffffffffffffffffffffffffffffffffffffff1663cdfdb7d63085336040518463ffffffff1660e01b815260040161184093929190613dea565b602060405180830381600087803b15801561185a57600080fd5b505af115801561186e573d6000803e3d6000fd5b505050506040513d601f19601f8201168201806040525081019061189291906139ed565b50611a51565b8173ffffffffffffffffffffffffffffffffffffffff1663cdfdb7d63085336040518463ffffffff1660e01b81526004016118d593929190613dea565b602060405180830381600087803b1580156118ef57600080fd5b505af1158015611903573d6000803e3d6000fd5b505050506040513d601f19601f8201168201806040525081019061192791906139ed565b5060006005858154811061193e5761193d613748565b5b90600052602060002090600a02016008015414611a50578173ffffffffffffffffffffffffffffffffffffffff16638fea1e4d306005878154811061198657611985613748565b5b90600052602060002090600a020160080154600588815481106119ac576119ab613748565b5b90600052602060002090600a020160070160009054906101000a900473ffffffffffffffffffffffffffffffffffffffff166040518463ffffffff1660e01b81526004016119fc93929190613dea565b602060405180830381600087803b158015611a1657600080fd5b505af1158015611a2a573d6000803e3d6000fd5b505050506040513d601f19601f82011682018060405250810190611a4e91906139ed565b505b5b5b3360058581548110611a6757611a66613748565b5b90600052602060002090600a020160070160006101000a81548173ffffffffffffffffffffffffffffffffffffffff021916908373ffffffffffffffffffffffffffffffffffffffff1602179055508260058581548110611acb57611aca613748565b5b90600052602060002090600a0201600801819055507ff4757a49b326036464bec6fe419a4ae38c8a02ce3e68bf0809674f6aab8ad30060058581548110611b1557611b14613748565b5b90600052602060002090600a020160070160009054906101000a900473ffffffffffffffffffffffffffffffffffffffff1660058681548110611b5b57611b5a613748565b5b90600052602060002090600a020160080154604051611b7b929190613961565b60405180910390a150505050565b600060058281548110611b9f57611b9e613748565b5b90600052602060002090600a0201600801549050919050565b60606000611bc660016129c2565b905060008060005b83811015611c6f573373ffffffffffffffffffffffffffffffffffffffff1660066000600184611bfe91906136f2565b815260200190815260200160002060040160009054906101000a900473ffffffffffffffffffffffffffffffffffffffff1673ffffffffffffffffffffffffffffffffffffffff161415611c5c57600183611c5991906136f2565b92505b8080611c6790613777565b915050611bce565b5060008267ffffffffffffffff811115611c8c57611c8b6136c3565b5b604051908082528060200260200182016040528015611cc557816020015b611cb2612d18565b815260200190600190039081611caa5790505b50905060005b84811015611f11573373ffffffffffffffffffffffffffffffffffffffff1660066000600184611cfb91906136f2565b815260200190815260200160002060040160009054906101000a900473ffffffffffffffffffffffffffffffffffffffff1673ffffffffffffffffffffffffffffffffffffffff161415611efe57600060066000600184611d5c91906136f2565b81526020019081526020016000206000015490506000600660008381526020019081526020016000209050806040518060e0016040529081600082015481526020016001820160009054906101000a900473ffffffffffffffffffffffffffffffffffffffff1673ffffffffffffffffffffffffffffffffffffffff1673ffffffffffffffffffffffffffffffffffffffff168152602001600282015481526020016003820160009054906101000a900473ffffffffffffffffffffffffffffffffffffffff1673ffffffffffffffffffffffffffffffffffffffff1673ffffffffffffffffffffffffffffffffffffffff1681526020016004820160009054906101000a900473ffffffffffffffffffffffffffffffffffffffff1673ffffffffffffffffffffffffffffffffffffffff1673ffffffffffffffffffffffffffffffffffffffff168152602001600582015481526020016006820160009054906101000a900460ff161515151581525050848681518110611ee157611ee0613748565b5b6020026020010181905250600185611ef991906136f2565b945050505b8080611f0990613777565b915050611ccb565b508094505050505090565b6000600580549050905060056040518061016001604052808381526020018581526020018673ffffffffffffffffffffffffffffffffffffffff1681526020018481526020013373ffffffffffffffffffffffffffffffffffffffff1681526020018842611f8a91906136f2565b8152602001878152602001600073ffffffffffffffffffffffffffffffffffffffff168152602001600081526020016000151581526020016000151581525090806001815401808255809150506001900390600052602060002090600a0201600090919091909150600082015181600001556020820151816001015560408201518160020160006101000a81548173ffffffffffffffffffffffffffffffffffffffff021916908373ffffffffffffffffffffffffffffffffffffffff1602179055506060820151816003015560808201518160040160006101000a81548173ffffffffffffffffffffffffffffffffffffffff021916908373ffffffffffffffffffffffffffffffffffffffff16021790555060a0820151816005015560c0820151816006015560e08201518160070160006101000a81548173ffffffffffffffffffffffffffffffffffffffff021916908373ffffffffffffffffffffffffffffffffffffffff16021790555061010082015181600801556101208201518160090160006101000a81548160ff0219169083151502179055506101408201518160090160016101000a81548160ff02191690831515021790555050508373ffffffffffffffffffffffffffffffffffffffff166323b872dd3330856040518463ffffffff1660e01b81526004016121859392919061398a565b600060405180830381600087803b15801561219f57600080fd5b505af11580156121b3573d6000803e3d6000fd5b505050507f1bb96dff6ab5005aff98cdc0cf176bb7d8e0423cb48e02217d35b042cec81e9f600582815481106121ec576121eb613748565b5b90600052602060002090600a02016005015460405161220b9190613484565b60405180910390a1505050505050565b60006006600084815260200190815260200160002060050154905060006006600085815260200190815260200160002060020154905060006006600086815260200190815260200160002060030160009054906101000a900473ffffffffffffffffffffffffffffffffffffffff16905061229582612a6f565b8573ffffffffffffffffffffffffffffffffffffffff16632ccb1b3030856040518363ffffffff1660e01b81526004016122d0929190613961565b602060405180830381600087803b1580156122ea57600080fd5b505af11580156122fe573d6000803e3d6000fd5b505050506040513d601f19601f8201168201806040525081019061232291906139ed565b508573ffffffffffffffffffffffffffffffffffffffff1663a9059cbb82856040518363ffffffff1660e01b815260040161235e929190613961565b602060405180830381600087803b15801561237857600080fd5b505af115801561238c573d6000803e3d6000fd5b505050506040513d601f19601f820116820180604052508101906123b091906139ed565b508373ffffffffffffffffffffffffffffffffffffffff166323b872dd3033856040518463ffffffff1660e01b81526004016123ee9392919061398a565b600060405180830381600087803b15801561240857600080fd5b505af115801561241c573d6000803e3d6000fd5b50505050336006600087815260200190815260200160002060040160006101000a81548173ffffffffffffffffffffffffffffffffffffffff021916908373ffffffffffffffffffffffffffffffffffffffff16021790555060016006600087815260200190815260200160002060060160006101000a81548160ff0219169083151502179055506124ae6002612b08565b600360009054906101000a900473ffffffffffffffffffffffffffffffffffffffff1673ffffffffffffffffffffffffffffffffffffffff166108fc6004549081150290604051600060405180830381858888f19350505050158015612518573d6000803e3d6000fd5b50505050505050565b60006005828154811061253757612536613748565b5b90600052602060002090600a020160070160009054906101000a900473ffffffffffffffffffffffffffffffffffffffff169050919050565b6005818154811061258057600080fd5b90600052602060002090600a02016000915090508060000154908060010154908060020160009054906101000a900473ffffffffffffffffffffffffffffffffffffffff16908060030154908060040160009054906101000a900473ffffffffffffffffffffffffffffffffffffffff16908060050154908060060154908060070160009054906101000a900473ffffffffffffffffffffffffffffffffffffffff16908060080154908060090160009054906101000a900460ff16908060090160019054906101000a900460ff1690508b565b6000600454905090565b6060600061266c60016129c2565b905060008060005b83811015612715573373ffffffffffffffffffffffffffffffffffffffff16600660006001846126a491906136f2565b815260200190815260200160002060030160009054906101000a900473ffffffffffffffffffffffffffffffffffffffff1673ffffffffffffffffffffffffffffffffffffffff161415612702576001836126ff91906136f2565b92505b808061270d90613777565b915050612674565b5060008267ffffffffffffffff811115612732576127316136c3565b5b60405190808252806020026020018201604052801561276b57816020015b612758612d18565b8152602001906001900390816127505790505b50905060005b848110156129b7573373ffffffffffffffffffffffffffffffffffffffff16600660006001846127a191906136f2565b815260200190815260200160002060030160009054906101000a900473ffffffffffffffffffffffffffffffffffffffff1673ffffffffffffffffffffffffffffffffffffffff1614156129a45760006006600060018461280291906136f2565b81526020019081526020016000206000015490506000600660008381526020019081526020016000209050806040518060e0016040529081600082015481526020016001820160009054906101000a900473ffffffffffffffffffffffffffffffffffffffff1673ffffffffffffffffffffffffffffffffffffffff1673ffffffffffffffffffffffffffffffffffffffff168152602001600282015481526020016003820160009054906101000a900473ffffffffffffffffffffffffffffffffffffffff1673ffffffffffffffffffffffffffffffffffffffff1673ffffffffffffffffffffffffffffffffffffffff1681526020016004820160009054906101000a900473ffffffffffffffffffffffffffffffffffffffff1673ffffffffffffffffffffffffffffffffffffffff1673ffffffffffffffffffffffffffffffffffffffff168152602001600582015481526020016006820160009054906101000a900460ff16151515158152505084868151811061298757612986613748565b5b602002602001018190525060018561299f91906136f2565b945050505b80806129af90613777565b915050612771565b508094505050505090565b600081600001549050919050565b612a6a8383836040516024016129e893929190613ea9565b6040516020818303038152906040527ffcec75e0000000000000000000000000000000000000000000000000000000007bffffffffffffffffffffffffffffffffffffffffffffffffffffffff19166020820180517bffffffffffffffffffffffffffffffffffffffffffffffffffffffff8381831617835250505050612cef565b505050565b612b0581604051602401612a839190613484565b6040516020818303038152906040527ff5b1bba9000000000000000000000000000000000000000000000000000000007bffffffffffffffffffffffffffffffffffffffffffffffffffffffff19166020820180517bffffffffffffffffffffffffffffffffffffffffffffffffffffffff8381831617835250505050612cef565b50565b6001816000016000828254019250508190555050565b612bb481604051602401612b32919061357c565b6040516020818303038152906040527f2c2ecbc2000000000000000000000000000000000000000000000000000000007bffffffffffffffffffffffffffffffffffffffffffffffffffffffff19166020820180517bffffffffffffffffffffffffffffffffffffffffffffffffffffffff8381831617835250505050612cef565b50565b612c4f8282604051602401612bcd929190613ee7565b6040516020818303038152906040527f9710a9d0000000000000000000000000000000000000000000000000000000007bffffffffffffffffffffffffffffffffffffffffffffffffffffffff19166020820180517bffffffffffffffffffffffffffffffffffffffffffffffffffffffff8381831617835250505050612cef565b5050565b612ceb8282604051602401612c69929190613f17565b6040516020818303038152906040527f319af333000000000000000000000000000000000000000000000000000000007bffffffffffffffffffffffffffffffffffffffffffffffffffffffff19166020820180517bffffffffffffffffffffffffffffffffffffffffffffffffffffffff8381831617835250505050612cef565b5050565b60008151905060006a636f6e736f6c652e6c6f679050602083016000808483855afa5050505050565b6040518060e0016040528060008152602001600073ffffffffffffffffffffffffffffffffffffffff16815260200160008152602001600073ffffffffffffffffffffffffffffffffffffffff168152602001600073ffffffffffffffffffffffffffffffffffffffff168152602001600081526020016000151581525090565b6040518061016001604052806000815260200160008152602001600073ffffffffffffffffffffffffffffffffffffffff16815260200160008152602001600073ffffffffffffffffffffffffffffffffffffffff1681526020016000815260200160008152602001600073ffffffffffffffffffffffffffffffffffffffff168152602001600081526020016000151581526020016000151581525090565b600081519050919050565b600082825260208201905092915050565b6000819050602082019050919050565b6000819050919050565b612e7881612e65565b82525050565b600073ffffffffffffffffffffffffffffffffffffffff82169050919050565b6000612ea982612e7e565b9050919050565b612eb981612e9e565b82525050565b6000612eca82612e7e565b9050919050565b612eda81612ebf565b82525050565b60008115159050919050565b612ef581612ee0565b82525050565b60e082016000820151612f116000850182612e6f565b506020820151612f246020850182612eb0565b506040820151612f376040850182612e6f565b506060820151612f4a6060850182612ed1565b506080820151612f5d6080850182612ed1565b5060a0820151612f7060a0850182612e6f565b5060c0820151612f8360c0850182612eec565b50505050565b6000612f958383612efb565b60e08301905092915050565b6000602082019050919050565b6000612fb982612e39565b612fc38185612e44565b9350612fce83612e55565b8060005b83811015612fff578151612fe68882612f89565b9750612ff183612fa1565b925050600181019050612fd2565b5085935050505092915050565b600060208201905081810360008301526130268184612fae565b905092915050565b600080fd5b61303c81612e65565b811461304757600080fd5b50565b60008135905061305981613033565b92915050565b61306881612e9e565b811461307357600080fd5b50565b6000813590506130858161305f565b92915050565b600080600080608085870312156130a5576130a461302e565b5b60006130b38782880161304a565b94505060206130c487828801613076565b93505060406130d58782880161304a565b92505060606130e687828801613076565b91505092959194509250565b6000602082840312156131085761310761302e565b5b60006131168482850161304a565b91505092915050565b610160820160008201516131366000850182612e6f565b5060208201516131496020850182612e6f565b50604082015161315c6040850182612eb0565b50606082015161316f6060850182612e6f565b5060808201516131826080850182612ed1565b5060a082015161319560a0850182612e6f565b5060c08201516131a860c0850182612e6f565b5060e08201516131bb60e0850182612eb0565b506101008201516131d0610100850182612e6f565b506101208201516131e5610120850182612eec565b506101408201516131fa610140850182612eec565b50505050565b600061016082019050613216600083018461311f565b92915050565b6000806000606084860312156132355761323461302e565b5b600061324386828701613076565b93505060206132548682870161304a565b92505060406132658682870161304a565b9150509250925092565b600081519050919050565b600082825260208201905092915050565b6000819050602082019050919050565b610160820160008201516132b26000850182612e6f565b5060208201516132c56020850182612e6f565b5060408201516132d86040850182612eb0565b5060608201516132eb6060850182612e6f565b5060808201516132fe6080850182612ed1565b5060a082015161331160a0850182612e6f565b5060c082015161332460c0850182612e6f565b5060e082015161333760e0850182612eb0565b5061010082015161334c610100850182612e6f565b50610120820151613361610120850182612eec565b50610140820151613376610140850182612eec565b50505050565b6000613388838361329b565b6101608301905092915050565b6000602082019050919050565b60006133ad8261326f565b6133b7818561327a565b93506133c28361328b565b8060005b838110156133f35781516133da888261337c565b97506133e583613395565b9250506001810190506133c6565b5085935050505092915050565b6000602082019050818103600083015261341a81846133a2565b905092915050565b60008060006060848603121561343b5761343a61302e565b5b60006134498682870161304a565b935050602061345a8682870161304a565b925050604061346b86828701613076565b9150509250925092565b61347e81612e65565b82525050565b60006020820190506134996000830184613475565b92915050565b600080600080600060a086880312156134bb576134ba61302e565b5b60006134c98882890161304a565b95505060206134da8882890161304a565b94505060406134eb88828901613076565b93505060606134fc8882890161304a565b925050608061350d8882890161304a565b9150509295509295909350565b6000806000606084860312156135335761353261302e565b5b600061354186828701613076565b93505060206135528682870161304a565b925050604061356386828701613076565b9150509250925092565b61357681612e9e565b82525050565b6000602082019050613591600083018461356d565b92915050565b6135a081612ebf565b82525050565b6135af81612ee0565b82525050565b6000610160820190506135cb600083018e613475565b6135d8602083018d613475565b6135e5604083018c61356d565b6135f2606083018b613475565b6135ff608083018a613597565b61360c60a0830189613475565b61361960c0830188613475565b61362660e083018761356d565b613634610100830186613475565b6136426101208301856135a6565b6136506101408301846135a6565b9c9b505050505050505050505050565b7f4e487b7100000000000000000000000000000000000000000000000000000000600052601160045260246000fd5b600061369a82612e65565b91506136a583612e65565b9250828210156136b8576136b7613660565b5b828203905092915050565b7f4e487b7100000000000000000000000000000000000000000000000000000000600052604160045260246000fd5b60006136fd82612e65565b915061370883612e65565b9250827fffffffffffffffffffffffffffffffffffffffffffffffffffffffffffffffff0382111561373d5761373c613660565b5b828201905092915050565b7f4e487b7100000000000000000000000000000000000000000000000000000000600052603260045260246000fd5b600061378282612e65565b91507fffffffffffffffffffffffffffffffffffffffffffffffffffffffffffffffff8214156137b5576137b4613660565b5b600182019050919050565b600082825260208201905092915050565b7f4155433130353a2041756374696f6e20686173206e6f7420656e64656420796560008201527f7400000000000000000000000000000000000000000000000000000000000000602082015250565b600061382d6021836137c0565b9150613838826137d1565b604082019050919050565b6000602082019050818103600083015261385c81613820565b9050919050565b7f4155433130363a205468652066756e6374696f6e2068617320616c726561647960008201527f206265656e2063616c6c65640000000000000000000000000000000000000000602082015250565b60006138bf602c836137c0565b91506138ca82613863565b604082019050919050565b600060208201905081810360008301526138ee816138b2565b9050919050565b7f4155433130373a204e6f2062696420686173206265656e206d61646500000000600082015250565b600061392b601c836137c0565b9150613936826138f5565b602082019050919050565b6000602082019050818103600083015261395a8161391e565b9050919050565b6000604082019050613976600083018561356d565b6139836020830184613475565b9392505050565b600060608201905061399f600083018661356d565b6139ac602083018561356d565b6139b96040830184613475565b949350505050565b6139ca81612ee0565b81146139d557600080fd5b50565b6000815190506139e7816139c1565b92915050565b600060208284031215613a0357613a0261302e565b5b6000613a11848285016139d8565b91505092915050565b7f5265656e7472616e637947756172643a207265656e7472616e742063616c6c00600082015250565b6000613a50601f836137c0565b9150613a5b82613a1a565b602082019050919050565b60006020820190508181036000830152613a7f81613a43565b9050919050565b7f5072696365206d757374206265206174206c6561737420317765690000000000600082015250565b6000613abc601b836137c0565b9150613ac782613a86565b602082019050919050565b60006020820190508181036000830152613aeb81613aaf565b9050919050565b7f596f75206861766520746f2070617920302e303120657468657220746f20637260008201527f65617465204e6674000000000000000000000000000000000000000000000000602082015250565b6000613b4e6028836137c0565b9150613b5982613af2565b604082019050919050565b60006020820190508181036000830152613b7d81613b41565b9050919050565b6000608082019050613b996000830187613597565b613ba66020830186613597565b613bb36040830185613475565b613bc060608301846135a6565b95945050505050565b7f4155433130313a2041756374696f6e2068617320616c726561647920656e646560008201527f6400000000000000000000000000000000000000000000000000000000000000602082015250565b6000613c256021836137c0565b9150613c3082613bc9565b604082019050919050565b60006020820190508181036000830152613c5481613c18565b9050919050565b7f4155433130323a204269642063616e6e6f74206265206c657373207468616e2060008201527f625f616d6f756e74000000000000000000000000000000000000000000000000602082015250565b6000613cb76028836137c0565b9150613cc282613c5b565b604082019050919050565b60006020820190508181036000830152613ce681613caa565b9050919050565b7f4155433130333a20546865736520616c7265616479206120686967686572206f60008201527f7220657175616c20626964000000000000000000000000000000000000000000602082015250565b6000613d49602b836137c0565b9150613d5482613ced565b604082019050919050565b60006020820190508181036000830152613d7881613d3c565b9050919050565b6000604082019050613d94600083018561356d565b613da1602083018461356d565b9392505050565b600081519050613db781613033565b92915050565b600060208284031215613dd357613dd261302e565b5b6000613de184828501613da8565b91505092915050565b6000606082019050613dff600083018661356d565b613e0c6020830185613475565b613e19604083018461356d565b949350505050565b600081519050919050565b60005b83811015613e4a578082015181840152602081019050613e2f565b83811115613e59576000848401525b50505050565b6000601f19601f8301169050919050565b6000613e7b82613e21565b613e8581856137c0565b9350613e95818560208601613e2c565b613e9e81613e5f565b840191505092915050565b60006060820190508181036000830152613ec38186613e70565b9050613ed2602083018561356d565b613edf604083018461356d565b949350505050565b60006040820190508181036000830152613f018185613e70565b9050613f106020830184613475565b9392505050565b60006040820190508181036000830152613f318185613e70565b9050613f40602083018461356d565b939250505056fea264697066735822122050811e1b614e677ec4ee898cfe57eba807c4ccab7cfda37bb4f70f81871861c964736f6c63430008090033",
  "linkReferences": {},
  "deployedLinkReferences": {}
}