{
  "_format": "hh-sol-artifact-1",
  "contractName": "NFTMarket",
  "sourceName": "contracts/NFTMarket.sol",
  "abi": [
    {
      "inputs": [],
      "stateMutability": "nonpayable",
      "type": "constructor"
    },
    {
      "anonymous": false,
      "inputs": [
        {
          "indexed": true,
          "internalType": "uint256",
          "name": "itemId",
          "type": "uint256"
        },
        {
          "indexed": true,
          "internalType": "address",
          "name": "nftContract",
          "type": "address"
        },
        {
          "indexed": true,
          "internalType": "uint256",
          "name": "tokenId",
          "type": "uint256"
        },
        {
          "indexed": false,
          "internalType": "address payable",
          "name": "seller",
          "type": "address"
        },
        {
          "indexed": false,
          "internalType": "address payable",
          "name": "owner",
          "type": "address"
        },
        {
          "indexed": false,
          "internalType": "uint256",
          "name": "price",
          "type": "uint256"
        },
        {
          "indexed": false,
          "internalType": "bool",
          "name": "sold",
          "type": "bool"
        }
      ],
      "name": "MarketItemCreated",
      "type": "event"
    },
    {
      "inputs": [
        {
          "internalType": "address",
          "name": "nftContract",
          "type": "address"
        },
        {
          "internalType": "uint256",
          "name": "tokenId",
          "type": "uint256"
        },
        {
          "internalType": "uint256",
          "name": "price",
          "type": "uint256"
        }
      ],
      "name": "addItemInMarket",
      "outputs": [],
      "stateMutability": "payable",
      "type": "function"
    },
    {
      "inputs": [
        {
          "internalType": "address",
          "name": "con",
          "type": "address"
        },
        {
          "internalType": "uint256",
          "name": "itemId",
          "type": "uint256"
        },
        {
          "internalType": "address",
          "name": "nftContract",
          "type": "address"
        }
      ],
      "name": "buyNftFromMarket",
      "outputs": [],
      "stateMutability": "nonpayable",
      "type": "function"
    },
    {
      "inputs": [],
      "name": "fetchItemsCreated",
      "outputs": [
        {
          "components": [
            {
              "internalType": "uint256",
              "name": "itemId",
              "type": "uint256"
            },
            {
              "internalType": "address",
              "name": "nftContract",
              "type": "address"
            },
            {
              "internalType": "uint256",
              "name": "tokenId",
              "type": "uint256"
            },
            {
              "internalType": "address payable",
              "name": "seller",
              "type": "address"
            },
            {
              "internalType": "address payable",
              "name": "owner",
              "type": "address"
            },
            {
              "internalType": "uint256",
              "name": "price",
              "type": "uint256"
            },
            {
              "internalType": "bool",
              "name": "sold",
              "type": "bool"
            }
          ],
          "internalType": "struct NFTMarket.MarketItem[]",
          "name": "",
          "type": "tuple[]"
        }
      ],
      "stateMutability": "view",
      "type": "function"
    },
    {
      "inputs": [],
      "name": "fetchMarketItems",
      "outputs": [
        {
          "components": [
            {
              "internalType": "uint256",
              "name": "itemId",
              "type": "uint256"
            },
            {
              "internalType": "address",
              "name": "nftContract",
              "type": "address"
            },
            {
              "internalType": "uint256",
              "name": "tokenId",
              "type": "uint256"
            },
            {
              "internalType": "address payable",
              "name": "seller",
              "type": "address"
            },
            {
              "internalType": "address payable",
              "name": "owner",
              "type": "address"
            },
            {
              "internalType": "uint256",
              "name": "price",
              "type": "uint256"
            },
            {
              "internalType": "bool",
              "name": "sold",
              "type": "bool"
            }
          ],
          "internalType": "struct NFTMarket.MarketItem[]",
          "name": "",
          "type": "tuple[]"
        }
      ],
      "stateMutability": "view",
      "type": "function"
    },
    {
      "inputs": [],
      "name": "fetchMyNft",
      "outputs": [
        {
          "components": [
            {
              "internalType": "uint256",
              "name": "itemId",
              "type": "uint256"
            },
            {
              "internalType": "address",
              "name": "nftContract",
              "type": "address"
            },
            {
              "internalType": "uint256",
              "name": "tokenId",
              "type": "uint256"
            },
            {
              "internalType": "address payable",
              "name": "seller",
              "type": "address"
            },
            {
              "internalType": "address payable",
              "name": "owner",
              "type": "address"
            },
            {
              "internalType": "uint256",
              "name": "price",
              "type": "uint256"
            },
            {
              "internalType": "bool",
              "name": "sold",
              "type": "bool"
            }
          ],
          "internalType": "struct NFTMarket.MarketItem[]",
          "name": "",
          "type": "tuple[]"
        }
      ],
      "stateMutability": "view",
      "type": "function"
    },
    {
      "inputs": [],
      "name": "getMarketListingPrice",
      "outputs": [
        {
          "internalType": "uint256",
          "name": "",
          "type": "uint256"
        }
      ],
      "stateMutability": "view",
      "type": "function"
    }
  ],
  "bytecode": "0x608060405234801561001057600080fd5b50600160008190555033600360006101000a81548173ffffffffffffffffffffffffffffffffffffffff021916908373ffffffffffffffffffffffffffffffffffffffff160217905550662386f26fc10000600481905550611c84806100776000396000f3fe6080604052600436106100555760003560e01c80630f08efe01461005a57806343fe10d1146100855780639f7699eb146100a1578063bc87597b146100cc578063f005933f146100f5578063f064c32e14610120575b600080fd5b34801561006657600080fd5b5061006f61014b565b60405161007c9190611641565b60405180910390f35b61009f600480360381019061009a91906116c0565b6104a2565b005b3480156100ad57600080fd5b506100b6610807565b6040516100c39190611641565b60405180910390f35b3480156100d857600080fd5b506100f360048036038101906100ee9190611713565b610b6b565b005b34801561010157600080fd5b5061010a610e61565b6040516101179190611775565b60405180910390f35b34801561012c57600080fd5b50610135610e6b565b6040516101429190611641565b60405180910390f35b6060600061015960016111cf565b9050600061016760026111cf565b8261017291906117bf565b90506000808267ffffffffffffffff811115610191576101906117f3565b5b6040519080825280602002602001820160405280156101ca57816020015b6101b76113ed565b8152602001906001900390816101af5790505b50905060005b8481101561049757600073ffffffffffffffffffffffffffffffffffffffff16600560006001846102019190611822565b815260200190815260200160002060040160009054906101000a900473ffffffffffffffffffffffffffffffffffffffff1673ffffffffffffffffffffffffffffffffffffffff161415610484576102c66040518060400160405280601381526020017f456e74657220696e746f2066756e6374696f6e000000000000000000000000008152506005600084815260200190815260200160002060040160009054906101000a900473ffffffffffffffffffffffffffffffffffffffff1660006111dd565b6000600560006001846102d99190611822565b8152602001908152602001600020600001549050600060056000838152602001908152602001600020905061030d8561127c565b806040518060e0016040529081600082015481526020016001820160009054906101000a900473ffffffffffffffffffffffffffffffffffffffff1673ffffffffffffffffffffffffffffffffffffffff1673ffffffffffffffffffffffffffffffffffffffff168152602001600282015481526020016003820160009054906101000a900473ffffffffffffffffffffffffffffffffffffffff1673ffffffffffffffffffffffffffffffffffffffff1673ffffffffffffffffffffffffffffffffffffffff1681526020016004820160009054906101000a900473ffffffffffffffffffffffffffffffffffffffff1673ffffffffffffffffffffffffffffffffffffffff1673ffffffffffffffffffffffffffffffffffffffff168152602001600582015481526020016006820160009054906101000a900460ff16151515158152505084868151811061046757610466611878565b5b602002602001018190525060018561047f9190611822565b945050505b808061048f906118a7565b9150506101d0565b508094505050505090565b600260005414156104e8576040517f08c379a00000000000000000000000000000000000000000000000000000000081526004016104df9061194d565b60405180910390fd5b600260008190555060008111610533576040517f08c379a000000000000000000000000000000000000000000000000000000000815260040161052a906119b9565b60405180910390fd5b600454341015610578576040517f08c379a000000000000000000000000000000000000000000000000000000000815260040161056f90611a4b565b60405180910390fd5b6105826001611315565b600061058e60016111cf565b90506040518060e001604052808281526020018573ffffffffffffffffffffffffffffffffffffffff1681526020018481526020013373ffffffffffffffffffffffffffffffffffffffff168152602001600073ffffffffffffffffffffffffffffffffffffffff16815260200183815260200160001515815250600560008381526020019081526020016000206000820151816000015560208201518160010160006101000a81548173ffffffffffffffffffffffffffffffffffffffff021916908373ffffffffffffffffffffffffffffffffffffffff1602179055506040820151816002015560608201518160030160006101000a81548173ffffffffffffffffffffffffffffffffffffffff021916908373ffffffffffffffffffffffffffffffffffffffff16021790555060808201518160040160006101000a81548173ffffffffffffffffffffffffffffffffffffffff021916908373ffffffffffffffffffffffffffffffffffffffff16021790555060a0820151816005015560c08201518160060160006101000a81548160ff0219169083151502179055509050508373ffffffffffffffffffffffffffffffffffffffff166323b872dd3330866040518463ffffffff1660e01b815260040161076f93929190611a7a565b600060405180830381600087803b15801561078957600080fd5b505af115801561079d573d6000803e3d6000fd5b50505050828473ffffffffffffffffffffffffffffffffffffffff16827f045dfa01dcba2b36aba1d3dc4a874f4b0c5d2fbeb8d2c4b34a7d88c8d8f929d13360008760006040516107f19493929190611acf565b60405180910390a4506001600081905550505050565b6060600061081560016111cf565b905060008060005b838110156108be573373ffffffffffffffffffffffffffffffffffffffff166005600060018461084d9190611822565b815260200190815260200160002060040160009054906101000a900473ffffffffffffffffffffffffffffffffffffffff1673ffffffffffffffffffffffffffffffffffffffff1614156108ab576001836108a89190611822565b92505b80806108b6906118a7565b91505061081d565b5060008267ffffffffffffffff8111156108db576108da6117f3565b5b60405190808252806020026020018201604052801561091457816020015b6109016113ed565b8152602001906001900390816108f95790505b50905060005b84811015610b60573373ffffffffffffffffffffffffffffffffffffffff166005600060018461094a9190611822565b815260200190815260200160002060040160009054906101000a900473ffffffffffffffffffffffffffffffffffffffff1673ffffffffffffffffffffffffffffffffffffffff161415610b4d576000600560006001846109ab9190611822565b81526020019081526020016000206000015490506000600560008381526020019081526020016000209050806040518060e0016040529081600082015481526020016001820160009054906101000a900473ffffffffffffffffffffffffffffffffffffffff1673ffffffffffffffffffffffffffffffffffffffff1673ffffffffffffffffffffffffffffffffffffffff168152602001600282015481526020016003820160009054906101000a900473ffffffffffffffffffffffffffffffffffffffff1673ffffffffffffffffffffffffffffffffffffffff1673ffffffffffffffffffffffffffffffffffffffff1681526020016004820160009054906101000a900473ffffffffffffffffffffffffffffffffffffffff1673ffffffffffffffffffffffffffffffffffffffff1673ffffffffffffffffffffffffffffffffffffffff168152602001600582015481526020016006820160009054906101000a900460ff161515151581525050848681518110610b3057610b2f611878565b5b6020026020010181905250600185610b489190611822565b945050505b8080610b58906118a7565b91505061091a565b508094505050505090565b60006005600084815260200190815260200160002060050154905060006005600085815260200190815260200160002060020154905060006005600086815260200190815260200160002060030160009054906101000a900473ffffffffffffffffffffffffffffffffffffffff169050600086905060008173ffffffffffffffffffffffffffffffffffffffff166323b872dd3330886040518463ffffffff1660e01b8152600401610c2093929190611a7a565b6020604051808303816000875af1158015610c3f573d6000803e3d6000fd5b505050506040513d601f19601f82011682018060405250810190610c639190611b40565b9050610c6e8161132b565b8173ffffffffffffffffffffffffffffffffffffffff1663a5f2a1523085886040518463ffffffff1660e01b8152600401610cab93929190611a7a565b6020604051808303816000875af1158015610cca573d6000803e3d6000fd5b505050506040513d601f19601f82011682018060405250810190610cee9190611b40565b508573ffffffffffffffffffffffffffffffffffffffff166323b872dd3033876040518463ffffffff1660e01b8152600401610d2c93929190611a7a565b600060405180830381600087803b158015610d4657600080fd5b505af1158015610d5a573d6000803e3d6000fd5b50505050336005600089815260200190815260200160002060040160006101000a81548173ffffffffffffffffffffffffffffffffffffffff021916908373ffffffffffffffffffffffffffffffffffffffff16021790555060016005600089815260200190815260200160002060060160006101000a81548160ff021916908315150217905550610dec6002611315565b600360009054906101000a900473ffffffffffffffffffffffffffffffffffffffff1673ffffffffffffffffffffffffffffffffffffffff166108fc6004549081150290604051600060405180830381858888f19350505050158015610e56573d6000803e3d6000fd5b505050505050505050565b6000600454905090565b60606000610e7960016111cf565b905060008060005b83811015610f22573373ffffffffffffffffffffffffffffffffffffffff1660056000600184610eb19190611822565b815260200190815260200160002060030160009054906101000a900473ffffffffffffffffffffffffffffffffffffffff1673ffffffffffffffffffffffffffffffffffffffff161415610f0f57600183610f0c9190611822565b92505b8080610f1a906118a7565b915050610e81565b5060008267ffffffffffffffff811115610f3f57610f3e6117f3565b5b604051908082528060200260200182016040528015610f7857816020015b610f656113ed565b815260200190600190039081610f5d5790505b50905060005b848110156111c4573373ffffffffffffffffffffffffffffffffffffffff1660056000600184610fae9190611822565b815260200190815260200160002060030160009054906101000a900473ffffffffffffffffffffffffffffffffffffffff1673ffffffffffffffffffffffffffffffffffffffff1614156111b15760006005600060018461100f9190611822565b81526020019081526020016000206000015490506000600560008381526020019081526020016000209050806040518060e0016040529081600082015481526020016001820160009054906101000a900473ffffffffffffffffffffffffffffffffffffffff1673ffffffffffffffffffffffffffffffffffffffff1673ffffffffffffffffffffffffffffffffffffffff168152602001600282015481526020016003820160009054906101000a900473ffffffffffffffffffffffffffffffffffffffff1673ffffffffffffffffffffffffffffffffffffffff1673ffffffffffffffffffffffffffffffffffffffff1681526020016004820160009054906101000a900473ffffffffffffffffffffffffffffffffffffffff1673ffffffffffffffffffffffffffffffffffffffff1673ffffffffffffffffffffffffffffffffffffffff168152602001600582015481526020016006820160009054906101000a900460ff16151515158152505084868151811061119457611193611878565b5b60200260200101819052506001856111ac9190611822565b945050505b80806111bc906118a7565b915050610f7e565b508094505050505090565b600081600001549050919050565b6112778383836040516024016111f593929190611bf5565b6040516020818303038152906040527ffcec75e0000000000000000000000000000000000000000000000000000000007bffffffffffffffffffffffffffffffffffffffffffffffffffffffff19166020820180517bffffffffffffffffffffffffffffffffffffffffffffffffffffffff83818316178352505050506113c4565b505050565b611312816040516024016112909190611775565b6040516020818303038152906040527ff5b1bba9000000000000000000000000000000000000000000000000000000007bffffffffffffffffffffffffffffffffffffffffffffffffffffffff19166020820180517bffffffffffffffffffffffffffffffffffffffffffffffffffffffff83818316178352505050506113c4565b50565b6001816000016000828254019250508190555050565b6113c18160405160240161133f9190611c33565b6040516020818303038152906040527f32458eed000000000000000000000000000000000000000000000000000000007bffffffffffffffffffffffffffffffffffffffffffffffffffffffff19166020820180517bffffffffffffffffffffffffffffffffffffffffffffffffffffffff83818316178352505050506113c4565b50565b60008151905060006a636f6e736f6c652e6c6f679050602083016000808483855afa5050505050565b6040518060e0016040528060008152602001600073ffffffffffffffffffffffffffffffffffffffff16815260200160008152602001600073ffffffffffffffffffffffffffffffffffffffff168152602001600073ffffffffffffffffffffffffffffffffffffffff168152602001600081526020016000151581525090565b600081519050919050565b600082825260208201905092915050565b6000819050602082019050919050565b6000819050919050565b6114ad8161149a565b82525050565b600073ffffffffffffffffffffffffffffffffffffffff82169050919050565b60006114de826114b3565b9050919050565b6114ee816114d3565b82525050565b60006114ff826114b3565b9050919050565b61150f816114f4565b82525050565b60008115159050919050565b61152a81611515565b82525050565b60e08201600082015161154660008501826114a4565b50602082015161155960208501826114e5565b50604082015161156c60408501826114a4565b50606082015161157f6060850182611506565b5060808201516115926080850182611506565b5060a08201516115a560a08501826114a4565b5060c08201516115b860c0850182611521565b50505050565b60006115ca8383611530565b60e08301905092915050565b6000602082019050919050565b60006115ee8261146e565b6115f88185611479565b93506116038361148a565b8060005b8381101561163457815161161b88826115be565b9750611626836115d6565b925050600181019050611607565b5085935050505092915050565b6000602082019050818103600083015261165b81846115e3565b905092915050565b600080fd5b611671816114d3565b811461167c57600080fd5b50565b60008135905061168e81611668565b92915050565b61169d8161149a565b81146116a857600080fd5b50565b6000813590506116ba81611694565b92915050565b6000806000606084860312156116d9576116d8611663565b5b60006116e78682870161167f565b93505060206116f8868287016116ab565b9250506040611709868287016116ab565b9150509250925092565b60008060006060848603121561172c5761172b611663565b5b600061173a8682870161167f565b935050602061174b868287016116ab565b925050604061175c8682870161167f565b9150509250925092565b61176f8161149a565b82525050565b600060208201905061178a6000830184611766565b92915050565b7f4e487b7100000000000000000000000000000000000000000000000000000000600052601160045260246000fd5b60006117ca8261149a565b91506117d58361149a565b9250828210156117e8576117e7611790565b5b828203905092915050565b7f4e487b7100000000000000000000000000000000000000000000000000000000600052604160045260246000fd5b600061182d8261149a565b91506118388361149a565b9250827fffffffffffffffffffffffffffffffffffffffffffffffffffffffffffffffff0382111561186d5761186c611790565b5b828201905092915050565b7f4e487b7100000000000000000000000000000000000000000000000000000000600052603260045260246000fd5b60006118b28261149a565b91507fffffffffffffffffffffffffffffffffffffffffffffffffffffffffffffffff8214156118e5576118e4611790565b5b600182019050919050565b600082825260208201905092915050565b7f5265656e7472616e637947756172643a207265656e7472616e742063616c6c00600082015250565b6000611937601f836118f0565b915061194282611901565b602082019050919050565b600060208201905081810360008301526119668161192a565b9050919050565b7f5072696365206d757374206265206174206c6561737420317765690000000000600082015250565b60006119a3601b836118f0565b91506119ae8261196d565b602082019050919050565b600060208201905081810360008301526119d281611996565b9050919050565b7f596f75206861766520746f2070617920302e303120657468657220746f20637260008201527f65617465204e6674000000000000000000000000000000000000000000000000602082015250565b6000611a356028836118f0565b9150611a40826119d9565b604082019050919050565b60006020820190508181036000830152611a6481611a28565b9050919050565b611a74816114d3565b82525050565b6000606082019050611a8f6000830186611a6b565b611a9c6020830185611a6b565b611aa96040830184611766565b949350505050565b611aba816114f4565b82525050565b611ac981611515565b82525050565b6000608082019050611ae46000830187611ab1565b611af16020830186611ab1565b611afe6040830185611766565b611b0b6060830184611ac0565b95945050505050565b611b1d81611515565b8114611b2857600080fd5b50565b600081519050611b3a81611b14565b92915050565b600060208284031215611b5657611b55611663565b5b6000611b6484828501611b2b565b91505092915050565b600081519050919050565b60005b83811015611b96578082015181840152602081019050611b7b565b83811115611ba5576000848401525b50505050565b6000601f19601f8301169050919050565b6000611bc782611b6d565b611bd181856118f0565b9350611be1818560208601611b78565b611bea81611bab565b840191505092915050565b60006060820190508181036000830152611c0f8186611bbc565b9050611c1e6020830185611a6b565b611c2b6040830184611a6b565b949350505050565b6000602082019050611c486000830184611ac0565b9291505056fea2646970667358221220b2fbc9d69a6e43304c7968c08d2da12d5547b256d4d924c194655ef4f358ab9964736f6c634300080b0033",
  "linkReferences": {},
  "deployedLinkReferences": {}
}