{
  "_format": "hh-sol-artifact-1",
  "contractName": "NFTMarket",
  "sourceName": "contracts/NFTMarket.sol",
  "abi": [
    {
      "inputs": [],
      "stateMutability": "nonpayable",
      "type": "constructor"
    },
    {
      "anonymous": false,
      "inputs": [
        {
          "indexed": false,
          "internalType": "address",
          "name": "winner",
          "type": "address"
        },
        {
          "indexed": false,
          "internalType": "uint256",
          "name": "amount",
          "type": "uint256"
        }
      ],
      "name": "AuctionEnded",
      "type": "event"
    },
    {
      "anonymous": false,
      "inputs": [
        {
          "indexed": false,
          "internalType": "uint256",
          "name": "startTime",
          "type": "uint256"
        }
      ],
      "name": "AuctionStarted",
      "type": "event"
    },
    {
      "anonymous": false,
      "inputs": [
        {
          "indexed": false,
          "internalType": "address",
          "name": "seller",
          "type": "address"
        },
        {
          "indexed": false,
          "internalType": "uint256",
          "name": "amount",
          "type": "uint256"
        }
      ],
      "name": "BeneficiaryPaid",
      "type": "event"
    },
    {
      "anonymous": false,
      "inputs": [
        {
          "indexed": false,
          "internalType": "address",
          "name": "bidder",
          "type": "address"
        },
        {
          "indexed": false,
          "internalType": "uint256",
          "name": "amount",
          "type": "uint256"
        }
      ],
      "name": "HighestBidIncreased",
      "type": "event"
    },
    {
      "anonymous": false,
      "inputs": [
        {
          "indexed": true,
          "internalType": "uint256",
          "name": "itemId",
          "type": "uint256"
        },
        {
          "indexed": true,
          "internalType": "address",
          "name": "nftContract",
          "type": "address"
        },
        {
          "indexed": true,
          "internalType": "uint256",
          "name": "tokenId",
          "type": "uint256"
        },
        {
          "indexed": false,
          "internalType": "address payable",
          "name": "seller",
          "type": "address"
        },
        {
          "indexed": false,
          "internalType": "address payable",
          "name": "owner",
          "type": "address"
        },
        {
          "indexed": false,
          "internalType": "uint256",
          "name": "price",
          "type": "uint256"
        },
        {
          "indexed": false,
          "internalType": "bool",
          "name": "sold",
          "type": "bool"
        }
      ],
      "name": "MarketItemCreated",
      "type": "event"
    },
    {
      "inputs": [
        {
          "internalType": "address",
          "name": "nftContract",
          "type": "address"
        },
        {
          "internalType": "uint256",
          "name": "tokenId",
          "type": "uint256"
        },
        {
          "internalType": "uint256",
          "name": "price",
          "type": "uint256"
        }
      ],
      "name": "addItemInMarket",
      "outputs": [],
      "stateMutability": "payable",
      "type": "function"
    },
    {
      "inputs": [
        {
          "internalType": "uint256",
          "name": "_auctionId",
          "type": "uint256"
        },
        {
          "internalType": "address",
          "name": "_tokenAddr",
          "type": "address"
        },
        {
          "internalType": "uint256",
          "name": "_itemId",
          "type": "uint256"
        },
        {
          "internalType": "address",
          "name": "nftContract",
          "type": "address"
        }
      ],
      "name": "auctionEnd",
      "outputs": [],
      "stateMutability": "nonpayable",
      "type": "function"
    },
    {
      "inputs": [
        {
          "internalType": "uint256",
          "name": "",
          "type": "uint256"
        }
      ],
      "name": "auctionItems",
      "outputs": [
        {
          "internalType": "uint256",
          "name": "id",
          "type": "uint256"
        },
        {
          "internalType": "uint256",
          "name": "itemId",
          "type": "uint256"
        },
        {
          "internalType": "address",
          "name": "nftContract",
          "type": "address"
        },
        {
          "internalType": "uint256",
          "name": "tokenId",
          "type": "uint256"
        },
        {
          "internalType": "address payable",
          "name": "seller",
          "type": "address"
        },
        {
          "internalType": "uint256",
          "name": "auctionEndTime",
          "type": "uint256"
        },
        {
          "internalType": "uint256",
          "name": "baseValue",
          "type": "uint256"
        },
        {
          "internalType": "address",
          "name": "highestBidder",
          "type": "address"
        },
        {
          "internalType": "uint256",
          "name": "highestBid",
          "type": "uint256"
        },
        {
          "internalType": "bool",
          "name": "ended",
          "type": "bool"
        },
        {
          "internalType": "bool",
          "name": "sold",
          "type": "bool"
        }
      ],
      "stateMutability": "view",
      "type": "function"
    },
    {
      "inputs": [
        {
          "internalType": "uint256",
          "name": "_auctionId",
          "type": "uint256"
        },
        {
          "internalType": "uint256",
          "name": "_amount",
          "type": "uint256"
        },
        {
          "internalType": "address",
          "name": "_tokenAddr",
          "type": "address"
        }
      ],
      "name": "bid",
      "outputs": [],
      "stateMutability": "nonpayable",
      "type": "function"
    },
    {
      "inputs": [
        {
          "internalType": "address",
          "name": "con",
          "type": "address"
        },
        {
          "internalType": "uint256",
          "name": "itemId",
          "type": "uint256"
        },
        {
          "internalType": "address",
          "name": "nftContract",
          "type": "address"
        }
      ],
      "name": "buyNftFromMarket",
      "outputs": [],
      "stateMutability": "nonpayable",
      "type": "function"
    },
    {
      "inputs": [],
      "name": "fetchItemsCreated",
      "outputs": [
        {
          "components": [
            {
              "internalType": "uint256",
              "name": "itemId",
              "type": "uint256"
            },
            {
              "internalType": "address",
              "name": "nftContract",
              "type": "address"
            },
            {
              "internalType": "uint256",
              "name": "tokenId",
              "type": "uint256"
            },
            {
              "internalType": "address payable",
              "name": "seller",
              "type": "address"
            },
            {
              "internalType": "address payable",
              "name": "owner",
              "type": "address"
            },
            {
              "internalType": "uint256",
              "name": "price",
              "type": "uint256"
            },
            {
              "internalType": "bool",
              "name": "sold",
              "type": "bool"
            }
          ],
          "internalType": "struct NFTMarket.MarketItem[]",
          "name": "",
          "type": "tuple[]"
        }
      ],
      "stateMutability": "view",
      "type": "function"
    },
    {
      "inputs": [],
      "name": "fetchMarketItems",
      "outputs": [
        {
          "components": [
            {
              "internalType": "uint256",
              "name": "itemId",
              "type": "uint256"
            },
            {
              "internalType": "address",
              "name": "nftContract",
              "type": "address"
            },
            {
              "internalType": "uint256",
              "name": "tokenId",
              "type": "uint256"
            },
            {
              "internalType": "address payable",
              "name": "seller",
              "type": "address"
            },
            {
              "internalType": "address payable",
              "name": "owner",
              "type": "address"
            },
            {
              "internalType": "uint256",
              "name": "price",
              "type": "uint256"
            },
            {
              "internalType": "bool",
              "name": "sold",
              "type": "bool"
            }
          ],
          "internalType": "struct NFTMarket.MarketItem[]",
          "name": "",
          "type": "tuple[]"
        }
      ],
      "stateMutability": "view",
      "type": "function"
    },
    {
      "inputs": [],
      "name": "fetchMyNft",
      "outputs": [
        {
          "components": [
            {
              "internalType": "uint256",
              "name": "itemId",
              "type": "uint256"
            },
            {
              "internalType": "address",
              "name": "nftContract",
              "type": "address"
            },
            {
              "internalType": "uint256",
              "name": "tokenId",
              "type": "uint256"
            },
            {
              "internalType": "address payable",
              "name": "seller",
              "type": "address"
            },
            {
              "internalType": "address payable",
              "name": "owner",
              "type": "address"
            },
            {
              "internalType": "uint256",
              "name": "price",
              "type": "uint256"
            },
            {
              "internalType": "bool",
              "name": "sold",
              "type": "bool"
            }
          ],
          "internalType": "struct NFTMarket.MarketItem[]",
          "name": "",
          "type": "tuple[]"
        }
      ],
      "stateMutability": "view",
      "type": "function"
    },
    {
      "inputs": [
        {
          "internalType": "uint256",
          "name": "_id",
          "type": "uint256"
        }
      ],
      "name": "getHighestBid",
      "outputs": [
        {
          "internalType": "uint256",
          "name": "",
          "type": "uint256"
        }
      ],
      "stateMutability": "view",
      "type": "function"
    },
    {
      "inputs": [
        {
          "internalType": "uint256",
          "name": "_id",
          "type": "uint256"
        }
      ],
      "name": "getHighestBidder",
      "outputs": [
        {
          "internalType": "address",
          "name": "",
          "type": "address"
        }
      ],
      "stateMutability": "view",
      "type": "function"
    },
    {
      "inputs": [
        {
          "internalType": "uint256",
          "name": "_auctionId",
          "type": "uint256"
        }
      ],
      "name": "getItem",
      "outputs": [
        {
          "components": [
            {
              "internalType": "uint256",
              "name": "id",
              "type": "uint256"
            },
            {
              "internalType": "uint256",
              "name": "itemId",
              "type": "uint256"
            },
            {
              "internalType": "address",
              "name": "nftContract",
              "type": "address"
            },
            {
              "internalType": "uint256",
              "name": "tokenId",
              "type": "uint256"
            },
            {
              "internalType": "address payable",
              "name": "seller",
              "type": "address"
            },
            {
              "internalType": "uint256",
              "name": "auctionEndTime",
              "type": "uint256"
            },
            {
              "internalType": "uint256",
              "name": "baseValue",
              "type": "uint256"
            },
            {
              "internalType": "address",
              "name": "highestBidder",
              "type": "address"
            },
            {
              "internalType": "uint256",
              "name": "highestBid",
              "type": "uint256"
            },
            {
              "internalType": "bool",
              "name": "ended",
              "type": "bool"
            },
            {
              "internalType": "bool",
              "name": "sold",
              "type": "bool"
            }
          ],
          "internalType": "struct NFTMarket.AuctionItem",
          "name": "",
          "type": "tuple"
        }
      ],
      "stateMutability": "view",
      "type": "function"
    },
    {
      "inputs": [],
      "name": "getMarketListingPrice",
      "outputs": [
        {
          "internalType": "uint256",
          "name": "",
          "type": "uint256"
        }
      ],
      "stateMutability": "view",
      "type": "function"
    },
    {
      "inputs": [],
      "name": "getauctionItems",
      "outputs": [
        {
          "components": [
            {
              "internalType": "uint256",
              "name": "id",
              "type": "uint256"
            },
            {
              "internalType": "uint256",
              "name": "itemId",
              "type": "uint256"
            },
            {
              "internalType": "address",
              "name": "nftContract",
              "type": "address"
            },
            {
              "internalType": "uint256",
              "name": "tokenId",
              "type": "uint256"
            },
            {
              "internalType": "address payable",
              "name": "seller",
              "type": "address"
            },
            {
              "internalType": "uint256",
              "name": "auctionEndTime",
              "type": "uint256"
            },
            {
              "internalType": "uint256",
              "name": "baseValue",
              "type": "uint256"
            },
            {
              "internalType": "address",
              "name": "highestBidder",
              "type": "address"
            },
            {
              "internalType": "uint256",
              "name": "highestBid",
              "type": "uint256"
            },
            {
              "internalType": "bool",
              "name": "ended",
              "type": "bool"
            },
            {
              "internalType": "bool",
              "name": "sold",
              "type": "bool"
            }
          ],
          "internalType": "struct NFTMarket.AuctionItem[]",
          "name": "",
          "type": "tuple[]"
        }
      ],
      "stateMutability": "view",
      "type": "function"
    },
    {
      "inputs": [
        {
          "internalType": "uint256",
          "name": "_biddingTime",
          "type": "uint256"
        },
        {
          "internalType": "uint256",
          "name": "_baseValue",
          "type": "uint256"
        },
        {
          "internalType": "address",
          "name": "_nftContract",
          "type": "address"
        },
        {
          "internalType": "uint256",
          "name": "_itemId",
          "type": "uint256"
        },
        {
          "internalType": "uint256",
          "name": "_tokenId",
          "type": "uint256"
        }
      ],
      "name": "startAuction",
      "outputs": [],
      "stateMutability": "payable",
      "type": "function"
    }
  ],
  "bytecode": "0x608060405234801561001057600080fd5b50600160008190555033600360006101000a81548173ffffffffffffffffffffffffffffffffffffffff021916908373ffffffffffffffffffffffffffffffffffffffff160217905550662386f26fc10000600481905550613fbb806100776000396000f3fe6080604052600436106100dd5760003560e01c80639f7699eb1161007f578063c750cb7911610059578063c750cb7914610290578063d2c069f0146102cd578063f005933f14610314578063f064c32e1461033f576100dd565b80639f7699eb14610220578063b374ca651461024b578063bc87597b14610267576100dd565b806343fe10d1116100bb57806343fe10d1146101735780635ac645b21461018f578063742f0a90146101ba5780638f288644146101e3576100dd565b80630f08efe0146100e257806316efb4751461010d5780633129e77314610136575b600080fd5b3480156100ee57600080fd5b506100f761036a565b604051610104919061304a565b60405180910390f35b34801561011957600080fd5b50610134600480360381019061012f91906130c9565b6106c1565b005b34801561014257600080fd5b5061015d60048036038101906101589190613130565b610bd5565b60405161016a919061323e565b60405180910390f35b61018d6004803603810190610188919061325a565b610d86565b005b34801561019b57600080fd5b506101a46110f4565b6040516101b1919061343e565b60405180910390f35b3480156101c657600080fd5b506101e160048036038101906101dc9190613460565b6112c8565b005b3480156101ef57600080fd5b5061020a60048036038101906102059190613130565b611bc7565b60405161021791906134c2565b60405180910390f35b34801561022c57600080fd5b50610235611bf6565b604051610242919061304a565b60405180910390f35b610265600480360381019061026091906134dd565b611f5a565b005b34801561027357600080fd5b5061028e60048036038101906102899190613558565b612259565b005b34801561029c57600080fd5b506102b760048036038101906102b29190613130565b61255f565b6040516102c491906135ba565b60405180910390f35b3480156102d957600080fd5b506102f460048036038101906102ef9190613130565b6125ae565b60405161030b9b9a999897969594939291906135f3565b60405180910390f35b34801561032057600080fd5b50610329612692565b60405161033691906134c2565b60405180910390f35b34801561034b57600080fd5b5061035461269c565b604051610361919061304a565b60405180910390f35b606060006103786001612a00565b905060006103866002612a00565b8261039191906136cd565b90506000808267ffffffffffffffff8111156103b0576103af613701565b5b6040519080825280602002602001820160405280156103e957816020015b6103d6612d56565b8152602001906001900390816103ce5790505b50905060005b848110156106b657600073ffffffffffffffffffffffffffffffffffffffff16600660006001846104209190613730565b815260200190815260200160002060040160009054906101000a900473ffffffffffffffffffffffffffffffffffffffff1673ffffffffffffffffffffffffffffffffffffffff1614156106a3576104e56040518060400160405280601381526020017f456e74657220696e746f2066756e6374696f6e000000000000000000000000008152506006600084815260200190815260200160002060040160009054906101000a900473ffffffffffffffffffffffffffffffffffffffff166000612a0e565b6000600660006001846104f89190613730565b8152602001908152602001600020600001549050600060066000838152602001908152602001600020905061052c85612aad565b806040518060e0016040529081600082015481526020016001820160009054906101000a900473ffffffffffffffffffffffffffffffffffffffff1673ffffffffffffffffffffffffffffffffffffffff1673ffffffffffffffffffffffffffffffffffffffff168152602001600282015481526020016003820160009054906101000a900473ffffffffffffffffffffffffffffffffffffffff1673ffffffffffffffffffffffffffffffffffffffff1673ffffffffffffffffffffffffffffffffffffffff1681526020016004820160009054906101000a900473ffffffffffffffffffffffffffffffffffffffff1673ffffffffffffffffffffffffffffffffffffffff1673ffffffffffffffffffffffffffffffffffffffff168152602001600582015481526020016006820160009054906101000a900460ff16151515158152505084868151811061068657610685613786565b5b602002602001018190525060018561069e9190613730565b945050505b80806106ae906137b5565b9150506103ef565b508094505050505090565b6106ca82612aad565b6000600585815481106106e0576106df613786565b5b90600052602060002090600a02016003015490506005858154811061070857610707613786565b5b90600052602060002090600a02016005015442101561075c576040517f08c379a000000000000000000000000000000000000000000000000000000000815260040161075390613881565b60405180910390fd5b600585815481106107705761076f613786565b5b90600052602060002090600a020160090160009054906101000a900460ff16156107cf576040517f08c379a00000000000000000000000000000000000000000000000000000000081526004016107c690613913565b60405180910390fd5b600073ffffffffffffffffffffffffffffffffffffffff16600586815481106107fb576107fa613786565b5b90600052602060002090600a020160070160009054906101000a900473ffffffffffffffffffffffffffffffffffffffff1673ffffffffffffffffffffffffffffffffffffffff161415610884576040517f08c379a000000000000000000000000000000000000000000000000000000000815260040161087b9061397f565b60405180910390fd5b60006005868154811061089a57610899613786565b5b90600052602060002090600a02016008015490506000600587815481106108c4576108c3613786565b5b90600052602060002090600a020160040160009054906101000a900473ffffffffffffffffffffffffffffffffffffffff16905060006005888154811061090e5761090d613786565b5b90600052602060002090600a020160070160009054906101000a900473ffffffffffffffffffffffffffffffffffffffff16905061094b84612aad565b60016005898154811061096157610960613786565b5b90600052602060002090600a020160090160006101000a81548160ff0219169083151502179055507fdaec4582d5d9595688c8c98545fdd1c696d41c6aeaeb636737e84ed2f5c00eda81846040516109ba92919061399f565b60405180910390a18673ffffffffffffffffffffffffffffffffffffffff166323b872dd8284866040518463ffffffff1660e01b81526004016109ff939291906139c8565b602060405180830381600087803b158015610a1957600080fd5b505af1158015610a2d573d6000803e3d6000fd5b505050506040513d601f19601f82011682018060405250810190610a519190613a2b565b508473ffffffffffffffffffffffffffffffffffffffff166323b872dd3083876040518463ffffffff1660e01b8152600401610a8f939291906139c8565b600060405180830381600087803b158015610aa957600080fd5b505af1158015610abd573d6000803e3d6000fd5b50505050610aca81612b46565b806006600088815260200190815260200160002060040160006101000a81548173ffffffffffffffffffffffffffffffffffffffff021916908373ffffffffffffffffffffffffffffffffffffffff16021790555060016006600088815260200190815260200160002060060160006101000a81548160ff021916908315150217905550600160058981548110610b6457610b63613786565b5b90600052602060002090600a020160090160016101000a81548160ff021916908315150217905550610bcb6006600088815260200190815260200160002060040160009054906101000a900473ffffffffffffffffffffffffffffffffffffffff16612b46565b5050505050505050565b610bdd612dd7565b60058281548110610bf157610bf0613786565b5b90600052602060002090600a02016040518061016001604052908160008201548152602001600182015481526020016002820160009054906101000a900473ffffffffffffffffffffffffffffffffffffffff1673ffffffffffffffffffffffffffffffffffffffff1673ffffffffffffffffffffffffffffffffffffffff168152602001600382015481526020016004820160009054906101000a900473ffffffffffffffffffffffffffffffffffffffff1673ffffffffffffffffffffffffffffffffffffffff1673ffffffffffffffffffffffffffffffffffffffff16815260200160058201548152602001600682015481526020016007820160009054906101000a900473ffffffffffffffffffffffffffffffffffffffff1673ffffffffffffffffffffffffffffffffffffffff1673ffffffffffffffffffffffffffffffffffffffff168152602001600882015481526020016009820160009054906101000a900460ff161515151581526020016009820160019054906101000a900460ff1615151515815250509050919050565b60026000541415610dcc576040517f08c379a0000000000000000000000000000000000000000000000000000000008152600401610dc390613aa4565b60405180910390fd5b600260008190555060008111610e17576040517f08c379a0000000000000000000000000000000000000000000000000000000008152600401610e0e90613b10565b60405180910390fd5b600454341015610e5c576040517f08c379a0000000000000000000000000000000000000000000000000000000008152600401610e5390613ba2565b60405180910390fd5b610e666001612bdf565b6000610e726001612a00565b90506040518060e001604052808281526020018573ffffffffffffffffffffffffffffffffffffffff1681526020018481526020013373ffffffffffffffffffffffffffffffffffffffff168152602001600073ffffffffffffffffffffffffffffffffffffffff16815260200183815260200160001515815250600660008381526020019081526020016000206000820151816000015560208201518160010160006101000a81548173ffffffffffffffffffffffffffffffffffffffff021916908373ffffffffffffffffffffffffffffffffffffffff1602179055506040820151816002015560608201518160030160006101000a81548173ffffffffffffffffffffffffffffffffffffffff021916908373ffffffffffffffffffffffffffffffffffffffff16021790555060808201518160040160006101000a81548173ffffffffffffffffffffffffffffffffffffffff021916908373ffffffffffffffffffffffffffffffffffffffff16021790555060a0820151816005015560c08201518160060160006101000a81548160ff02191690831515021790555090505061101f84612b46565b8373ffffffffffffffffffffffffffffffffffffffff166323b872dd3330866040518463ffffffff1660e01b815260040161105c939291906139c8565b600060405180830381600087803b15801561107657600080fd5b505af115801561108a573d6000803e3d6000fd5b50505050828473ffffffffffffffffffffffffffffffffffffffff16827f045dfa01dcba2b36aba1d3dc4a874f4b0c5d2fbeb8d2c4b34a7d88c8d8f929d13360008760006040516110de9493929190613bc2565b60405180910390a4506001600081905550505050565b60606005805480602002602001604051908101604052809291908181526020016000905b828210156112bf57838290600052602060002090600a02016040518061016001604052908160008201548152602001600182015481526020016002820160009054906101000a900473ffffffffffffffffffffffffffffffffffffffff1673ffffffffffffffffffffffffffffffffffffffff1673ffffffffffffffffffffffffffffffffffffffff168152602001600382015481526020016004820160009054906101000a900473ffffffffffffffffffffffffffffffffffffffff1673ffffffffffffffffffffffffffffffffffffffff1673ffffffffffffffffffffffffffffffffffffffff16815260200160058201548152602001600682015481526020016007820160009054906101000a900473ffffffffffffffffffffffffffffffffffffffff1673ffffffffffffffffffffffffffffffffffffffff1673ffffffffffffffffffffffffffffffffffffffff168152602001600882015481526020016009820160009054906101000a900460ff161515151581526020016009820160019054906101000a900460ff16151515158152505081526020019060010190611118565b50505050905090565b600583815481106112dc576112db613786565b5b90600052602060002090600a020160050154421115611330576040517f08c379a000000000000000000000000000000000000000000000000000000000815260040161132790613c79565b60405180910390fd5b6005838154811061134457611343613786565b5b90600052602060002090600a0201600601548211611397576040517f08c379a000000000000000000000000000000000000000000000000000000000815260040161138e90613d0b565b60405180910390fd5b600583815481106113ab576113aa613786565b5b90600052602060002090600a02016008015482116113fe576040517f08c379a00000000000000000000000000000000000000000000000000000000081526004016113f590613d9d565b60405180910390fd5b60008173ffffffffffffffffffffffffffffffffffffffff1663dd62ed3e33306040518363ffffffff1660e01b815260040161143b929190613dbd565b60206040518083038186803b15801561145357600080fd5b505afa158015611467573d6000803e3d6000fd5b505050506040513d601f19601f8201168201806040525081019061148b9190613dfb565b90506114cc6040518060400160405280601081526020017f63757272656e74416c6c6f77616e63650000000000000000000000000000000081525082612bf5565b61150b6040518060400160405280601881526020017f6d73672e73656e64657220696e2062696420666e3a202573000000000000000081525033612c91565b600081116116ce578173ffffffffffffffffffffffffffffffffffffffff1663095ea7b330856040518363ffffffff1660e01b815260040161154e92919061399f565b602060405180830381600087803b15801561156857600080fd5b505af115801561157c573d6000803e3d6000fd5b505050506040513d601f19601f820116820180604052508101906115a09190613a2b565b506000600585815481106115b7576115b6613786565b5b90600052602060002090600a020160080154146116c9578173ffffffffffffffffffffffffffffffffffffffff16638fea1e4d30600587815481106115ff576115fe613786565b5b90600052602060002090600a0201600801546005888154811061162557611624613786565b5b90600052602060002090600a020160070160009054906101000a900473ffffffffffffffffffffffffffffffffffffffff166040518463ffffffff1660e01b815260040161167593929190613e28565b602060405180830381600087803b15801561168f57600080fd5b505af11580156116a3573d6000803e3d6000fd5b505050506040513d601f19601f820116820180604052508101906116c79190613a2b565b505b611a90565b600584815481106116e2576116e1613786565b5b90600052602060002090600a020160070160009054906101000a900473ffffffffffffffffffffffffffffffffffffffff1673ffffffffffffffffffffffffffffffffffffffff163373ffffffffffffffffffffffffffffffffffffffff1614156118d6578173ffffffffffffffffffffffffffffffffffffffff16638fea1e4d306005878154811061177857611777613786565b5b90600052602060002090600a0201600801546005888154811061179e5761179d613786565b5b90600052602060002090600a020160070160009054906101000a900473ffffffffffffffffffffffffffffffffffffffff166040518463ffffffff1660e01b81526004016117ee93929190613e28565b602060405180830381600087803b15801561180857600080fd5b505af115801561181c573d6000803e3d6000fd5b505050506040513d601f19601f820116820180604052508101906118409190613a2b565b508173ffffffffffffffffffffffffffffffffffffffff1663cdfdb7d63085336040518463ffffffff1660e01b815260040161187e93929190613e28565b602060405180830381600087803b15801561189857600080fd5b505af11580156118ac573d6000803e3d6000fd5b505050506040513d601f19601f820116820180604052508101906118d09190613a2b565b50611a8f565b8173ffffffffffffffffffffffffffffffffffffffff1663cdfdb7d63085336040518463ffffffff1660e01b815260040161191393929190613e28565b602060405180830381600087803b15801561192d57600080fd5b505af1158015611941573d6000803e3d6000fd5b505050506040513d601f19601f820116820180604052508101906119659190613a2b565b5060006005858154811061197c5761197b613786565b5b90600052602060002090600a02016008015414611a8e578173ffffffffffffffffffffffffffffffffffffffff16638fea1e4d30600587815481106119c4576119c3613786565b5b90600052602060002090600a020160080154600588815481106119ea576119e9613786565b5b90600052602060002090600a020160070160009054906101000a900473ffffffffffffffffffffffffffffffffffffffff166040518463ffffffff1660e01b8152600401611a3a93929190613e28565b602060405180830381600087803b158015611a5457600080fd5b505af1158015611a68573d6000803e3d6000fd5b505050506040513d601f19601f82011682018060405250810190611a8c9190613a2b565b505b5b5b3360058581548110611aa557611aa4613786565b5b90600052602060002090600a020160070160006101000a81548173ffffffffffffffffffffffffffffffffffffffff021916908373ffffffffffffffffffffffffffffffffffffffff1602179055508260058581548110611b0957611b08613786565b5b90600052602060002090600a0201600801819055507ff4757a49b326036464bec6fe419a4ae38c8a02ce3e68bf0809674f6aab8ad30060058581548110611b5357611b52613786565b5b90600052602060002090600a020160070160009054906101000a900473ffffffffffffffffffffffffffffffffffffffff1660058681548110611b9957611b98613786565b5b90600052602060002090600a020160080154604051611bb992919061399f565b60405180910390a150505050565b600060058281548110611bdd57611bdc613786565b5b90600052602060002090600a0201600801549050919050565b60606000611c046001612a00565b905060008060005b83811015611cad573373ffffffffffffffffffffffffffffffffffffffff1660066000600184611c3c9190613730565b815260200190815260200160002060040160009054906101000a900473ffffffffffffffffffffffffffffffffffffffff1673ffffffffffffffffffffffffffffffffffffffff161415611c9a57600183611c979190613730565b92505b8080611ca5906137b5565b915050611c0c565b5060008267ffffffffffffffff811115611cca57611cc9613701565b5b604051908082528060200260200182016040528015611d0357816020015b611cf0612d56565b815260200190600190039081611ce85790505b50905060005b84811015611f4f573373ffffffffffffffffffffffffffffffffffffffff1660066000600184611d399190613730565b815260200190815260200160002060040160009054906101000a900473ffffffffffffffffffffffffffffffffffffffff1673ffffffffffffffffffffffffffffffffffffffff161415611f3c57600060066000600184611d9a9190613730565b81526020019081526020016000206000015490506000600660008381526020019081526020016000209050806040518060e0016040529081600082015481526020016001820160009054906101000a900473ffffffffffffffffffffffffffffffffffffffff1673ffffffffffffffffffffffffffffffffffffffff1673ffffffffffffffffffffffffffffffffffffffff168152602001600282015481526020016003820160009054906101000a900473ffffffffffffffffffffffffffffffffffffffff1673ffffffffffffffffffffffffffffffffffffffff1673ffffffffffffffffffffffffffffffffffffffff1681526020016004820160009054906101000a900473ffffffffffffffffffffffffffffffffffffffff1673ffffffffffffffffffffffffffffffffffffffff1673ffffffffffffffffffffffffffffffffffffffff168152602001600582015481526020016006820160009054906101000a900460ff161515151581525050848681518110611f1f57611f1e613786565b5b6020026020010181905250600185611f379190613730565b945050505b8080611f47906137b5565b915050611d09565b508094505050505090565b6000600580549050905060056040518061016001604052808381526020018581526020018673ffffffffffffffffffffffffffffffffffffffff1681526020018481526020013373ffffffffffffffffffffffffffffffffffffffff1681526020018842611fc89190613730565b8152602001878152602001600073ffffffffffffffffffffffffffffffffffffffff168152602001600081526020016000151581526020016000151581525090806001815401808255809150506001900390600052602060002090600a0201600090919091909150600082015181600001556020820151816001015560408201518160020160006101000a81548173ffffffffffffffffffffffffffffffffffffffff021916908373ffffffffffffffffffffffffffffffffffffffff1602179055506060820151816003015560808201518160040160006101000a81548173ffffffffffffffffffffffffffffffffffffffff021916908373ffffffffffffffffffffffffffffffffffffffff16021790555060a0820151816005015560c0820151816006015560e08201518160070160006101000a81548173ffffffffffffffffffffffffffffffffffffffff021916908373ffffffffffffffffffffffffffffffffffffffff16021790555061010082015181600801556101208201518160090160006101000a81548160ff0219169083151502179055506101408201518160090160016101000a81548160ff02191690831515021790555050508373ffffffffffffffffffffffffffffffffffffffff166323b872dd3330856040518463ffffffff1660e01b81526004016121c3939291906139c8565b600060405180830381600087803b1580156121dd57600080fd5b505af11580156121f1573d6000803e3d6000fd5b505050507f1bb96dff6ab5005aff98cdc0cf176bb7d8e0423cb48e02217d35b042cec81e9f6005828154811061222a57612229613786565b5b90600052602060002090600a02016005015460405161224991906134c2565b60405180910390a1505050505050565b60006006600084815260200190815260200160002060050154905060006006600085815260200190815260200160002060020154905060006006600086815260200190815260200160002060030160009054906101000a900473ffffffffffffffffffffffffffffffffffffffff1690506122d382612aad565b8573ffffffffffffffffffffffffffffffffffffffff16632ccb1b3030856040518363ffffffff1660e01b815260040161230e92919061399f565b602060405180830381600087803b15801561232857600080fd5b505af115801561233c573d6000803e3d6000fd5b505050506040513d601f19601f820116820180604052508101906123609190613a2b565b508573ffffffffffffffffffffffffffffffffffffffff1663a9059cbb82856040518363ffffffff1660e01b815260040161239c92919061399f565b602060405180830381600087803b1580156123b657600080fd5b505af11580156123ca573d6000803e3d6000fd5b505050506040513d601f19601f820116820180604052508101906123ee9190613a2b565b508373ffffffffffffffffffffffffffffffffffffffff166323b872dd3033856040518463ffffffff1660e01b815260040161242c939291906139c8565b600060405180830381600087803b15801561244657600080fd5b505af115801561245a573d6000803e3d6000fd5b50505050336006600087815260200190815260200160002060040160006101000a81548173ffffffffffffffffffffffffffffffffffffffff021916908373ffffffffffffffffffffffffffffffffffffffff16021790555060016006600087815260200190815260200160002060060160006101000a81548160ff0219169083151502179055506124ec6002612bdf565b600360009054906101000a900473ffffffffffffffffffffffffffffffffffffffff1673ffffffffffffffffffffffffffffffffffffffff166108fc6004549081150290604051600060405180830381858888f19350505050158015612556573d6000803e3d6000fd5b50505050505050565b60006005828154811061257557612574613786565b5b90600052602060002090600a020160070160009054906101000a900473ffffffffffffffffffffffffffffffffffffffff169050919050565b600581815481106125be57600080fd5b90600052602060002090600a02016000915090508060000154908060010154908060020160009054906101000a900473ffffffffffffffffffffffffffffffffffffffff16908060030154908060040160009054906101000a900473ffffffffffffffffffffffffffffffffffffffff16908060050154908060060154908060070160009054906101000a900473ffffffffffffffffffffffffffffffffffffffff16908060080154908060090160009054906101000a900460ff16908060090160019054906101000a900460ff1690508b565b6000600454905090565b606060006126aa6001612a00565b905060008060005b83811015612753573373ffffffffffffffffffffffffffffffffffffffff16600660006001846126e29190613730565b815260200190815260200160002060030160009054906101000a900473ffffffffffffffffffffffffffffffffffffffff1673ffffffffffffffffffffffffffffffffffffffff1614156127405760018361273d9190613730565b92505b808061274b906137b5565b9150506126b2565b5060008267ffffffffffffffff8111156127705761276f613701565b5b6040519080825280602002602001820160405280156127a957816020015b612796612d56565b81526020019060019003908161278e5790505b50905060005b848110156129f5573373ffffffffffffffffffffffffffffffffffffffff16600660006001846127df9190613730565b815260200190815260200160002060030160009054906101000a900473ffffffffffffffffffffffffffffffffffffffff1673ffffffffffffffffffffffffffffffffffffffff1614156129e2576000600660006001846128409190613730565b81526020019081526020016000206000015490506000600660008381526020019081526020016000209050806040518060e0016040529081600082015481526020016001820160009054906101000a900473ffffffffffffffffffffffffffffffffffffffff1673ffffffffffffffffffffffffffffffffffffffff1673ffffffffffffffffffffffffffffffffffffffff168152602001600282015481526020016003820160009054906101000a900473ffffffffffffffffffffffffffffffffffffffff1673ffffffffffffffffffffffffffffffffffffffff1673ffffffffffffffffffffffffffffffffffffffff1681526020016004820160009054906101000a900473ffffffffffffffffffffffffffffffffffffffff1673ffffffffffffffffffffffffffffffffffffffff1673ffffffffffffffffffffffffffffffffffffffff168152602001600582015481526020016006820160009054906101000a900460ff1615151515815250508486815181106129c5576129c4613786565b5b60200260200101819052506001856129dd9190613730565b945050505b80806129ed906137b5565b9150506127af565b508094505050505090565b600081600001549050919050565b612aa8838383604051602401612a2693929190613ee7565b6040516020818303038152906040527ffcec75e0000000000000000000000000000000000000000000000000000000007bffffffffffffffffffffffffffffffffffffffffffffffffffffffff19166020820180517bffffffffffffffffffffffffffffffffffffffffffffffffffffffff8381831617835250505050612d2d565b505050565b612b4381604051602401612ac191906134c2565b6040516020818303038152906040527ff5b1bba9000000000000000000000000000000000000000000000000000000007bffffffffffffffffffffffffffffffffffffffffffffffffffffffff19166020820180517bffffffffffffffffffffffffffffffffffffffffffffffffffffffff8381831617835250505050612d2d565b50565b612bdc81604051602401612b5a91906135ba565b6040516020818303038152906040527f2c2ecbc2000000000000000000000000000000000000000000000000000000007bffffffffffffffffffffffffffffffffffffffffffffffffffffffff19166020820180517bffffffffffffffffffffffffffffffffffffffffffffffffffffffff8381831617835250505050612d2d565b50565b6001816000016000828254019250508190555050565b612c8d8282604051602401612c0b929190613f25565b6040516020818303038152906040527f9710a9d0000000000000000000000000000000000000000000000000000000007bffffffffffffffffffffffffffffffffffffffffffffffffffffffff19166020820180517bffffffffffffffffffffffffffffffffffffffffffffffffffffffff8381831617835250505050612d2d565b5050565b612d298282604051602401612ca7929190613f55565b6040516020818303038152906040527f319af333000000000000000000000000000000000000000000000000000000007bffffffffffffffffffffffffffffffffffffffffffffffffffffffff19166020820180517bffffffffffffffffffffffffffffffffffffffffffffffffffffffff8381831617835250505050612d2d565b5050565b60008151905060006a636f6e736f6c652e6c6f679050602083016000808483855afa5050505050565b6040518060e0016040528060008152602001600073ffffffffffffffffffffffffffffffffffffffff16815260200160008152602001600073ffffffffffffffffffffffffffffffffffffffff168152602001600073ffffffffffffffffffffffffffffffffffffffff168152602001600081526020016000151581525090565b6040518061016001604052806000815260200160008152602001600073ffffffffffffffffffffffffffffffffffffffff16815260200160008152602001600073ffffffffffffffffffffffffffffffffffffffff1681526020016000815260200160008152602001600073ffffffffffffffffffffffffffffffffffffffff168152602001600081526020016000151581526020016000151581525090565b600081519050919050565b600082825260208201905092915050565b6000819050602082019050919050565b6000819050919050565b612eb681612ea3565b82525050565b600073ffffffffffffffffffffffffffffffffffffffff82169050919050565b6000612ee782612ebc565b9050919050565b612ef781612edc565b82525050565b6000612f0882612ebc565b9050919050565b612f1881612efd565b82525050565b60008115159050919050565b612f3381612f1e565b82525050565b60e082016000820151612f4f6000850182612ead565b506020820151612f626020850182612eee565b506040820151612f756040850182612ead565b506060820151612f886060850182612f0f565b506080820151612f9b6080850182612f0f565b5060a0820151612fae60a0850182612ead565b5060c0820151612fc160c0850182612f2a565b50505050565b6000612fd38383612f39565b60e08301905092915050565b6000602082019050919050565b6000612ff782612e77565b6130018185612e82565b935061300c83612e93565b8060005b8381101561303d5781516130248882612fc7565b975061302f83612fdf565b925050600181019050613010565b5085935050505092915050565b600060208201905081810360008301526130648184612fec565b905092915050565b600080fd5b61307a81612ea3565b811461308557600080fd5b50565b60008135905061309781613071565b92915050565b6130a681612edc565b81146130b157600080fd5b50565b6000813590506130c38161309d565b92915050565b600080600080608085870312156130e3576130e261306c565b5b60006130f187828801613088565b9450506020613102878288016130b4565b935050604061311387828801613088565b9250506060613124878288016130b4565b91505092959194509250565b6000602082840312156131465761314561306c565b5b600061315484828501613088565b91505092915050565b610160820160008201516131746000850182612ead565b5060208201516131876020850182612ead565b50604082015161319a6040850182612eee565b5060608201516131ad6060850182612ead565b5060808201516131c06080850182612f0f565b5060a08201516131d360a0850182612ead565b5060c08201516131e660c0850182612ead565b5060e08201516131f960e0850182612eee565b5061010082015161320e610100850182612ead565b50610120820151613223610120850182612f2a565b50610140820151613238610140850182612f2a565b50505050565b600061016082019050613254600083018461315d565b92915050565b6000806000606084860312156132735761327261306c565b5b6000613281868287016130b4565b935050602061329286828701613088565b92505060406132a386828701613088565b9150509250925092565b600081519050919050565b600082825260208201905092915050565b6000819050602082019050919050565b610160820160008201516132f06000850182612ead565b5060208201516133036020850182612ead565b5060408201516133166040850182612eee565b5060608201516133296060850182612ead565b50608082015161333c6080850182612f0f565b5060a082015161334f60a0850182612ead565b5060c082015161336260c0850182612ead565b5060e082015161337560e0850182612eee565b5061010082015161338a610100850182612ead565b5061012082015161339f610120850182612f2a565b506101408201516133b4610140850182612f2a565b50505050565b60006133c683836132d9565b6101608301905092915050565b6000602082019050919050565b60006133eb826132ad565b6133f581856132b8565b9350613400836132c9565b8060005b8381101561343157815161341888826133ba565b9750613423836133d3565b925050600181019050613404565b5085935050505092915050565b6000602082019050818103600083015261345881846133e0565b905092915050565b6000806000606084860312156134795761347861306c565b5b600061348786828701613088565b935050602061349886828701613088565b92505060406134a9868287016130b4565b9150509250925092565b6134bc81612ea3565b82525050565b60006020820190506134d760008301846134b3565b92915050565b600080600080600060a086880312156134f9576134f861306c565b5b600061350788828901613088565b955050602061351888828901613088565b9450506040613529888289016130b4565b935050606061353a88828901613088565b925050608061354b88828901613088565b9150509295509295909350565b6000806000606084860312156135715761357061306c565b5b600061357f868287016130b4565b935050602061359086828701613088565b92505060406135a1868287016130b4565b9150509250925092565b6135b481612edc565b82525050565b60006020820190506135cf60008301846135ab565b92915050565b6135de81612efd565b82525050565b6135ed81612f1e565b82525050565b600061016082019050613609600083018e6134b3565b613616602083018d6134b3565b613623604083018c6135ab565b613630606083018b6134b3565b61363d608083018a6135d5565b61364a60a08301896134b3565b61365760c08301886134b3565b61366460e08301876135ab565b6136726101008301866134b3565b6136806101208301856135e4565b61368e6101408301846135e4565b9c9b505050505050505050505050565b7f4e487b7100000000000000000000000000000000000000000000000000000000600052601160045260246000fd5b60006136d882612ea3565b91506136e383612ea3565b9250828210156136f6576136f561369e565b5b828203905092915050565b7f4e487b7100000000000000000000000000000000000000000000000000000000600052604160045260246000fd5b600061373b82612ea3565b915061374683612ea3565b9250827fffffffffffffffffffffffffffffffffffffffffffffffffffffffffffffffff0382111561377b5761377a61369e565b5b828201905092915050565b7f4e487b7100000000000000000000000000000000000000000000000000000000600052603260045260246000fd5b60006137c082612ea3565b91507fffffffffffffffffffffffffffffffffffffffffffffffffffffffffffffffff8214156137f3576137f261369e565b5b600182019050919050565b600082825260208201905092915050565b7f4155433130353a2041756374696f6e20686173206e6f7420656e64656420796560008201527f7400000000000000000000000000000000000000000000000000000000000000602082015250565b600061386b6021836137fe565b91506138768261380f565b604082019050919050565b6000602082019050818103600083015261389a8161385e565b9050919050565b7f4155433130363a205468652066756e6374696f6e2068617320616c726561647960008201527f206265656e2063616c6c65640000000000000000000000000000000000000000602082015250565b60006138fd602c836137fe565b9150613908826138a1565b604082019050919050565b6000602082019050818103600083015261392c816138f0565b9050919050565b7f4155433130373a204e6f2062696420686173206265656e206d61646500000000600082015250565b6000613969601c836137fe565b915061397482613933565b602082019050919050565b600060208201905081810360008301526139988161395c565b9050919050565b60006040820190506139b460008301856135ab565b6139c160208301846134b3565b9392505050565b60006060820190506139dd60008301866135ab565b6139ea60208301856135ab565b6139f760408301846134b3565b949350505050565b613a0881612f1e565b8114613a1357600080fd5b50565b600081519050613a25816139ff565b92915050565b600060208284031215613a4157613a4061306c565b5b6000613a4f84828501613a16565b91505092915050565b7f5265656e7472616e637947756172643a207265656e7472616e742063616c6c00600082015250565b6000613a8e601f836137fe565b9150613a9982613a58565b602082019050919050565b60006020820190508181036000830152613abd81613a81565b9050919050565b7f5072696365206d757374206265206174206c6561737420317765690000000000600082015250565b6000613afa601b836137fe565b9150613b0582613ac4565b602082019050919050565b60006020820190508181036000830152613b2981613aed565b9050919050565b7f596f75206861766520746f2070617920302e303120657468657220746f20637260008201527f65617465204e6674000000000000000000000000000000000000000000000000602082015250565b6000613b8c6028836137fe565b9150613b9782613b30565b604082019050919050565b60006020820190508181036000830152613bbb81613b7f565b9050919050565b6000608082019050613bd760008301876135d5565b613be460208301866135d5565b613bf160408301856134b3565b613bfe60608301846135e4565b95945050505050565b7f4155433130313a2041756374696f6e2068617320616c726561647920656e646560008201527f6400000000000000000000000000000000000000000000000000000000000000602082015250565b6000613c636021836137fe565b9150613c6e82613c07565b604082019050919050565b60006020820190508181036000830152613c9281613c56565b9050919050565b7f4155433130323a204269642063616e6e6f74206265206c657373207468616e2060008201527f625f616d6f756e74000000000000000000000000000000000000000000000000602082015250565b6000613cf56028836137fe565b9150613d0082613c99565b604082019050919050565b60006020820190508181036000830152613d2481613ce8565b9050919050565b7f4155433130333a20546865736520616c7265616479206120686967686572206f60008201527f7220657175616c20626964000000000000000000000000000000000000000000602082015250565b6000613d87602b836137fe565b9150613d9282613d2b565b604082019050919050565b60006020820190508181036000830152613db681613d7a565b9050919050565b6000604082019050613dd260008301856135ab565b613ddf60208301846135ab565b9392505050565b600081519050613df581613071565b92915050565b600060208284031215613e1157613e1061306c565b5b6000613e1f84828501613de6565b91505092915050565b6000606082019050613e3d60008301866135ab565b613e4a60208301856134b3565b613e5760408301846135ab565b949350505050565b600081519050919050565b60005b83811015613e88578082015181840152602081019050613e6d565b83811115613e97576000848401525b50505050565b6000601f19601f8301169050919050565b6000613eb982613e5f565b613ec381856137fe565b9350613ed3818560208601613e6a565b613edc81613e9d565b840191505092915050565b60006060820190508181036000830152613f018186613eae565b9050613f1060208301856135ab565b613f1d60408301846135ab565b949350505050565b60006040820190508181036000830152613f3f8185613eae565b9050613f4e60208301846134b3565b9392505050565b60006040820190508181036000830152613f6f8185613eae565b9050613f7e60208301846135ab565b939250505056fea264697066735822122028285d9b6a60bb48dcc47637d920317f6abea1854f07444d77a69192077d8e1d64736f6c63430008090033",
  "linkReferences": {},
  "deployedLinkReferences": {}
}