{
  "_format": "hh-sol-artifact-1",
  "contractName": "NFTMarket",
  "sourceName": "contracts/NFTMarket.sol",
  "abi": [
    {
      "inputs": [],
      "stateMutability": "nonpayable",
      "type": "constructor"
    },
    {
      "anonymous": false,
      "inputs": [
        {
          "indexed": true,
          "internalType": "uint256",
          "name": "itemId",
          "type": "uint256"
        },
        {
          "indexed": true,
          "internalType": "address",
          "name": "nftContract",
          "type": "address"
        },
        {
          "indexed": true,
          "internalType": "uint256",
          "name": "tokenId",
          "type": "uint256"
        },
        {
          "indexed": false,
          "internalType": "address payable",
          "name": "seller",
          "type": "address"
        },
        {
          "indexed": false,
          "internalType": "address payable",
          "name": "owner",
          "type": "address"
        },
        {
          "indexed": false,
          "internalType": "uint256",
          "name": "price",
          "type": "uint256"
        },
        {
          "indexed": false,
          "internalType": "bool",
          "name": "sold",
          "type": "bool"
        }
      ],
      "name": "MarketItemCreated",
      "type": "event"
    },
    {
      "inputs": [
        {
          "internalType": "address",
          "name": "nftContract",
          "type": "address"
        },
        {
          "internalType": "uint256",
          "name": "tokenId",
          "type": "uint256"
        },
        {
          "internalType": "uint256",
          "name": "price",
          "type": "uint256"
        }
      ],
      "name": "createMarketItem",
      "outputs": [],
      "stateMutability": "payable",
      "type": "function"
    },
    {
      "inputs": [
        {
          "internalType": "address",
          "name": "nftContract",
          "type": "address"
        },
        {
          "internalType": "uint256",
          "name": "itemId",
          "type": "uint256"
        }
      ],
      "name": "createMarketSale",
      "outputs": [],
      "stateMutability": "payable",
      "type": "function"
    },
    {
      "inputs": [],
      "name": "fetchItemsCreated",
      "outputs": [
        {
          "components": [
            {
              "internalType": "uint256",
              "name": "itemId",
              "type": "uint256"
            },
            {
              "internalType": "address",
              "name": "nftContract",
              "type": "address"
            },
            {
              "internalType": "uint256",
              "name": "tokenId",
              "type": "uint256"
            },
            {
              "internalType": "address payable",
              "name": "seller",
              "type": "address"
            },
            {
              "internalType": "address payable",
              "name": "owner",
              "type": "address"
            },
            {
              "internalType": "uint256",
              "name": "price",
              "type": "uint256"
            },
            {
              "internalType": "bool",
              "name": "sold",
              "type": "bool"
            }
          ],
          "internalType": "struct NFTMarket.MarketItem[]",
          "name": "",
          "type": "tuple[]"
        }
      ],
      "stateMutability": "view",
      "type": "function"
    },
    {
      "inputs": [],
      "name": "fetchMarketItems",
      "outputs": [
        {
          "components": [
            {
              "internalType": "uint256",
              "name": "itemId",
              "type": "uint256"
            },
            {
              "internalType": "address",
              "name": "nftContract",
              "type": "address"
            },
            {
              "internalType": "uint256",
              "name": "tokenId",
              "type": "uint256"
            },
            {
              "internalType": "address payable",
              "name": "seller",
              "type": "address"
            },
            {
              "internalType": "address payable",
              "name": "owner",
              "type": "address"
            },
            {
              "internalType": "uint256",
              "name": "price",
              "type": "uint256"
            },
            {
              "internalType": "bool",
              "name": "sold",
              "type": "bool"
            }
          ],
          "internalType": "struct NFTMarket.MarketItem[]",
          "name": "",
          "type": "tuple[]"
        }
      ],
      "stateMutability": "view",
      "type": "function"
    },
    {
      "inputs": [],
      "name": "fetchMyNft",
      "outputs": [
        {
          "components": [
            {
              "internalType": "uint256",
              "name": "itemId",
              "type": "uint256"
            },
            {
              "internalType": "address",
              "name": "nftContract",
              "type": "address"
            },
            {
              "internalType": "uint256",
              "name": "tokenId",
              "type": "uint256"
            },
            {
              "internalType": "address payable",
              "name": "seller",
              "type": "address"
            },
            {
              "internalType": "address payable",
              "name": "owner",
              "type": "address"
            },
            {
              "internalType": "uint256",
              "name": "price",
              "type": "uint256"
            },
            {
              "internalType": "bool",
              "name": "sold",
              "type": "bool"
            }
          ],
          "internalType": "struct NFTMarket.MarketItem[]",
          "name": "",
          "type": "tuple[]"
        }
      ],
      "stateMutability": "view",
      "type": "function"
    },
    {
      "inputs": [],
      "name": "getMarketListingPrice",
      "outputs": [
        {
          "internalType": "uint256",
          "name": "",
          "type": "uint256"
        }
      ],
      "stateMutability": "view",
      "type": "function"
    }
  ],
  "bytecode": "0x6080604052662386f26fc1000060045534801561001b57600080fd5b50600160008190555033600360006101000a81548173ffffffffffffffffffffffffffffffffffffffff021916908373ffffffffffffffffffffffffffffffffffffffff160217905550611bad806100746000396000f3fe6080604052600436106100555760003560e01c80630f08efe01461005a57806358eb2df5146100855780639f7699eb146100a1578063c23b139e146100cc578063f005933f146100e8578063f064c32e14610113575b600080fd5b34801561006657600080fd5b5061006f61013e565b60405161007c919061155f565b60405180910390f35b61009f600480360381019061009a91906115de565b610495565b005b3480156100ad57600080fd5b506100b66107fa565b6040516100c3919061155f565b60405180910390f35b6100e660048036038101906100e19190611631565b610b5e565b005b3480156100f457600080fd5b506100fd610e18565b60405161010a9190611680565b60405180910390f35b34801561011f57600080fd5b50610128610e22565b604051610135919061155f565b60405180910390f35b6060600061014c6001611186565b9050600061015a6002611186565b8261016591906116ca565b90506000808267ffffffffffffffff811115610184576101836116fe565b5b6040519080825280602002602001820160405280156101bd57816020015b6101aa61130b565b8152602001906001900390816101a25790505b50905060005b8481101561048a57600073ffffffffffffffffffffffffffffffffffffffff16600560006001846101f4919061172d565b815260200190815260200160002060040160009054906101000a900473ffffffffffffffffffffffffffffffffffffffff1673ffffffffffffffffffffffffffffffffffffffff161415610477576102b96040518060400160405280601381526020017f456e74657220696e746f2066756e6374696f6e000000000000000000000000008152506005600084815260200190815260200160002060040160009054906101000a900473ffffffffffffffffffffffffffffffffffffffff166000611194565b6000600560006001846102cc919061172d565b8152602001908152602001600020600001549050600060056000838152602001908152602001600020905061030085611233565b806040518060e0016040529081600082015481526020016001820160009054906101000a900473ffffffffffffffffffffffffffffffffffffffff1673ffffffffffffffffffffffffffffffffffffffff1673ffffffffffffffffffffffffffffffffffffffff168152602001600282015481526020016003820160009054906101000a900473ffffffffffffffffffffffffffffffffffffffff1673ffffffffffffffffffffffffffffffffffffffff1673ffffffffffffffffffffffffffffffffffffffff1681526020016004820160009054906101000a900473ffffffffffffffffffffffffffffffffffffffff1673ffffffffffffffffffffffffffffffffffffffff1673ffffffffffffffffffffffffffffffffffffffff168152602001600582015481526020016006820160009054906101000a900460ff16151515158152505084868151811061045a57610459611783565b5b6020026020010181905250600185610472919061172d565b945050505b8080610482906117b2565b9150506101c3565b508094505050505090565b600260005414156104db576040517f08c379a00000000000000000000000000000000000000000000000000000000081526004016104d290611858565b60405180910390fd5b600260008190555060008111610526576040517f08c379a000000000000000000000000000000000000000000000000000000000815260040161051d906118c4565b60405180910390fd5b60045434101561056b576040517f08c379a000000000000000000000000000000000000000000000000000000000815260040161056290611956565b60405180910390fd5b61057560016112cc565b60006105816001611186565b90506040518060e001604052808281526020018573ffffffffffffffffffffffffffffffffffffffff1681526020018481526020013373ffffffffffffffffffffffffffffffffffffffff168152602001600073ffffffffffffffffffffffffffffffffffffffff16815260200183815260200160001515815250600560008381526020019081526020016000206000820151816000015560208201518160010160006101000a81548173ffffffffffffffffffffffffffffffffffffffff021916908373ffffffffffffffffffffffffffffffffffffffff1602179055506040820151816002015560608201518160030160006101000a81548173ffffffffffffffffffffffffffffffffffffffff021916908373ffffffffffffffffffffffffffffffffffffffff16021790555060808201518160040160006101000a81548173ffffffffffffffffffffffffffffffffffffffff021916908373ffffffffffffffffffffffffffffffffffffffff16021790555060a0820151816005015560c08201518160060160006101000a81548160ff0219169083151502179055509050508373ffffffffffffffffffffffffffffffffffffffff166323b872dd3330866040518463ffffffff1660e01b815260040161076293929190611985565b600060405180830381600087803b15801561077c57600080fd5b505af1158015610790573d6000803e3d6000fd5b50505050828473ffffffffffffffffffffffffffffffffffffffff16827f045dfa01dcba2b36aba1d3dc4a874f4b0c5d2fbeb8d2c4b34a7d88c8d8f929d13360008760006040516107e494939291906119da565b60405180910390a4506001600081905550505050565b606060006108086001611186565b905060008060005b838110156108b1573373ffffffffffffffffffffffffffffffffffffffff1660056000600184610840919061172d565b815260200190815260200160002060040160009054906101000a900473ffffffffffffffffffffffffffffffffffffffff1673ffffffffffffffffffffffffffffffffffffffff16141561089e5760018361089b919061172d565b92505b80806108a9906117b2565b915050610810565b5060008267ffffffffffffffff8111156108ce576108cd6116fe565b5b60405190808252806020026020018201604052801561090757816020015b6108f461130b565b8152602001906001900390816108ec5790505b50905060005b84811015610b53573373ffffffffffffffffffffffffffffffffffffffff166005600060018461093d919061172d565b815260200190815260200160002060040160009054906101000a900473ffffffffffffffffffffffffffffffffffffffff1673ffffffffffffffffffffffffffffffffffffffff161415610b405760006005600060018461099e919061172d565b81526020019081526020016000206000015490506000600560008381526020019081526020016000209050806040518060e0016040529081600082015481526020016001820160009054906101000a900473ffffffffffffffffffffffffffffffffffffffff1673ffffffffffffffffffffffffffffffffffffffff1673ffffffffffffffffffffffffffffffffffffffff168152602001600282015481526020016003820160009054906101000a900473ffffffffffffffffffffffffffffffffffffffff1673ffffffffffffffffffffffffffffffffffffffff1673ffffffffffffffffffffffffffffffffffffffff1681526020016004820160009054906101000a900473ffffffffffffffffffffffffffffffffffffffff1673ffffffffffffffffffffffffffffffffffffffff1673ffffffffffffffffffffffffffffffffffffffff168152602001600582015481526020016006820160009054906101000a900460ff161515151581525050848681518110610b2357610b22611783565b5b6020026020010181905250600185610b3b919061172d565b945050505b8080610b4b906117b2565b91505061090d565b508094505050505090565b60026000541415610ba4576040517f08c379a0000000000000000000000000000000000000000000000000000000008152600401610b9b90611858565b60405180910390fd5b600260008190555060006005600083815260200190815260200160002060050154905060006005600084815260200190815260200160002060020154905081341015610c25576040517f08c379a0000000000000000000000000000000000000000000000000000000008152600401610c1c90611a91565b60405180910390fd5b6005600084815260200190815260200160002060030160009054906101000a900473ffffffffffffffffffffffffffffffffffffffff1673ffffffffffffffffffffffffffffffffffffffff166108fc349081150290604051600060405180830381858888f19350505050158015610ca1573d6000803e3d6000fd5b508373ffffffffffffffffffffffffffffffffffffffff166323b872dd3033846040518463ffffffff1660e01b8152600401610cdf93929190611985565b600060405180830381600087803b158015610cf957600080fd5b505af1158015610d0d573d6000803e3d6000fd5b50505050336005600085815260200190815260200160002060040160006101000a81548173ffffffffffffffffffffffffffffffffffffffff021916908373ffffffffffffffffffffffffffffffffffffffff16021790555060016005600085815260200190815260200160002060060160006101000a81548160ff021916908315150217905550610d9f60026112cc565b600360009054906101000a900473ffffffffffffffffffffffffffffffffffffffff1673ffffffffffffffffffffffffffffffffffffffff166108fc6004549081150290604051600060405180830381858888f19350505050158015610e09573d6000803e3d6000fd5b50505060016000819055505050565b6000600454905090565b60606000610e306001611186565b905060008060005b83811015610ed9573373ffffffffffffffffffffffffffffffffffffffff1660056000600184610e68919061172d565b815260200190815260200160002060030160009054906101000a900473ffffffffffffffffffffffffffffffffffffffff1673ffffffffffffffffffffffffffffffffffffffff161415610ec657600183610ec3919061172d565b92505b8080610ed1906117b2565b915050610e38565b5060008267ffffffffffffffff811115610ef657610ef56116fe565b5b604051908082528060200260200182016040528015610f2f57816020015b610f1c61130b565b815260200190600190039081610f145790505b50905060005b8481101561117b573373ffffffffffffffffffffffffffffffffffffffff1660056000600184610f65919061172d565b815260200190815260200160002060030160009054906101000a900473ffffffffffffffffffffffffffffffffffffffff1673ffffffffffffffffffffffffffffffffffffffff16141561116857600060056000600184610fc6919061172d565b81526020019081526020016000206000015490506000600560008381526020019081526020016000209050806040518060e0016040529081600082015481526020016001820160009054906101000a900473ffffffffffffffffffffffffffffffffffffffff1673ffffffffffffffffffffffffffffffffffffffff1673ffffffffffffffffffffffffffffffffffffffff168152602001600282015481526020016003820160009054906101000a900473ffffffffffffffffffffffffffffffffffffffff1673ffffffffffffffffffffffffffffffffffffffff1673ffffffffffffffffffffffffffffffffffffffff1681526020016004820160009054906101000a900473ffffffffffffffffffffffffffffffffffffffff1673ffffffffffffffffffffffffffffffffffffffff1673ffffffffffffffffffffffffffffffffffffffff168152602001600582015481526020016006820160009054906101000a900460ff16151515158152505084868151811061114b5761114a611783565b5b6020026020010181905250600185611163919061172d565b945050505b8080611173906117b2565b915050610f35565b508094505050505090565b600081600001549050919050565b61122e8383836040516024016111ac93929190611b39565b6040516020818303038152906040527ffcec75e0000000000000000000000000000000000000000000000000000000007bffffffffffffffffffffffffffffffffffffffffffffffffffffffff19166020820180517bffffffffffffffffffffffffffffffffffffffffffffffffffffffff83818316178352505050506112e2565b505050565b6112c9816040516024016112479190611680565b6040516020818303038152906040527ff5b1bba9000000000000000000000000000000000000000000000000000000007bffffffffffffffffffffffffffffffffffffffffffffffffffffffff19166020820180517bffffffffffffffffffffffffffffffffffffffffffffffffffffffff83818316178352505050506112e2565b50565b6001816000016000828254019250508190555050565b60008151905060006a636f6e736f6c652e6c6f679050602083016000808483855afa5050505050565b6040518060e0016040528060008152602001600073ffffffffffffffffffffffffffffffffffffffff16815260200160008152602001600073ffffffffffffffffffffffffffffffffffffffff168152602001600073ffffffffffffffffffffffffffffffffffffffff168152602001600081526020016000151581525090565b600081519050919050565b600082825260208201905092915050565b6000819050602082019050919050565b6000819050919050565b6113cb816113b8565b82525050565b600073ffffffffffffffffffffffffffffffffffffffff82169050919050565b60006113fc826113d1565b9050919050565b61140c816113f1565b82525050565b600061141d826113d1565b9050919050565b61142d81611412565b82525050565b60008115159050919050565b61144881611433565b82525050565b60e08201600082015161146460008501826113c2565b5060208201516114776020850182611403565b50604082015161148a60408501826113c2565b50606082015161149d6060850182611424565b5060808201516114b06080850182611424565b5060a08201516114c360a08501826113c2565b5060c08201516114d660c085018261143f565b50505050565b60006114e8838361144e565b60e08301905092915050565b6000602082019050919050565b600061150c8261138c565b6115168185611397565b9350611521836113a8565b8060005b8381101561155257815161153988826114dc565b9750611544836114f4565b925050600181019050611525565b5085935050505092915050565b600060208201905081810360008301526115798184611501565b905092915050565b600080fd5b61158f816113f1565b811461159a57600080fd5b50565b6000813590506115ac81611586565b92915050565b6115bb816113b8565b81146115c657600080fd5b50565b6000813590506115d8816115b2565b92915050565b6000806000606084860312156115f7576115f6611581565b5b60006116058682870161159d565b9350506020611616868287016115c9565b9250506040611627868287016115c9565b9150509250925092565b6000806040838503121561164857611647611581565b5b60006116568582860161159d565b9250506020611667858286016115c9565b9150509250929050565b61167a816113b8565b82525050565b60006020820190506116956000830184611671565b92915050565b7f4e487b7100000000000000000000000000000000000000000000000000000000600052601160045260246000fd5b60006116d5826113b8565b91506116e0836113b8565b9250828210156116f3576116f261169b565b5b828203905092915050565b7f4e487b7100000000000000000000000000000000000000000000000000000000600052604160045260246000fd5b6000611738826113b8565b9150611743836113b8565b9250827fffffffffffffffffffffffffffffffffffffffffffffffffffffffffffffffff038211156117785761177761169b565b5b828201905092915050565b7f4e487b7100000000000000000000000000000000000000000000000000000000600052603260045260246000fd5b60006117bd826113b8565b91507fffffffffffffffffffffffffffffffffffffffffffffffffffffffffffffffff8214156117f0576117ef61169b565b5b600182019050919050565b600082825260208201905092915050565b7f5265656e7472616e637947756172643a207265656e7472616e742063616c6c00600082015250565b6000611842601f836117fb565b915061184d8261180c565b602082019050919050565b6000602082019050818103600083015261187181611835565b9050919050565b7f5072696365206d757374206265206174206c6561737420317765690000000000600082015250565b60006118ae601b836117fb565b91506118b982611878565b602082019050919050565b600060208201905081810360008301526118dd816118a1565b9050919050565b7f596f75206861766520746f2070617920302e303120657468657220746f20637260008201527f65617465204e6674000000000000000000000000000000000000000000000000602082015250565b60006119406028836117fb565b915061194b826118e4565b604082019050919050565b6000602082019050818103600083015261196f81611933565b9050919050565b61197f816113f1565b82525050565b600060608201905061199a6000830186611976565b6119a76020830185611976565b6119b46040830184611671565b949350505050565b6119c581611412565b82525050565b6119d481611433565b82525050565b60006080820190506119ef60008301876119bc565b6119fc60208301866119bc565b611a096040830185611671565b611a1660608301846119cb565b95945050505050565b7f506c656173652050726f766964652061736b696e672076616c756520666f722060008201527f636f6d706c657465207468652070757263686173650000000000000000000000602082015250565b6000611a7b6035836117fb565b9150611a8682611a1f565b604082019050919050565b60006020820190508181036000830152611aaa81611a6e565b9050919050565b600081519050919050565b60005b83811015611ada578082015181840152602081019050611abf565b83811115611ae9576000848401525b50505050565b6000601f19601f8301169050919050565b6000611b0b82611ab1565b611b1581856117fb565b9350611b25818560208601611abc565b611b2e81611aef565b840191505092915050565b60006060820190508181036000830152611b538186611b00565b9050611b626020830185611976565b611b6f6040830184611976565b94935050505056fea264697066735822122021806570510a12fd3f3e4544a4dd4760776a0f5fc2407b04ee9104945b1b2e1864736f6c634300080b0033",
  "linkReferences": {},
  "deployedLinkReferences": {}
}