{
  "_format": "hh-sol-artifact-1",
  "contractName": "VSCoin",
  "sourceName": "contracts/VSCoin.sol",
  "abi": [
    {
      "inputs": [],
      "stateMutability": "nonpayable",
      "type": "constructor"
    },
    {
      "anonymous": false,
      "inputs": [
        {
          "indexed": true,
          "internalType": "address",
          "name": "owner",
          "type": "address"
        },
        {
          "indexed": true,
          "internalType": "address",
          "name": "spender",
          "type": "address"
        },
        {
          "indexed": false,
          "internalType": "uint256",
          "name": "value",
          "type": "uint256"
        }
      ],
      "name": "Approval",
      "type": "event"
    },
    {
      "anonymous": false,
      "inputs": [
        {
          "indexed": true,
          "internalType": "address",
          "name": "from",
          "type": "address"
        },
        {
          "indexed": true,
          "internalType": "address",
          "name": "to",
          "type": "address"
        },
        {
          "indexed": false,
          "internalType": "uint256",
          "name": "value",
          "type": "uint256"
        }
      ],
      "name": "Transfer",
      "type": "event"
    },
    {
      "inputs": [
        {
          "internalType": "address",
          "name": "owner",
          "type": "address"
        },
        {
          "internalType": "address",
          "name": "spender",
          "type": "address"
        }
      ],
      "name": "allowance",
      "outputs": [
        {
          "internalType": "uint256",
          "name": "",
          "type": "uint256"
        }
      ],
      "stateMutability": "view",
      "type": "function"
    },
    {
      "inputs": [
        {
          "internalType": "address",
          "name": "spender",
          "type": "address"
        },
        {
          "internalType": "uint256",
          "name": "amount",
          "type": "uint256"
        }
      ],
      "name": "approve",
      "outputs": [
        {
          "internalType": "bool",
          "name": "",
          "type": "bool"
        }
      ],
      "stateMutability": "nonpayable",
      "type": "function"
    },
    {
      "inputs": [
        {
          "internalType": "address",
          "name": "account",
          "type": "address"
        }
      ],
      "name": "balanceOf",
      "outputs": [
        {
          "internalType": "uint256",
          "name": "",
          "type": "uint256"
        }
      ],
      "stateMutability": "view",
      "type": "function"
    },
    {
      "inputs": [],
      "name": "decimals",
      "outputs": [
        {
          "internalType": "uint8",
          "name": "",
          "type": "uint8"
        }
      ],
      "stateMutability": "view",
      "type": "function"
    },
    {
      "inputs": [],
      "name": "name",
      "outputs": [
        {
          "internalType": "string",
          "name": "",
          "type": "string"
        }
      ],
      "stateMutability": "view",
      "type": "function"
    },
    {
      "inputs": [],
      "name": "symbol",
      "outputs": [
        {
          "internalType": "string",
          "name": "",
          "type": "string"
        }
      ],
      "stateMutability": "view",
      "type": "function"
    },
    {
      "inputs": [],
      "name": "totalSupply",
      "outputs": [
        {
          "internalType": "uint256",
          "name": "",
          "type": "uint256"
        }
      ],
      "stateMutability": "view",
      "type": "function"
    },
    {
      "inputs": [
        {
          "internalType": "address",
          "name": "recipient",
          "type": "address"
        },
        {
          "internalType": "uint256",
          "name": "amount",
          "type": "uint256"
        }
      ],
      "name": "transfer",
      "outputs": [
        {
          "internalType": "bool",
          "name": "",
          "type": "bool"
        }
      ],
      "stateMutability": "nonpayable",
      "type": "function"
    },
    {
      "inputs": [
        {
          "internalType": "address",
          "name": "sender",
          "type": "address"
        },
        {
          "internalType": "address",
          "name": "recipient",
          "type": "address"
        },
        {
          "internalType": "uint256",
          "name": "amount",
          "type": "uint256"
        }
      ],
      "name": "transferFrom",
      "outputs": [
        {
          "internalType": "bool",
          "name": "",
          "type": "bool"
        }
      ],
      "stateMutability": "nonpayable",
      "type": "function"
    },
    {
      "inputs": [
        {
          "internalType": "address",
          "name": "sender",
          "type": "address"
        },
        {
          "internalType": "address",
          "name": "recipient",
          "type": "address"
        },
        {
          "internalType": "uint256",
          "name": "amount",
          "type": "uint256"
        }
      ],
      "name": "transferTo",
      "outputs": [
        {
          "internalType": "bool",
          "name": "",
          "type": "bool"
        }
      ],
      "stateMutability": "nonpayable",
      "type": "function"
    }
  ],
  "bytecode": "0x60806040523480156200001157600080fd5b506040518060400160405280600781526020017f565320436f696e00000000000000000000000000000000000000000000000000815250600190805190602001906200005f929190620001fa565b506040518060400160405280600381526020017f565343000000000000000000000000000000000000000000000000000000000081525060029080519060200190620000ad929190620001fa565b50620000ca3369152d02c7e14af68000006200011060201b60201c565b336000806101000a81548173ffffffffffffffffffffffffffffffffffffffff021916908373ffffffffffffffffffffffffffffffffffffffff1602179055506200044e565b600073ffffffffffffffffffffffffffffffffffffffff168273ffffffffffffffffffffffffffffffffffffffff16141562000183576040517f08c379a00000000000000000000000000000000000000000000000000000000081526004016200017a9062000331565b60405180910390fd5b80600360008282546200019791906200038c565b9250508190555080600460008473ffffffffffffffffffffffffffffffffffffffff1673ffffffffffffffffffffffffffffffffffffffff1681526020019081526020016000206000828254620001ef91906200038c565b925050819055505050565b828054620002089062000418565b90600052602060002090601f0160209004810192826200022c576000855562000278565b82601f106200024757805160ff191683800117855562000278565b8280016001018555821562000278579182015b82811115620002775782518255916020019190600101906200025a565b5b5090506200028791906200028b565b5090565b5b80821115620002a65760008160009055506001016200028c565b5090565b600082825260208201905092915050565b7f45524332303a206d696e7420726563697069656e7420746865207a65726f206160008201527f6464726573730000000000000000000000000000000000000000000000000000602082015250565b600062000319602683620002aa565b91506200032682620002bb565b604082019050919050565b600060208201905081810360008301526200034c816200030a565b9050919050565b6000819050919050565b7f4e487b7100000000000000000000000000000000000000000000000000000000600052601160045260246000fd5b6000620003998262000353565b9150620003a68362000353565b9250827fffffffffffffffffffffffffffffffffffffffffffffffffffffffffffffffff03821115620003de57620003dd6200035d565b5b828201905092915050565b7f4e487b7100000000000000000000000000000000000000000000000000000000600052602260045260246000fd5b600060028204905060018216806200043157607f821691505b60208210811415620004485762000447620003e9565b5b50919050565b611107806200045e6000396000f3fe608060405234801561001057600080fd5b506004361061009e5760003560e01c806370a082311161006657806370a082311461015d57806395d89b411461018d578063a5f2a152146101ab578063a9059cbb146101db578063dd62ed3e1461020b5761009e565b806306fdde03146100a3578063095ea7b3146100c157806318160ddd146100f157806323b872dd1461010f578063313ce5671461013f575b600080fd5b6100ab61023b565b6040516100b89190610a4b565b60405180910390f35b6100db60048036038101906100d69190610b06565b6102cd565b6040516100e89190610b61565b60405180910390f35b6100f961036b565b6040516101069190610b8b565b60405180910390f35b61012960048036038101906101249190610ba6565b610375565b6040516101369190610b61565b60405180910390f35b610147610471565b6040516101549190610c15565b60405180910390f35b61017760048036038101906101729190610c30565b61047a565b6040516101849190610b8b565b60405180910390f35b6101956104c3565b6040516101a29190610a4b565b60405180910390f35b6101c560048036038101906101c09190610ba6565b610555565b6040516101d29190610b61565b60405180910390f35b6101f560048036038101906101f09190610b06565b61056d565b6040516102029190610b61565b60405180910390f35b61022560048036038101906102209190610c5d565b610584565b6040516102329190610b8b565b60405180910390f35b60606001805461024a90610ccc565b80601f016020809104026020016040519081016040528092919081815260200182805461027690610ccc565b80156102c35780601f10610298576101008083540402835291602001916102c3565b820191906000526020600020905b8154815290600101906020018083116102a657829003601f168201915b5050505050905090565b600080600460003373ffffffffffffffffffffffffffffffffffffffff1673ffffffffffffffffffffffffffffffffffffffff16815260200190815260200160002054905082811015610355576040517f08c379a000000000000000000000000000000000000000000000000000000000815260040161034c90610d4a565b60405180910390fd5b61036033858561060b565b600191505092915050565b6000600354905090565b600061038033610771565b6000600560008673ffffffffffffffffffffffffffffffffffffffff1673ffffffffffffffffffffffffffffffffffffffff16815260200190815260200160002060003373ffffffffffffffffffffffffffffffffffffffff1673ffffffffffffffffffffffffffffffffffffffff16815260200190815260200160002054905082811015610444576040517f08c379a000000000000000000000000000000000000000000000000000000000815260040161043b90610ddc565b60405180910390fd5b61044f85338561080a565b610465858585846104609190610e2b565b61060b565b60019150509392505050565b60006012905090565b6000600460008373ffffffffffffffffffffffffffffffffffffffff1673ffffffffffffffffffffffffffffffffffffffff168152602001908152602001600020549050919050565b6060600280546104d290610ccc565b80601f01602080910402602001604051908101604052809291908181526020018280546104fe90610ccc565b801561054b5780601f106105205761010080835404028352916020019161054b565b820191906000526020600020905b81548152906001019060200180831161052e57829003601f168201915b5050505050905090565b600061056284848461080a565b600190509392505050565b600061057a33848461080a565b6001905092915050565b6000600560008473ffffffffffffffffffffffffffffffffffffffff1673ffffffffffffffffffffffffffffffffffffffff16815260200190815260200160002060008373ffffffffffffffffffffffffffffffffffffffff1673ffffffffffffffffffffffffffffffffffffffff16815260200190815260200160002054905092915050565b600073ffffffffffffffffffffffffffffffffffffffff168373ffffffffffffffffffffffffffffffffffffffff16141561067b576040517f08c379a000000000000000000000000000000000000000000000000000000000815260040161067290610ed1565b60405180910390fd5b600073ffffffffffffffffffffffffffffffffffffffff168273ffffffffffffffffffffffffffffffffffffffff1614156106eb576040517f08c379a00000000000000000000000000000000000000000000000000000000081526004016106e290610f63565b60405180910390fd5b80600560008573ffffffffffffffffffffffffffffffffffffffff1673ffffffffffffffffffffffffffffffffffffffff16815260200190815260200160002060008473ffffffffffffffffffffffffffffffffffffffff1673ffffffffffffffffffffffffffffffffffffffff16815260200190815260200160002081905550505050565b610807816040516024016107859190610f92565b6040516020818303038152906040527f2c2ecbc2000000000000000000000000000000000000000000000000000000007bffffffffffffffffffffffffffffffffffffffffffffffffffffffff19166020820180517bffffffffffffffffffffffffffffffffffffffffffffffffffffffff8381831617835250505050610989565b50565b600073ffffffffffffffffffffffffffffffffffffffff168373ffffffffffffffffffffffffffffffffffffffff16141561087a576040517f08c379a00000000000000000000000000000000000000000000000000000000081526004016108719061101f565b60405180910390fd5b600073ffffffffffffffffffffffffffffffffffffffff168273ffffffffffffffffffffffffffffffffffffffff1614156108ea576040517f08c379a00000000000000000000000000000000000000000000000000000000081526004016108e1906110b1565b60405180910390fd5b80600460008573ffffffffffffffffffffffffffffffffffffffff1673ffffffffffffffffffffffffffffffffffffffff1681526020019081526020016000206000828254039250508190555080600460008473ffffffffffffffffffffffffffffffffffffffff1673ffffffffffffffffffffffffffffffffffffffff16815260200190815260200160002060008282540192505081905550505050565b60008151905060006a636f6e736f6c652e6c6f679050602083016000808483855afa5050505050565b600081519050919050565b600082825260208201905092915050565b60005b838110156109ec5780820151818401526020810190506109d1565b838111156109fb576000848401525b50505050565b6000601f19601f8301169050919050565b6000610a1d826109b2565b610a2781856109bd565b9350610a378185602086016109ce565b610a4081610a01565b840191505092915050565b60006020820190508181036000830152610a658184610a12565b905092915050565b600080fd5b600073ffffffffffffffffffffffffffffffffffffffff82169050919050565b6000610a9d82610a72565b9050919050565b610aad81610a92565b8114610ab857600080fd5b50565b600081359050610aca81610aa4565b92915050565b6000819050919050565b610ae381610ad0565b8114610aee57600080fd5b50565b600081359050610b0081610ada565b92915050565b60008060408385031215610b1d57610b1c610a6d565b5b6000610b2b85828601610abb565b9250506020610b3c85828601610af1565b9150509250929050565b60008115159050919050565b610b5b81610b46565b82525050565b6000602082019050610b766000830184610b52565b92915050565b610b8581610ad0565b82525050565b6000602082019050610ba06000830184610b7c565b92915050565b600080600060608486031215610bbf57610bbe610a6d565b5b6000610bcd86828701610abb565b9350506020610bde86828701610abb565b9250506040610bef86828701610af1565b9150509250925092565b600060ff82169050919050565b610c0f81610bf9565b82525050565b6000602082019050610c2a6000830184610c06565b92915050565b600060208284031215610c4657610c45610a6d565b5b6000610c5484828501610abb565b91505092915050565b60008060408385031215610c7457610c73610a6d565b5b6000610c8285828601610abb565b9250506020610c9385828601610abb565b9150509250929050565b7f4e487b7100000000000000000000000000000000000000000000000000000000600052602260045260246000fd5b60006002820490506001821680610ce457607f821691505b60208210811415610cf857610cf7610c9d565b5b50919050565b7f45524332303a204e6f7420656666696369656e74206d6f6e6579000000000000600082015250565b6000610d34601a836109bd565b9150610d3f82610cfe565b602082019050919050565b60006020820190508181036000830152610d6381610d27565b9050919050565b7f45524332303a207472616e7366657220616d6f756e742065786365656473206160008201527f6c6c6f77616e6365000000000000000000000000000000000000000000000000602082015250565b6000610dc66028836109bd565b9150610dd182610d6a565b604082019050919050565b60006020820190508181036000830152610df581610db9565b9050919050565b7f4e487b7100000000000000000000000000000000000000000000000000000000600052601160045260246000fd5b6000610e3682610ad0565b9150610e4183610ad0565b925082821015610e5457610e53610dfc565b5b828203905092915050565b7f45524332303a20617070726f76652073656e64657220746865207a65726f206160008201527f6464726573730000000000000000000000000000000000000000000000000000602082015250565b6000610ebb6026836109bd565b9150610ec682610e5f565b604082019050919050565b60006020820190508181036000830152610eea81610eae565b9050919050565b7f45524332303a20617070726f766520726563697069656e7420746865207a657260008201527f6f20616464726573730000000000000000000000000000000000000000000000602082015250565b6000610f4d6029836109bd565b9150610f5882610ef1565b604082019050919050565b60006020820190508181036000830152610f7c81610f40565b9050919050565b610f8c81610a92565b82525050565b6000602082019050610fa76000830184610f83565b92915050565b7f45524332303a207472616e736665722073656e64657220746865207a65726f2060008201527f6164647265737300000000000000000000000000000000000000000000000000602082015250565b60006110096027836109bd565b915061101482610fad565b604082019050919050565b6000602082019050818103600083015261103881610ffc565b9050919050565b7f45524332303a207472616e7366657220726563697069656e7420746865207a6560008201527f726f206164647265737300000000000000000000000000000000000000000000602082015250565b600061109b602a836109bd565b91506110a68261103f565b604082019050919050565b600060208201905081810360008301526110ca8161108e565b905091905056fea2646970667358221220852f727c70a6f81d5f939e9d42aae40c28fd5e3a4d7a4a6f46cffd0f5803705d64736f6c634300080b0033",
  "linkReferences": {},
  "deployedLinkReferences": {}
}