{
  "_format": "hh-sol-artifact-1",
  "contractName": "VSCoin",
  "sourceName": "contracts/VSCoin.sol",
  "abi": [
    {
      "inputs": [],
      "stateMutability": "nonpayable",
      "type": "constructor"
    },
    {
      "anonymous": false,
      "inputs": [
        {
          "indexed": true,
          "internalType": "address",
          "name": "owner",
          "type": "address"
        },
        {
          "indexed": true,
          "internalType": "address",
          "name": "spender",
          "type": "address"
        },
        {
          "indexed": false,
          "internalType": "uint256",
          "name": "value",
          "type": "uint256"
        }
      ],
      "name": "Approval",
      "type": "event"
    },
    {
      "anonymous": false,
      "inputs": [
        {
          "indexed": true,
          "internalType": "address",
          "name": "from",
          "type": "address"
        },
        {
          "indexed": true,
          "internalType": "address",
          "name": "to",
          "type": "address"
        },
        {
          "indexed": false,
          "internalType": "uint256",
          "name": "value",
          "type": "uint256"
        }
      ],
      "name": "Transfer",
      "type": "event"
    },
    {
      "inputs": [
        {
          "internalType": "address",
          "name": "owner",
          "type": "address"
        },
        {
          "internalType": "address",
          "name": "spender",
          "type": "address"
        }
      ],
      "name": "allowance",
      "outputs": [
        {
          "internalType": "uint256",
          "name": "",
          "type": "uint256"
        }
      ],
      "stateMutability": "view",
      "type": "function"
    },
    {
      "inputs": [
        {
          "internalType": "address",
          "name": "spender",
          "type": "address"
        },
        {
          "internalType": "uint256",
          "name": "amount",
          "type": "uint256"
        }
      ],
      "name": "approve",
      "outputs": [
        {
          "internalType": "bool",
          "name": "",
          "type": "bool"
        }
      ],
      "stateMutability": "nonpayable",
      "type": "function"
    },
    {
      "inputs": [
        {
          "internalType": "address",
          "name": "account",
          "type": "address"
        }
      ],
      "name": "balanceOf",
      "outputs": [
        {
          "internalType": "uint256",
          "name": "",
          "type": "uint256"
        }
      ],
      "stateMutability": "view",
      "type": "function"
    },
    {
      "inputs": [],
      "name": "decimals",
      "outputs": [
        {
          "internalType": "uint8",
          "name": "",
          "type": "uint8"
        }
      ],
      "stateMutability": "view",
      "type": "function"
    },
    {
      "inputs": [
        {
          "internalType": "address",
          "name": "spender",
          "type": "address"
        },
        {
          "internalType": "uint256",
          "name": "subtractedValue",
          "type": "uint256"
        },
        {
          "internalType": "address",
          "name": "highestBidder",
          "type": "address"
        }
      ],
      "name": "decreaseAllowance",
      "outputs": [
        {
          "internalType": "bool",
          "name": "",
          "type": "bool"
        }
      ],
      "stateMutability": "nonpayable",
      "type": "function"
    },
    {
      "inputs": [
        {
          "internalType": "address",
          "name": "spender",
          "type": "address"
        },
        {
          "internalType": "uint256",
          "name": "addedValue",
          "type": "uint256"
        },
        {
          "internalType": "address",
          "name": "highestBidder",
          "type": "address"
        }
      ],
      "name": "increaseAllowance",
      "outputs": [
        {
          "internalType": "bool",
          "name": "",
          "type": "bool"
        }
      ],
      "stateMutability": "nonpayable",
      "type": "function"
    },
    {
      "inputs": [],
      "name": "name",
      "outputs": [
        {
          "internalType": "string",
          "name": "",
          "type": "string"
        }
      ],
      "stateMutability": "view",
      "type": "function"
    },
    {
      "inputs": [],
      "name": "symbol",
      "outputs": [
        {
          "internalType": "string",
          "name": "",
          "type": "string"
        }
      ],
      "stateMutability": "view",
      "type": "function"
    },
    {
      "inputs": [],
      "name": "totalSupply",
      "outputs": [
        {
          "internalType": "uint256",
          "name": "",
          "type": "uint256"
        }
      ],
      "stateMutability": "view",
      "type": "function"
    },
    {
      "inputs": [
        {
          "internalType": "address",
          "name": "recipient",
          "type": "address"
        },
        {
          "internalType": "uint256",
          "name": "amount",
          "type": "uint256"
        }
      ],
      "name": "transfer",
      "outputs": [
        {
          "internalType": "bool",
          "name": "",
          "type": "bool"
        }
      ],
      "stateMutability": "nonpayable",
      "type": "function"
    },
    {
      "inputs": [
        {
          "internalType": "address",
          "name": "sender",
          "type": "address"
        },
        {
          "internalType": "address",
          "name": "recipient",
          "type": "address"
        },
        {
          "internalType": "uint256",
          "name": "amount",
          "type": "uint256"
        }
      ],
      "name": "transferFrom",
      "outputs": [
        {
          "internalType": "bool",
          "name": "",
          "type": "bool"
        }
      ],
      "stateMutability": "nonpayable",
      "type": "function"
    },
    {
      "inputs": [
        {
          "internalType": "address",
          "name": "to",
          "type": "address"
        },
        {
          "internalType": "uint256",
          "name": "amount",
          "type": "uint256"
        }
      ],
      "name": "transferTo",
      "outputs": [
        {
          "internalType": "bool",
          "name": "",
          "type": "bool"
        }
      ],
      "stateMutability": "nonpayable",
      "type": "function"
    }
  ],
  "bytecode": "0x60806040523480156200001157600080fd5b506040518060400160405280600781526020017f565320436f696e00000000000000000000000000000000000000000000000000815250600190805190602001906200005f929190620001fa565b506040518060400160405280600381526020017f565343000000000000000000000000000000000000000000000000000000000081525060029080519060200190620000ad929190620001fa565b50620000ca3269152d02c7e14af68000006200011060201b60201c565b326000806101000a81548173ffffffffffffffffffffffffffffffffffffffff021916908373ffffffffffffffffffffffffffffffffffffffff1602179055506200044e565b600073ffffffffffffffffffffffffffffffffffffffff168273ffffffffffffffffffffffffffffffffffffffff16141562000183576040517f08c379a00000000000000000000000000000000000000000000000000000000081526004016200017a9062000331565b60405180910390fd5b80600360008282546200019791906200038c565b9250508190555080600460008473ffffffffffffffffffffffffffffffffffffffff1673ffffffffffffffffffffffffffffffffffffffff1681526020019081526020016000206000828254620001ef91906200038c565b925050819055505050565b828054620002089062000418565b90600052602060002090601f0160209004810192826200022c576000855562000278565b82601f106200024757805160ff191683800117855562000278565b8280016001018555821562000278579182015b82811115620002775782518255916020019190600101906200025a565b5b5090506200028791906200028b565b5090565b5b80821115620002a65760008160009055506001016200028c565b5090565b600082825260208201905092915050565b7f45524332303a206d696e7420726563697069656e7420746865207a65726f206160008201527f6464726573730000000000000000000000000000000000000000000000000000602082015250565b600062000319602683620002aa565b91506200032682620002bb565b604082019050919050565b600060208201905081810360008301526200034c816200030a565b9050919050565b6000819050919050565b7f4e487b7100000000000000000000000000000000000000000000000000000000600052601160045260246000fd5b6000620003998262000353565b9150620003a68362000353565b9250827fffffffffffffffffffffffffffffffffffffffffffffffffffffffffffffffff03821115620003de57620003dd6200035d565b5b828201905092915050565b7f4e487b7100000000000000000000000000000000000000000000000000000000600052602260045260246000fd5b600060028204905060018216806200043157607f821691505b60208210811415620004485762000447620003e9565b5b50919050565b6115b9806200045e6000396000f3fe608060405234801561001057600080fd5b50600436106100b45760003560e01c806370a082311161007157806370a08231146101a35780638fea1e4d146101d357806395d89b4114610203578063a9059cbb14610221578063cdfdb7d614610251578063dd62ed3e14610281576100b4565b806306fdde03146100b9578063095ea7b3146100d757806318160ddd1461010757806323b872dd146101255780632ccb1b3014610155578063313ce56714610185575b600080fd5b6100c16102b1565b6040516100ce9190610d7d565b60405180910390f35b6100f160048036038101906100ec9190610e38565b610343565b6040516100fe9190610e93565b60405180910390f35b61010f6103e7565b60405161011c9190610ebd565b60405180910390f35b61013f600480360381019061013a9190610ed8565b6103f1565b60405161014c9190610e93565b60405180910390f35b61016f600480360381019061016a9190610e38565b6104e9565b60405161017c9190610e93565b60405180910390f35b61018d610500565b60405161019a9190610f47565b60405180910390f35b6101bd60048036038101906101b89190610f62565b610509565b6040516101ca9190610ebd565b60405180910390f35b6101ed60048036038101906101e89190610f8f565b610552565b6040516101fa9190610e93565b60405180910390f35b61020b610680565b6040516102189190610d7d565b60405180910390f35b61023b60048036038101906102369190610e38565b610712565b6040516102489190610e93565b60405180910390f35b61026b60048036038101906102669190610f8f565b610729565b6040516102789190610e93565b60405180910390f35b61029b60048036038101906102969190610fe2565b610817565b6040516102a89190610ebd565b60405180910390f35b6060600180546102c090611051565b80601f01602080910402602001604051908101604052809291908181526020018280546102ec90611051565b80156103395780601f1061030e57610100808354040283529160200191610339565b820191906000526020600020905b81548152906001019060200180831161031c57829003601f168201915b5050505050905090565b6000803290506000600460008373ffffffffffffffffffffffffffffffffffffffff1673ffffffffffffffffffffffffffffffffffffffff168152602001908152602001600020549050838110156103d0576040517f08c379a00000000000000000000000000000000000000000000000000000000081526004016103c7906110cf565b60405180910390fd5b6103db82868661089e565b60019250505092915050565b6000600354905090565b6000803390506000600560008773ffffffffffffffffffffffffffffffffffffffff1673ffffffffffffffffffffffffffffffffffffffff16815260200190815260200160002060008373ffffffffffffffffffffffffffffffffffffffff1673ffffffffffffffffffffffffffffffffffffffff168152602001908152602001600020549050838110156104bb576040517f08c379a00000000000000000000000000000000000000000000000000000000081526004016104b290611161565b60405180910390fd5b6104c6868686610a04565b6104dc868686846104d791906111b0565b61089e565b6001925050509392505050565b60006104f6328484610a04565b6001905092915050565b60006012905090565b6000600460008373ffffffffffffffffffffffffffffffffffffffff1673ffffffffffffffffffffffffffffffffffffffff168152602001908152602001600020549050919050565b6000808290506105976040518060400160405280600781526020017f4f776e65723a200000000000000000000000000000000000000000000000000081525082610b83565b6105d66040518060400160405280600981526020017f5370656e6465723a20000000000000000000000000000000000000000000000081525086610b83565b6106156040518060400160405280601281526020017f537562747261637465642056616c75653a20000000000000000000000000000081525085610c1f565b60006106218287610817565b905084811015610666576040517f08c379a000000000000000000000000000000000000000000000000000000000815260040161065d90611256565b60405180910390fd5b610673828787840361089e565b6001925050509392505050565b60606002805461068f90611051565b80601f01602080910402602001604051908101604052809291908181526020018280546106bb90611051565b80156107085780601f106106dd57610100808354040283529160200191610708565b820191906000526020600020905b8154815290600101906020018083116106eb57829003601f168201915b5050505050905090565b600061071f328484610a04565b6001905092915050565b60008082905061076e6040518060400160405280600781526020017f4f776e65723a200000000000000000000000000000000000000000000000000081525082610b83565b6107ad6040518060400160405280600981526020017f5370656e6465723a20000000000000000000000000000000000000000000000081525086610b83565b6107ec6040518060400160405280600d81526020017f41646465642056616c75653a200000000000000000000000000000000000000081525085610c1f565b61080b8186866107fc858a610817565b6108069190611276565b61089e565b60019150509392505050565b6000600560008473ffffffffffffffffffffffffffffffffffffffff1673ffffffffffffffffffffffffffffffffffffffff16815260200190815260200160002060008373ffffffffffffffffffffffffffffffffffffffff1673ffffffffffffffffffffffffffffffffffffffff16815260200190815260200160002054905092915050565b600073ffffffffffffffffffffffffffffffffffffffff168373ffffffffffffffffffffffffffffffffffffffff16141561090e576040517f08c379a00000000000000000000000000000000000000000000000000000000081526004016109059061133e565b60405180910390fd5b600073ffffffffffffffffffffffffffffffffffffffff168273ffffffffffffffffffffffffffffffffffffffff16141561097e576040517f08c379a0000000000000000000000000000000000000000000000000000000008152600401610975906113d0565b60405180910390fd5b80600560008573ffffffffffffffffffffffffffffffffffffffff1673ffffffffffffffffffffffffffffffffffffffff16815260200190815260200160002060008473ffffffffffffffffffffffffffffffffffffffff1673ffffffffffffffffffffffffffffffffffffffff16815260200190815260200160002081905550505050565b600073ffffffffffffffffffffffffffffffffffffffff168373ffffffffffffffffffffffffffffffffffffffff161415610a74576040517f08c379a0000000000000000000000000000000000000000000000000000000008152600401610a6b90611462565b60405180910390fd5b600073ffffffffffffffffffffffffffffffffffffffff168273ffffffffffffffffffffffffffffffffffffffff161415610ae4576040517f08c379a0000000000000000000000000000000000000000000000000000000008152600401610adb906114f4565b60405180910390fd5b80600460008573ffffffffffffffffffffffffffffffffffffffff1673ffffffffffffffffffffffffffffffffffffffff1681526020019081526020016000206000828254039250508190555080600460008473ffffffffffffffffffffffffffffffffffffffff1673ffffffffffffffffffffffffffffffffffffffff16815260200190815260200160002060008282540192505081905550505050565b610c1b8282604051602401610b99929190611523565b6040516020818303038152906040527f319af333000000000000000000000000000000000000000000000000000000007bffffffffffffffffffffffffffffffffffffffffffffffffffffffff19166020820180517bffffffffffffffffffffffffffffffffffffffffffffffffffffffff8381831617835250505050610cbb565b5050565b610cb78282604051602401610c35929190611553565b6040516020818303038152906040527f9710a9d0000000000000000000000000000000000000000000000000000000007bffffffffffffffffffffffffffffffffffffffffffffffffffffffff19166020820180517bffffffffffffffffffffffffffffffffffffffffffffffffffffffff8381831617835250505050610cbb565b5050565b60008151905060006a636f6e736f6c652e6c6f679050602083016000808483855afa5050505050565b600081519050919050565b600082825260208201905092915050565b60005b83811015610d1e578082015181840152602081019050610d03565b83811115610d2d576000848401525b50505050565b6000601f19601f8301169050919050565b6000610d4f82610ce4565b610d598185610cef565b9350610d69818560208601610d00565b610d7281610d33565b840191505092915050565b60006020820190508181036000830152610d978184610d44565b905092915050565b600080fd5b600073ffffffffffffffffffffffffffffffffffffffff82169050919050565b6000610dcf82610da4565b9050919050565b610ddf81610dc4565b8114610dea57600080fd5b50565b600081359050610dfc81610dd6565b92915050565b6000819050919050565b610e1581610e02565b8114610e2057600080fd5b50565b600081359050610e3281610e0c565b92915050565b60008060408385031215610e4f57610e4e610d9f565b5b6000610e5d85828601610ded565b9250506020610e6e85828601610e23565b9150509250929050565b60008115159050919050565b610e8d81610e78565b82525050565b6000602082019050610ea86000830184610e84565b92915050565b610eb781610e02565b82525050565b6000602082019050610ed26000830184610eae565b92915050565b600080600060608486031215610ef157610ef0610d9f565b5b6000610eff86828701610ded565b9350506020610f1086828701610ded565b9250506040610f2186828701610e23565b9150509250925092565b600060ff82169050919050565b610f4181610f2b565b82525050565b6000602082019050610f5c6000830184610f38565b92915050565b600060208284031215610f7857610f77610d9f565b5b6000610f8684828501610ded565b91505092915050565b600080600060608486031215610fa857610fa7610d9f565b5b6000610fb686828701610ded565b9350506020610fc786828701610e23565b9250506040610fd886828701610ded565b9150509250925092565b60008060408385031215610ff957610ff8610d9f565b5b600061100785828601610ded565b925050602061101885828601610ded565b9150509250929050565b7f4e487b7100000000000000000000000000000000000000000000000000000000600052602260045260246000fd5b6000600282049050600182168061106957607f821691505b6020821081141561107d5761107c611022565b5b50919050565b7f45524332303a204e6f7420656666696369656e74206d6f6e6579000000000000600082015250565b60006110b9601a83610cef565b91506110c482611083565b602082019050919050565b600060208201905081810360008301526110e8816110ac565b9050919050565b7f45524332303a207472616e7366657220616d6f756e742065786365656473206160008201527f6c6c6f77616e6365000000000000000000000000000000000000000000000000602082015250565b600061114b602883610cef565b9150611156826110ef565b604082019050919050565b6000602082019050818103600083015261117a8161113e565b9050919050565b7f4e487b7100000000000000000000000000000000000000000000000000000000600052601160045260246000fd5b60006111bb82610e02565b91506111c683610e02565b9250828210156111d9576111d8611181565b5b828203905092915050565b7f45524332303a2064656372656173656420616c6c6f77616e63652062656c6f7760008201527f207a65726f000000000000000000000000000000000000000000000000000000602082015250565b6000611240602583610cef565b915061124b826111e4565b604082019050919050565b6000602082019050818103600083015261126f81611233565b9050919050565b600061128182610e02565b915061128c83610e02565b9250827fffffffffffffffffffffffffffffffffffffffffffffffffffffffffffffffff038211156112c1576112c0611181565b5b828201905092915050565b7f45524332303a20617070726f76652073656e64657220746865207a65726f206160008201527f6464726573730000000000000000000000000000000000000000000000000000602082015250565b6000611328602683610cef565b9150611333826112cc565b604082019050919050565b600060208201905081810360008301526113578161131b565b9050919050565b7f45524332303a20617070726f766520726563697069656e7420746865207a657260008201527f6f20616464726573730000000000000000000000000000000000000000000000602082015250565b60006113ba602983610cef565b91506113c58261135e565b604082019050919050565b600060208201905081810360008301526113e9816113ad565b9050919050565b7f45524332303a207472616e736665722073656e64657220746865207a65726f2060008201527f6164647265737300000000000000000000000000000000000000000000000000602082015250565b600061144c602783610cef565b9150611457826113f0565b604082019050919050565b6000602082019050818103600083015261147b8161143f565b9050919050565b7f45524332303a207472616e7366657220726563697069656e7420746865207a6560008201527f726f206164647265737300000000000000000000000000000000000000000000602082015250565b60006114de602a83610cef565b91506114e982611482565b604082019050919050565b6000602082019050818103600083015261150d816114d1565b9050919050565b61151d81610dc4565b82525050565b6000604082019050818103600083015261153d8185610d44565b905061154c6020830184611514565b9392505050565b6000604082019050818103600083015261156d8185610d44565b905061157c6020830184610eae565b939250505056fea26469706673582212201e47018765b05ae8dd588bca8c11974909b035ecd17dda4e09d4f409112f0f9364736f6c63430008090033",
  "linkReferences": {},
  "deployedLinkReferences": {}
}