{
  "_format": "hh-sol-artifact-1",
  "contractName": "VSCoin",
  "sourceName": "contracts/VSCoin.sol",
  "abi": [
    {
      "inputs": [],
      "stateMutability": "nonpayable",
      "type": "constructor"
    },
    {
      "anonymous": false,
      "inputs": [
        {
          "indexed": true,
          "internalType": "address",
          "name": "owner",
          "type": "address"
        },
        {
          "indexed": true,
          "internalType": "address",
          "name": "spender",
          "type": "address"
        },
        {
          "indexed": false,
          "internalType": "uint256",
          "name": "value",
          "type": "uint256"
        }
      ],
      "name": "Approval",
      "type": "event"
    },
    {
      "anonymous": false,
      "inputs": [
        {
          "indexed": true,
          "internalType": "address",
          "name": "from",
          "type": "address"
        },
        {
          "indexed": true,
          "internalType": "address",
          "name": "to",
          "type": "address"
        },
        {
          "indexed": false,
          "internalType": "uint256",
          "name": "value",
          "type": "uint256"
        }
      ],
      "name": "Transfer",
      "type": "event"
    },
    {
      "inputs": [
        {
          "internalType": "address",
          "name": "owner",
          "type": "address"
        },
        {
          "internalType": "address",
          "name": "spender",
          "type": "address"
        }
      ],
      "name": "allowance",
      "outputs": [
        {
          "internalType": "uint256",
          "name": "",
          "type": "uint256"
        }
      ],
      "stateMutability": "view",
      "type": "function"
    },
    {
      "inputs": [
        {
          "internalType": "address",
          "name": "spender",
          "type": "address"
        },
        {
          "internalType": "uint256",
          "name": "amount",
          "type": "uint256"
        }
      ],
      "name": "approve",
      "outputs": [
        {
          "internalType": "bool",
          "name": "",
          "type": "bool"
        }
      ],
      "stateMutability": "nonpayable",
      "type": "function"
    },
    {
      "inputs": [
        {
          "internalType": "address",
          "name": "account",
          "type": "address"
        }
      ],
      "name": "balanceOf",
      "outputs": [
        {
          "internalType": "uint256",
          "name": "",
          "type": "uint256"
        }
      ],
      "stateMutability": "view",
      "type": "function"
    },
    {
      "inputs": [],
      "name": "decimals",
      "outputs": [
        {
          "internalType": "uint8",
          "name": "",
          "type": "uint8"
        }
      ],
      "stateMutability": "view",
      "type": "function"
    },
    {
      "inputs": [
        {
          "internalType": "address",
          "name": "spender",
          "type": "address"
        },
        {
          "internalType": "uint256",
          "name": "subtractedValue",
          "type": "uint256"
        },
        {
          "internalType": "address",
          "name": "highestBidder",
          "type": "address"
        }
      ],
      "name": "decreaseAllowance",
      "outputs": [
        {
          "internalType": "bool",
          "name": "",
          "type": "bool"
        }
      ],
      "stateMutability": "nonpayable",
      "type": "function"
    },
    {
      "inputs": [
        {
          "internalType": "address",
          "name": "spender",
          "type": "address"
        },
        {
          "internalType": "uint256",
          "name": "addedValue",
          "type": "uint256"
        },
        {
          "internalType": "address",
          "name": "highestBidder",
          "type": "address"
        }
      ],
      "name": "increaseAllowance",
      "outputs": [
        {
          "internalType": "bool",
          "name": "",
          "type": "bool"
        }
      ],
      "stateMutability": "nonpayable",
      "type": "function"
    },
    {
      "inputs": [],
      "name": "name",
      "outputs": [
        {
          "internalType": "string",
          "name": "",
          "type": "string"
        }
      ],
      "stateMutability": "view",
      "type": "function"
    },
    {
      "inputs": [],
      "name": "symbol",
      "outputs": [
        {
          "internalType": "string",
          "name": "",
          "type": "string"
        }
      ],
      "stateMutability": "view",
      "type": "function"
    },
    {
      "inputs": [],
      "name": "totalSupply",
      "outputs": [
        {
          "internalType": "uint256",
          "name": "",
          "type": "uint256"
        }
      ],
      "stateMutability": "view",
      "type": "function"
    },
    {
      "inputs": [
        {
          "internalType": "address",
          "name": "recipient",
          "type": "address"
        },
        {
          "internalType": "uint256",
          "name": "amount",
          "type": "uint256"
        }
      ],
      "name": "transfer",
      "outputs": [
        {
          "internalType": "bool",
          "name": "",
          "type": "bool"
        }
      ],
      "stateMutability": "nonpayable",
      "type": "function"
    },
    {
      "inputs": [
        {
          "internalType": "address",
          "name": "sender",
          "type": "address"
        },
        {
          "internalType": "address",
          "name": "recipient",
          "type": "address"
        },
        {
          "internalType": "uint256",
          "name": "amount",
          "type": "uint256"
        }
      ],
      "name": "transferFrom",
      "outputs": [
        {
          "internalType": "bool",
          "name": "",
          "type": "bool"
        }
      ],
      "stateMutability": "nonpayable",
      "type": "function"
    },
    {
      "inputs": [
        {
          "internalType": "address",
          "name": "to",
          "type": "address"
        },
        {
          "internalType": "uint256",
          "name": "amount",
          "type": "uint256"
        }
      ],
      "name": "transferTo",
      "outputs": [
        {
          "internalType": "bool",
          "name": "",
          "type": "bool"
        }
      ],
      "stateMutability": "nonpayable",
      "type": "function"
    }
  ],
  "bytecode": "0x60806040523480156200001157600080fd5b506040518060400160405280600781526020017f565320436f696e00000000000000000000000000000000000000000000000000815250600190805190602001906200005f929190620001fa565b506040518060400160405280600381526020017f565343000000000000000000000000000000000000000000000000000000000081525060029080519060200190620000ad929190620001fa565b50620000ca3369152d02c7e14af68000006200011060201b60201c565b336000806101000a81548173ffffffffffffffffffffffffffffffffffffffff021916908373ffffffffffffffffffffffffffffffffffffffff1602179055506200044e565b600073ffffffffffffffffffffffffffffffffffffffff168273ffffffffffffffffffffffffffffffffffffffff16141562000183576040517f08c379a00000000000000000000000000000000000000000000000000000000081526004016200017a9062000331565b60405180910390fd5b80600360008282546200019791906200038c565b9250508190555080600460008473ffffffffffffffffffffffffffffffffffffffff1673ffffffffffffffffffffffffffffffffffffffff1681526020019081526020016000206000828254620001ef91906200038c565b925050819055505050565b828054620002089062000418565b90600052602060002090601f0160209004810192826200022c576000855562000278565b82601f106200024757805160ff191683800117855562000278565b8280016001018555821562000278579182015b82811115620002775782518255916020019190600101906200025a565b5b5090506200028791906200028b565b5090565b5b80821115620002a65760008160009055506001016200028c565b5090565b600082825260208201905092915050565b7f45524332303a206d696e7420726563697069656e7420746865207a65726f206160008201527f6464726573730000000000000000000000000000000000000000000000000000602082015250565b600062000319602683620002aa565b91506200032682620002bb565b604082019050919050565b600060208201905081810360008301526200034c816200030a565b9050919050565b6000819050919050565b7f4e487b7100000000000000000000000000000000000000000000000000000000600052601160045260246000fd5b6000620003998262000353565b9150620003a68362000353565b9250827fffffffffffffffffffffffffffffffffffffffffffffffffffffffffffffffff03821115620003de57620003dd6200035d565b5b828201905092915050565b7f4e487b7100000000000000000000000000000000000000000000000000000000600052602260045260246000fd5b600060028204905060018216806200043157607f821691505b60208210811415620004485762000447620003e9565b5b50919050565b61166b806200045e6000396000f3fe608060405234801561001057600080fd5b50600436106100b45760003560e01c806370a082311161007157806370a08231146101a35780638fea1e4d146101d357806395d89b4114610203578063a9059cbb14610221578063cdfdb7d614610251578063dd62ed3e14610281576100b4565b806306fdde03146100b9578063095ea7b3146100d757806318160ddd1461010757806323b872dd146101255780632ccb1b3014610155578063313ce56714610185575b600080fd5b6100c16102b1565b6040516100ce9190610e14565b60405180910390f35b6100f160048036038101906100ec9190610ecf565b610343565b6040516100fe9190610f2a565b60405180910390f35b61010f6103e1565b60405161011c9190610f54565b60405180910390f35b61013f600480360381019061013a9190610f6f565b6103eb565b60405161014c9190610f2a565b60405180910390f35b61016f600480360381019061016a9190610ecf565b6104e7565b60405161017c9190610f2a565b60405180910390f35b61018d6104fe565b60405161019a9190610fde565b60405180910390f35b6101bd60048036038101906101b89190610ff9565b610507565b6040516101ca9190610f54565b60405180910390f35b6101ed60048036038101906101e89190611026565b610550565b6040516101fa9190610f2a565b60405180910390f35b61020b61067e565b6040516102189190610e14565b60405180910390f35b61023b60048036038101906102369190610ecf565b610710565b6040516102489190610f2a565b60405180910390f35b61026b60048036038101906102669190611026565b610727565b6040516102789190610f2a565b60405180910390f35b61029b60048036038101906102969190611079565b610815565b6040516102a89190610f54565b60405180910390f35b6060600180546102c0906110e8565b80601f01602080910402602001604051908101604052809291908181526020018280546102ec906110e8565b80156103395780601f1061030e57610100808354040283529160200191610339565b820191906000526020600020905b81548152906001019060200180831161031c57829003601f168201915b5050505050905090565b600080600460003273ffffffffffffffffffffffffffffffffffffffff1673ffffffffffffffffffffffffffffffffffffffff168152602001908152602001600020549050828110156103cb576040517f08c379a00000000000000000000000000000000000000000000000000000000081526004016103c290611166565b60405180910390fd5b6103d632858561089c565b600191505092915050565b6000600354905090565b60006103f633610a02565b6000600560008673ffffffffffffffffffffffffffffffffffffffff1673ffffffffffffffffffffffffffffffffffffffff16815260200190815260200160002060003373ffffffffffffffffffffffffffffffffffffffff1673ffffffffffffffffffffffffffffffffffffffff168152602001908152602001600020549050828110156104ba576040517f08c379a00000000000000000000000000000000000000000000000000000000081526004016104b1906111f8565b60405180910390fd5b6104c5853385610a9b565b6104db858585846104d69190611247565b61089c565b60019150509392505050565b60006104f4328484610a9b565b6001905092915050565b60006012905090565b6000600460008373ffffffffffffffffffffffffffffffffffffffff1673ffffffffffffffffffffffffffffffffffffffff168152602001908152602001600020549050919050565b6000808290506105956040518060400160405280600781526020017f4f776e65723a200000000000000000000000000000000000000000000000000081525082610c1a565b6105d46040518060400160405280600981526020017f5370656e6465723a20000000000000000000000000000000000000000000000081525086610c1a565b6106136040518060400160405280601281526020017f537562747261637465642056616c75653a20000000000000000000000000000081525085610cb6565b600061061f8287610815565b905084811015610664576040517f08c379a000000000000000000000000000000000000000000000000000000000815260040161065b906112ed565b60405180910390fd5b610671828787840361089c565b6001925050509392505050565b60606002805461068d906110e8565b80601f01602080910402602001604051908101604052809291908181526020018280546106b9906110e8565b80156107065780601f106106db57610100808354040283529160200191610706565b820191906000526020600020905b8154815290600101906020018083116106e957829003601f168201915b5050505050905090565b600061071d338484610a9b565b6001905092915050565b60008082905061076c6040518060400160405280600781526020017f4f776e65723a200000000000000000000000000000000000000000000000000081525082610c1a565b6107ab6040518060400160405280600981526020017f5370656e6465723a20000000000000000000000000000000000000000000000081525086610c1a565b6107ea6040518060400160405280600d81526020017f41646465642056616c75653a200000000000000000000000000000000000000081525085610cb6565b6108098186866107fa858a610815565b610804919061130d565b61089c565b60019150509392505050565b6000600560008473ffffffffffffffffffffffffffffffffffffffff1673ffffffffffffffffffffffffffffffffffffffff16815260200190815260200160002060008373ffffffffffffffffffffffffffffffffffffffff1673ffffffffffffffffffffffffffffffffffffffff16815260200190815260200160002054905092915050565b600073ffffffffffffffffffffffffffffffffffffffff168373ffffffffffffffffffffffffffffffffffffffff16141561090c576040517f08c379a0000000000000000000000000000000000000000000000000000000008152600401610903906113d5565b60405180910390fd5b600073ffffffffffffffffffffffffffffffffffffffff168273ffffffffffffffffffffffffffffffffffffffff16141561097c576040517f08c379a000000000000000000000000000000000000000000000000000000000815260040161097390611467565b60405180910390fd5b80600560008573ffffffffffffffffffffffffffffffffffffffff1673ffffffffffffffffffffffffffffffffffffffff16815260200190815260200160002060008473ffffffffffffffffffffffffffffffffffffffff1673ffffffffffffffffffffffffffffffffffffffff16815260200190815260200160002081905550505050565b610a9881604051602401610a169190611496565b6040516020818303038152906040527f2c2ecbc2000000000000000000000000000000000000000000000000000000007bffffffffffffffffffffffffffffffffffffffffffffffffffffffff19166020820180517bffffffffffffffffffffffffffffffffffffffffffffffffffffffff8381831617835250505050610d52565b50565b600073ffffffffffffffffffffffffffffffffffffffff168373ffffffffffffffffffffffffffffffffffffffff161415610b0b576040517f08c379a0000000000000000000000000000000000000000000000000000000008152600401610b0290611523565b60405180910390fd5b600073ffffffffffffffffffffffffffffffffffffffff168273ffffffffffffffffffffffffffffffffffffffff161415610b7b576040517f08c379a0000000000000000000000000000000000000000000000000000000008152600401610b72906115b5565b60405180910390fd5b80600460008573ffffffffffffffffffffffffffffffffffffffff1673ffffffffffffffffffffffffffffffffffffffff1681526020019081526020016000206000828254039250508190555080600460008473ffffffffffffffffffffffffffffffffffffffff1673ffffffffffffffffffffffffffffffffffffffff16815260200190815260200160002060008282540192505081905550505050565b610cb28282604051602401610c309291906115d5565b6040516020818303038152906040527f319af333000000000000000000000000000000000000000000000000000000007bffffffffffffffffffffffffffffffffffffffffffffffffffffffff19166020820180517bffffffffffffffffffffffffffffffffffffffffffffffffffffffff8381831617835250505050610d52565b5050565b610d4e8282604051602401610ccc929190611605565b6040516020818303038152906040527f9710a9d0000000000000000000000000000000000000000000000000000000007bffffffffffffffffffffffffffffffffffffffffffffffffffffffff19166020820180517bffffffffffffffffffffffffffffffffffffffffffffffffffffffff8381831617835250505050610d52565b5050565b60008151905060006a636f6e736f6c652e6c6f679050602083016000808483855afa5050505050565b600081519050919050565b600082825260208201905092915050565b60005b83811015610db5578082015181840152602081019050610d9a565b83811115610dc4576000848401525b50505050565b6000601f19601f8301169050919050565b6000610de682610d7b565b610df08185610d86565b9350610e00818560208601610d97565b610e0981610dca565b840191505092915050565b60006020820190508181036000830152610e2e8184610ddb565b905092915050565b600080fd5b600073ffffffffffffffffffffffffffffffffffffffff82169050919050565b6000610e6682610e3b565b9050919050565b610e7681610e5b565b8114610e8157600080fd5b50565b600081359050610e9381610e6d565b92915050565b6000819050919050565b610eac81610e99565b8114610eb757600080fd5b50565b600081359050610ec981610ea3565b92915050565b60008060408385031215610ee657610ee5610e36565b5b6000610ef485828601610e84565b9250506020610f0585828601610eba565b9150509250929050565b60008115159050919050565b610f2481610f0f565b82525050565b6000602082019050610f3f6000830184610f1b565b92915050565b610f4e81610e99565b82525050565b6000602082019050610f696000830184610f45565b92915050565b600080600060608486031215610f8857610f87610e36565b5b6000610f9686828701610e84565b9350506020610fa786828701610e84565b9250506040610fb886828701610eba565b9150509250925092565b600060ff82169050919050565b610fd881610fc2565b82525050565b6000602082019050610ff36000830184610fcf565b92915050565b60006020828403121561100f5761100e610e36565b5b600061101d84828501610e84565b91505092915050565b60008060006060848603121561103f5761103e610e36565b5b600061104d86828701610e84565b935050602061105e86828701610eba565b925050604061106f86828701610e84565b9150509250925092565b600080604083850312156110905761108f610e36565b5b600061109e85828601610e84565b92505060206110af85828601610e84565b9150509250929050565b7f4e487b7100000000000000000000000000000000000000000000000000000000600052602260045260246000fd5b6000600282049050600182168061110057607f821691505b60208210811415611114576111136110b9565b5b50919050565b7f45524332303a204e6f7420656666696369656e74206d6f6e6579000000000000600082015250565b6000611150601a83610d86565b915061115b8261111a565b602082019050919050565b6000602082019050818103600083015261117f81611143565b9050919050565b7f45524332303a207472616e7366657220616d6f756e742065786365656473206160008201527f6c6c6f77616e6365000000000000000000000000000000000000000000000000602082015250565b60006111e2602883610d86565b91506111ed82611186565b604082019050919050565b60006020820190508181036000830152611211816111d5565b9050919050565b7f4e487b7100000000000000000000000000000000000000000000000000000000600052601160045260246000fd5b600061125282610e99565b915061125d83610e99565b9250828210156112705761126f611218565b5b828203905092915050565b7f45524332303a2064656372656173656420616c6c6f77616e63652062656c6f7760008201527f207a65726f000000000000000000000000000000000000000000000000000000602082015250565b60006112d7602583610d86565b91506112e28261127b565b604082019050919050565b60006020820190508181036000830152611306816112ca565b9050919050565b600061131882610e99565b915061132383610e99565b9250827fffffffffffffffffffffffffffffffffffffffffffffffffffffffffffffffff0382111561135857611357611218565b5b828201905092915050565b7f45524332303a20617070726f76652073656e64657220746865207a65726f206160008201527f6464726573730000000000000000000000000000000000000000000000000000602082015250565b60006113bf602683610d86565b91506113ca82611363565b604082019050919050565b600060208201905081810360008301526113ee816113b2565b9050919050565b7f45524332303a20617070726f766520726563697069656e7420746865207a657260008201527f6f20616464726573730000000000000000000000000000000000000000000000602082015250565b6000611451602983610d86565b915061145c826113f5565b604082019050919050565b6000602082019050818103600083015261148081611444565b9050919050565b61149081610e5b565b82525050565b60006020820190506114ab6000830184611487565b92915050565b7f45524332303a207472616e736665722073656e64657220746865207a65726f2060008201527f6164647265737300000000000000000000000000000000000000000000000000602082015250565b600061150d602783610d86565b9150611518826114b1565b604082019050919050565b6000602082019050818103600083015261153c81611500565b9050919050565b7f45524332303a207472616e7366657220726563697069656e7420746865207a6560008201527f726f206164647265737300000000000000000000000000000000000000000000602082015250565b600061159f602a83610d86565b91506115aa82611543565b604082019050919050565b600060208201905081810360008301526115ce81611592565b9050919050565b600060408201905081810360008301526115ef8185610ddb565b90506115fe6020830184611487565b9392505050565b6000604082019050818103600083015261161f8185610ddb565b905061162e6020830184610f45565b939250505056fea26469706673582212206eac53a9576b1c30fa03ef201dae1a4dbee166460379ad56adebc0b42842a0f664736f6c634300080b0033",
  "linkReferences": {},
  "deployedLinkReferences": {}
}