{
  "_format": "hh-sol-artifact-1",
  "contractName": "AuctionMarket",
  "sourceName": "contracts/market/AuctionMarket.sol",
  "abi": [
    {
      "inputs": [],
      "stateMutability": "nonpayable",
      "type": "constructor"
    },
    {
      "anonymous": false,
      "inputs": [
        {
          "indexed": true,
          "internalType": "uint256",
          "name": "auctionId",
          "type": "uint256"
        },
        {
          "indexed": true,
          "internalType": "address",
          "name": "highestBidder",
          "type": "address"
        },
        {
          "indexed": false,
          "internalType": "uint256",
          "name": "highestBid",
          "type": "uint256"
        },
        {
          "indexed": true,
          "internalType": "uint256",
          "name": "tokenId",
          "type": "uint256"
        },
        {
          "indexed": false,
          "internalType": "address",
          "name": "seller",
          "type": "address"
        }
      ],
      "name": "AuctionEnded",
      "type": "event"
    },
    {
      "anonymous": false,
      "inputs": [
        {
          "indexed": true,
          "internalType": "uint256",
          "name": "auctionId",
          "type": "uint256"
        },
        {
          "indexed": true,
          "internalType": "address payable",
          "name": "seller",
          "type": "address"
        },
        {
          "indexed": true,
          "internalType": "uint256",
          "name": "tokenId",
          "type": "uint256"
        },
        {
          "indexed": false,
          "internalType": "uint256",
          "name": "auctionEndTime",
          "type": "uint256"
        },
        {
          "indexed": false,
          "internalType": "uint256",
          "name": "baseValue",
          "type": "uint256"
        }
      ],
      "name": "AuctionStarted",
      "type": "event"
    },
    {
      "anonymous": false,
      "inputs": [
        {
          "indexed": true,
          "internalType": "uint256",
          "name": "auctionId",
          "type": "uint256"
        },
        {
          "indexed": true,
          "internalType": "address",
          "name": "bidder",
          "type": "address"
        },
        {
          "indexed": true,
          "internalType": "uint256",
          "name": "bid",
          "type": "uint256"
        },
        {
          "indexed": false,
          "internalType": "uint256",
          "name": "biddingTime",
          "type": "uint256"
        }
      ],
      "name": "Bid",
      "type": "event"
    },
    {
      "inputs": [],
      "name": "_itemID",
      "outputs": [
        {
          "internalType": "uint256",
          "name": "_value",
          "type": "uint256"
        }
      ],
      "stateMutability": "view",
      "type": "function"
    },
    {
      "inputs": [
        {
          "internalType": "uint256",
          "name": "_auctionId",
          "type": "uint256"
        },
        {
          "internalType": "address",
          "name": "_tokenAddress",
          "type": "address"
        },
        {
          "internalType": "address",
          "name": "nftContract",
          "type": "address"
        }
      ],
      "name": "auctionEnd",
      "outputs": [],
      "stateMutability": "nonpayable",
      "type": "function"
    },
    {
      "inputs": [
        {
          "internalType": "uint256",
          "name": "",
          "type": "uint256"
        }
      ],
      "name": "auctionItems",
      "outputs": [
        {
          "internalType": "uint256",
          "name": "auctionId",
          "type": "uint256"
        },
        {
          "internalType": "address",
          "name": "nftContract",
          "type": "address"
        },
        {
          "internalType": "uint256",
          "name": "tokenId",
          "type": "uint256"
        },
        {
          "internalType": "address payable",
          "name": "seller",
          "type": "address"
        },
        {
          "internalType": "address payable",
          "name": "creator",
          "type": "address"
        },
        {
          "internalType": "uint256",
          "name": "auctionEndTime",
          "type": "uint256"
        },
        {
          "internalType": "uint256",
          "name": "baseValue",
          "type": "uint256"
        },
        {
          "internalType": "address",
          "name": "highestBidder",
          "type": "address"
        },
        {
          "internalType": "uint256",
          "name": "highestBid",
          "type": "uint256"
        },
        {
          "internalType": "bool",
          "name": "auctionEnded",
          "type": "bool"
        },
        {
          "internalType": "bool",
          "name": "sold",
          "type": "bool"
        }
      ],
      "stateMutability": "view",
      "type": "function"
    },
    {
      "inputs": [
        {
          "internalType": "uint256",
          "name": "_auctionId",
          "type": "uint256"
        },
        {
          "internalType": "uint256",
          "name": "_amount",
          "type": "uint256"
        },
        {
          "internalType": "address",
          "name": "_tokenAddress",
          "type": "address"
        }
      ],
      "name": "bid",
      "outputs": [],
      "stateMutability": "nonpayable",
      "type": "function"
    },
    {
      "inputs": [],
      "name": "getAllAuctionItems",
      "outputs": [
        {
          "components": [
            {
              "internalType": "uint256",
              "name": "auctionId",
              "type": "uint256"
            },
            {
              "internalType": "address",
              "name": "nftContract",
              "type": "address"
            },
            {
              "internalType": "uint256",
              "name": "tokenId",
              "type": "uint256"
            },
            {
              "internalType": "address payable",
              "name": "seller",
              "type": "address"
            },
            {
              "internalType": "address payable",
              "name": "creator",
              "type": "address"
            },
            {
              "internalType": "uint256",
              "name": "auctionEndTime",
              "type": "uint256"
            },
            {
              "internalType": "uint256",
              "name": "baseValue",
              "type": "uint256"
            },
            {
              "internalType": "address",
              "name": "highestBidder",
              "type": "address"
            },
            {
              "internalType": "uint256",
              "name": "highestBid",
              "type": "uint256"
            },
            {
              "internalType": "bool",
              "name": "auctionEnded",
              "type": "bool"
            },
            {
              "internalType": "bool",
              "name": "sold",
              "type": "bool"
            }
          ],
          "internalType": "struct AuctionMarket.AuctionItem[]",
          "name": "",
          "type": "tuple[]"
        }
      ],
      "stateMutability": "view",
      "type": "function"
    },
    {
      "inputs": [],
      "name": "getUserAuctionItems",
      "outputs": [
        {
          "components": [
            {
              "internalType": "uint256",
              "name": "auctionId",
              "type": "uint256"
            },
            {
              "internalType": "address",
              "name": "nftContract",
              "type": "address"
            },
            {
              "internalType": "uint256",
              "name": "tokenId",
              "type": "uint256"
            },
            {
              "internalType": "address payable",
              "name": "seller",
              "type": "address"
            },
            {
              "internalType": "address payable",
              "name": "creator",
              "type": "address"
            },
            {
              "internalType": "uint256",
              "name": "auctionEndTime",
              "type": "uint256"
            },
            {
              "internalType": "uint256",
              "name": "baseValue",
              "type": "uint256"
            },
            {
              "internalType": "address",
              "name": "highestBidder",
              "type": "address"
            },
            {
              "internalType": "uint256",
              "name": "highestBid",
              "type": "uint256"
            },
            {
              "internalType": "bool",
              "name": "auctionEnded",
              "type": "bool"
            },
            {
              "internalType": "bool",
              "name": "sold",
              "type": "bool"
            }
          ],
          "internalType": "struct AuctionMarket.AuctionItem[]",
          "name": "",
          "type": "tuple[]"
        }
      ],
      "stateMutability": "view",
      "type": "function"
    },
    {
      "inputs": [],
      "name": "listingPrice",
      "outputs": [
        {
          "internalType": "uint256",
          "name": "",
          "type": "uint256"
        }
      ],
      "stateMutability": "view",
      "type": "function"
    },
    {
      "inputs": [],
      "name": "owner",
      "outputs": [
        {
          "internalType": "address",
          "name": "",
          "type": "address"
        }
      ],
      "stateMutability": "view",
      "type": "function"
    },
    {
      "inputs": [
        {
          "internalType": "address",
          "name": "_nftContract",
          "type": "address"
        },
        {
          "internalType": "uint256",
          "name": "_tokenId",
          "type": "uint256"
        },
        {
          "internalType": "address payable",
          "name": "_creator",
          "type": "address"
        },
        {
          "internalType": "uint256",
          "name": "_biddingTime",
          "type": "uint256"
        },
        {
          "internalType": "uint256",
          "name": "_baseValue",
          "type": "uint256"
        }
      ],
      "name": "startAuction",
      "outputs": [],
      "stateMutability": "payable",
      "type": "function"
    }
  ],
  "bytecode": "0x608060405234801561001057600080fd5b5061001f61007260201b60201c565b600160006101000a81548173ffffffffffffffffffffffffffffffffffffffff021916908373ffffffffffffffffffffffffffffffffffffffff160217905550662386f26fc1000060028190555061007a565b600032905090565b612526806100896000396000f3fe6080604052600436106100865760003560e01c8063c78f19f911610059578063c78f19f914610124578063d2c069f01461014f578063d4f397d614610196578063e643d4d5146101c1578063f9aa91f9146101ec57610086565b806332309cab1461008b578063492f6bb0146100b4578063742f0a90146100d05780638da5cb5b146100f9575b600080fd5b34801561009757600080fd5b506100b260048036038101906100ad9190611961565b610217565b005b6100ce60048036038101906100c991906119f2565b610616565b005b3480156100dc57600080fd5b506100f760048036038101906100f29190611a6d565b6109ea565b005b34801561010557600080fd5b5061010e611107565b60405161011b9190611acf565b60405180910390f35b34801561013057600080fd5b5061013961112d565b6040516101469190611af9565b60405180910390f35b34801561015b57600080fd5b5061017660048036038101906101719190611b14565b611133565b60405161018d9b9a99989796959493929190611b6b565b60405180910390f35b3480156101a257600080fd5b506101ab611227565b6040516101b89190611af9565b60405180910390f35b3480156101cd57600080fd5b506101d6611233565b6040516101e39190611de3565b60405180910390f35b3480156101f857600080fd5b506102016114e8565b60405161020e9190611de3565b60405180910390f35b6003600084815260200190815260200160002060050154421015610270576040517f08c379a000000000000000000000000000000000000000000000000000000000815260040161026790611e88565b60405180910390fd5b6003600084815260200190815260200160002060090160009054906101000a900460ff16156102d4576040517f08c379a00000000000000000000000000000000000000000000000000000000081526004016102cb90611f1a565b60405180910390fd5b60006003600085815260200190815260200160002060020154905060006003600086815260200190815260200160002060080154905060006003600087815260200190815260200160002060030160009054906101000a900473ffffffffffffffffffffffffffffffffffffffff16905060006003600088815260200190815260200160002060070160009054906101000a900473ffffffffffffffffffffffffffffffffffffffff169050600073ffffffffffffffffffffffffffffffffffffffff166003600089815260200190815260200160002060070160009054906101000a900473ffffffffffffffffffffffffffffffffffffffff1673ffffffffffffffffffffffffffffffffffffffff16141561046d5760016003600089815260200190815260200160002060090160006101000a81548160ff021916908315150217905550838173ffffffffffffffffffffffffffffffffffffffff16887fbbcc4668f55cf2188856dc6e27e4a8f813b4035a466afb6bb7e7c03653f89a628686604051610464929190611f3a565b60405180910390a45b8573ffffffffffffffffffffffffffffffffffffffff166323b872dd8284866040518463ffffffff1660e01b81526004016104aa93929190611f63565b6020604051808303816000875af11580156104c9573d6000803e3d6000fd5b505050506040513d601f19601f820116820180604052508101906104ed9190611fc6565b508473ffffffffffffffffffffffffffffffffffffffff166323b872dd8383876040518463ffffffff1660e01b815260040161052b93929190611f63565b600060405180830381600087803b15801561054557600080fd5b505af1158015610559573d6000803e3d6000fd5b5050505060016003600089815260200190815260200160002060090160016101000a81548160ff02191690831515021790555060016003600089815260200190815260200160002060090160006101000a81548160ff021916908315150217905550838173ffffffffffffffffffffffffffffffffffffffff16887fbbcc4668f55cf2188856dc6e27e4a8f813b4035a466afb6bb7e7c03653f89a628686604051610605929190611f3a565b60405180910390a450505050505050565b60008111610659576040517f08c379a00000000000000000000000000000000000000000000000000000000081526004016106509061203f565b60405180910390fd5b60025434101561069e576040517f08c379a0000000000000000000000000000000000000000000000000000000008152600401610695906120d1565b60405180910390fd5b60006106aa60006117e6565b90506040518061016001604052808281526020018773ffffffffffffffffffffffffffffffffffffffff1681526020018681526020016106e86117f4565b73ffffffffffffffffffffffffffffffffffffffff1681526020018573ffffffffffffffffffffffffffffffffffffffff168152602001844261072b9190612120565b8152602001838152602001600073ffffffffffffffffffffffffffffffffffffffff1681526020016000815260200160001515815260200160001515815250600360008381526020019081526020016000206000820151816000015560208201518160010160006101000a81548173ffffffffffffffffffffffffffffffffffffffff021916908373ffffffffffffffffffffffffffffffffffffffff1602179055506040820151816002015560608201518160030160006101000a81548173ffffffffffffffffffffffffffffffffffffffff021916908373ffffffffffffffffffffffffffffffffffffffff16021790555060808201518160040160006101000a81548173ffffffffffffffffffffffffffffffffffffffff021916908373ffffffffffffffffffffffffffffffffffffffff16021790555060a0820151816005015560c0820151816006015560e08201518160070160006101000a81548173ffffffffffffffffffffffffffffffffffffffff021916908373ffffffffffffffffffffffffffffffffffffffff16021790555061010082015181600801556101208201518160090160006101000a81548160ff0219169083151502179055506101408201518160090160016101000a81548160ff02191690831515021790555090505061091b60006117fc565b8573ffffffffffffffffffffffffffffffffffffffff1663a22cb4653060016040518363ffffffff1660e01b8152600401610957929190612176565b600060405180830381600087803b15801561097157600080fd5b505af1158015610985573d6000803e3d6000fd5b50505050846109926117f4565b73ffffffffffffffffffffffffffffffffffffffff16827f891c95c01123dab4c2e9f5730be4341f0389880525f5d7c2a645a77555c27ff786866040516109da92919061219f565b60405180910390a4505050505050565b6003600084815260200190815260200160002060050154421115610a43576040517f08c379a0000000000000000000000000000000000000000000000000000000008152600401610a3a9061223a565b60405180910390fd5b60036000848152602001908152602001600020600601548211610a9b576040517f08c379a0000000000000000000000000000000000000000000000000000000008152600401610a92906122cc565b60405180910390fd5b60036000848152602001908152602001600020600801548211610af3576040517f08c379a0000000000000000000000000000000000000000000000000000000008152600401610aea9061235e565b60405180910390fd5b60008173ffffffffffffffffffffffffffffffffffffffff1663dd62ed3e610b196117f4565b306040518363ffffffff1660e01b8152600401610b3792919061237e565b602060405180830381865afa158015610b54573d6000803e3d6000fd5b505050506040513d601f19601f82011682018060405250810190610b7891906123bc565b905060008111610cf2578173ffffffffffffffffffffffffffffffffffffffff1663095ea7b330856040518363ffffffff1660e01b8152600401610bbd9291906123e9565b6020604051808303816000875af1158015610bdc573d6000803e3d6000fd5b505050506040513d601f19601f82011682018060405250810190610c009190611fc6565b506000600360008681526020019081526020016000206008015414610ced578173ffffffffffffffffffffffffffffffffffffffff16638fea1e4d3060036000888152602001908152602001600020600801546003600089815260200190815260200160002060070160009054906101000a900473ffffffffffffffffffffffffffffffffffffffff166040518463ffffffff1660e01b8152600401610ca893929190612412565b6020604051808303816000875af1158015610cc7573d6000803e3d6000fd5b505050506040513d601f19601f82011682018060405250810190610ceb9190611fc6565b505b611033565b6003600085815260200190815260200160002060070160009054906101000a900473ffffffffffffffffffffffffffffffffffffffff1673ffffffffffffffffffffffffffffffffffffffff16610d476117f4565b73ffffffffffffffffffffffffffffffffffffffff161415610ebd578173ffffffffffffffffffffffffffffffffffffffff16638fea1e4d3060036000888152602001908152602001600020600801546003600089815260200190815260200160002060070160009054906101000a900473ffffffffffffffffffffffffffffffffffffffff166040518463ffffffff1660e01b8152600401610dec93929190612412565b6020604051808303816000875af1158015610e0b573d6000803e3d6000fd5b505050506040513d601f19601f82011682018060405250810190610e2f9190611fc6565b508173ffffffffffffffffffffffffffffffffffffffff1663cdfdb7d63085610e566117f4565b6040518463ffffffff1660e01b8152600401610e7493929190612412565b6020604051808303816000875af1158015610e93573d6000803e3d6000fd5b505050506040513d601f19601f82011682018060405250810190610eb79190611fc6565b50611032565b8173ffffffffffffffffffffffffffffffffffffffff1663cdfdb7d63085610ee36117f4565b6040518463ffffffff1660e01b8152600401610f0193929190612412565b6020604051808303816000875af1158015610f20573d6000803e3d6000fd5b505050506040513d601f19601f82011682018060405250810190610f449190611fc6565b506000600360008681526020019081526020016000206008015414611031578173ffffffffffffffffffffffffffffffffffffffff16638fea1e4d3060036000888152602001908152602001600020600801546003600089815260200190815260200160002060070160009054906101000a900473ffffffffffffffffffffffffffffffffffffffff166040518463ffffffff1660e01b8152600401610fec93929190612412565b6020604051808303816000875af115801561100b573d6000803e3d6000fd5b505050506040513d601f19601f8201168201806040525081019061102f9190611fc6565b505b5b5b61103b6117f4565b6003600086815260200190815260200160002060070160006101000a81548173ffffffffffffffffffffffffffffffffffffffff021916908373ffffffffffffffffffffffffffffffffffffffff160217905550826003600086815260200190815260200160002060080181905550826110b36117f4565b73ffffffffffffffffffffffffffffffffffffffff16857f3138d8d517460c959fb333d4e8d87ea984f1cf15d6742c02e2955dd27a622b70426040516110f99190611af9565b60405180910390a450505050565b600160009054906101000a900473ffffffffffffffffffffffffffffffffffffffff1681565b60025481565b60036020528060005260406000206000915090508060000154908060010160009054906101000a900473ffffffffffffffffffffffffffffffffffffffff16908060020154908060030160009054906101000a900473ffffffffffffffffffffffffffffffffffffffff16908060040160009054906101000a900473ffffffffffffffffffffffffffffffffffffffff16908060050154908060060154908060070160009054906101000a900473ffffffffffffffffffffffffffffffffffffffff16908060080154908060090160009054906101000a900460ff16908060090160019054906101000a900460ff1690508b565b60008060000154905081565b6060600061124160006117e6565b905060008167ffffffffffffffff81111561125f5761125e612449565b5b60405190808252806020026020018201604052801561129857816020015b611285611812565b81526020019060019003908161127d5790505b50905060005b828110156114df576003600082815260200190815260200160002060090160009054906101000a900460ff166114cc576003600082815260200190815260200160002060405180610160016040529081600082015481526020016001820160009054906101000a900473ffffffffffffffffffffffffffffffffffffffff1673ffffffffffffffffffffffffffffffffffffffff1673ffffffffffffffffffffffffffffffffffffffff168152602001600282015481526020016003820160009054906101000a900473ffffffffffffffffffffffffffffffffffffffff1673ffffffffffffffffffffffffffffffffffffffff1673ffffffffffffffffffffffffffffffffffffffff1681526020016004820160009054906101000a900473ffffffffffffffffffffffffffffffffffffffff1673ffffffffffffffffffffffffffffffffffffffff1673ffffffffffffffffffffffffffffffffffffffff16815260200160058201548152602001600682015481526020016007820160009054906101000a900473ffffffffffffffffffffffffffffffffffffffff1673ffffffffffffffffffffffffffffffffffffffff1673ffffffffffffffffffffffffffffffffffffffff168152602001600882015481526020016009820160009054906101000a900460ff161515151581526020016009820160019054906101000a900460ff1615151515815250508282815181106114c0576114bf612478565b5b60200260200101819052505b80806114d7906124a7565b91505061129e565b50809250505090565b606060006114f660006117e6565b905060008167ffffffffffffffff81111561151457611513612449565b5b60405190808252806020026020018201604052801561154d57816020015b61153a611812565b8152602001906001900390816115325790505b50905060005b828110156117dd576115636117f4565b73ffffffffffffffffffffffffffffffffffffffff166003600083815260200190815260200160002060030160009054906101000a900473ffffffffffffffffffffffffffffffffffffffff1673ffffffffffffffffffffffffffffffffffffffff1614156117ca576003600082815260200190815260200160002060405180610160016040529081600082015481526020016001820160009054906101000a900473ffffffffffffffffffffffffffffffffffffffff1673ffffffffffffffffffffffffffffffffffffffff1673ffffffffffffffffffffffffffffffffffffffff168152602001600282015481526020016003820160009054906101000a900473ffffffffffffffffffffffffffffffffffffffff1673ffffffffffffffffffffffffffffffffffffffff1673ffffffffffffffffffffffffffffffffffffffff1681526020016004820160009054906101000a900473ffffffffffffffffffffffffffffffffffffffff1673ffffffffffffffffffffffffffffffffffffffff1673ffffffffffffffffffffffffffffffffffffffff16815260200160058201548152602001600682015481526020016007820160009054906101000a900473ffffffffffffffffffffffffffffffffffffffff1673ffffffffffffffffffffffffffffffffffffffff1673ffffffffffffffffffffffffffffffffffffffff168152602001600882015481526020016009820160009054906101000a900460ff161515151581526020016009820160019054906101000a900460ff1615151515815250508282815181106117be576117bd612478565b5b60200260200101819052505b80806117d5906124a7565b915050611553565b50809250505090565b600081600001549050919050565b600032905090565b6001816000016000828254019250508190555050565b60405180610160016040528060008152602001600073ffffffffffffffffffffffffffffffffffffffff16815260200160008152602001600073ffffffffffffffffffffffffffffffffffffffff168152602001600073ffffffffffffffffffffffffffffffffffffffff1681526020016000815260200160008152602001600073ffffffffffffffffffffffffffffffffffffffff168152602001600081526020016000151581526020016000151581525090565b600080fd5b6000819050919050565b6118e0816118cd565b81146118eb57600080fd5b50565b6000813590506118fd816118d7565b92915050565b600073ffffffffffffffffffffffffffffffffffffffff82169050919050565b600061192e82611903565b9050919050565b61193e81611923565b811461194957600080fd5b50565b60008135905061195b81611935565b92915050565b60008060006060848603121561197a576119796118c8565b5b6000611988868287016118ee565b93505060206119998682870161194c565b92505060406119aa8682870161194c565b9150509250925092565b60006119bf82611903565b9050919050565b6119cf816119b4565b81146119da57600080fd5b50565b6000813590506119ec816119c6565b92915050565b600080600080600060a08688031215611a0e57611a0d6118c8565b5b6000611a1c8882890161194c565b9550506020611a2d888289016118ee565b9450506040611a3e888289016119dd565b9350506060611a4f888289016118ee565b9250506080611a60888289016118ee565b9150509295509295909350565b600080600060608486031215611a8657611a856118c8565b5b6000611a94868287016118ee565b9350506020611aa5868287016118ee565b9250506040611ab68682870161194c565b9150509250925092565b611ac981611923565b82525050565b6000602082019050611ae46000830184611ac0565b92915050565b611af3816118cd565b82525050565b6000602082019050611b0e6000830184611aea565b92915050565b600060208284031215611b2a57611b296118c8565b5b6000611b38848285016118ee565b91505092915050565b611b4a816119b4565b82525050565b60008115159050919050565b611b6581611b50565b82525050565b600061016082019050611b81600083018e611aea565b611b8e602083018d611ac0565b611b9b604083018c611aea565b611ba8606083018b611b41565b611bb5608083018a611b41565b611bc260a0830189611aea565b611bcf60c0830188611aea565b611bdc60e0830187611ac0565b611bea610100830186611aea565b611bf8610120830185611b5c565b611c06610140830184611b5c565b9c9b505050505050505050505050565b600081519050919050565b600082825260208201905092915050565b6000819050602082019050919050565b611c4b816118cd565b82525050565b611c5a81611923565b82525050565b611c69816119b4565b82525050565b611c7881611b50565b82525050565b61016082016000820151611c956000850182611c42565b506020820151611ca86020850182611c51565b506040820151611cbb6040850182611c42565b506060820151611cce6060850182611c60565b506080820151611ce16080850182611c60565b5060a0820151611cf460a0850182611c42565b5060c0820151611d0760c0850182611c42565b5060e0820151611d1a60e0850182611c51565b50610100820151611d2f610100850182611c42565b50610120820151611d44610120850182611c6f565b50610140820151611d59610140850182611c6f565b50505050565b6000611d6b8383611c7e565b6101608301905092915050565b6000602082019050919050565b6000611d9082611c16565b611d9a8185611c21565b9350611da583611c32565b8060005b83811015611dd6578151611dbd8882611d5f565b9750611dc883611d78565b925050600181019050611da9565b5085935050505092915050565b60006020820190508181036000830152611dfd8184611d85565b905092915050565b600082825260208201905092915050565b7f4155433130353a2041756374696f6e20686173206e6f7420656e64656420796560008201527f7400000000000000000000000000000000000000000000000000000000000000602082015250565b6000611e72602183611e05565b9150611e7d82611e16565b604082019050919050565b60006020820190508181036000830152611ea181611e65565b9050919050565b7f4155433130363a205468652066756e6374696f6e2068617320616c726561647960008201527f206265656e2063616c6c65640000000000000000000000000000000000000000602082015250565b6000611f04602c83611e05565b9150611f0f82611ea8565b604082019050919050565b60006020820190508181036000830152611f3381611ef7565b9050919050565b6000604082019050611f4f6000830185611aea565b611f5c6020830184611ac0565b9392505050565b6000606082019050611f786000830186611ac0565b611f856020830185611ac0565b611f926040830184611aea565b949350505050565b611fa381611b50565b8114611fae57600080fd5b50565b600081519050611fc081611f9a565b92915050565b600060208284031215611fdc57611fdb6118c8565b5b6000611fea84828501611fb1565b91505092915050565b7f5072696365206d757374206265206174206c6561737420317765690000000000600082015250565b6000612029601b83611e05565b915061203482611ff3565b602082019050919050565b600060208201905081810360008301526120588161201c565b9050919050565b7f596f75206861766520746f2070617920302e303120657468657220746f20637260008201527f65617465204e6674000000000000000000000000000000000000000000000000602082015250565b60006120bb602883611e05565b91506120c68261205f565b604082019050919050565b600060208201905081810360008301526120ea816120ae565b9050919050565b7f4e487b7100000000000000000000000000000000000000000000000000000000600052601160045260246000fd5b600061212b826118cd565b9150612136836118cd565b9250827fffffffffffffffffffffffffffffffffffffffffffffffffffffffffffffffff0382111561216b5761216a6120f1565b5b828201905092915050565b600060408201905061218b6000830185611ac0565b6121986020830184611b5c565b9392505050565b60006040820190506121b46000830185611aea565b6121c16020830184611aea565b9392505050565b7f4155433130313a2041756374696f6e2068617320616c726561647920656e646560008201527f6400000000000000000000000000000000000000000000000000000000000000602082015250565b6000612224602183611e05565b915061222f826121c8565b604082019050919050565b6000602082019050818103600083015261225381612217565b9050919050565b7f4155433130323a204269642063616e6e6f74206265206c657373207468616e2060008201527f626173652076616c756500000000000000000000000000000000000000000000602082015250565b60006122b6602a83611e05565b91506122c18261225a565b604082019050919050565b600060208201905081810360008301526122e5816122a9565b9050919050565b7f4155433130333a20546865736520616c7265616479206120686967686572206f60008201527f7220657175616c20626964000000000000000000000000000000000000000000602082015250565b6000612348602b83611e05565b9150612353826122ec565b604082019050919050565b600060208201905081810360008301526123778161233b565b9050919050565b60006040820190506123936000830185611ac0565b6123a06020830184611ac0565b9392505050565b6000815190506123b6816118d7565b92915050565b6000602082840312156123d2576123d16118c8565b5b60006123e0848285016123a7565b91505092915050565b60006040820190506123fe6000830185611ac0565b61240b6020830184611aea565b9392505050565b60006060820190506124276000830186611ac0565b6124346020830185611aea565b6124416040830184611ac0565b949350505050565b7f4e487b7100000000000000000000000000000000000000000000000000000000600052604160045260246000fd5b7f4e487b7100000000000000000000000000000000000000000000000000000000600052603260045260246000fd5b60006124b2826118cd565b91507fffffffffffffffffffffffffffffffffffffffffffffffffffffffffffffffff8214156124e5576124e46120f1565b5b60018201905091905056fea264697066735822122035aa83b8817d8e32fa3f7f1ca45038424fc263d939bb6ca332063c5cab60061a64736f6c634300080b0033",
  "linkReferences": {},
  "deployedLinkReferences": {}
}