{
  "_format": "hh-sol-artifact-1",
  "contractName": "AuctionMarket",
  "sourceName": "contracts/market/AuctionMarket.sol",
  "abi": [
    {
      "inputs": [],
      "stateMutability": "nonpayable",
      "type": "constructor"
    },
    {
      "anonymous": false,
      "inputs": [
        {
          "indexed": true,
          "internalType": "uint256",
          "name": "auctionId",
          "type": "uint256"
        },
        {
          "indexed": true,
          "internalType": "address",
          "name": "highestBidder",
          "type": "address"
        },
        {
          "indexed": false,
          "internalType": "uint256",
          "name": "highestBid",
          "type": "uint256"
        },
        {
          "indexed": true,
          "internalType": "uint256",
          "name": "tokenId",
          "type": "uint256"
        },
        {
          "indexed": false,
          "internalType": "address",
          "name": "seller",
          "type": "address"
        }
      ],
      "name": "AuctionEnded",
      "type": "event"
    },
    {
      "anonymous": false,
      "inputs": [
        {
          "indexed": true,
          "internalType": "uint256",
          "name": "auctionId",
          "type": "uint256"
        },
        {
          "indexed": true,
          "internalType": "address payable",
          "name": "seller",
          "type": "address"
        },
        {
          "indexed": true,
          "internalType": "uint256",
          "name": "tokenId",
          "type": "uint256"
        },
        {
          "indexed": false,
          "internalType": "uint256",
          "name": "auctionEndTime",
          "type": "uint256"
        },
        {
          "indexed": false,
          "internalType": "uint256",
          "name": "baseValue",
          "type": "uint256"
        }
      ],
      "name": "AuctionStarted",
      "type": "event"
    },
    {
      "anonymous": false,
      "inputs": [
        {
          "indexed": true,
          "internalType": "uint256",
          "name": "auctionId",
          "type": "uint256"
        },
        {
          "indexed": true,
          "internalType": "address",
          "name": "bidder",
          "type": "address"
        },
        {
          "indexed": true,
          "internalType": "uint256",
          "name": "bid",
          "type": "uint256"
        },
        {
          "indexed": false,
          "internalType": "uint256",
          "name": "biddingTime",
          "type": "uint256"
        }
      ],
      "name": "Bid",
      "type": "event"
    },
    {
      "inputs": [],
      "name": "_itemID",
      "outputs": [
        {
          "internalType": "uint256",
          "name": "_value",
          "type": "uint256"
        }
      ],
      "stateMutability": "view",
      "type": "function"
    },
    {
      "inputs": [
        {
          "internalType": "uint256",
          "name": "_auctionId",
          "type": "uint256"
        },
        {
          "internalType": "address",
          "name": "_tokenAddress",
          "type": "address"
        },
        {
          "internalType": "address",
          "name": "nftContract",
          "type": "address"
        }
      ],
      "name": "auctionEnd",
      "outputs": [],
      "stateMutability": "nonpayable",
      "type": "function"
    },
    {
      "inputs": [
        {
          "internalType": "uint256",
          "name": "",
          "type": "uint256"
        }
      ],
      "name": "auctionItems",
      "outputs": [
        {
          "internalType": "uint256",
          "name": "auctionId",
          "type": "uint256"
        },
        {
          "internalType": "address",
          "name": "nftContract",
          "type": "address"
        },
        {
          "internalType": "uint256",
          "name": "tokenId",
          "type": "uint256"
        },
        {
          "internalType": "address payable",
          "name": "seller",
          "type": "address"
        },
        {
          "internalType": "address payable",
          "name": "creator",
          "type": "address"
        },
        {
          "internalType": "uint256",
          "name": "auctionEndTime",
          "type": "uint256"
        },
        {
          "internalType": "uint256",
          "name": "baseValue",
          "type": "uint256"
        },
        {
          "internalType": "address",
          "name": "highestBidder",
          "type": "address"
        },
        {
          "internalType": "uint256",
          "name": "highestBid",
          "type": "uint256"
        },
        {
          "internalType": "bool",
          "name": "auctionEnded",
          "type": "bool"
        },
        {
          "internalType": "bool",
          "name": "sold",
          "type": "bool"
        }
      ],
      "stateMutability": "view",
      "type": "function"
    },
    {
      "inputs": [
        {
          "internalType": "uint256",
          "name": "_auctionId",
          "type": "uint256"
        },
        {
          "internalType": "uint256",
          "name": "_amount",
          "type": "uint256"
        },
        {
          "internalType": "address",
          "name": "_tokenAddress",
          "type": "address"
        }
      ],
      "name": "bid",
      "outputs": [],
      "stateMutability": "nonpayable",
      "type": "function"
    },
    {
      "inputs": [],
      "name": "getAllAuctionItems",
      "outputs": [
        {
          "components": [
            {
              "internalType": "uint256",
              "name": "auctionId",
              "type": "uint256"
            },
            {
              "internalType": "address",
              "name": "nftContract",
              "type": "address"
            },
            {
              "internalType": "uint256",
              "name": "tokenId",
              "type": "uint256"
            },
            {
              "internalType": "address payable",
              "name": "seller",
              "type": "address"
            },
            {
              "internalType": "address payable",
              "name": "creator",
              "type": "address"
            },
            {
              "internalType": "uint256",
              "name": "auctionEndTime",
              "type": "uint256"
            },
            {
              "internalType": "uint256",
              "name": "baseValue",
              "type": "uint256"
            },
            {
              "internalType": "address",
              "name": "highestBidder",
              "type": "address"
            },
            {
              "internalType": "uint256",
              "name": "highestBid",
              "type": "uint256"
            },
            {
              "internalType": "bool",
              "name": "auctionEnded",
              "type": "bool"
            },
            {
              "internalType": "bool",
              "name": "sold",
              "type": "bool"
            }
          ],
          "internalType": "struct AuctionMarket.AuctionItem[]",
          "name": "",
          "type": "tuple[]"
        }
      ],
      "stateMutability": "view",
      "type": "function"
    },
    {
      "inputs": [],
      "name": "getUserAuctionItems",
      "outputs": [
        {
          "components": [
            {
              "internalType": "uint256",
              "name": "auctionId",
              "type": "uint256"
            },
            {
              "internalType": "address",
              "name": "nftContract",
              "type": "address"
            },
            {
              "internalType": "uint256",
              "name": "tokenId",
              "type": "uint256"
            },
            {
              "internalType": "address payable",
              "name": "seller",
              "type": "address"
            },
            {
              "internalType": "address payable",
              "name": "creator",
              "type": "address"
            },
            {
              "internalType": "uint256",
              "name": "auctionEndTime",
              "type": "uint256"
            },
            {
              "internalType": "uint256",
              "name": "baseValue",
              "type": "uint256"
            },
            {
              "internalType": "address",
              "name": "highestBidder",
              "type": "address"
            },
            {
              "internalType": "uint256",
              "name": "highestBid",
              "type": "uint256"
            },
            {
              "internalType": "bool",
              "name": "auctionEnded",
              "type": "bool"
            },
            {
              "internalType": "bool",
              "name": "sold",
              "type": "bool"
            }
          ],
          "internalType": "struct AuctionMarket.AuctionItem[]",
          "name": "",
          "type": "tuple[]"
        }
      ],
      "stateMutability": "view",
      "type": "function"
    },
    {
      "inputs": [],
      "name": "listingPrice",
      "outputs": [
        {
          "internalType": "uint256",
          "name": "",
          "type": "uint256"
        }
      ],
      "stateMutability": "view",
      "type": "function"
    },
    {
      "inputs": [],
      "name": "owner",
      "outputs": [
        {
          "internalType": "address",
          "name": "",
          "type": "address"
        }
      ],
      "stateMutability": "view",
      "type": "function"
    },
    {
      "inputs": [
        {
          "internalType": "address",
          "name": "_nftContract",
          "type": "address"
        },
        {
          "internalType": "uint256",
          "name": "_tokenId",
          "type": "uint256"
        },
        {
          "internalType": "address payable",
          "name": "_creator",
          "type": "address"
        },
        {
          "internalType": "uint256",
          "name": "_biddingTime",
          "type": "uint256"
        },
        {
          "internalType": "uint256",
          "name": "_baseValue",
          "type": "uint256"
        }
      ],
      "name": "startAuction",
      "outputs": [],
      "stateMutability": "payable",
      "type": "function"
    }
  ],
  "bytecode": "0x608060405234801561001057600080fd5b5033600160006101000a81548173ffffffffffffffffffffffffffffffffffffffff021916908373ffffffffffffffffffffffffffffffffffffffff160217905550662386f26fc100006002819055506124df8061006f6000396000f3fe6080604052600436106100865760003560e01c8063c78f19f911610059578063c78f19f914610124578063d2c069f01461014f578063d4f397d614610196578063e643d4d5146101c1578063f9aa91f9146101ec57610086565b806332309cab1461008b578063492f6bb0146100b4578063742f0a90146100d05780638da5cb5b146100f9575b600080fd5b34801561009757600080fd5b506100b260048036038101906100ad919061191a565b610217565b005b6100ce60048036038101906100c991906119ab565b610616565b005b3480156100dc57600080fd5b506100f760048036038101906100f29190611a26565b6109dc565b005b34801561010557600080fd5b5061010e6110cf565b60405161011b9190611a88565b60405180910390f35b34801561013057600080fd5b506101396110f5565b6040516101469190611ab2565b60405180910390f35b34801561015b57600080fd5b5061017660048036038101906101719190611acd565b6110fb565b60405161018d9b9a99989796959493929190611b24565b60405180910390f35b3480156101a257600080fd5b506101ab6111ef565b6040516101b89190611ab2565b60405180910390f35b3480156101cd57600080fd5b506101d66111fb565b6040516101e39190611d9c565b60405180910390f35b3480156101f857600080fd5b506102016114b0565b60405161020e9190611d9c565b60405180910390f35b6003600084815260200190815260200160002060050154421015610270576040517f08c379a000000000000000000000000000000000000000000000000000000000815260040161026790611e41565b60405180910390fd5b6003600084815260200190815260200160002060090160009054906101000a900460ff16156102d4576040517f08c379a00000000000000000000000000000000000000000000000000000000081526004016102cb90611ed3565b60405180910390fd5b60006003600085815260200190815260200160002060020154905060006003600086815260200190815260200160002060080154905060006003600087815260200190815260200160002060030160009054906101000a900473ffffffffffffffffffffffffffffffffffffffff16905060006003600088815260200190815260200160002060070160009054906101000a900473ffffffffffffffffffffffffffffffffffffffff169050600073ffffffffffffffffffffffffffffffffffffffff166003600089815260200190815260200160002060070160009054906101000a900473ffffffffffffffffffffffffffffffffffffffff1673ffffffffffffffffffffffffffffffffffffffff16141561046d5760016003600089815260200190815260200160002060090160006101000a81548160ff021916908315150217905550838173ffffffffffffffffffffffffffffffffffffffff16887fbbcc4668f55cf2188856dc6e27e4a8f813b4035a466afb6bb7e7c03653f89a628686604051610464929190611ef3565b60405180910390a45b8573ffffffffffffffffffffffffffffffffffffffff166323b872dd8284866040518463ffffffff1660e01b81526004016104aa93929190611f1c565b6020604051808303816000875af11580156104c9573d6000803e3d6000fd5b505050506040513d601f19601f820116820180604052508101906104ed9190611f7f565b508473ffffffffffffffffffffffffffffffffffffffff166323b872dd8383876040518463ffffffff1660e01b815260040161052b93929190611f1c565b600060405180830381600087803b15801561054557600080fd5b505af1158015610559573d6000803e3d6000fd5b5050505060016003600089815260200190815260200160002060090160016101000a81548160ff02191690831515021790555060016003600089815260200190815260200160002060090160006101000a81548160ff021916908315150217905550838173ffffffffffffffffffffffffffffffffffffffff16887fbbcc4668f55cf2188856dc6e27e4a8f813b4035a466afb6bb7e7c03653f89a628686604051610605929190611ef3565b60405180910390a450505050505050565b60008111610659576040517f08c379a000000000000000000000000000000000000000000000000000000000815260040161065090611ff8565b60405180910390fd5b60025434101561069e576040517f08c379a00000000000000000000000000000000000000000000000000000000081526004016106959061208a565b60405180910390fd5b60006106aa60006117a7565b90506040518061016001604052808281526020018773ffffffffffffffffffffffffffffffffffffffff1681526020018681526020013373ffffffffffffffffffffffffffffffffffffffff1681526020018573ffffffffffffffffffffffffffffffffffffffff168152602001844261072491906120d9565b8152602001838152602001600073ffffffffffffffffffffffffffffffffffffffff1681526020016000815260200160001515815260200160001515815250600360008381526020019081526020016000206000820151816000015560208201518160010160006101000a81548173ffffffffffffffffffffffffffffffffffffffff021916908373ffffffffffffffffffffffffffffffffffffffff1602179055506040820151816002015560608201518160030160006101000a81548173ffffffffffffffffffffffffffffffffffffffff021916908373ffffffffffffffffffffffffffffffffffffffff16021790555060808201518160040160006101000a81548173ffffffffffffffffffffffffffffffffffffffff021916908373ffffffffffffffffffffffffffffffffffffffff16021790555060a0820151816005015560c0820151816006015560e08201518160070160006101000a81548173ffffffffffffffffffffffffffffffffffffffff021916908373ffffffffffffffffffffffffffffffffffffffff16021790555061010082015181600801556101208201518160090160006101000a81548160ff0219169083151502179055506101408201518160090160016101000a81548160ff02191690831515021790555090505061091460006117b5565b8573ffffffffffffffffffffffffffffffffffffffff1663a22cb4653060016040518363ffffffff1660e01b815260040161095092919061212f565b600060405180830381600087803b15801561096a57600080fd5b505af115801561097e573d6000803e3d6000fd5b50505050843373ffffffffffffffffffffffffffffffffffffffff16827f891c95c01123dab4c2e9f5730be4341f0389880525f5d7c2a645a77555c27ff786866040516109cc929190612158565b60405180910390a4505050505050565b6003600084815260200190815260200160002060050154421115610a35576040517f08c379a0000000000000000000000000000000000000000000000000000000008152600401610a2c906121f3565b60405180910390fd5b60036000848152602001908152602001600020600601548211610a8d576040517f08c379a0000000000000000000000000000000000000000000000000000000008152600401610a8490612285565b60405180910390fd5b60036000848152602001908152602001600020600801548211610ae5576040517f08c379a0000000000000000000000000000000000000000000000000000000008152600401610adc90612317565b60405180910390fd5b60008173ffffffffffffffffffffffffffffffffffffffff1663dd62ed3e33306040518363ffffffff1660e01b8152600401610b22929190612337565b602060405180830381865afa158015610b3f573d6000803e3d6000fd5b505050506040513d601f19601f82011682018060405250810190610b639190612375565b905060008111610cdd578173ffffffffffffffffffffffffffffffffffffffff1663095ea7b330856040518363ffffffff1660e01b8152600401610ba89291906123a2565b6020604051808303816000875af1158015610bc7573d6000803e3d6000fd5b505050506040513d601f19601f82011682018060405250810190610beb9190611f7f565b506000600360008681526020019081526020016000206008015414610cd8578173ffffffffffffffffffffffffffffffffffffffff16638fea1e4d3060036000888152602001908152602001600020600801546003600089815260200190815260200160002060070160009054906101000a900473ffffffffffffffffffffffffffffffffffffffff166040518463ffffffff1660e01b8152600401610c93939291906123cb565b6020604051808303816000875af1158015610cb2573d6000803e3d6000fd5b505050506040513d601f19601f82011682018060405250810190610cd69190611f7f565b505b611009565b6003600085815260200190815260200160002060070160009054906101000a900473ffffffffffffffffffffffffffffffffffffffff1673ffffffffffffffffffffffffffffffffffffffff163373ffffffffffffffffffffffffffffffffffffffff161415610e9a578173ffffffffffffffffffffffffffffffffffffffff16638fea1e4d3060036000888152602001908152602001600020600801546003600089815260200190815260200160002060070160009054906101000a900473ffffffffffffffffffffffffffffffffffffffff166040518463ffffffff1660e01b8152600401610dd0939291906123cb565b6020604051808303816000875af1158015610def573d6000803e3d6000fd5b505050506040513d601f19601f82011682018060405250810190610e139190611f7f565b508173ffffffffffffffffffffffffffffffffffffffff1663cdfdb7d63085336040518463ffffffff1660e01b8152600401610e51939291906123cb565b6020604051808303816000875af1158015610e70573d6000803e3d6000fd5b505050506040513d601f19601f82011682018060405250810190610e949190611f7f565b50611008565b8173ffffffffffffffffffffffffffffffffffffffff1663cdfdb7d63085336040518463ffffffff1660e01b8152600401610ed7939291906123cb565b6020604051808303816000875af1158015610ef6573d6000803e3d6000fd5b505050506040513d601f19601f82011682018060405250810190610f1a9190611f7f565b506000600360008681526020019081526020016000206008015414611007578173ffffffffffffffffffffffffffffffffffffffff16638fea1e4d3060036000888152602001908152602001600020600801546003600089815260200190815260200160002060070160009054906101000a900473ffffffffffffffffffffffffffffffffffffffff166040518463ffffffff1660e01b8152600401610fc2939291906123cb565b6020604051808303816000875af1158015610fe1573d6000803e3d6000fd5b505050506040513d601f19601f820116820180604052508101906110059190611f7f565b505b5b5b336003600086815260200190815260200160002060070160006101000a81548173ffffffffffffffffffffffffffffffffffffffff021916908373ffffffffffffffffffffffffffffffffffffffff160217905550826003600086815260200190815260200160002060080181905550823373ffffffffffffffffffffffffffffffffffffffff16857f3138d8d517460c959fb333d4e8d87ea984f1cf15d6742c02e2955dd27a622b70426040516110c19190611ab2565b60405180910390a450505050565b600160009054906101000a900473ffffffffffffffffffffffffffffffffffffffff1681565b60025481565b60036020528060005260406000206000915090508060000154908060010160009054906101000a900473ffffffffffffffffffffffffffffffffffffffff16908060020154908060030160009054906101000a900473ffffffffffffffffffffffffffffffffffffffff16908060040160009054906101000a900473ffffffffffffffffffffffffffffffffffffffff16908060050154908060060154908060070160009054906101000a900473ffffffffffffffffffffffffffffffffffffffff16908060080154908060090160009054906101000a900460ff16908060090160019054906101000a900460ff1690508b565b60008060000154905081565b6060600061120960006117a7565b905060008167ffffffffffffffff81111561122757611226612402565b5b60405190808252806020026020018201604052801561126057816020015b61124d6117cb565b8152602001906001900390816112455790505b50905060005b828110156114a7576003600082815260200190815260200160002060090160009054906101000a900460ff16611494576003600082815260200190815260200160002060405180610160016040529081600082015481526020016001820160009054906101000a900473ffffffffffffffffffffffffffffffffffffffff1673ffffffffffffffffffffffffffffffffffffffff1673ffffffffffffffffffffffffffffffffffffffff168152602001600282015481526020016003820160009054906101000a900473ffffffffffffffffffffffffffffffffffffffff1673ffffffffffffffffffffffffffffffffffffffff1673ffffffffffffffffffffffffffffffffffffffff1681526020016004820160009054906101000a900473ffffffffffffffffffffffffffffffffffffffff1673ffffffffffffffffffffffffffffffffffffffff1673ffffffffffffffffffffffffffffffffffffffff16815260200160058201548152602001600682015481526020016007820160009054906101000a900473ffffffffffffffffffffffffffffffffffffffff1673ffffffffffffffffffffffffffffffffffffffff1673ffffffffffffffffffffffffffffffffffffffff168152602001600882015481526020016009820160009054906101000a900460ff161515151581526020016009820160019054906101000a900460ff16151515158152505082828151811061148857611487612431565b5b60200260200101819052505b808061149f90612460565b915050611266565b50809250505090565b606060006114be60006117a7565b905060008167ffffffffffffffff8111156114dc576114db612402565b5b60405190808252806020026020018201604052801561151557816020015b6115026117cb565b8152602001906001900390816114fa5790505b50905060005b8281101561179e573373ffffffffffffffffffffffffffffffffffffffff166003600083815260200190815260200160002060030160009054906101000a900473ffffffffffffffffffffffffffffffffffffffff1673ffffffffffffffffffffffffffffffffffffffff16141561178b576003600082815260200190815260200160002060405180610160016040529081600082015481526020016001820160009054906101000a900473ffffffffffffffffffffffffffffffffffffffff1673ffffffffffffffffffffffffffffffffffffffff1673ffffffffffffffffffffffffffffffffffffffff168152602001600282015481526020016003820160009054906101000a900473ffffffffffffffffffffffffffffffffffffffff1673ffffffffffffffffffffffffffffffffffffffff1673ffffffffffffffffffffffffffffffffffffffff1681526020016004820160009054906101000a900473ffffffffffffffffffffffffffffffffffffffff1673ffffffffffffffffffffffffffffffffffffffff1673ffffffffffffffffffffffffffffffffffffffff16815260200160058201548152602001600682015481526020016007820160009054906101000a900473ffffffffffffffffffffffffffffffffffffffff1673ffffffffffffffffffffffffffffffffffffffff1673ffffffffffffffffffffffffffffffffffffffff168152602001600882015481526020016009820160009054906101000a900460ff161515151581526020016009820160019054906101000a900460ff16151515158152505082828151811061177f5761177e612431565b5b60200260200101819052505b808061179690612460565b91505061151b565b50809250505090565b600081600001549050919050565b6001816000016000828254019250508190555050565b60405180610160016040528060008152602001600073ffffffffffffffffffffffffffffffffffffffff16815260200160008152602001600073ffffffffffffffffffffffffffffffffffffffff168152602001600073ffffffffffffffffffffffffffffffffffffffff1681526020016000815260200160008152602001600073ffffffffffffffffffffffffffffffffffffffff168152602001600081526020016000151581526020016000151581525090565b600080fd5b6000819050919050565b61189981611886565b81146118a457600080fd5b50565b6000813590506118b681611890565b92915050565b600073ffffffffffffffffffffffffffffffffffffffff82169050919050565b60006118e7826118bc565b9050919050565b6118f7816118dc565b811461190257600080fd5b50565b600081359050611914816118ee565b92915050565b60008060006060848603121561193357611932611881565b5b6000611941868287016118a7565b935050602061195286828701611905565b925050604061196386828701611905565b9150509250925092565b6000611978826118bc565b9050919050565b6119888161196d565b811461199357600080fd5b50565b6000813590506119a58161197f565b92915050565b600080600080600060a086880312156119c7576119c6611881565b5b60006119d588828901611905565b95505060206119e6888289016118a7565b94505060406119f788828901611996565b9350506060611a08888289016118a7565b9250506080611a19888289016118a7565b9150509295509295909350565b600080600060608486031215611a3f57611a3e611881565b5b6000611a4d868287016118a7565b9350506020611a5e868287016118a7565b9250506040611a6f86828701611905565b9150509250925092565b611a82816118dc565b82525050565b6000602082019050611a9d6000830184611a79565b92915050565b611aac81611886565b82525050565b6000602082019050611ac76000830184611aa3565b92915050565b600060208284031215611ae357611ae2611881565b5b6000611af1848285016118a7565b91505092915050565b611b038161196d565b82525050565b60008115159050919050565b611b1e81611b09565b82525050565b600061016082019050611b3a600083018e611aa3565b611b47602083018d611a79565b611b54604083018c611aa3565b611b61606083018b611afa565b611b6e608083018a611afa565b611b7b60a0830189611aa3565b611b8860c0830188611aa3565b611b9560e0830187611a79565b611ba3610100830186611aa3565b611bb1610120830185611b15565b611bbf610140830184611b15565b9c9b505050505050505050505050565b600081519050919050565b600082825260208201905092915050565b6000819050602082019050919050565b611c0481611886565b82525050565b611c13816118dc565b82525050565b611c228161196d565b82525050565b611c3181611b09565b82525050565b61016082016000820151611c4e6000850182611bfb565b506020820151611c616020850182611c0a565b506040820151611c746040850182611bfb565b506060820151611c876060850182611c19565b506080820151611c9a6080850182611c19565b5060a0820151611cad60a0850182611bfb565b5060c0820151611cc060c0850182611bfb565b5060e0820151611cd360e0850182611c0a565b50610100820151611ce8610100850182611bfb565b50610120820151611cfd610120850182611c28565b50610140820151611d12610140850182611c28565b50505050565b6000611d248383611c37565b6101608301905092915050565b6000602082019050919050565b6000611d4982611bcf565b611d538185611bda565b9350611d5e83611beb565b8060005b83811015611d8f578151611d768882611d18565b9750611d8183611d31565b925050600181019050611d62565b5085935050505092915050565b60006020820190508181036000830152611db68184611d3e565b905092915050565b600082825260208201905092915050565b7f4155433130353a2041756374696f6e20686173206e6f7420656e64656420796560008201527f7400000000000000000000000000000000000000000000000000000000000000602082015250565b6000611e2b602183611dbe565b9150611e3682611dcf565b604082019050919050565b60006020820190508181036000830152611e5a81611e1e565b9050919050565b7f4155433130363a205468652066756e6374696f6e2068617320616c726561647960008201527f206265656e2063616c6c65640000000000000000000000000000000000000000602082015250565b6000611ebd602c83611dbe565b9150611ec882611e61565b604082019050919050565b60006020820190508181036000830152611eec81611eb0565b9050919050565b6000604082019050611f086000830185611aa3565b611f156020830184611a79565b9392505050565b6000606082019050611f316000830186611a79565b611f3e6020830185611a79565b611f4b6040830184611aa3565b949350505050565b611f5c81611b09565b8114611f6757600080fd5b50565b600081519050611f7981611f53565b92915050565b600060208284031215611f9557611f94611881565b5b6000611fa384828501611f6a565b91505092915050565b7f5072696365206d757374206265206174206c6561737420317765690000000000600082015250565b6000611fe2601b83611dbe565b9150611fed82611fac565b602082019050919050565b6000602082019050818103600083015261201181611fd5565b9050919050565b7f596f75206861766520746f2070617920302e303120657468657220746f20637260008201527f65617465204e6674000000000000000000000000000000000000000000000000602082015250565b6000612074602883611dbe565b915061207f82612018565b604082019050919050565b600060208201905081810360008301526120a381612067565b9050919050565b7f4e487b7100000000000000000000000000000000000000000000000000000000600052601160045260246000fd5b60006120e482611886565b91506120ef83611886565b9250827fffffffffffffffffffffffffffffffffffffffffffffffffffffffffffffffff03821115612124576121236120aa565b5b828201905092915050565b60006040820190506121446000830185611a79565b6121516020830184611b15565b9392505050565b600060408201905061216d6000830185611aa3565b61217a6020830184611aa3565b9392505050565b7f4155433130313a2041756374696f6e2068617320616c726561647920656e646560008201527f6400000000000000000000000000000000000000000000000000000000000000602082015250565b60006121dd602183611dbe565b91506121e882612181565b604082019050919050565b6000602082019050818103600083015261220c816121d0565b9050919050565b7f4155433130323a204269642063616e6e6f74206265206c657373207468616e2060008201527f626173652076616c756500000000000000000000000000000000000000000000602082015250565b600061226f602a83611dbe565b915061227a82612213565b604082019050919050565b6000602082019050818103600083015261229e81612262565b9050919050565b7f4155433130333a20546865736520616c7265616479206120686967686572206f60008201527f7220657175616c20626964000000000000000000000000000000000000000000602082015250565b6000612301602b83611dbe565b915061230c826122a5565b604082019050919050565b60006020820190508181036000830152612330816122f4565b9050919050565b600060408201905061234c6000830185611a79565b6123596020830184611a79565b9392505050565b60008151905061236f81611890565b92915050565b60006020828403121561238b5761238a611881565b5b600061239984828501612360565b91505092915050565b60006040820190506123b76000830185611a79565b6123c46020830184611aa3565b9392505050565b60006060820190506123e06000830186611a79565b6123ed6020830185611aa3565b6123fa6040830184611a79565b949350505050565b7f4e487b7100000000000000000000000000000000000000000000000000000000600052604160045260246000fd5b7f4e487b7100000000000000000000000000000000000000000000000000000000600052603260045260246000fd5b600061246b82611886565b91507fffffffffffffffffffffffffffffffffffffffffffffffffffffffffffffffff82141561249e5761249d6120aa565b5b60018201905091905056fea264697066735822122053cdfdc3c1159cf84be13cd54ceb27c37f7b425986ea7541cfda4961db77575e64736f6c634300080b0033",
  "linkReferences": {},
  "deployedLinkReferences": {}
}