{
  "_format": "hh-sol-artifact-1",
  "contractName": "NFTMarket",
  "sourceName": "contracts/market/NFTMarket.sol",
  "abi": [
    {
      "inputs": [
        {
          "internalType": "uint256",
          "name": "marketFee",
          "type": "uint256"
        }
      ],
      "stateMutability": "nonpayable",
      "type": "constructor"
    },
    {
      "anonymous": false,
      "inputs": [
        {
          "indexed": true,
          "internalType": "uint256",
          "name": "tokenId",
          "type": "uint256"
        },
        {
          "indexed": true,
          "internalType": "address",
          "name": "collectionAddress",
          "type": "address"
        },
        {
          "indexed": false,
          "internalType": "address payable",
          "name": "creator",
          "type": "address"
        },
        {
          "indexed": false,
          "internalType": "address payable",
          "name": "owner",
          "type": "address"
        },
        {
          "indexed": false,
          "internalType": "bool",
          "name": "isErc721",
          "type": "bool"
        },
        {
          "indexed": false,
          "internalType": "uint256",
          "name": "price",
          "type": "uint256"
        }
      ],
      "name": "buyItem",
      "type": "event"
    },
    {
      "anonymous": false,
      "inputs": [
        {
          "indexed": true,
          "internalType": "uint256",
          "name": "listingId",
          "type": "uint256"
        },
        {
          "indexed": false,
          "internalType": "address",
          "name": "collectionAddress",
          "type": "address"
        },
        {
          "indexed": false,
          "internalType": "address payable",
          "name": "creator",
          "type": "address"
        },
        {
          "indexed": false,
          "internalType": "address payable",
          "name": "owner",
          "type": "address"
        },
        {
          "indexed": false,
          "internalType": "bool",
          "name": "isErc721",
          "type": "bool"
        },
        {
          "indexed": false,
          "internalType": "uint256",
          "name": "price",
          "type": "uint256"
        }
      ],
      "name": "listed",
      "type": "event"
    },
    {
      "anonymous": false,
      "inputs": [
        {
          "indexed": true,
          "internalType": "address",
          "name": "oldOwner",
          "type": "address"
        },
        {
          "indexed": true,
          "internalType": "address",
          "name": "newOwner",
          "type": "address"
        }
      ],
      "name": "ownerShipTransfer",
      "type": "event"
    },
    {
      "inputs": [
        {
          "internalType": "address",
          "name": "collectionAddress",
          "type": "address"
        },
        {
          "internalType": "uint256",
          "name": "listingId_",
          "type": "uint256"
        },
        {
          "internalType": "uint256",
          "name": "price_",
          "type": "uint256"
        },
        {
          "internalType": "address",
          "name": "tokenAddress",
          "type": "address"
        }
      ],
      "name": "buyListingItem",
      "outputs": [
        {
          "internalType": "bool",
          "name": "",
          "type": "bool"
        }
      ],
      "stateMutability": "nonpayable",
      "type": "function"
    },
    {
      "inputs": [
        {
          "internalType": "uint256",
          "name": "tokenId",
          "type": "uint256"
        },
        {
          "internalType": "address",
          "name": "collectionAddress",
          "type": "address"
        },
        {
          "internalType": "bool",
          "name": "isErc721",
          "type": "bool"
        },
        {
          "internalType": "uint256",
          "name": "price",
          "type": "uint256"
        }
      ],
      "name": "createListing",
      "outputs": [
        {
          "internalType": "bool",
          "name": "success",
          "type": "bool"
        }
      ],
      "stateMutability": "nonpayable",
      "type": "function"
    },
    {
      "inputs": [
        {
          "internalType": "uint256",
          "name": "listingId",
          "type": "uint256"
        }
      ],
      "name": "getListing",
      "outputs": [
        {
          "components": [
            {
              "internalType": "uint256",
              "name": "listingId",
              "type": "uint256"
            },
            {
              "internalType": "uint256",
              "name": "tokenId",
              "type": "uint256"
            },
            {
              "internalType": "address",
              "name": "collectionAddress",
              "type": "address"
            },
            {
              "internalType": "address payable",
              "name": "creator",
              "type": "address"
            },
            {
              "internalType": "address payable",
              "name": "owner",
              "type": "address"
            },
            {
              "internalType": "bool",
              "name": "isErc721",
              "type": "bool"
            },
            {
              "internalType": "enum NFTMarket.State",
              "name": "state",
              "type": "uint8"
            },
            {
              "internalType": "uint256",
              "name": "price",
              "type": "uint256"
            }
          ],
          "internalType": "struct NFTMarket.Listing",
          "name": "",
          "type": "tuple"
        }
      ],
      "stateMutability": "view",
      "type": "function"
    },
    {
      "inputs": [],
      "name": "getMarketFee",
      "outputs": [
        {
          "internalType": "uint256",
          "name": "",
          "type": "uint256"
        }
      ],
      "stateMutability": "view",
      "type": "function"
    },
    {
      "inputs": [],
      "name": "getOwner",
      "outputs": [
        {
          "internalType": "address",
          "name": "",
          "type": "address"
        }
      ],
      "stateMutability": "view",
      "type": "function"
    },
    {
      "inputs": [
        {
          "internalType": "uint256",
          "name": "marketFee",
          "type": "uint256"
        }
      ],
      "name": "setMarketFee",
      "outputs": [],
      "stateMutability": "nonpayable",
      "type": "function"
    },
    {
      "inputs": [
        {
          "internalType": "address",
          "name": "newOwner",
          "type": "address"
        }
      ],
      "name": "transferOwnerShip",
      "outputs": [],
      "stateMutability": "nonpayable",
      "type": "function"
    }
  ],
  "bytecode": "0x60806040523480156200001157600080fd5b506040516200196338038062001963833981810160405281019062000037919062000129565b600160008190555033600160006101000a81548173ffffffffffffffffffffffffffffffffffffffff021916908373ffffffffffffffffffffffffffffffffffffffff1602179055503373ffffffffffffffffffffffffffffffffffffffff16600073ffffffffffffffffffffffffffffffffffffffff167fb7e344c73fa15a4ba021f4725be492b8e431b2f8006fc56075aec11d806e6f0e60405160405180910390a380600381905550506200015b565b600080fd5b6000819050919050565b6200010381620000ee565b81146200010f57600080fd5b50565b6000815190506200012381620000f8565b92915050565b600060208284031215620001425762000141620000e9565b5b6000620001528482850162000112565b91505092915050565b6117f8806200016b6000396000f3fe608060405234801561001057600080fd5b506004361061007d5760003560e01c80638863dd1a1161005b5780638863dd1a146100ec578063893d20e814610108578063cf7a52da14610126578063ffcb82e5146101565761007d565b8063107a274a1461008257806326b825d2146100b25780635e123add146100ce575b600080fd5b61009c60048036038101906100979190611025565b610186565b6040516100a991906111f7565b60405180910390f35b6100cc60048036038101906100c79190611025565b61032a565b005b6100d66103a9565b6040516100e39190611222565b60405180910390f35b61010660048036038101906101019190611269565b6103b3565b005b610110610558565b60405161011d91906112a5565b60405180910390f35b610140600480360381019061013b91906112c0565b610582565b60405161014d9190611336565b60405180910390f35b610170600480360381019061016b919061137d565b610a3d565b60405161017d9190611336565b60405180910390f35b61018e610f4f565b600460008381526020019081526020016000206040518061010001604052908160008201548152602001600182015481526020016002820160009054906101000a900473ffffffffffffffffffffffffffffffffffffffff1673ffffffffffffffffffffffffffffffffffffffff1673ffffffffffffffffffffffffffffffffffffffff1681526020016003820160009054906101000a900473ffffffffffffffffffffffffffffffffffffffff1673ffffffffffffffffffffffffffffffffffffffff1673ffffffffffffffffffffffffffffffffffffffff1681526020016004820160009054906101000a900473ffffffffffffffffffffffffffffffffffffffff1673ffffffffffffffffffffffffffffffffffffffff1673ffffffffffffffffffffffffffffffffffffffff1681526020016004820160149054906101000a900460ff161515151581526020016004820160159054906101000a900460ff166001811115610303576103026110de565b5b6001811115610315576103146110de565b5b81526020016005820154815250509050919050565b3373ffffffffffffffffffffffffffffffffffffffff16610349610558565b73ffffffffffffffffffffffffffffffffffffffff161461039f576040517f08c379a000000000000000000000000000000000000000000000000000000000815260040161039690611441565b60405180910390fd5b8060038190555050565b6000600354905090565b3373ffffffffffffffffffffffffffffffffffffffff166103d2610558565b73ffffffffffffffffffffffffffffffffffffffff1614610428576040517f08c379a000000000000000000000000000000000000000000000000000000000815260040161041f90611441565b60405180910390fd5b600073ffffffffffffffffffffffffffffffffffffffff168173ffffffffffffffffffffffffffffffffffffffff161415610498576040517f08c379a000000000000000000000000000000000000000000000000000000000815260040161048f906114ad565b60405180910390fd5b8073ffffffffffffffffffffffffffffffffffffffff16600160009054906101000a900473ffffffffffffffffffffffffffffffffffffffff1673ffffffffffffffffffffffffffffffffffffffff167fb7e344c73fa15a4ba021f4725be492b8e431b2f8006fc56075aec11d806e6f0e60405160405180910390a380600160006101000a81548173ffffffffffffffffffffffffffffffffffffffff021916908373ffffffffffffffffffffffffffffffffffffffff16021790555050565b6000600160009054906101000a900473ffffffffffffffffffffffffffffffffffffffff16905090565b600080600460008681526020019081526020016000206040518061010001604052908160008201548152602001600182015481526020016002820160009054906101000a900473ffffffffffffffffffffffffffffffffffffffff1673ffffffffffffffffffffffffffffffffffffffff1673ffffffffffffffffffffffffffffffffffffffff1681526020016003820160009054906101000a900473ffffffffffffffffffffffffffffffffffffffff1673ffffffffffffffffffffffffffffffffffffffff1673ffffffffffffffffffffffffffffffffffffffff1681526020016004820160009054906101000a900473ffffffffffffffffffffffffffffffffffffffff1673ffffffffffffffffffffffffffffffffffffffff1673ffffffffffffffffffffffffffffffffffffffff1681526020016004820160149054906101000a900460ff161515151581526020016004820160159054906101000a900460ff1660018111156106fa576106f96110de565b5b600181111561070c5761070b6110de565b5b8152602001600582015481525050905060008160e00151905080851015610768576040517f08c379a000000000000000000000000000000000000000000000000000000000815260040161075f90611519565b60405180910390fd5b60008260000151905060008360200151905060008973ffffffffffffffffffffffffffffffffffffffff16636352211e836040518263ffffffff1660e01b81526004016107b59190611222565b602060405180830381865afa1580156107d2573d6000803e3d6000fd5b505050506040513d601f19601f820116820180604052508101906107f6919061154e565b90506000856060015190508773ffffffffffffffffffffffffffffffffffffffff1663a9059cbb83876040518363ffffffff1660e01b815260040161083c92919061157b565b6020604051808303816000875af115801561085b573d6000803e3d6000fd5b505050506040513d601f19601f8201168201806040525081019061087f91906115b9565b508a73ffffffffffffffffffffffffffffffffffffffff166323b872dd8330866040518463ffffffff1660e01b81526004016108bd939291906115e6565b600060405180830381600087803b1580156108d757600080fd5b505af11580156108eb573d6000803e3d6000fd5b505050508a73ffffffffffffffffffffffffffffffffffffffff1663095ea7b333856040518363ffffffff1660e01b815260040161092a92919061157b565b600060405180830381600087803b15801561094457600080fd5b505af1158015610958573d6000803e3d6000fd5b505050508a73ffffffffffffffffffffffffffffffffffffffff166323b872dd3033866040518463ffffffff1660e01b8152600401610999939291906115e6565b600060405180830381600087803b1580156109b357600080fd5b505af11580156109c7573d6000803e3d6000fd5b505050508a73ffffffffffffffffffffffffffffffffffffffff16837fbbad5c04ecce380bc2ea4713cb35c979b348b7367467f36f8685b2bb9e797feb833360018a604051610a19949392919061162c565b60405180910390a3610a2a84610e55565b5060019650505050505050949350505050565b6000610a496002610f2b565b6000610a556002610f41565b90508060046000838152602001908152602001600020600001541415610ab0576040517f08c379a0000000000000000000000000000000000000000000000000000000008152600401610aa7906116bd565b60405180910390fd5b8315610e4b5760008573ffffffffffffffffffffffffffffffffffffffff16636352211e886040518263ffffffff1660e01b8152600401610af19190611222565b602060405180830381865afa158015610b0e573d6000803e3d6000fd5b505050506040513d601f19601f82011682018060405250810190610b32919061154e565b90503373ffffffffffffffffffffffffffffffffffffffff168173ffffffffffffffffffffffffffffffffffffffff161415610ba3576040517f08c379a0000000000000000000000000000000000000000000000000000000008152600401610b9a9061174f565b60405180910390fd5b8573ffffffffffffffffffffffffffffffffffffffff1663095ea7b330896040518363ffffffff1660e01b8152600401610bde92919061157b565b600060405180830381600087803b158015610bf857600080fd5b505af1158015610c0c573d6000803e3d6000fd5b5050505060006040518061010001604052808481526020018981526020018873ffffffffffffffffffffffffffffffffffffffff1681526020018373ffffffffffffffffffffffffffffffffffffffff1681526020018373ffffffffffffffffffffffffffffffffffffffff168152602001871515815260200160006001811115610c9a57610c996110de565b5b81526020018681525090508060046000858152602001908152602001600020600082015181600001556020820151816001015560408201518160020160006101000a81548173ffffffffffffffffffffffffffffffffffffffff021916908373ffffffffffffffffffffffffffffffffffffffff16021790555060608201518160030160006101000a81548173ffffffffffffffffffffffffffffffffffffffff021916908373ffffffffffffffffffffffffffffffffffffffff16021790555060808201518160040160006101000a81548173ffffffffffffffffffffffffffffffffffffffff021916908373ffffffffffffffffffffffffffffffffffffffff16021790555060a08201518160040160146101000a81548160ff02191690831515021790555060c08201518160040160156101000a81548160ff02191690836001811115610ded57610dec6110de565b5b021790555060e08201518160050155905050827f54ddad4928e8610ae6b2e9a7784cf9f75e698063eee389a3d4adee5af19eb2b68884858a8a604051610e3795949392919061176f565b60405180910390a260019350505050610e4d565b505b949350505050565b60006004600083815260200190815260200160002060008082016000905560018201600090556002820160006101000a81549073ffffffffffffffffffffffffffffffffffffffff02191690556003820160006101000a81549073ffffffffffffffffffffffffffffffffffffffff02191690556004820160006101000a81549073ffffffffffffffffffffffffffffffffffffffff02191690556004820160146101000a81549060ff02191690556004820160156101000a81549060ff02191690556005820160009055505060019050919050565b6001816000016000828254019250508190555050565b600081600001549050919050565b6040518061010001604052806000815260200160008152602001600073ffffffffffffffffffffffffffffffffffffffff168152602001600073ffffffffffffffffffffffffffffffffffffffff168152602001600073ffffffffffffffffffffffffffffffffffffffff16815260200160001515815260200160006001811115610fdd57610fdc6110de565b5b8152602001600081525090565b600080fd5b6000819050919050565b61100281610fef565b811461100d57600080fd5b50565b60008135905061101f81610ff9565b92915050565b60006020828403121561103b5761103a610fea565b5b600061104984828501611010565b91505092915050565b61105b81610fef565b82525050565b600073ffffffffffffffffffffffffffffffffffffffff82169050919050565b600061108c82611061565b9050919050565b61109c81611081565b82525050565b60006110ad82611061565b9050919050565b6110bd816110a2565b82525050565b60008115159050919050565b6110d8816110c3565b82525050565b7f4e487b7100000000000000000000000000000000000000000000000000000000600052602160045260246000fd5b6002811061111e5761111d6110de565b5b50565b600081905061112f8261110d565b919050565b600061113f82611121565b9050919050565b61114f81611134565b82525050565b6101008201600082015161116c6000850182611052565b50602082015161117f6020850182611052565b5060408201516111926040850182611093565b5060608201516111a560608501826110b4565b5060808201516111b860808501826110b4565b5060a08201516111cb60a08501826110cf565b5060c08201516111de60c0850182611146565b5060e08201516111f160e0850182611052565b50505050565b60006101008201905061120d6000830184611155565b92915050565b61121c81610fef565b82525050565b60006020820190506112376000830184611213565b92915050565b61124681611081565b811461125157600080fd5b50565b6000813590506112638161123d565b92915050565b60006020828403121561127f5761127e610fea565b5b600061128d84828501611254565b91505092915050565b61129f81611081565b82525050565b60006020820190506112ba6000830184611296565b92915050565b600080600080608085870312156112da576112d9610fea565b5b60006112e887828801611254565b94505060206112f987828801611010565b935050604061130a87828801611010565b925050606061131b87828801611254565b91505092959194509250565b611330816110c3565b82525050565b600060208201905061134b6000830184611327565b92915050565b61135a816110c3565b811461136557600080fd5b50565b60008135905061137781611351565b92915050565b6000806000806080858703121561139757611396610fea565b5b60006113a587828801611010565b94505060206113b687828801611254565b93505060406113c787828801611368565b92505060606113d887828801611010565b91505092959194509250565b600082825260208201905092915050565b7f43616c6c6572206973206e6f7420746865206f776e6572000000000000000000600082015250565b600061142b6017836113e4565b9150611436826113f5565b602082019050919050565b6000602082019050818103600083015261145a8161141e565b9050919050565b7f4e6577206f776e65722061646472657373205a65726f20616464726573730000600082015250565b6000611497601e836113e4565b91506114a282611461565b602082019050919050565b600060208201905081810360008301526114c68161148a565b9050919050565b7f496e73756666696369656e742042616c616e6365000000000000000000000000600082015250565b60006115036014836113e4565b915061150e826114cd565b602082019050919050565b60006020820190508181036000830152611532816114f6565b9050919050565b6000815190506115488161123d565b92915050565b60006020828403121561156457611563610fea565b5b600061157284828501611539565b91505092915050565b60006040820190506115906000830185611296565b61159d6020830184611213565b9392505050565b6000815190506115b381611351565b92915050565b6000602082840312156115cf576115ce610fea565b5b60006115dd848285016115a4565b91505092915050565b60006060820190506115fb6000830186611296565b6116086020830185611296565b6116156040830184611213565b949350505050565b611626816110a2565b82525050565b6000608082019050611641600083018761161d565b61164e602083018661161d565b61165b6040830185611327565b6116686060830184611213565b95945050505050565b7f4974656d20697320616c7265616479206c697374656400000000000000000000600082015250565b60006116a76016836113e4565b91506116b282611671565b602082019050919050565b600060208201905081810360008301526116d68161169a565b9050919050565b7f5468697320746f6b656e206e6f742062656c6f6e677320746f2074686973206160008201527f6464726573730000000000000000000000000000000000000000000000000000602082015250565b60006117396026836113e4565b9150611744826116dd565b604082019050919050565b600060208201905081810360008301526117688161172c565b9050919050565b600060a0820190506117846000830188611296565b611791602083018761161d565b61179e604083018661161d565b6117ab6060830185611327565b6117b86080830184611213565b969550505050505056fea26469706673582212203f21d06c1dddf0c06bcf3d37f7cf6ded4f093f084da16dabb00da9459308c9e664736f6c634300080b0033",
  "linkReferences": {},
  "deployedLinkReferences": {}
}