{
  "_format": "hh-sol-artifact-1",
  "contractName": "NFTMarket",
  "sourceName": "contracts/market/NFTMarket.sol",
  "abi": [
    {
      "inputs": [
        {
          "internalType": "uint256",
          "name": "marketFee",
          "type": "uint256"
        }
      ],
      "stateMutability": "nonpayable",
      "type": "constructor"
    },
    {
      "anonymous": false,
      "inputs": [
        {
          "indexed": true,
          "internalType": "uint256",
          "name": "listingId",
          "type": "uint256"
        },
        {
          "indexed": false,
          "internalType": "address",
          "name": "collectionAddress",
          "type": "address"
        },
        {
          "indexed": false,
          "internalType": "address payable",
          "name": "creator",
          "type": "address"
        },
        {
          "indexed": false,
          "internalType": "address payable",
          "name": "owner",
          "type": "address"
        },
        {
          "indexed": false,
          "internalType": "bool",
          "name": "isErc721",
          "type": "bool"
        },
        {
          "indexed": false,
          "internalType": "uint256",
          "name": "price",
          "type": "uint256"
        }
      ],
      "name": "listingCreated",
      "type": "event"
    },
    {
      "anonymous": false,
      "inputs": [
        {
          "indexed": true,
          "internalType": "address",
          "name": "oldOwner",
          "type": "address"
        },
        {
          "indexed": true,
          "internalType": "address",
          "name": "newOwner",
          "type": "address"
        }
      ],
      "name": "ownerShipTransfer",
      "type": "event"
    },
    {
      "inputs": [
        {
          "internalType": "uint256",
          "name": "listingId",
          "type": "uint256"
        },
        {
          "internalType": "uint256",
          "name": "tokenId",
          "type": "uint256"
        },
        {
          "internalType": "address",
          "name": "collectionAddress",
          "type": "address"
        },
        {
          "internalType": "address payable",
          "name": "creator",
          "type": "address"
        },
        {
          "internalType": "address payable",
          "name": "owner",
          "type": "address"
        },
        {
          "internalType": "bool",
          "name": "isErc721",
          "type": "bool"
        },
        {
          "internalType": "uint256",
          "name": "price",
          "type": "uint256"
        }
      ],
      "name": "createListing",
      "outputs": [
        {
          "internalType": "bool",
          "name": "success",
          "type": "bool"
        }
      ],
      "stateMutability": "nonpayable",
      "type": "function"
    },
    {
      "inputs": [
        {
          "internalType": "uint256",
          "name": "listingId",
          "type": "uint256"
        }
      ],
      "name": "deleteListingItem",
      "outputs": [
        {
          "internalType": "bool",
          "name": "",
          "type": "bool"
        }
      ],
      "stateMutability": "nonpayable",
      "type": "function"
    },
    {
      "inputs": [
        {
          "internalType": "uint256",
          "name": "listingId",
          "type": "uint256"
        }
      ],
      "name": "getListing",
      "outputs": [
        {
          "components": [
            {
              "internalType": "uint256",
              "name": "listingId",
              "type": "uint256"
            },
            {
              "internalType": "uint256",
              "name": "tokenId",
              "type": "uint256"
            },
            {
              "internalType": "address",
              "name": "collectionAddress",
              "type": "address"
            },
            {
              "internalType": "address payable",
              "name": "creator",
              "type": "address"
            },
            {
              "internalType": "address payable",
              "name": "owner",
              "type": "address"
            },
            {
              "internalType": "bool",
              "name": "isErc721",
              "type": "bool"
            },
            {
              "internalType": "enum NFTMarket.State",
              "name": "state",
              "type": "uint8"
            },
            {
              "internalType": "uint256",
              "name": "price",
              "type": "uint256"
            }
          ],
          "internalType": "struct NFTMarket.Listing",
          "name": "",
          "type": "tuple"
        }
      ],
      "stateMutability": "view",
      "type": "function"
    },
    {
      "inputs": [],
      "name": "getMarketFee",
      "outputs": [
        {
          "internalType": "uint256",
          "name": "",
          "type": "uint256"
        }
      ],
      "stateMutability": "view",
      "type": "function"
    },
    {
      "inputs": [],
      "name": "getOwner",
      "outputs": [
        {
          "internalType": "address",
          "name": "",
          "type": "address"
        }
      ],
      "stateMutability": "view",
      "type": "function"
    },
    {
      "inputs": [
        {
          "internalType": "uint256",
          "name": "marketFee",
          "type": "uint256"
        }
      ],
      "name": "setMarketFee",
      "outputs": [],
      "stateMutability": "nonpayable",
      "type": "function"
    },
    {
      "inputs": [
        {
          "internalType": "address",
          "name": "newOwner",
          "type": "address"
        }
      ],
      "name": "transferOwnerShip",
      "outputs": [],
      "stateMutability": "nonpayable",
      "type": "function"
    }
  ],
  "bytecode": "0x608060405234801561001057600080fd5b506040516110da3803806110da8339818101604052810190610032919061011e565b600160008190555033600160006101000a81548173ffffffffffffffffffffffffffffffffffffffff021916908373ffffffffffffffffffffffffffffffffffffffff1602179055503373ffffffffffffffffffffffffffffffffffffffff16600073ffffffffffffffffffffffffffffffffffffffff167fb7e344c73fa15a4ba021f4725be492b8e431b2f8006fc56075aec11d806e6f0e60405160405180910390a3806002819055505061014b565b600080fd5b6000819050919050565b6100fb816100e8565b811461010657600080fd5b50565b600081519050610118816100f2565b92915050565b600060208284031215610134576101336100e3565b5b600061014284828501610109565b91505092915050565b610f808061015a6000396000f3fe608060405234801561001057600080fd5b506004361061007d5760003560e01c80635e123add1161005b5780635e123add146100fe5780638863dd1a1461011c578063893d20e814610138578063d2492bba146101565761007d565b8063107a274a1461008257806326b825d2146100b257806359408600146100ce575b600080fd5b61009c600480360381019061009791906109d4565b610186565b6040516100a99190610ba6565b60405180910390f35b6100cc60048036038101906100c791906109d4565b61032a565b005b6100e860048036038101906100e39190610c46565b6103a9565b6040516100f59190610cf7565b60405180910390f35b61010661064f565b6040516101139190610d21565b60405180910390f35b61013660048036038101906101319190610d3c565b610659565b005b6101406107fe565b60405161014d9190610d78565b60405180910390f35b610170600480360381019061016b91906109d4565b610828565b60405161017d9190610cf7565b60405180910390f35b61018e6108fe565b600360008381526020019081526020016000206040518061010001604052908160008201548152602001600182015481526020016002820160009054906101000a900473ffffffffffffffffffffffffffffffffffffffff1673ffffffffffffffffffffffffffffffffffffffff1673ffffffffffffffffffffffffffffffffffffffff1681526020016003820160009054906101000a900473ffffffffffffffffffffffffffffffffffffffff1673ffffffffffffffffffffffffffffffffffffffff1673ffffffffffffffffffffffffffffffffffffffff1681526020016004820160009054906101000a900473ffffffffffffffffffffffffffffffffffffffff1673ffffffffffffffffffffffffffffffffffffffff1673ffffffffffffffffffffffffffffffffffffffff1681526020016004820160149054906101000a900460ff161515151581526020016004820160159054906101000a900460ff16600181111561030357610302610a8d565b5b600181111561031557610314610a8d565b5b81526020016005820154815250509050919050565b3373ffffffffffffffffffffffffffffffffffffffff166103496107fe565b73ffffffffffffffffffffffffffffffffffffffff161461039f576040517f08c379a000000000000000000000000000000000000000000000000000000000815260040161039690610df0565b60405180910390fd5b8060028190555050565b600087600360008a8152602001908152602001600020600001541415610404576040517f08c379a00000000000000000000000000000000000000000000000000000000081526004016103fb90610e5c565b60405180910390fd5b82156106435760006040518061010001604052808a81526020018981526020018873ffffffffffffffffffffffffffffffffffffffff1681526020018773ffffffffffffffffffffffffffffffffffffffff1681526020018673ffffffffffffffffffffffffffffffffffffffff16815260200185151581526020016000600181111561049457610493610a8d565b5b815260200184815250905080600360008b8152602001908152602001600020600082015181600001556020820151816001015560408201518160020160006101000a81548173ffffffffffffffffffffffffffffffffffffffff021916908373ffffffffffffffffffffffffffffffffffffffff16021790555060608201518160030160006101000a81548173ffffffffffffffffffffffffffffffffffffffff021916908373ffffffffffffffffffffffffffffffffffffffff16021790555060808201518160040160006101000a81548173ffffffffffffffffffffffffffffffffffffffff021916908373ffffffffffffffffffffffffffffffffffffffff16021790555060a08201518160040160146101000a81548160ff02191690831515021790555060c08201518160040160156101000a81548160ff021916908360018111156105e7576105e6610a8d565b5b021790555060e08201518160050155905050887fb10191dc4989b0178e1d647facd4ff68056b96c62f54529b85affa0388201e118888888888604051610631959493929190610e8b565b60405180910390a26001915050610644565b5b979650505050505050565b6000600254905090565b3373ffffffffffffffffffffffffffffffffffffffff166106786107fe565b73ffffffffffffffffffffffffffffffffffffffff16146106ce576040517f08c379a00000000000000000000000000000000000000000000000000000000081526004016106c590610df0565b60405180910390fd5b600073ffffffffffffffffffffffffffffffffffffffff168173ffffffffffffffffffffffffffffffffffffffff16141561073e576040517f08c379a000000000000000000000000000000000000000000000000000000000815260040161073590610f2a565b60405180910390fd5b8073ffffffffffffffffffffffffffffffffffffffff16600160009054906101000a900473ffffffffffffffffffffffffffffffffffffffff1673ffffffffffffffffffffffffffffffffffffffff167fb7e344c73fa15a4ba021f4725be492b8e431b2f8006fc56075aec11d806e6f0e60405160405180910390a380600160006101000a81548173ffffffffffffffffffffffffffffffffffffffff021916908373ffffffffffffffffffffffffffffffffffffffff16021790555050565b6000600160009054906101000a900473ffffffffffffffffffffffffffffffffffffffff16905090565b60006003600083815260200190815260200160002060008082016000905560018201600090556002820160006101000a81549073ffffffffffffffffffffffffffffffffffffffff02191690556003820160006101000a81549073ffffffffffffffffffffffffffffffffffffffff02191690556004820160006101000a81549073ffffffffffffffffffffffffffffffffffffffff02191690556004820160146101000a81549060ff02191690556004820160156101000a81549060ff02191690556005820160009055505060019050919050565b6040518061010001604052806000815260200160008152602001600073ffffffffffffffffffffffffffffffffffffffff168152602001600073ffffffffffffffffffffffffffffffffffffffff168152602001600073ffffffffffffffffffffffffffffffffffffffff1681526020016000151581526020016000600181111561098c5761098b610a8d565b5b8152602001600081525090565b600080fd5b6000819050919050565b6109b18161099e565b81146109bc57600080fd5b50565b6000813590506109ce816109a8565b92915050565b6000602082840312156109ea576109e9610999565b5b60006109f8848285016109bf565b91505092915050565b610a0a8161099e565b82525050565b600073ffffffffffffffffffffffffffffffffffffffff82169050919050565b6000610a3b82610a10565b9050919050565b610a4b81610a30565b82525050565b6000610a5c82610a10565b9050919050565b610a6c81610a51565b82525050565b60008115159050919050565b610a8781610a72565b82525050565b7f4e487b7100000000000000000000000000000000000000000000000000000000600052602160045260246000fd5b60028110610acd57610acc610a8d565b5b50565b6000819050610ade82610abc565b919050565b6000610aee82610ad0565b9050919050565b610afe81610ae3565b82525050565b61010082016000820151610b1b6000850182610a01565b506020820151610b2e6020850182610a01565b506040820151610b416040850182610a42565b506060820151610b546060850182610a63565b506080820151610b676080850182610a63565b5060a0820151610b7a60a0850182610a7e565b5060c0820151610b8d60c0850182610af5565b5060e0820151610ba060e0850182610a01565b50505050565b600061010082019050610bbc6000830184610b04565b92915050565b610bcb81610a30565b8114610bd657600080fd5b50565b600081359050610be881610bc2565b92915050565b610bf781610a51565b8114610c0257600080fd5b50565b600081359050610c1481610bee565b92915050565b610c2381610a72565b8114610c2e57600080fd5b50565b600081359050610c4081610c1a565b92915050565b600080600080600080600060e0888a031215610c6557610c64610999565b5b6000610c738a828b016109bf565b9750506020610c848a828b016109bf565b9650506040610c958a828b01610bd9565b9550506060610ca68a828b01610c05565b9450506080610cb78a828b01610c05565b93505060a0610cc88a828b01610c31565b92505060c0610cd98a828b016109bf565b91505092959891949750929550565b610cf181610a72565b82525050565b6000602082019050610d0c6000830184610ce8565b92915050565b610d1b8161099e565b82525050565b6000602082019050610d366000830184610d12565b92915050565b600060208284031215610d5257610d51610999565b5b6000610d6084828501610bd9565b91505092915050565b610d7281610a30565b82525050565b6000602082019050610d8d6000830184610d69565b92915050565b600082825260208201905092915050565b7f43616c6c6572206973206e6f7420746865206f776e6572000000000000000000600082015250565b6000610dda601783610d93565b9150610de582610da4565b602082019050919050565b60006020820190508181036000830152610e0981610dcd565b9050919050565b7f4974656d20697320616c7265616479206c697374656400000000000000000000600082015250565b6000610e46601683610d93565b9150610e5182610e10565b602082019050919050565b60006020820190508181036000830152610e7581610e39565b9050919050565b610e8581610a51565b82525050565b600060a082019050610ea06000830188610d69565b610ead6020830187610e7c565b610eba6040830186610e7c565b610ec76060830185610ce8565b610ed46080830184610d12565b9695505050505050565b7f4e6577206f776e65722061646472657373205a65726f20616464726573730000600082015250565b6000610f14601e83610d93565b9150610f1f82610ede565b602082019050919050565b60006020820190508181036000830152610f4381610f07565b905091905056fea2646970667358221220679e9a43d028ed284d295f9bd24619074304fe2334dffae63a4a12314054b0c364736f6c634300080b0033",
  "linkReferences": {},
  "deployedLinkReferences": {}
}