{
  "_format": "hh-sol-artifact-1",
  "contractName": "NFTMarket",
  "sourceName": "contracts/market/NFTMarket.sol",
  "abi": [
    {
      "inputs": [
        {
          "internalType": "uint256",
          "name": "marketFee",
          "type": "uint256"
        }
      ],
      "stateMutability": "nonpayable",
      "type": "constructor"
    },
    {
      "anonymous": false,
      "inputs": [
        {
          "indexed": true,
          "internalType": "address",
          "name": "owner",
          "type": "address"
        },
        {
          "indexed": true,
          "internalType": "address",
          "name": "nftContract",
          "type": "address"
        }
      ],
      "name": "CollectionCreated",
      "type": "event"
    },
    {
      "anonymous": false,
      "inputs": [
        {
          "indexed": true,
          "internalType": "uint256",
          "name": "listingId",
          "type": "uint256"
        },
        {
          "indexed": false,
          "internalType": "address",
          "name": "collectionAddress",
          "type": "address"
        },
        {
          "indexed": false,
          "internalType": "address payable",
          "name": "creator",
          "type": "address"
        },
        {
          "indexed": false,
          "internalType": "address payable",
          "name": "owner",
          "type": "address"
        },
        {
          "indexed": false,
          "internalType": "bool",
          "name": "isErc721",
          "type": "bool"
        },
        {
          "indexed": false,
          "internalType": "uint256",
          "name": "price",
          "type": "uint256"
        }
      ],
      "name": "listingCreated",
      "type": "event"
    },
    {
      "anonymous": false,
      "inputs": [
        {
          "indexed": true,
          "internalType": "address",
          "name": "oldOwner",
          "type": "address"
        },
        {
          "indexed": true,
          "internalType": "address",
          "name": "newOwner",
          "type": "address"
        }
      ],
      "name": "ownerShipTransfer",
      "type": "event"
    },
    {
      "inputs": [
        {
          "internalType": "address",
          "name": "_owner",
          "type": "address"
        },
        {
          "internalType": "address",
          "name": "_contractAddress",
          "type": "address"
        }
      ],
      "name": "contractCreated",
      "outputs": [],
      "stateMutability": "nonpayable",
      "type": "function"
    },
    {
      "inputs": [
        {
          "internalType": "uint256",
          "name": "listingId",
          "type": "uint256"
        },
        {
          "internalType": "uint256",
          "name": "tokenId",
          "type": "uint256"
        },
        {
          "internalType": "address",
          "name": "collectionAddress",
          "type": "address"
        },
        {
          "internalType": "address payable",
          "name": "creator",
          "type": "address"
        },
        {
          "internalType": "address payable",
          "name": "owner",
          "type": "address"
        },
        {
          "internalType": "bool",
          "name": "isErc721",
          "type": "bool"
        },
        {
          "internalType": "uint256",
          "name": "price",
          "type": "uint256"
        }
      ],
      "name": "createListing",
      "outputs": [
        {
          "internalType": "bool",
          "name": "success",
          "type": "bool"
        }
      ],
      "stateMutability": "nonpayable",
      "type": "function"
    },
    {
      "inputs": [
        {
          "internalType": "uint256",
          "name": "listingId",
          "type": "uint256"
        }
      ],
      "name": "deleteListingItem",
      "outputs": [
        {
          "internalType": "bool",
          "name": "",
          "type": "bool"
        }
      ],
      "stateMutability": "nonpayable",
      "type": "function"
    },
    {
      "inputs": [
        {
          "internalType": "uint256",
          "name": "listingId",
          "type": "uint256"
        }
      ],
      "name": "getListing",
      "outputs": [
        {
          "components": [
            {
              "internalType": "uint256",
              "name": "listingId",
              "type": "uint256"
            },
            {
              "internalType": "uint256",
              "name": "tokenId",
              "type": "uint256"
            },
            {
              "internalType": "address",
              "name": "collectionAddress",
              "type": "address"
            },
            {
              "internalType": "address payable",
              "name": "creator",
              "type": "address"
            },
            {
              "internalType": "address payable",
              "name": "owner",
              "type": "address"
            },
            {
              "internalType": "bool",
              "name": "isErc721",
              "type": "bool"
            },
            {
              "internalType": "enum NFTMarket.State",
              "name": "state",
              "type": "uint8"
            },
            {
              "internalType": "uint256",
              "name": "price",
              "type": "uint256"
            }
          ],
          "internalType": "struct NFTMarket.Listing",
          "name": "",
          "type": "tuple"
        }
      ],
      "stateMutability": "view",
      "type": "function"
    },
    {
      "inputs": [],
      "name": "getMarketFee",
      "outputs": [
        {
          "internalType": "uint256",
          "name": "",
          "type": "uint256"
        }
      ],
      "stateMutability": "view",
      "type": "function"
    },
    {
      "inputs": [],
      "name": "getOwner",
      "outputs": [
        {
          "internalType": "address",
          "name": "",
          "type": "address"
        }
      ],
      "stateMutability": "view",
      "type": "function"
    },
    {
      "inputs": [
        {
          "internalType": "uint256",
          "name": "marketFee",
          "type": "uint256"
        }
      ],
      "name": "setMarketFee",
      "outputs": [],
      "stateMutability": "nonpayable",
      "type": "function"
    },
    {
      "inputs": [
        {
          "internalType": "address",
          "name": "newOwner",
          "type": "address"
        }
      ],
      "name": "transferOwnerShip",
      "outputs": [],
      "stateMutability": "nonpayable",
      "type": "function"
    }
  ],
  "bytecode": "0x608060405234801561001057600080fd5b50604051620011a2380380620011a283398181016040528101906100349190610120565b600160008190555033600160006101000a81548173ffffffffffffffffffffffffffffffffffffffff021916908373ffffffffffffffffffffffffffffffffffffffff1602179055503373ffffffffffffffffffffffffffffffffffffffff16600073ffffffffffffffffffffffffffffffffffffffff167fb7e344c73fa15a4ba021f4725be492b8e431b2f8006fc56075aec11d806e6f0e60405160405180910390a3806002819055505061014d565b600080fd5b6000819050919050565b6100fd816100ea565b811461010857600080fd5b50565b60008151905061011a816100f4565b92915050565b600060208284031215610136576101356100e5565b5b60006101448482850161010b565b91505092915050565b611045806200015d6000396000f3fe608060405234801561001057600080fd5b50600436106100885760003560e01c80635f8858031161005b5780635f885803146101275780638863dd1a14610143578063893d20e81461015f578063d2492bba1461017d57610088565b8063107a274a1461008d57806326b825d2146100bd57806359408600146100d95780635e123add14610109575b600080fd5b6100a760048036038101906100a29190610a59565b6101ad565b6040516100b49190610c2b565b60405180910390f35b6100d760048036038101906100d29190610a59565b610351565b005b6100f360048036038101906100ee9190610ccb565b6103d0565b6040516101009190610d7c565b60405180910390f35b610111610676565b60405161011e9190610da6565b60405180910390f35b610141600480360381019061013c9190610dc1565b610680565b005b61015d60048036038101906101589190610e01565b6106de565b005b610167610883565b6040516101749190610e3d565b60405180910390f35b61019760048036038101906101929190610a59565b6108ad565b6040516101a49190610d7c565b60405180910390f35b6101b5610983565b600360008381526020019081526020016000206040518061010001604052908160008201548152602001600182015481526020016002820160009054906101000a900473ffffffffffffffffffffffffffffffffffffffff1673ffffffffffffffffffffffffffffffffffffffff1673ffffffffffffffffffffffffffffffffffffffff1681526020016003820160009054906101000a900473ffffffffffffffffffffffffffffffffffffffff1673ffffffffffffffffffffffffffffffffffffffff1673ffffffffffffffffffffffffffffffffffffffff1681526020016004820160009054906101000a900473ffffffffffffffffffffffffffffffffffffffff1673ffffffffffffffffffffffffffffffffffffffff1673ffffffffffffffffffffffffffffffffffffffff1681526020016004820160149054906101000a900460ff161515151581526020016004820160159054906101000a900460ff16600181111561032a57610329610b12565b5b600181111561033c5761033b610b12565b5b81526020016005820154815250509050919050565b3373ffffffffffffffffffffffffffffffffffffffff16610370610883565b73ffffffffffffffffffffffffffffffffffffffff16146103c6576040517f08c379a00000000000000000000000000000000000000000000000000000000081526004016103bd90610eb5565b60405180910390fd5b8060028190555050565b600087600360008a815260200190815260200160002060000154141561042b576040517f08c379a000000000000000000000000000000000000000000000000000000000815260040161042290610f21565b60405180910390fd5b821561066a5760006040518061010001604052808a81526020018981526020018873ffffffffffffffffffffffffffffffffffffffff1681526020018773ffffffffffffffffffffffffffffffffffffffff1681526020018673ffffffffffffffffffffffffffffffffffffffff1681526020018515158152602001600060018111156104bb576104ba610b12565b5b815260200184815250905080600360008b8152602001908152602001600020600082015181600001556020820151816001015560408201518160020160006101000a81548173ffffffffffffffffffffffffffffffffffffffff021916908373ffffffffffffffffffffffffffffffffffffffff16021790555060608201518160030160006101000a81548173ffffffffffffffffffffffffffffffffffffffff021916908373ffffffffffffffffffffffffffffffffffffffff16021790555060808201518160040160006101000a81548173ffffffffffffffffffffffffffffffffffffffff021916908373ffffffffffffffffffffffffffffffffffffffff16021790555060a08201518160040160146101000a81548160ff02191690831515021790555060c08201518160040160156101000a81548160ff0219169083600181111561060e5761060d610b12565b5b021790555060e08201518160050155905050887fb10191dc4989b0178e1d647facd4ff68056b96c62f54529b85affa0388201e118888888888604051610658959493929190610f50565b60405180910390a2600191505061066b565b5b979650505050505050565b6000600254905090565b8073ffffffffffffffffffffffffffffffffffffffff168273ffffffffffffffffffffffffffffffffffffffff167f5d0de243db1669e3a7056744cd715c625f0c1c348736c2c2d53d0ddebff1a6c760405160405180910390a35050565b3373ffffffffffffffffffffffffffffffffffffffff166106fd610883565b73ffffffffffffffffffffffffffffffffffffffff1614610753576040517f08c379a000000000000000000000000000000000000000000000000000000000815260040161074a90610eb5565b60405180910390fd5b600073ffffffffffffffffffffffffffffffffffffffff168173ffffffffffffffffffffffffffffffffffffffff1614156107c3576040517f08c379a00000000000000000000000000000000000000000000000000000000081526004016107ba90610fef565b60405180910390fd5b8073ffffffffffffffffffffffffffffffffffffffff16600160009054906101000a900473ffffffffffffffffffffffffffffffffffffffff1673ffffffffffffffffffffffffffffffffffffffff167fb7e344c73fa15a4ba021f4725be492b8e431b2f8006fc56075aec11d806e6f0e60405160405180910390a380600160006101000a81548173ffffffffffffffffffffffffffffffffffffffff021916908373ffffffffffffffffffffffffffffffffffffffff16021790555050565b6000600160009054906101000a900473ffffffffffffffffffffffffffffffffffffffff16905090565b60006003600083815260200190815260200160002060008082016000905560018201600090556002820160006101000a81549073ffffffffffffffffffffffffffffffffffffffff02191690556003820160006101000a81549073ffffffffffffffffffffffffffffffffffffffff02191690556004820160006101000a81549073ffffffffffffffffffffffffffffffffffffffff02191690556004820160146101000a81549060ff02191690556004820160156101000a81549060ff02191690556005820160009055505060019050919050565b6040518061010001604052806000815260200160008152602001600073ffffffffffffffffffffffffffffffffffffffff168152602001600073ffffffffffffffffffffffffffffffffffffffff168152602001600073ffffffffffffffffffffffffffffffffffffffff16815260200160001515815260200160006001811115610a1157610a10610b12565b5b8152602001600081525090565b600080fd5b6000819050919050565b610a3681610a23565b8114610a4157600080fd5b50565b600081359050610a5381610a2d565b92915050565b600060208284031215610a6f57610a6e610a1e565b5b6000610a7d84828501610a44565b91505092915050565b610a8f81610a23565b82525050565b600073ffffffffffffffffffffffffffffffffffffffff82169050919050565b6000610ac082610a95565b9050919050565b610ad081610ab5565b82525050565b6000610ae182610a95565b9050919050565b610af181610ad6565b82525050565b60008115159050919050565b610b0c81610af7565b82525050565b7f4e487b7100000000000000000000000000000000000000000000000000000000600052602160045260246000fd5b60028110610b5257610b51610b12565b5b50565b6000819050610b6382610b41565b919050565b6000610b7382610b55565b9050919050565b610b8381610b68565b82525050565b61010082016000820151610ba06000850182610a86565b506020820151610bb36020850182610a86565b506040820151610bc66040850182610ac7565b506060820151610bd96060850182610ae8565b506080820151610bec6080850182610ae8565b5060a0820151610bff60a0850182610b03565b5060c0820151610c1260c0850182610b7a565b5060e0820151610c2560e0850182610a86565b50505050565b600061010082019050610c416000830184610b89565b92915050565b610c5081610ab5565b8114610c5b57600080fd5b50565b600081359050610c6d81610c47565b92915050565b610c7c81610ad6565b8114610c8757600080fd5b50565b600081359050610c9981610c73565b92915050565b610ca881610af7565b8114610cb357600080fd5b50565b600081359050610cc581610c9f565b92915050565b600080600080600080600060e0888a031215610cea57610ce9610a1e565b5b6000610cf88a828b01610a44565b9750506020610d098a828b01610a44565b9650506040610d1a8a828b01610c5e565b9550506060610d2b8a828b01610c8a565b9450506080610d3c8a828b01610c8a565b93505060a0610d4d8a828b01610cb6565b92505060c0610d5e8a828b01610a44565b91505092959891949750929550565b610d7681610af7565b82525050565b6000602082019050610d916000830184610d6d565b92915050565b610da081610a23565b82525050565b6000602082019050610dbb6000830184610d97565b92915050565b60008060408385031215610dd857610dd7610a1e565b5b6000610de685828601610c5e565b9250506020610df785828601610c5e565b9150509250929050565b600060208284031215610e1757610e16610a1e565b5b6000610e2584828501610c5e565b91505092915050565b610e3781610ab5565b82525050565b6000602082019050610e526000830184610e2e565b92915050565b600082825260208201905092915050565b7f43616c6c6572206973206e6f7420746865206f776e6572000000000000000000600082015250565b6000610e9f601783610e58565b9150610eaa82610e69565b602082019050919050565b60006020820190508181036000830152610ece81610e92565b9050919050565b7f4974656d20697320616c7265616479206c697374656400000000000000000000600082015250565b6000610f0b601683610e58565b9150610f1682610ed5565b602082019050919050565b60006020820190508181036000830152610f3a81610efe565b9050919050565b610f4a81610ad6565b82525050565b600060a082019050610f656000830188610e2e565b610f726020830187610f41565b610f7f6040830186610f41565b610f8c6060830185610d6d565b610f996080830184610d97565b9695505050505050565b7f4e6577206f776e65722061646472657373205a65726f20616464726573730000600082015250565b6000610fd9601e83610e58565b9150610fe482610fa3565b602082019050919050565b6000602082019050818103600083015261100881610fcc565b905091905056fea26469706673582212207542c6b5f2cc0f73c3d445576395dd31e6b0614fdb27c2a47f92037d80d13d5364736f6c634300080b0033",
  "linkReferences": {},
  "deployedLinkReferences": {}
}