{
  "_format": "hh-sol-artifact-1",
  "contractName": "NFTMarket",
  "sourceName": "contracts/market/NFTMarket.sol",
  "abi": [
    {
      "inputs": [
        {
          "internalType": "uint256",
          "name": "marketFee",
          "type": "uint256"
        }
      ],
      "stateMutability": "nonpayable",
      "type": "constructor"
    },
    {
      "anonymous": false,
      "inputs": [
        {
          "indexed": false,
          "internalType": "string",
          "name": "name",
          "type": "string"
        },
        {
          "indexed": false,
          "internalType": "string",
          "name": "symbol",
          "type": "string"
        },
        {
          "indexed": false,
          "internalType": "address",
          "name": "collectionAddress",
          "type": "address"
        },
        {
          "indexed": true,
          "internalType": "address",
          "name": "ownerOf",
          "type": "address"
        }
      ],
      "name": "CollectionCreated",
      "type": "event"
    },
    {
      "anonymous": false,
      "inputs": [
        {
          "indexed": true,
          "internalType": "uint256",
          "name": "tokenId",
          "type": "uint256"
        },
        {
          "indexed": true,
          "internalType": "address",
          "name": "collectionAddress",
          "type": "address"
        },
        {
          "indexed": false,
          "internalType": "address payable",
          "name": "creator",
          "type": "address"
        },
        {
          "indexed": false,
          "internalType": "address payable",
          "name": "owner",
          "type": "address"
        },
        {
          "indexed": false,
          "internalType": "bool",
          "name": "isErc721",
          "type": "bool"
        },
        {
          "indexed": false,
          "internalType": "uint256",
          "name": "price",
          "type": "uint256"
        }
      ],
      "name": "buyItem",
      "type": "event"
    },
    {
      "anonymous": false,
      "inputs": [
        {
          "indexed": true,
          "internalType": "uint256",
          "name": "listingId",
          "type": "uint256"
        },
        {
          "indexed": false,
          "internalType": "address",
          "name": "collectionAddress",
          "type": "address"
        },
        {
          "indexed": false,
          "internalType": "address payable",
          "name": "creator",
          "type": "address"
        },
        {
          "indexed": false,
          "internalType": "address payable",
          "name": "owner",
          "type": "address"
        },
        {
          "indexed": false,
          "internalType": "uint256",
          "name": "price",
          "type": "uint256"
        }
      ],
      "name": "listed",
      "type": "event"
    },
    {
      "anonymous": false,
      "inputs": [
        {
          "indexed": true,
          "internalType": "address",
          "name": "oldOwner",
          "type": "address"
        },
        {
          "indexed": true,
          "internalType": "address",
          "name": "newOwner",
          "type": "address"
        }
      ],
      "name": "ownerShipTransfer",
      "type": "event"
    },
    {
      "inputs": [
        {
          "internalType": "address",
          "name": "collectionAddress",
          "type": "address"
        },
        {
          "internalType": "uint256",
          "name": "listingId_",
          "type": "uint256"
        },
        {
          "internalType": "uint256",
          "name": "price_",
          "type": "uint256"
        },
        {
          "internalType": "address",
          "name": "tokenAddress",
          "type": "address"
        }
      ],
      "name": "buyListingItem",
      "outputs": [
        {
          "internalType": "bool",
          "name": "",
          "type": "bool"
        }
      ],
      "stateMutability": "nonpayable",
      "type": "function"
    },
    {
      "inputs": [
        {
          "internalType": "string",
          "name": "name",
          "type": "string"
        },
        {
          "internalType": "string",
          "name": "symbol",
          "type": "string"
        },
        {
          "internalType": "address",
          "name": "collectionAddress",
          "type": "address"
        },
        {
          "internalType": "address",
          "name": "ownerOf",
          "type": "address"
        }
      ],
      "name": "createCollectionNotification",
      "outputs": [],
      "stateMutability": "nonpayable",
      "type": "function"
    },
    {
      "inputs": [
        {
          "internalType": "uint256",
          "name": "tokenId",
          "type": "uint256"
        },
        {
          "internalType": "address",
          "name": "collectionAddress",
          "type": "address"
        },
        {
          "internalType": "uint256",
          "name": "price",
          "type": "uint256"
        }
      ],
      "name": "createListing",
      "outputs": [
        {
          "internalType": "bool",
          "name": "success",
          "type": "bool"
        }
      ],
      "stateMutability": "nonpayable",
      "type": "function"
    },
    {
      "inputs": [
        {
          "internalType": "uint256",
          "name": "listingId",
          "type": "uint256"
        }
      ],
      "name": "getListing",
      "outputs": [
        {
          "components": [
            {
              "internalType": "uint256",
              "name": "listingId",
              "type": "uint256"
            },
            {
              "internalType": "uint256",
              "name": "tokenId",
              "type": "uint256"
            },
            {
              "internalType": "address",
              "name": "collectionAddress",
              "type": "address"
            },
            {
              "internalType": "address payable",
              "name": "creator",
              "type": "address"
            },
            {
              "internalType": "address payable",
              "name": "owner",
              "type": "address"
            },
            {
              "internalType": "enum NFTMarket.State",
              "name": "state",
              "type": "uint8"
            },
            {
              "internalType": "uint256",
              "name": "price",
              "type": "uint256"
            }
          ],
          "internalType": "struct NFTMarket.Listing",
          "name": "",
          "type": "tuple"
        }
      ],
      "stateMutability": "view",
      "type": "function"
    },
    {
      "inputs": [],
      "name": "getMarketFee",
      "outputs": [
        {
          "internalType": "uint256",
          "name": "",
          "type": "uint256"
        }
      ],
      "stateMutability": "view",
      "type": "function"
    },
    {
      "inputs": [],
      "name": "getOwner",
      "outputs": [
        {
          "internalType": "address",
          "name": "",
          "type": "address"
        }
      ],
      "stateMutability": "view",
      "type": "function"
    },
    {
      "inputs": [
        {
          "internalType": "uint256",
          "name": "marketFee",
          "type": "uint256"
        }
      ],
      "name": "setMarketFee",
      "outputs": [],
      "stateMutability": "nonpayable",
      "type": "function"
    },
    {
      "inputs": [
        {
          "internalType": "address",
          "name": "newOwner",
          "type": "address"
        }
      ],
      "name": "transferOwnerShip",
      "outputs": [],
      "stateMutability": "nonpayable",
      "type": "function"
    }
  ],
  "bytecode": "0x60806040523480156200001157600080fd5b5060405162001bbd38038062001bbd833981810160405281019062000037919062000129565b600160008190555033600160006101000a81548173ffffffffffffffffffffffffffffffffffffffff021916908373ffffffffffffffffffffffffffffffffffffffff1602179055503373ffffffffffffffffffffffffffffffffffffffff16600073ffffffffffffffffffffffffffffffffffffffff167fb7e344c73fa15a4ba021f4725be492b8e431b2f8006fc56075aec11d806e6f0e60405160405180910390a380600381905550506200015b565b600080fd5b6000819050919050565b6200010381620000ee565b81146200010f57600080fd5b50565b6000815190506200012381620000f8565b92915050565b600060208284031215620001425762000141620000e9565b5b6000620001528482850162000112565b91505092915050565b611a52806200016b6000396000f3fe608060405234801561001057600080fd5b50600436106100885760003560e01c80637e8020251161005b5780637e802025146101275780638863dd1a14610143578063893d20e81461015f578063cf7a52da1461017d57610088565b8063107a274a1461008d57806326b825d2146100bd5780635e123add146100d957806365c11bf0146100f7575b600080fd5b6100a760048036038101906100a29190611039565b6101ad565b6040516100b491906111dc565b60405180910390f35b6100d760048036038101906100d29190611039565b610335565b005b6100e16103b4565b6040516100ee9190611206565b60405180910390f35b610111600480360381019061010c919061124d565b6103be565b60405161011e91906112bb565b60405180910390f35b610141600480360381019061013c919061141c565b61079c565b005b61015d600480360381019061015891906114bb565b6107f4565b005b610167610999565b60405161017491906114f7565b60405180910390f35b61019760048036038101906101929190611512565b6109c3565b6040516101a491906112bb565b60405180910390f35b6101b5610f5e565b600460008381526020019081526020016000206040518060e001604052908160008201548152602001600182015481526020016002820160009054906101000a900473ffffffffffffffffffffffffffffffffffffffff1673ffffffffffffffffffffffffffffffffffffffff1673ffffffffffffffffffffffffffffffffffffffff1681526020016003820160009054906101000a900473ffffffffffffffffffffffffffffffffffffffff1673ffffffffffffffffffffffffffffffffffffffff1673ffffffffffffffffffffffffffffffffffffffff1681526020016004820160009054906101000a900473ffffffffffffffffffffffffffffffffffffffff1673ffffffffffffffffffffffffffffffffffffffff1673ffffffffffffffffffffffffffffffffffffffff1681526020016004820160149054906101000a900460ff16600181111561030e5761030d6110d7565b5b60018111156103205761031f6110d7565b5b81526020016005820154815250509050919050565b3373ffffffffffffffffffffffffffffffffffffffff16610354610999565b73ffffffffffffffffffffffffffffffffffffffff16146103aa576040517f08c379a00000000000000000000000000000000000000000000000000000000081526004016103a1906115d6565b60405180910390fd5b8060038190555050565b6000600354905090565b60006103ca6002610e70565b60006103d66002610e86565b90508060046000838152602001908152602001600020600001541415610431576040517f08c379a000000000000000000000000000000000000000000000000000000000815260040161042890611642565b60405180910390fd5b60008473ffffffffffffffffffffffffffffffffffffffff16636352211e876040518263ffffffff1660e01b815260040161046c9190611206565b602060405180830381865afa158015610489573d6000803e3d6000fd5b505050506040513d601f19601f820116820180604052508101906104ad9190611677565b90503373ffffffffffffffffffffffffffffffffffffffff168173ffffffffffffffffffffffffffffffffffffffff161461051d576040517f08c379a000000000000000000000000000000000000000000000000000000000815260040161051490611716565b60405180910390fd5b8473ffffffffffffffffffffffffffffffffffffffff1663095ea7b330886040518363ffffffff1660e01b8152600401610558929190611736565b600060405180830381600087803b15801561057257600080fd5b505af1158015610586573d6000803e3d6000fd5b5050505060006040518060e001604052808481526020018881526020018773ffffffffffffffffffffffffffffffffffffffff1681526020018373ffffffffffffffffffffffffffffffffffffffff1681526020018373ffffffffffffffffffffffffffffffffffffffff1681526020016000600181111561060b5761060a6110d7565b5b81526020018681525090508060046000858152602001908152602001600020600082015181600001556020820151816001015560408201518160020160006101000a81548173ffffffffffffffffffffffffffffffffffffffff021916908373ffffffffffffffffffffffffffffffffffffffff16021790555060608201518160030160006101000a81548173ffffffffffffffffffffffffffffffffffffffff021916908373ffffffffffffffffffffffffffffffffffffffff16021790555060808201518160040160006101000a81548173ffffffffffffffffffffffffffffffffffffffff021916908373ffffffffffffffffffffffffffffffffffffffff16021790555060a08201518160040160146101000a81548160ff0219169083600181111561073e5761073d6110d7565b5b021790555060c08201518160050155905050827f68e36db0f91df01403c2ac72a84b6583b0c6e93ebb619c7c1399311f12ff455987848589604051610786949392919061176e565b60405180910390a2600193505050509392505050565b8073ffffffffffffffffffffffffffffffffffffffff167fb39b6b10f6d49d6ba85a1ceebaa7c6684718aa39146f4ddfbccaf8899e76386a8585856040516107e69392919061182a565b60405180910390a250505050565b3373ffffffffffffffffffffffffffffffffffffffff16610813610999565b73ffffffffffffffffffffffffffffffffffffffff1614610869576040517f08c379a0000000000000000000000000000000000000000000000000000000008152600401610860906115d6565b60405180910390fd5b600073ffffffffffffffffffffffffffffffffffffffff168173ffffffffffffffffffffffffffffffffffffffff1614156108d9576040517f08c379a00000000000000000000000000000000000000000000000000000000081526004016108d0906118bb565b60405180910390fd5b8073ffffffffffffffffffffffffffffffffffffffff16600160009054906101000a900473ffffffffffffffffffffffffffffffffffffffff1673ffffffffffffffffffffffffffffffffffffffff167fb7e344c73fa15a4ba021f4725be492b8e431b2f8006fc56075aec11d806e6f0e60405160405180910390a380600160006101000a81548173ffffffffffffffffffffffffffffffffffffffff021916908373ffffffffffffffffffffffffffffffffffffffff16021790555050565b6000600160009054906101000a900473ffffffffffffffffffffffffffffffffffffffff16905090565b600080600460008681526020019081526020016000206040518060e001604052908160008201548152602001600182015481526020016002820160009054906101000a900473ffffffffffffffffffffffffffffffffffffffff1673ffffffffffffffffffffffffffffffffffffffff1673ffffffffffffffffffffffffffffffffffffffff1681526020016003820160009054906101000a900473ffffffffffffffffffffffffffffffffffffffff1673ffffffffffffffffffffffffffffffffffffffff1673ffffffffffffffffffffffffffffffffffffffff1681526020016004820160009054906101000a900473ffffffffffffffffffffffffffffffffffffffff1673ffffffffffffffffffffffffffffffffffffffff1673ffffffffffffffffffffffffffffffffffffffff1681526020016004820160149054906101000a900460ff166001811115610b1f57610b1e6110d7565b5b6001811115610b3157610b306110d7565b5b8152602001600582015481525050905060008160c00151905080851015610b8d576040517f08c379a0000000000000000000000000000000000000000000000000000000008152600401610b8490611927565b60405180910390fd5b60008260000151905060008360200151905060008973ffffffffffffffffffffffffffffffffffffffff16636352211e836040518263ffffffff1660e01b8152600401610bda9190611206565b602060405180830381865afa158015610bf7573d6000803e3d6000fd5b505050506040513d601f19601f82011682018060405250810190610c1b9190611677565b90506000856060015190508773ffffffffffffffffffffffffffffffffffffffff1663a9059cbb83876040518363ffffffff1660e01b8152600401610c61929190611736565b6020604051808303816000875af1158015610c80573d6000803e3d6000fd5b505050506040513d601f19601f82011682018060405250810190610ca49190611973565b508a73ffffffffffffffffffffffffffffffffffffffff166323b872dd8330866040518463ffffffff1660e01b8152600401610ce2939291906119a0565b600060405180830381600087803b158015610cfc57600080fd5b505af1158015610d10573d6000803e3d6000fd5b505050508a73ffffffffffffffffffffffffffffffffffffffff1663095ea7b3610d38610e94565b856040518363ffffffff1660e01b8152600401610d56929190611736565b600060405180830381600087803b158015610d7057600080fd5b505af1158015610d84573d6000803e3d6000fd5b505050508a73ffffffffffffffffffffffffffffffffffffffff166342842e0e30610dad610e94565b866040518463ffffffff1660e01b8152600401610dcc939291906119a0565b600060405180830381600087803b158015610de657600080fd5b505af1158015610dfa573d6000803e3d6000fd5b505050508a73ffffffffffffffffffffffffffffffffffffffff16837fbbad5c04ecce380bc2ea4713cb35c979b348b7367467f36f8685b2bb9e797feb838560018a604051610e4c94939291906119d7565b60405180910390a3610e5d84610e9c565b5060019650505050505050949350505050565b6001816000016000828254019250508190555050565b600081600001549050919050565b600033905090565b60006004600083815260200190815260200160002060008082016000905560018201600090556002820160006101000a81549073ffffffffffffffffffffffffffffffffffffffff02191690556003820160006101000a81549073ffffffffffffffffffffffffffffffffffffffff02191690556004820160006101000a81549073ffffffffffffffffffffffffffffffffffffffff02191690556004820160146101000a81549060ff02191690556005820160009055505060019050919050565b6040518060e001604052806000815260200160008152602001600073ffffffffffffffffffffffffffffffffffffffff168152602001600073ffffffffffffffffffffffffffffffffffffffff168152602001600073ffffffffffffffffffffffffffffffffffffffff16815260200160006001811115610fe257610fe16110d7565b5b8152602001600081525090565b6000604051905090565b600080fd5b600080fd5b6000819050919050565b61101681611003565b811461102157600080fd5b50565b6000813590506110338161100d565b92915050565b60006020828403121561104f5761104e610ff9565b5b600061105d84828501611024565b91505092915050565b61106f81611003565b82525050565b600073ffffffffffffffffffffffffffffffffffffffff82169050919050565b60006110a082611075565b9050919050565b6110b081611095565b82525050565b60006110c182611075565b9050919050565b6110d1816110b6565b82525050565b7f4e487b7100000000000000000000000000000000000000000000000000000000600052602160045260246000fd5b60028110611117576111166110d7565b5b50565b600081905061112882611106565b919050565b60006111388261111a565b9050919050565b6111488161112d565b82525050565b60e0820160008201516111646000850182611066565b5060208201516111776020850182611066565b50604082015161118a60408501826110a7565b50606082015161119d60608501826110c8565b5060808201516111b060808501826110c8565b5060a08201516111c360a085018261113f565b5060c08201516111d660c0850182611066565b50505050565b600060e0820190506111f1600083018461114e565b92915050565b61120081611003565b82525050565b600060208201905061121b60008301846111f7565b92915050565b61122a81611095565b811461123557600080fd5b50565b60008135905061124781611221565b92915050565b60008060006060848603121561126657611265610ff9565b5b600061127486828701611024565b935050602061128586828701611238565b925050604061129686828701611024565b9150509250925092565b60008115159050919050565b6112b5816112a0565b82525050565b60006020820190506112d060008301846112ac565b92915050565b600080fd5b600080fd5b6000601f19601f8301169050919050565b7f4e487b7100000000000000000000000000000000000000000000000000000000600052604160045260246000fd5b611329826112e0565b810181811067ffffffffffffffff82111715611348576113476112f1565b5b80604052505050565b600061135b610fef565b90506113678282611320565b919050565b600067ffffffffffffffff821115611387576113866112f1565b5b611390826112e0565b9050602081019050919050565b82818337600083830152505050565b60006113bf6113ba8461136c565b611351565b9050828152602081018484840111156113db576113da6112db565b5b6113e684828561139d565b509392505050565b600082601f830112611403576114026112d6565b5b81356114138482602086016113ac565b91505092915050565b6000806000806080858703121561143657611435610ff9565b5b600085013567ffffffffffffffff81111561145457611453610ffe565b5b611460878288016113ee565b945050602085013567ffffffffffffffff81111561148157611480610ffe565b5b61148d878288016113ee565b935050604061149e87828801611238565b92505060606114af87828801611238565b91505092959194509250565b6000602082840312156114d1576114d0610ff9565b5b60006114df84828501611238565b91505092915050565b6114f181611095565b82525050565b600060208201905061150c60008301846114e8565b92915050565b6000806000806080858703121561152c5761152b610ff9565b5b600061153a87828801611238565b945050602061154b87828801611024565b935050604061155c87828801611024565b925050606061156d87828801611238565b91505092959194509250565b600082825260208201905092915050565b7f43616c6c6572206973206e6f7420746865206f776e6572000000000000000000600082015250565b60006115c0601783611579565b91506115cb8261158a565b602082019050919050565b600060208201905081810360008301526115ef816115b3565b9050919050565b7f4974656d20697320616c7265616479206c697374656400000000000000000000600082015250565b600061162c601683611579565b9150611637826115f6565b602082019050919050565b6000602082019050818103600083015261165b8161161f565b9050919050565b60008151905061167181611221565b92915050565b60006020828403121561168d5761168c610ff9565b5b600061169b84828501611662565b91505092915050565b7f5468697320746f6b656e206e6f742062656c6f6e677320746f2074686973206160008201527f6464726573730000000000000000000000000000000000000000000000000000602082015250565b6000611700602683611579565b915061170b826116a4565b604082019050919050565b6000602082019050818103600083015261172f816116f3565b9050919050565b600060408201905061174b60008301856114e8565b61175860208301846111f7565b9392505050565b611768816110b6565b82525050565b600060808201905061178360008301876114e8565b611790602083018661175f565b61179d604083018561175f565b6117aa60608301846111f7565b95945050505050565b600081519050919050565b60005b838110156117dc5780820151818401526020810190506117c1565b838111156117eb576000848401525b50505050565b60006117fc826117b3565b6118068185611579565b93506118168185602086016117be565b61181f816112e0565b840191505092915050565b6000606082019050818103600083015261184481866117f1565b9050818103602083015261185881856117f1565b905061186760408301846114e8565b949350505050565b7f4e6577206f776e65722061646472657373205a65726f20616464726573730000600082015250565b60006118a5601e83611579565b91506118b08261186f565b602082019050919050565b600060208201905081810360008301526118d481611898565b9050919050565b7f4d61726b6574202d20496e73756666696369656e742042616c616e6365000000600082015250565b6000611911601d83611579565b915061191c826118db565b602082019050919050565b6000602082019050818103600083015261194081611904565b9050919050565b611950816112a0565b811461195b57600080fd5b50565b60008151905061196d81611947565b92915050565b60006020828403121561198957611988610ff9565b5b60006119978482850161195e565b91505092915050565b60006060820190506119b560008301866114e8565b6119c260208301856114e8565b6119cf60408301846111f7565b949350505050565b60006080820190506119ec600083018761175f565b6119f9602083018661175f565b611a0660408301856112ac565b611a1360608301846111f7565b9594505050505056fea264697066735822122004b25408cfc4385fe9347b5f58bc0763abf457774b46e5414aced6f0de85a49e64736f6c634300080b0033",
  "linkReferences": {},
  "deployedLinkReferences": {}
}