{
  "_format": "hh-sol-artifact-1",
  "contractName": "NFTMarket",
  "sourceName": "contracts/market/NFTMarket.sol",
  "abi": [
    {
      "inputs": [
        {
          "internalType": "uint256",
          "name": "marketFee",
          "type": "uint256"
        }
      ],
      "stateMutability": "nonpayable",
      "type": "constructor"
    },
    {
      "anonymous": false,
      "inputs": [
        {
          "indexed": true,
          "internalType": "address",
          "name": "owner",
          "type": "address"
        },
        {
          "indexed": true,
          "internalType": "address",
          "name": "nftContract",
          "type": "address"
        },
        {
          "indexed": false,
          "internalType": "string",
          "name": "name",
          "type": "string"
        },
        {
          "indexed": false,
          "internalType": "string",
          "name": "symbol",
          "type": "string"
        }
      ],
      "name": "CollectionCreated",
      "type": "event"
    },
    {
      "anonymous": false,
      "inputs": [
        {
          "indexed": true,
          "internalType": "uint256",
          "name": "listingId",
          "type": "uint256"
        },
        {
          "indexed": false,
          "internalType": "address",
          "name": "collectionAddress",
          "type": "address"
        },
        {
          "indexed": false,
          "internalType": "address payable",
          "name": "creator",
          "type": "address"
        },
        {
          "indexed": false,
          "internalType": "address payable",
          "name": "owner",
          "type": "address"
        },
        {
          "indexed": false,
          "internalType": "bool",
          "name": "isErc721",
          "type": "bool"
        },
        {
          "indexed": false,
          "internalType": "uint256",
          "name": "price",
          "type": "uint256"
        }
      ],
      "name": "listingCreated",
      "type": "event"
    },
    {
      "anonymous": false,
      "inputs": [
        {
          "indexed": true,
          "internalType": "address",
          "name": "oldOwner",
          "type": "address"
        },
        {
          "indexed": true,
          "internalType": "address",
          "name": "newOwner",
          "type": "address"
        }
      ],
      "name": "ownerShipTransfer",
      "type": "event"
    },
    {
      "inputs": [
        {
          "internalType": "address",
          "name": "_owner",
          "type": "address"
        },
        {
          "internalType": "address",
          "name": "_contractAddress",
          "type": "address"
        },
        {
          "internalType": "string",
          "name": "_name",
          "type": "string"
        },
        {
          "internalType": "string",
          "name": "_symbol",
          "type": "string"
        }
      ],
      "name": "contractCreated",
      "outputs": [],
      "stateMutability": "nonpayable",
      "type": "function"
    },
    {
      "inputs": [
        {
          "internalType": "uint256",
          "name": "listingId",
          "type": "uint256"
        },
        {
          "internalType": "uint256",
          "name": "tokenId",
          "type": "uint256"
        },
        {
          "internalType": "address",
          "name": "collectionAddress",
          "type": "address"
        },
        {
          "internalType": "address payable",
          "name": "creator",
          "type": "address"
        },
        {
          "internalType": "address payable",
          "name": "owner",
          "type": "address"
        },
        {
          "internalType": "bool",
          "name": "isErc721",
          "type": "bool"
        },
        {
          "internalType": "uint256",
          "name": "price",
          "type": "uint256"
        }
      ],
      "name": "createListing",
      "outputs": [
        {
          "internalType": "bool",
          "name": "success",
          "type": "bool"
        }
      ],
      "stateMutability": "nonpayable",
      "type": "function"
    },
    {
      "inputs": [
        {
          "internalType": "uint256",
          "name": "listingId",
          "type": "uint256"
        }
      ],
      "name": "deleteListingItem",
      "outputs": [
        {
          "internalType": "bool",
          "name": "",
          "type": "bool"
        }
      ],
      "stateMutability": "nonpayable",
      "type": "function"
    },
    {
      "inputs": [
        {
          "internalType": "uint256",
          "name": "listingId",
          "type": "uint256"
        }
      ],
      "name": "getListing",
      "outputs": [
        {
          "components": [
            {
              "internalType": "uint256",
              "name": "listingId",
              "type": "uint256"
            },
            {
              "internalType": "uint256",
              "name": "tokenId",
              "type": "uint256"
            },
            {
              "internalType": "address",
              "name": "collectionAddress",
              "type": "address"
            },
            {
              "internalType": "address payable",
              "name": "creator",
              "type": "address"
            },
            {
              "internalType": "address payable",
              "name": "owner",
              "type": "address"
            },
            {
              "internalType": "bool",
              "name": "isErc721",
              "type": "bool"
            },
            {
              "internalType": "enum NFTMarket.State",
              "name": "state",
              "type": "uint8"
            },
            {
              "internalType": "uint256",
              "name": "price",
              "type": "uint256"
            }
          ],
          "internalType": "struct NFTMarket.Listing",
          "name": "",
          "type": "tuple"
        }
      ],
      "stateMutability": "view",
      "type": "function"
    },
    {
      "inputs": [],
      "name": "getMarketFee",
      "outputs": [
        {
          "internalType": "uint256",
          "name": "",
          "type": "uint256"
        }
      ],
      "stateMutability": "view",
      "type": "function"
    },
    {
      "inputs": [],
      "name": "getOwner",
      "outputs": [
        {
          "internalType": "address",
          "name": "",
          "type": "address"
        }
      ],
      "stateMutability": "view",
      "type": "function"
    },
    {
      "inputs": [
        {
          "internalType": "uint256",
          "name": "marketFee",
          "type": "uint256"
        }
      ],
      "name": "setMarketFee",
      "outputs": [],
      "stateMutability": "nonpayable",
      "type": "function"
    },
    {
      "inputs": [
        {
          "internalType": "address",
          "name": "newOwner",
          "type": "address"
        }
      ],
      "name": "transferOwnerShip",
      "outputs": [],
      "stateMutability": "nonpayable",
      "type": "function"
    }
  ],
  "bytecode": "0x60806040523480156200001157600080fd5b506040516200142138038062001421833981810160405281019062000037919062000129565b600160008190555033600160006101000a81548173ffffffffffffffffffffffffffffffffffffffff021916908373ffffffffffffffffffffffffffffffffffffffff1602179055503373ffffffffffffffffffffffffffffffffffffffff16600073ffffffffffffffffffffffffffffffffffffffff167fb7e344c73fa15a4ba021f4725be492b8e431b2f8006fc56075aec11d806e6f0e60405160405180910390a380600281905550506200015b565b600080fd5b6000819050919050565b6200010381620000ee565b81146200010f57600080fd5b50565b6000815190506200012381620000f8565b92915050565b600060208284031215620001425762000141620000e9565b5b6000620001528482850162000112565b91505092915050565b6112b6806200016b6000396000f3fe608060405234801561001057600080fd5b50600436106100885760003560e01c80638863dd1a1161005b5780638863dd1a14610127578063893d20e814610143578063b5ab9dd214610161578063d2492bba1461017d57610088565b8063107a274a1461008d57806326b825d2146100bd57806359408600146100d95780635e123add14610109575b600080fd5b6100a760048036038101906100a29190610a77565b6101ad565b6040516100b49190610c49565b60405180910390f35b6100d760048036038101906100d29190610a77565b610351565b005b6100f360048036038101906100ee9190610ce9565b6103d0565b6040516101009190610d9a565b60405180910390f35b610111610676565b60405161011e9190610dc4565b60405180910390f35b610141600480360381019061013c9190610ddf565b610680565b005b61014b610825565b6040516101589190610e1b565b60405180910390f35b61017b60048036038101906101769190610f7c565b61084f565b005b61019760048036038101906101929190610a77565b6108bc565b6040516101a49190610d9a565b60405180910390f35b6101b5610992565b600360008381526020019081526020016000206040518061010001604052908160008201548152602001600182015481526020016002820160009054906101000a900473ffffffffffffffffffffffffffffffffffffffff1673ffffffffffffffffffffffffffffffffffffffff1673ffffffffffffffffffffffffffffffffffffffff1681526020016003820160009054906101000a900473ffffffffffffffffffffffffffffffffffffffff1673ffffffffffffffffffffffffffffffffffffffff1673ffffffffffffffffffffffffffffffffffffffff1681526020016004820160009054906101000a900473ffffffffffffffffffffffffffffffffffffffff1673ffffffffffffffffffffffffffffffffffffffff1673ffffffffffffffffffffffffffffffffffffffff1681526020016004820160149054906101000a900460ff161515151581526020016004820160159054906101000a900460ff16600181111561032a57610329610b30565b5b600181111561033c5761033b610b30565b5b81526020016005820154815250509050919050565b3373ffffffffffffffffffffffffffffffffffffffff16610370610825565b73ffffffffffffffffffffffffffffffffffffffff16146103c6576040517f08c379a00000000000000000000000000000000000000000000000000000000081526004016103bd90611078565b60405180910390fd5b8060028190555050565b600087600360008a815260200190815260200160002060000154141561042b576040517f08c379a0000000000000000000000000000000000000000000000000000000008152600401610422906110e4565b60405180910390fd5b821561066a5760006040518061010001604052808a81526020018981526020018873ffffffffffffffffffffffffffffffffffffffff1681526020018773ffffffffffffffffffffffffffffffffffffffff1681526020018673ffffffffffffffffffffffffffffffffffffffff1681526020018515158152602001600060018111156104bb576104ba610b30565b5b815260200184815250905080600360008b8152602001908152602001600020600082015181600001556020820151816001015560408201518160020160006101000a81548173ffffffffffffffffffffffffffffffffffffffff021916908373ffffffffffffffffffffffffffffffffffffffff16021790555060608201518160030160006101000a81548173ffffffffffffffffffffffffffffffffffffffff021916908373ffffffffffffffffffffffffffffffffffffffff16021790555060808201518160040160006101000a81548173ffffffffffffffffffffffffffffffffffffffff021916908373ffffffffffffffffffffffffffffffffffffffff16021790555060a08201518160040160146101000a81548160ff02191690831515021790555060c08201518160040160156101000a81548160ff0219169083600181111561060e5761060d610b30565b5b021790555060e08201518160050155905050887fb10191dc4989b0178e1d647facd4ff68056b96c62f54529b85affa0388201e118888888888604051610658959493929190611113565b60405180910390a2600191505061066b565b5b979650505050505050565b6000600254905090565b3373ffffffffffffffffffffffffffffffffffffffff1661069f610825565b73ffffffffffffffffffffffffffffffffffffffff16146106f5576040517f08c379a00000000000000000000000000000000000000000000000000000000081526004016106ec90611078565b60405180910390fd5b600073ffffffffffffffffffffffffffffffffffffffff168173ffffffffffffffffffffffffffffffffffffffff161415610765576040517f08c379a000000000000000000000000000000000000000000000000000000000815260040161075c906111b2565b60405180910390fd5b8073ffffffffffffffffffffffffffffffffffffffff16600160009054906101000a900473ffffffffffffffffffffffffffffffffffffffff1673ffffffffffffffffffffffffffffffffffffffff167fb7e344c73fa15a4ba021f4725be492b8e431b2f8006fc56075aec11d806e6f0e60405160405180910390a380600160006101000a81548173ffffffffffffffffffffffffffffffffffffffff021916908373ffffffffffffffffffffffffffffffffffffffff16021790555050565b6000600160009054906101000a900473ffffffffffffffffffffffffffffffffffffffff16905090565b8273ffffffffffffffffffffffffffffffffffffffff168473ffffffffffffffffffffffffffffffffffffffff167f5fead977881b23a0dbf2f905699203f29cefea57a576d2d4f412523191258e8484846040516108ae929190611249565b60405180910390a350505050565b60006003600083815260200190815260200160002060008082016000905560018201600090556002820160006101000a81549073ffffffffffffffffffffffffffffffffffffffff02191690556003820160006101000a81549073ffffffffffffffffffffffffffffffffffffffff02191690556004820160006101000a81549073ffffffffffffffffffffffffffffffffffffffff02191690556004820160146101000a81549060ff02191690556004820160156101000a81549060ff02191690556005820160009055505060019050919050565b6040518061010001604052806000815260200160008152602001600073ffffffffffffffffffffffffffffffffffffffff168152602001600073ffffffffffffffffffffffffffffffffffffffff168152602001600073ffffffffffffffffffffffffffffffffffffffff16815260200160001515815260200160006001811115610a2057610a1f610b30565b5b8152602001600081525090565b6000604051905090565b600080fd5b600080fd5b6000819050919050565b610a5481610a41565b8114610a5f57600080fd5b50565b600081359050610a7181610a4b565b92915050565b600060208284031215610a8d57610a8c610a37565b5b6000610a9b84828501610a62565b91505092915050565b610aad81610a41565b82525050565b600073ffffffffffffffffffffffffffffffffffffffff82169050919050565b6000610ade82610ab3565b9050919050565b610aee81610ad3565b82525050565b6000610aff82610ab3565b9050919050565b610b0f81610af4565b82525050565b60008115159050919050565b610b2a81610b15565b82525050565b7f4e487b7100000000000000000000000000000000000000000000000000000000600052602160045260246000fd5b60028110610b7057610b6f610b30565b5b50565b6000819050610b8182610b5f565b919050565b6000610b9182610b73565b9050919050565b610ba181610b86565b82525050565b61010082016000820151610bbe6000850182610aa4565b506020820151610bd16020850182610aa4565b506040820151610be46040850182610ae5565b506060820151610bf76060850182610b06565b506080820151610c0a6080850182610b06565b5060a0820151610c1d60a0850182610b21565b5060c0820151610c3060c0850182610b98565b5060e0820151610c4360e0850182610aa4565b50505050565b600061010082019050610c5f6000830184610ba7565b92915050565b610c6e81610ad3565b8114610c7957600080fd5b50565b600081359050610c8b81610c65565b92915050565b610c9a81610af4565b8114610ca557600080fd5b50565b600081359050610cb781610c91565b92915050565b610cc681610b15565b8114610cd157600080fd5b50565b600081359050610ce381610cbd565b92915050565b600080600080600080600060e0888a031215610d0857610d07610a37565b5b6000610d168a828b01610a62565b9750506020610d278a828b01610a62565b9650506040610d388a828b01610c7c565b9550506060610d498a828b01610ca8565b9450506080610d5a8a828b01610ca8565b93505060a0610d6b8a828b01610cd4565b92505060c0610d7c8a828b01610a62565b91505092959891949750929550565b610d9481610b15565b82525050565b6000602082019050610daf6000830184610d8b565b92915050565b610dbe81610a41565b82525050565b6000602082019050610dd96000830184610db5565b92915050565b600060208284031215610df557610df4610a37565b5b6000610e0384828501610c7c565b91505092915050565b610e1581610ad3565b82525050565b6000602082019050610e306000830184610e0c565b92915050565b600080fd5b600080fd5b6000601f19601f8301169050919050565b7f4e487b7100000000000000000000000000000000000000000000000000000000600052604160045260246000fd5b610e8982610e40565b810181811067ffffffffffffffff82111715610ea857610ea7610e51565b5b80604052505050565b6000610ebb610a2d565b9050610ec78282610e80565b919050565b600067ffffffffffffffff821115610ee757610ee6610e51565b5b610ef082610e40565b9050602081019050919050565b82818337600083830152505050565b6000610f1f610f1a84610ecc565b610eb1565b905082815260208101848484011115610f3b57610f3a610e3b565b5b610f46848285610efd565b509392505050565b600082601f830112610f6357610f62610e36565b5b8135610f73848260208601610f0c565b91505092915050565b60008060008060808587031215610f9657610f95610a37565b5b6000610fa487828801610c7c565b9450506020610fb587828801610c7c565b935050604085013567ffffffffffffffff811115610fd657610fd5610a3c565b5b610fe287828801610f4e565b925050606085013567ffffffffffffffff81111561100357611002610a3c565b5b61100f87828801610f4e565b91505092959194509250565b600082825260208201905092915050565b7f43616c6c6572206973206e6f7420746865206f776e6572000000000000000000600082015250565b600061106260178361101b565b915061106d8261102c565b602082019050919050565b6000602082019050818103600083015261109181611055565b9050919050565b7f4974656d20697320616c7265616479206c697374656400000000000000000000600082015250565b60006110ce60168361101b565b91506110d982611098565b602082019050919050565b600060208201905081810360008301526110fd816110c1565b9050919050565b61110d81610af4565b82525050565b600060a0820190506111286000830188610e0c565b6111356020830187611104565b6111426040830186611104565b61114f6060830185610d8b565b61115c6080830184610db5565b9695505050505050565b7f4e6577206f776e65722061646472657373205a65726f20616464726573730000600082015250565b600061119c601e8361101b565b91506111a782611166565b602082019050919050565b600060208201905081810360008301526111cb8161118f565b9050919050565b600081519050919050565b60005b838110156111fb5780820151818401526020810190506111e0565b8381111561120a576000848401525b50505050565b600061121b826111d2565b611225818561101b565b93506112358185602086016111dd565b61123e81610e40565b840191505092915050565b600060408201905081810360008301526112638185611210565b905081810360208301526112778184611210565b9050939250505056fea26469706673582212207758a4975236b303397a4d1be35753ef5fd0cc4204167b193ea217b2e128a2a964736f6c634300080b0033",
  "linkReferences": {},
  "deployedLinkReferences": {}
}