{
  "_format": "hh-sol-artifact-1",
  "contractName": "Collection",
  "sourceName": "contracts/market/Collection.sol",
  "abi": [
    {
      "inputs": [
        {
          "internalType": "string",
          "name": "name",
          "type": "string"
        },
        {
          "internalType": "string",
          "name": "symble",
          "type": "string"
        }
      ],
      "stateMutability": "nonpayable",
      "type": "constructor"
    },
    {
      "anonymous": false,
      "inputs": [
        {
          "indexed": true,
          "internalType": "address",
          "name": "owner",
          "type": "address"
        },
        {
          "indexed": true,
          "internalType": "address",
          "name": "approved",
          "type": "address"
        },
        {
          "indexed": true,
          "internalType": "uint256",
          "name": "tokenId",
          "type": "uint256"
        }
      ],
      "name": "Approval",
      "type": "event"
    },
    {
      "anonymous": false,
      "inputs": [
        {
          "indexed": true,
          "internalType": "address",
          "name": "owner",
          "type": "address"
        },
        {
          "indexed": true,
          "internalType": "address",
          "name": "operator",
          "type": "address"
        },
        {
          "indexed": false,
          "internalType": "bool",
          "name": "approved",
          "type": "bool"
        }
      ],
      "name": "ApprovalForAll",
      "type": "event"
    },
    {
      "anonymous": false,
      "inputs": [
        {
          "indexed": true,
          "internalType": "address",
          "name": "from",
          "type": "address"
        },
        {
          "indexed": true,
          "internalType": "address",
          "name": "to",
          "type": "address"
        },
        {
          "indexed": true,
          "internalType": "uint256",
          "name": "tokenId",
          "type": "uint256"
        }
      ],
      "name": "Transfer",
      "type": "event"
    },
    {
      "inputs": [
        {
          "internalType": "address",
          "name": "to",
          "type": "address"
        },
        {
          "internalType": "uint256",
          "name": "tokenId",
          "type": "uint256"
        }
      ],
      "name": "approve",
      "outputs": [],
      "stateMutability": "nonpayable",
      "type": "function"
    },
    {
      "inputs": [
        {
          "internalType": "address",
          "name": "owner",
          "type": "address"
        }
      ],
      "name": "balanceOf",
      "outputs": [
        {
          "internalType": "uint256",
          "name": "",
          "type": "uint256"
        }
      ],
      "stateMutability": "view",
      "type": "function"
    },
    {
      "inputs": [
        {
          "internalType": "string",
          "name": "tokenURI_",
          "type": "string"
        }
      ],
      "name": "createToken",
      "outputs": [
        {
          "internalType": "uint256",
          "name": "",
          "type": "uint256"
        }
      ],
      "stateMutability": "payable",
      "type": "function"
    },
    {
      "inputs": [
        {
          "internalType": "uint256",
          "name": "tokenId",
          "type": "uint256"
        }
      ],
      "name": "creatorOf",
      "outputs": [
        {
          "internalType": "address",
          "name": "",
          "type": "address"
        }
      ],
      "stateMutability": "view",
      "type": "function"
    },
    {
      "inputs": [
        {
          "internalType": "uint256",
          "name": "tokenId",
          "type": "uint256"
        }
      ],
      "name": "getApproved",
      "outputs": [
        {
          "internalType": "address",
          "name": "",
          "type": "address"
        }
      ],
      "stateMutability": "view",
      "type": "function"
    },
    {
      "inputs": [
        {
          "internalType": "address",
          "name": "owner",
          "type": "address"
        },
        {
          "internalType": "address",
          "name": "operator",
          "type": "address"
        }
      ],
      "name": "isApprovedForAll",
      "outputs": [
        {
          "internalType": "bool",
          "name": "",
          "type": "bool"
        }
      ],
      "stateMutability": "view",
      "type": "function"
    },
    {
      "inputs": [],
      "name": "name",
      "outputs": [
        {
          "internalType": "string",
          "name": "",
          "type": "string"
        }
      ],
      "stateMutability": "view",
      "type": "function"
    },
    {
      "inputs": [
        {
          "internalType": "uint256",
          "name": "tokenId",
          "type": "uint256"
        }
      ],
      "name": "ownerOf",
      "outputs": [
        {
          "internalType": "address",
          "name": "",
          "type": "address"
        }
      ],
      "stateMutability": "view",
      "type": "function"
    },
    {
      "inputs": [
        {
          "internalType": "address",
          "name": "from",
          "type": "address"
        },
        {
          "internalType": "address",
          "name": "to",
          "type": "address"
        },
        {
          "internalType": "uint256",
          "name": "tokenId",
          "type": "uint256"
        }
      ],
      "name": "safeTransferFrom",
      "outputs": [],
      "stateMutability": "nonpayable",
      "type": "function"
    },
    {
      "inputs": [
        {
          "internalType": "address",
          "name": "from",
          "type": "address"
        },
        {
          "internalType": "address",
          "name": "to",
          "type": "address"
        },
        {
          "internalType": "uint256",
          "name": "tokenId",
          "type": "uint256"
        },
        {
          "internalType": "bytes",
          "name": "_data",
          "type": "bytes"
        }
      ],
      "name": "safeTransferFrom",
      "outputs": [],
      "stateMutability": "nonpayable",
      "type": "function"
    },
    {
      "inputs": [
        {
          "internalType": "address",
          "name": "operator",
          "type": "address"
        },
        {
          "internalType": "bool",
          "name": "approved",
          "type": "bool"
        }
      ],
      "name": "setApprovalForAll",
      "outputs": [],
      "stateMutability": "nonpayable",
      "type": "function"
    },
    {
      "inputs": [
        {
          "internalType": "bytes4",
          "name": "interfaceId",
          "type": "bytes4"
        }
      ],
      "name": "supportsInterface",
      "outputs": [
        {
          "internalType": "bool",
          "name": "",
          "type": "bool"
        }
      ],
      "stateMutability": "view",
      "type": "function"
    },
    {
      "inputs": [],
      "name": "symbol",
      "outputs": [
        {
          "internalType": "string",
          "name": "",
          "type": "string"
        }
      ],
      "stateMutability": "view",
      "type": "function"
    },
    {
      "inputs": [
        {
          "internalType": "uint256",
          "name": "tokenId",
          "type": "uint256"
        }
      ],
      "name": "tokenURI",
      "outputs": [
        {
          "internalType": "string",
          "name": "",
          "type": "string"
        }
      ],
      "stateMutability": "view",
      "type": "function"
    },
    {
      "inputs": [
        {
          "internalType": "address",
          "name": "from",
          "type": "address"
        },
        {
          "internalType": "address",
          "name": "to",
          "type": "address"
        },
        {
          "internalType": "uint256",
          "name": "tokenId",
          "type": "uint256"
        }
      ],
      "name": "transferFrom",
      "outputs": [],
      "stateMutability": "nonpayable",
      "type": "function"
    }
  ],
  "bytecode": "0x60806040523480156200001157600080fd5b506040516200330438038062003304833981810160405281019062000037919062000303565b8181816000908051906020019062000051929190620000b6565b5080600190805190602001906200006a929190620000b6565b50505033600960006101000a81548173ffffffffffffffffffffffffffffffffffffffff021916908373ffffffffffffffffffffffffffffffffffffffff1602179055505050620003ed565b828054620000c490620003b7565b90600052602060002090601f016020900481019282620000e8576000855562000134565b82601f106200010357805160ff191683800117855562000134565b8280016001018555821562000134579182015b828111156200013357825182559160200191906001019062000116565b5b50905062000143919062000147565b5090565b5b808211156200016257600081600090555060010162000148565b5090565b6000604051905090565b600080fd5b600080fd5b600080fd5b600080fd5b6000601f19601f8301169050919050565b7f4e487b7100000000000000000000000000000000000000000000000000000000600052604160045260246000fd5b620001cf8262000184565b810181811067ffffffffffffffff82111715620001f157620001f062000195565b5b80604052505050565b60006200020662000166565b9050620002148282620001c4565b919050565b600067ffffffffffffffff82111562000237576200023662000195565b5b620002428262000184565b9050602081019050919050565b60005b838110156200026f57808201518184015260208101905062000252565b838111156200027f576000848401525b50505050565b60006200029c620002968462000219565b620001fa565b905082815260208101848484011115620002bb57620002ba6200017f565b5b620002c88482856200024f565b509392505050565b600082601f830112620002e857620002e76200017a565b5b8151620002fa84826020860162000285565b91505092915050565b600080604083850312156200031d576200031c62000170565b5b600083015167ffffffffffffffff8111156200033e576200033d62000175565b5b6200034c85828601620002d0565b925050602083015167ffffffffffffffff81111562000370576200036f62000175565b5b6200037e85828601620002d0565b9150509250929050565b7f4e487b7100000000000000000000000000000000000000000000000000000000600052602260045260246000fd5b60006002820490506001821680620003d057607f821691505b60208210811415620003e757620003e662000388565b5b50919050565b612f0780620003fd6000396000f3fe6080604052600436106100e85760003560e01c8063589a17431161008a578063a22cb46511610059578063a22cb4651461031f578063b88d4fde14610348578063c87b56dd14610371578063e985e9c5146103ae576100e8565b8063589a17431461023d5780636352211e1461027a57806370a08231146102b757806395d89b41146102f4576100e8565b8063095ea7b3116100c6578063095ea7b31461019257806323b872dd146101bb57806342842e0e146101e457806345576f941461020d576100e8565b806301ffc9a7146100ed57806306fdde031461012a578063081812fc14610155575b600080fd5b3480156100f957600080fd5b50610114600480360381019061010f9190611c4c565b6103eb565b6040516101219190611c94565b60405180910390f35b34801561013657600080fd5b5061013f6104cd565b60405161014c9190611d48565b60405180910390f35b34801561016157600080fd5b5061017c60048036038101906101779190611da0565b61055f565b6040516101899190611e0e565b60405180910390f35b34801561019e57600080fd5b506101b960048036038101906101b49190611e55565b6105e4565b005b3480156101c757600080fd5b506101e260048036038101906101dd9190611e95565b6106fc565b005b3480156101f057600080fd5b5061020b60048036038101906102069190611e95565b61075c565b005b6102276004803603810190610222919061201d565b61077c565b6040516102349190612075565b60405180910390f35b34801561024957600080fd5b50610264600480360381019061025f9190611da0565b6107fb565b6040516102719190611e0e565b60405180910390f35b34801561028657600080fd5b506102a1600480360381019061029c9190611da0565b61083b565b6040516102ae9190611e0e565b60405180910390f35b3480156102c357600080fd5b506102de60048036038101906102d99190612090565b6108ed565b6040516102eb9190612075565b60405180910390f35b34801561030057600080fd5b506103096109a5565b6040516103169190611d48565b60405180910390f35b34801561032b57600080fd5b50610346600480360381019061034191906120e9565b610a37565b005b34801561035457600080fd5b5061036f600480360381019061036a91906121ca565b610a4d565b005b34801561037d57600080fd5b5061039860048036038101906103939190611da0565b610aaf565b6040516103a59190611d48565b60405180910390f35b3480156103ba57600080fd5b506103d560048036038101906103d0919061224d565b610c01565b6040516103e29190611c94565b60405180910390f35b60007f80ac58cd000000000000000000000000000000000000000000000000000000007bffffffffffffffffffffffffffffffffffffffffffffffffffffffff1916827bffffffffffffffffffffffffffffffffffffffffffffffffffffffff191614806104b657507f5b5e139f000000000000000000000000000000000000000000000000000000007bffffffffffffffffffffffffffffffffffffffffffffffffffffffff1916827bffffffffffffffffffffffffffffffffffffffffffffffffffffffff1916145b806104c657506104c582610c95565b5b9050919050565b6060600080546104dc906122bc565b80601f0160208091040260200160405190810160405280929190818152602001828054610508906122bc565b80156105555780601f1061052a57610100808354040283529160200191610555565b820191906000526020600020905b81548152906001019060200180831161053857829003601f168201915b5050505050905090565b600061056a82610cff565b6105a9576040517f08c379a00000000000000000000000000000000000000000000000000000000081526004016105a090612360565b60405180910390fd5b6004600083815260200190815260200160002060009054906101000a900473ffffffffffffffffffffffffffffffffffffffff169050919050565b60006105ef8261083b565b90508073ffffffffffffffffffffffffffffffffffffffff168373ffffffffffffffffffffffffffffffffffffffff161415610660576040517f08c379a0000000000000000000000000000000000000000000000000000000008152600401610657906123f2565b60405180910390fd5b8073ffffffffffffffffffffffffffffffffffffffff1661067f610d6b565b73ffffffffffffffffffffffffffffffffffffffff1614806106ae57506106ad816106a8610d6b565b610c01565b5b6106ed576040517f08c379a00000000000000000000000000000000000000000000000000000000081526004016106e490612484565b60405180910390fd5b6106f78383610d73565b505050565b61070d610707610d6b565b82610e2c565b61074c576040517f08c379a000000000000000000000000000000000000000000000000000000000815260040161074390612516565b60405180910390fd5b610757838383610f0a565b505050565b61077783838360405180602001604052806000815250610a4d565b505050565b60006107886007611171565b60006107946007611187565b90506107a03382611195565b6107aa818461136f565b6107b3816113e3565b6107f26040518060400160405280600881526020017f546f6b656e204964000000000000000000000000000000000000000000000000815250826114db565b80915050919050565b60006008600083815260200190815260200160002060020160009054906101000a900473ffffffffffffffffffffffffffffffffffffffff169050919050565b6000806002600084815260200190815260200160002060009054906101000a900473ffffffffffffffffffffffffffffffffffffffff169050600073ffffffffffffffffffffffffffffffffffffffff168173ffffffffffffffffffffffffffffffffffffffff1614156108e4576040517f08c379a00000000000000000000000000000000000000000000000000000000081526004016108db906125a8565b60405180910390fd5b80915050919050565b60008073ffffffffffffffffffffffffffffffffffffffff168273ffffffffffffffffffffffffffffffffffffffff16141561095e576040517f08c379a00000000000000000000000000000000000000000000000000000000081526004016109559061263a565b60405180910390fd5b600360008373ffffffffffffffffffffffffffffffffffffffff1673ffffffffffffffffffffffffffffffffffffffff168152602001908152602001600020549050919050565b6060600180546109b4906122bc565b80601f01602080910402602001604051908101604052809291908181526020018280546109e0906122bc565b8015610a2d5780601f10610a0257610100808354040283529160200191610a2d565b820191906000526020600020905b815481529060010190602001808311610a1057829003601f168201915b5050505050905090565b610a49610a42610d6b565b8383611577565b5050565b610a5e610a58610d6b565b83610e2c565b610a9d576040517f08c379a0000000000000000000000000000000000000000000000000000000008152600401610a9490612516565b60405180910390fd5b610aa9848484846116e4565b50505050565b6060610aba82610cff565b610af9576040517f08c379a0000000000000000000000000000000000000000000000000000000008152600401610af0906126cc565b60405180910390fd5b6000600660008481526020019081526020016000208054610b19906122bc565b80601f0160208091040260200160405190810160405280929190818152602001828054610b45906122bc565b8015610b925780601f10610b6757610100808354040283529160200191610b92565b820191906000526020600020905b815481529060010190602001808311610b7557829003601f168201915b505050505090506000610ba3611740565b9050600081511415610bb9578192505050610bfc565b600082511115610bee578082604051602001610bd6929190612728565b60405160208183030381529060405292505050610bfc565b610bf784611757565b925050505b919050565b6000600560008473ffffffffffffffffffffffffffffffffffffffff1673ffffffffffffffffffffffffffffffffffffffff16815260200190815260200160002060008373ffffffffffffffffffffffffffffffffffffffff1673ffffffffffffffffffffffffffffffffffffffff16815260200190815260200160002060009054906101000a900460ff16905092915050565b60007f01ffc9a7000000000000000000000000000000000000000000000000000000007bffffffffffffffffffffffffffffffffffffffffffffffffffffffff1916827bffffffffffffffffffffffffffffffffffffffffffffffffffffffff1916149050919050565b60008073ffffffffffffffffffffffffffffffffffffffff166002600084815260200190815260200160002060009054906101000a900473ffffffffffffffffffffffffffffffffffffffff1673ffffffffffffffffffffffffffffffffffffffff1614159050919050565b600032905090565b816004600083815260200190815260200160002060006101000a81548173ffffffffffffffffffffffffffffffffffffffff021916908373ffffffffffffffffffffffffffffffffffffffff160217905550808273ffffffffffffffffffffffffffffffffffffffff16610de68361083b565b73ffffffffffffffffffffffffffffffffffffffff167f8c5be1e5ebec7d5bd14f71427d1e84f3dd0314c0f7b2291e5b200ac8c7c3b92560405160405180910390a45050565b6000610e3782610cff565b610e76576040517f08c379a0000000000000000000000000000000000000000000000000000000008152600401610e6d906127be565b60405180910390fd5b6000610e818361083b565b90508073ffffffffffffffffffffffffffffffffffffffff168473ffffffffffffffffffffffffffffffffffffffff161480610ec35750610ec28185610c01565b5b80610f0157508373ffffffffffffffffffffffffffffffffffffffff16610ee98461055f565b73ffffffffffffffffffffffffffffffffffffffff16145b91505092915050565b8273ffffffffffffffffffffffffffffffffffffffff16610f2a8261083b565b73ffffffffffffffffffffffffffffffffffffffff1614610f80576040517f08c379a0000000000000000000000000000000000000000000000000000000008152600401610f7790612850565b60405180910390fd5b600073ffffffffffffffffffffffffffffffffffffffff168273ffffffffffffffffffffffffffffffffffffffff161415610ff0576040517f08c379a0000000000000000000000000000000000000000000000000000000008152600401610fe7906128e2565b60405180910390fd5b610ffb8383836117fe565b611006600082610d73565b6001600360008573ffffffffffffffffffffffffffffffffffffffff1673ffffffffffffffffffffffffffffffffffffffff16815260200190815260200160002060008282546110569190612931565b925050819055506001600360008473ffffffffffffffffffffffffffffffffffffffff1673ffffffffffffffffffffffffffffffffffffffff16815260200190815260200160002060008282546110ad9190612965565b92505081905550816002600083815260200190815260200160002060006101000a81548173ffffffffffffffffffffffffffffffffffffffff021916908373ffffffffffffffffffffffffffffffffffffffff160217905550808273ffffffffffffffffffffffffffffffffffffffff168473ffffffffffffffffffffffffffffffffffffffff167fddf252ad1be2c89b69c2b068fc378daa952ba7f163c4a11628f55a4df523b3ef60405160405180910390a461116c838383611803565b505050565b6001816000016000828254019250508190555050565b600081600001549050919050565b600073ffffffffffffffffffffffffffffffffffffffff168273ffffffffffffffffffffffffffffffffffffffff161415611205576040517f08c379a00000000000000000000000000000000000000000000000000000000081526004016111fc90612a07565b60405180910390fd5b61120e81610cff565b1561124e576040517f08c379a000000000000000000000000000000000000000000000000000000000815260040161124590612a73565b60405180910390fd5b61125a600083836117fe565b6001600360008473ffffffffffffffffffffffffffffffffffffffff1673ffffffffffffffffffffffffffffffffffffffff16815260200190815260200160002060008282546112aa9190612965565b92505081905550816002600083815260200190815260200160002060006101000a81548173ffffffffffffffffffffffffffffffffffffffff021916908373ffffffffffffffffffffffffffffffffffffffff160217905550808273ffffffffffffffffffffffffffffffffffffffff16600073ffffffffffffffffffffffffffffffffffffffff167fddf252ad1be2c89b69c2b068fc378daa952ba7f163c4a11628f55a4df523b3ef60405160405180910390a461136b60008383611803565b5050565b61137882610cff565b6113b7576040517f08c379a00000000000000000000000000000000000000000000000000000000081526004016113ae90612b05565b60405180910390fd5b806006600084815260200190815260200160002090805190602001906113de929190611b3d565b505050565b60405180606001604052803073ffffffffffffffffffffffffffffffffffffffff1681526020018281526020013373ffffffffffffffffffffffffffffffffffffffff168152506008600083815260200190815260200160002060008201518160000160006101000a81548173ffffffffffffffffffffffffffffffffffffffff021916908373ffffffffffffffffffffffffffffffffffffffff1602179055506020820151816001015560408201518160020160006101000a81548173ffffffffffffffffffffffffffffffffffffffff021916908373ffffffffffffffffffffffffffffffffffffffff16021790555090505050565b61157382826040516024016114f1929190612b25565b6040516020818303038152906040527f9710a9d0000000000000000000000000000000000000000000000000000000007bffffffffffffffffffffffffffffffffffffffffffffffffffffffff19166020820180517bffffffffffffffffffffffffffffffffffffffffffffffffffffffff8381831617835250505050611808565b5050565b8173ffffffffffffffffffffffffffffffffffffffff168373ffffffffffffffffffffffffffffffffffffffff1614156115e6576040517f08c379a00000000000000000000000000000000000000000000000000000000081526004016115dd90612ba1565b60405180910390fd5b80600560008573ffffffffffffffffffffffffffffffffffffffff1673ffffffffffffffffffffffffffffffffffffffff16815260200190815260200160002060008473ffffffffffffffffffffffffffffffffffffffff1673ffffffffffffffffffffffffffffffffffffffff16815260200190815260200160002060006101000a81548160ff0219169083151502179055508173ffffffffffffffffffffffffffffffffffffffff168373ffffffffffffffffffffffffffffffffffffffff167f17307eab39ab6107e8899845ad3d59bd9653f200f220920489ca2b5937696c31836040516116d79190611c94565b60405180910390a3505050565b6116ef848484610f0a565b6116fb84848484611831565b61173a576040517f08c379a000000000000000000000000000000000000000000000000000000000815260040161173190612c33565b60405180910390fd5b50505050565b606060405180602001604052806000815250905090565b606061176282610cff565b6117a1576040517f08c379a000000000000000000000000000000000000000000000000000000000815260040161179890612cc5565b60405180910390fd5b60006117ab611740565b905060008151116117cb57604051806020016040528060008152506117f6565b806117d5846119b9565b6040516020016117e6929190612728565b6040516020818303038152906040525b915050919050565b505050565b505050565b60008151905060006a636f6e736f6c652e6c6f679050602083016000808483855afa5050505050565b60006118528473ffffffffffffffffffffffffffffffffffffffff16611b1a565b156119ac578373ffffffffffffffffffffffffffffffffffffffff1663150b7a0261187b610d6b565b8786866040518563ffffffff1660e01b815260040161189d9493929190612d3a565b6020604051808303816000875af19250505080156118d957506040513d601f19601f820116820180604052508101906118d69190612d9b565b60015b61195c573d8060008114611909576040519150601f19603f3d011682016040523d82523d6000602084013e61190e565b606091505b50600081511415611954576040517f08c379a000000000000000000000000000000000000000000000000000000000815260040161194b90612c33565b60405180910390fd5b805181602001fd5b63150b7a0260e01b7bffffffffffffffffffffffffffffffffffffffffffffffffffffffff1916817bffffffffffffffffffffffffffffffffffffffffffffffffffffffff1916149150506119b1565b600190505b949350505050565b60606000821415611a01576040518060400160405280600181526020017f30000000000000000000000000000000000000000000000000000000000000008152509050611b15565b600082905060005b60008214611a33578080611a1c90612dc8565b915050600a82611a2c9190612e40565b9150611a09565b60008167ffffffffffffffff811115611a4f57611a4e611ef2565b5b6040519080825280601f01601f191660200182016040528015611a815781602001600182028036833780820191505090505b5090505b60008514611b0e57600182611a9a9190612931565b9150600a85611aa99190612e71565b6030611ab59190612965565b60f81b818381518110611acb57611aca612ea2565b5b60200101907effffffffffffffffffffffffffffffffffffffffffffffffffffffffffffff1916908160001a905350600a85611b079190612e40565b9450611a85565b8093505050505b919050565b6000808273ffffffffffffffffffffffffffffffffffffffff163b119050919050565b828054611b49906122bc565b90600052602060002090601f016020900481019282611b6b5760008555611bb2565b82601f10611b8457805160ff1916838001178555611bb2565b82800160010185558215611bb2579182015b82811115611bb1578251825591602001919060010190611b96565b5b509050611bbf9190611bc3565b5090565b5b80821115611bdc576000816000905550600101611bc4565b5090565b6000604051905090565b600080fd5b600080fd5b60007fffffffff0000000000000000000000000000000000000000000000000000000082169050919050565b611c2981611bf4565b8114611c3457600080fd5b50565b600081359050611c4681611c20565b92915050565b600060208284031215611c6257611c61611bea565b5b6000611c7084828501611c37565b91505092915050565b60008115159050919050565b611c8e81611c79565b82525050565b6000602082019050611ca96000830184611c85565b92915050565b600081519050919050565b600082825260208201905092915050565b60005b83811015611ce9578082015181840152602081019050611cce565b83811115611cf8576000848401525b50505050565b6000601f19601f8301169050919050565b6000611d1a82611caf565b611d248185611cba565b9350611d34818560208601611ccb565b611d3d81611cfe565b840191505092915050565b60006020820190508181036000830152611d628184611d0f565b905092915050565b6000819050919050565b611d7d81611d6a565b8114611d8857600080fd5b50565b600081359050611d9a81611d74565b92915050565b600060208284031215611db657611db5611bea565b5b6000611dc484828501611d8b565b91505092915050565b600073ffffffffffffffffffffffffffffffffffffffff82169050919050565b6000611df882611dcd565b9050919050565b611e0881611ded565b82525050565b6000602082019050611e236000830184611dff565b92915050565b611e3281611ded565b8114611e3d57600080fd5b50565b600081359050611e4f81611e29565b92915050565b60008060408385031215611e6c57611e6b611bea565b5b6000611e7a85828601611e40565b9250506020611e8b85828601611d8b565b9150509250929050565b600080600060608486031215611eae57611ead611bea565b5b6000611ebc86828701611e40565b9350506020611ecd86828701611e40565b9250506040611ede86828701611d8b565b9150509250925092565b600080fd5b600080fd5b7f4e487b7100000000000000000000000000000000000000000000000000000000600052604160045260246000fd5b611f2a82611cfe565b810181811067ffffffffffffffff82111715611f4957611f48611ef2565b5b80604052505050565b6000611f5c611be0565b9050611f688282611f21565b919050565b600067ffffffffffffffff821115611f8857611f87611ef2565b5b611f9182611cfe565b9050602081019050919050565b82818337600083830152505050565b6000611fc0611fbb84611f6d565b611f52565b905082815260208101848484011115611fdc57611fdb611eed565b5b611fe7848285611f9e565b509392505050565b600082601f83011261200457612003611ee8565b5b8135612014848260208601611fad565b91505092915050565b60006020828403121561203357612032611bea565b5b600082013567ffffffffffffffff81111561205157612050611bef565b5b61205d84828501611fef565b91505092915050565b61206f81611d6a565b82525050565b600060208201905061208a6000830184612066565b92915050565b6000602082840312156120a6576120a5611bea565b5b60006120b484828501611e40565b91505092915050565b6120c681611c79565b81146120d157600080fd5b50565b6000813590506120e3816120bd565b92915050565b60008060408385031215612100576120ff611bea565b5b600061210e85828601611e40565b925050602061211f858286016120d4565b9150509250929050565b600067ffffffffffffffff82111561214457612143611ef2565b5b61214d82611cfe565b9050602081019050919050565b600061216d61216884612129565b611f52565b90508281526020810184848401111561218957612188611eed565b5b612194848285611f9e565b509392505050565b600082601f8301126121b1576121b0611ee8565b5b81356121c184826020860161215a565b91505092915050565b600080600080608085870312156121e4576121e3611bea565b5b60006121f287828801611e40565b945050602061220387828801611e40565b935050604061221487828801611d8b565b925050606085013567ffffffffffffffff81111561223557612234611bef565b5b6122418782880161219c565b91505092959194509250565b6000806040838503121561226457612263611bea565b5b600061227285828601611e40565b925050602061228385828601611e40565b9150509250929050565b7f4e487b7100000000000000000000000000000000000000000000000000000000600052602260045260246000fd5b600060028204905060018216806122d457607f821691505b602082108114156122e8576122e761228d565b5b50919050565b7f4552433732313a20617070726f76656420717565727920666f72206e6f6e657860008201527f697374656e7420746f6b656e0000000000000000000000000000000000000000602082015250565b600061234a602c83611cba565b9150612355826122ee565b604082019050919050565b600060208201905081810360008301526123798161233d565b9050919050565b7f4552433732313a20617070726f76616c20746f2063757272656e74206f776e6560008201527f7200000000000000000000000000000000000000000000000000000000000000602082015250565b60006123dc602183611cba565b91506123e782612380565b604082019050919050565b6000602082019050818103600083015261240b816123cf565b9050919050565b7f4552433732313a20617070726f76652063616c6c6572206973206e6f74206f7760008201527f6e6572206e6f7220617070726f76656420666f7220616c6c0000000000000000602082015250565b600061246e603883611cba565b915061247982612412565b604082019050919050565b6000602082019050818103600083015261249d81612461565b9050919050565b7f4552433732313a207472616e736665722063616c6c6572206973206e6f74206f60008201527f776e6572206e6f7220617070726f766564000000000000000000000000000000602082015250565b6000612500603183611cba565b915061250b826124a4565b604082019050919050565b6000602082019050818103600083015261252f816124f3565b9050919050565b7f4552433732313a206f776e657220717565727920666f72206e6f6e657869737460008201527f656e7420746f6b656e0000000000000000000000000000000000000000000000602082015250565b6000612592602983611cba565b915061259d82612536565b604082019050919050565b600060208201905081810360008301526125c181612585565b9050919050565b7f4552433732313a2062616c616e636520717565727920666f7220746865207a6560008201527f726f206164647265737300000000000000000000000000000000000000000000602082015250565b6000612624602a83611cba565b915061262f826125c8565b604082019050919050565b6000602082019050818103600083015261265381612617565b9050919050565b7f45524337323155524953746f726167653a2055524920717565727920666f722060008201527f6e6f6e6578697374656e7420746f6b656e000000000000000000000000000000602082015250565b60006126b6603183611cba565b91506126c18261265a565b604082019050919050565b600060208201905081810360008301526126e5816126a9565b9050919050565b600081905092915050565b600061270282611caf565b61270c81856126ec565b935061271c818560208601611ccb565b80840191505092915050565b600061273482856126f7565b915061274082846126f7565b91508190509392505050565b7f4552433732313a206f70657261746f7220717565727920666f72206e6f6e657860008201527f697374656e7420746f6b656e0000000000000000000000000000000000000000602082015250565b60006127a8602c83611cba565b91506127b38261274c565b604082019050919050565b600060208201905081810360008301526127d78161279b565b9050919050565b7f4552433732313a207472616e736665722066726f6d20696e636f72726563742060008201527f6f776e6572000000000000000000000000000000000000000000000000000000602082015250565b600061283a602583611cba565b9150612845826127de565b604082019050919050565b600060208201905081810360008301526128698161282d565b9050919050565b7f4552433732313a207472616e7366657220746f20746865207a65726f2061646460008201527f7265737300000000000000000000000000000000000000000000000000000000602082015250565b60006128cc602483611cba565b91506128d782612870565b604082019050919050565b600060208201905081810360008301526128fb816128bf565b9050919050565b7f4e487b7100000000000000000000000000000000000000000000000000000000600052601160045260246000fd5b600061293c82611d6a565b915061294783611d6a565b92508282101561295a57612959612902565b5b828203905092915050565b600061297082611d6a565b915061297b83611d6a565b9250827fffffffffffffffffffffffffffffffffffffffffffffffffffffffffffffffff038211156129b0576129af612902565b5b828201905092915050565b7f4552433732313a206d696e7420746f20746865207a65726f2061646472657373600082015250565b60006129f1602083611cba565b91506129fc826129bb565b602082019050919050565b60006020820190508181036000830152612a20816129e4565b9050919050565b7f4552433732313a20746f6b656e20616c7265616479206d696e74656400000000600082015250565b6000612a5d601c83611cba565b9150612a6882612a27565b602082019050919050565b60006020820190508181036000830152612a8c81612a50565b9050919050565b7f45524337323155524953746f726167653a2055524920736574206f66206e6f6e60008201527f6578697374656e7420746f6b656e000000000000000000000000000000000000602082015250565b6000612aef602e83611cba565b9150612afa82612a93565b604082019050919050565b60006020820190508181036000830152612b1e81612ae2565b9050919050565b60006040820190508181036000830152612b3f8185611d0f565b9050612b4e6020830184612066565b9392505050565b7f4552433732313a20617070726f766520746f2063616c6c657200000000000000600082015250565b6000612b8b601983611cba565b9150612b9682612b55565b602082019050919050565b60006020820190508181036000830152612bba81612b7e565b9050919050565b7f4552433732313a207472616e7366657220746f206e6f6e20455243373231526560008201527f63656976657220696d706c656d656e7465720000000000000000000000000000602082015250565b6000612c1d603283611cba565b9150612c2882612bc1565b604082019050919050565b60006020820190508181036000830152612c4c81612c10565b9050919050565b7f4552433732314d657461646174613a2055524920717565727920666f72206e6f60008201527f6e6578697374656e7420746f6b656e0000000000000000000000000000000000602082015250565b6000612caf602f83611cba565b9150612cba82612c53565b604082019050919050565b60006020820190508181036000830152612cde81612ca2565b9050919050565b600081519050919050565b600082825260208201905092915050565b6000612d0c82612ce5565b612d168185612cf0565b9350612d26818560208601611ccb565b612d2f81611cfe565b840191505092915050565b6000608082019050612d4f6000830187611dff565b612d5c6020830186611dff565b612d696040830185612066565b8181036060830152612d7b8184612d01565b905095945050505050565b600081519050612d9581611c20565b92915050565b600060208284031215612db157612db0611bea565b5b6000612dbf84828501612d86565b91505092915050565b6000612dd382611d6a565b91507fffffffffffffffffffffffffffffffffffffffffffffffffffffffffffffffff821415612e0657612e05612902565b5b600182019050919050565b7f4e487b7100000000000000000000000000000000000000000000000000000000600052601260045260246000fd5b6000612e4b82611d6a565b9150612e5683611d6a565b925082612e6657612e65612e11565b5b828204905092915050565b6000612e7c82611d6a565b9150612e8783611d6a565b925082612e9757612e96612e11565b5b828206905092915050565b7f4e487b7100000000000000000000000000000000000000000000000000000000600052603260045260246000fdfea26469706673582212205a73fa498658cce8e1bf20102a540de7e1ce079d2f17efb72b78bf2d6668763f64736f6c634300080b0033",
  "linkReferences": {},
  "deployedLinkReferences": {}
}