{
  "_format": "hh-sol-artifact-1",
  "contractName": "Collection",
  "sourceName": "contracts/market/Collection.sol",
  "abi": [
    {
      "inputs": [
        {
          "internalType": "string",
          "name": "name",
          "type": "string"
        },
        {
          "internalType": "string",
          "name": "symbol",
          "type": "string"
        },
        {
          "internalType": "address",
          "name": "marketAddress",
          "type": "address"
        }
      ],
      "stateMutability": "nonpayable",
      "type": "constructor"
    },
    {
      "anonymous": false,
      "inputs": [
        {
          "indexed": true,
          "internalType": "address",
          "name": "owner",
          "type": "address"
        },
        {
          "indexed": true,
          "internalType": "address",
          "name": "approved",
          "type": "address"
        },
        {
          "indexed": true,
          "internalType": "uint256",
          "name": "tokenId",
          "type": "uint256"
        }
      ],
      "name": "Approval",
      "type": "event"
    },
    {
      "anonymous": false,
      "inputs": [
        {
          "indexed": true,
          "internalType": "address",
          "name": "owner",
          "type": "address"
        },
        {
          "indexed": true,
          "internalType": "address",
          "name": "operator",
          "type": "address"
        },
        {
          "indexed": false,
          "internalType": "bool",
          "name": "approved",
          "type": "bool"
        }
      ],
      "name": "ApprovalForAll",
      "type": "event"
    },
    {
      "anonymous": false,
      "inputs": [
        {
          "indexed": true,
          "internalType": "address",
          "name": "from",
          "type": "address"
        },
        {
          "indexed": true,
          "internalType": "address",
          "name": "to",
          "type": "address"
        },
        {
          "indexed": true,
          "internalType": "uint256",
          "name": "tokenId",
          "type": "uint256"
        }
      ],
      "name": "Transfer",
      "type": "event"
    },
    {
      "inputs": [
        {
          "internalType": "address",
          "name": "to",
          "type": "address"
        },
        {
          "internalType": "uint256",
          "name": "tokenId",
          "type": "uint256"
        }
      ],
      "name": "approve",
      "outputs": [],
      "stateMutability": "nonpayable",
      "type": "function"
    },
    {
      "inputs": [
        {
          "internalType": "address",
          "name": "owner",
          "type": "address"
        }
      ],
      "name": "balanceOf",
      "outputs": [
        {
          "internalType": "uint256",
          "name": "",
          "type": "uint256"
        }
      ],
      "stateMutability": "view",
      "type": "function"
    },
    {
      "inputs": [
        {
          "internalType": "string",
          "name": "tokenURI_",
          "type": "string"
        }
      ],
      "name": "createToken",
      "outputs": [
        {
          "internalType": "uint256",
          "name": "",
          "type": "uint256"
        }
      ],
      "stateMutability": "payable",
      "type": "function"
    },
    {
      "inputs": [
        {
          "internalType": "uint256",
          "name": "tokenId",
          "type": "uint256"
        }
      ],
      "name": "creatorOf",
      "outputs": [
        {
          "internalType": "address",
          "name": "",
          "type": "address"
        }
      ],
      "stateMutability": "view",
      "type": "function"
    },
    {
      "inputs": [
        {
          "internalType": "uint256",
          "name": "tokenId",
          "type": "uint256"
        }
      ],
      "name": "getApproved",
      "outputs": [
        {
          "internalType": "address",
          "name": "",
          "type": "address"
        }
      ],
      "stateMutability": "view",
      "type": "function"
    },
    {
      "inputs": [
        {
          "internalType": "address",
          "name": "owner",
          "type": "address"
        },
        {
          "internalType": "address",
          "name": "operator",
          "type": "address"
        }
      ],
      "name": "isApprovedForAll",
      "outputs": [
        {
          "internalType": "bool",
          "name": "",
          "type": "bool"
        }
      ],
      "stateMutability": "view",
      "type": "function"
    },
    {
      "inputs": [],
      "name": "name",
      "outputs": [
        {
          "internalType": "string",
          "name": "",
          "type": "string"
        }
      ],
      "stateMutability": "view",
      "type": "function"
    },
    {
      "inputs": [
        {
          "internalType": "uint256",
          "name": "tokenId",
          "type": "uint256"
        }
      ],
      "name": "ownerOf",
      "outputs": [
        {
          "internalType": "address",
          "name": "",
          "type": "address"
        }
      ],
      "stateMutability": "view",
      "type": "function"
    },
    {
      "inputs": [
        {
          "internalType": "address",
          "name": "from",
          "type": "address"
        },
        {
          "internalType": "address",
          "name": "to",
          "type": "address"
        },
        {
          "internalType": "uint256",
          "name": "tokenId",
          "type": "uint256"
        }
      ],
      "name": "safeTransferFrom",
      "outputs": [],
      "stateMutability": "nonpayable",
      "type": "function"
    },
    {
      "inputs": [
        {
          "internalType": "address",
          "name": "from",
          "type": "address"
        },
        {
          "internalType": "address",
          "name": "to",
          "type": "address"
        },
        {
          "internalType": "uint256",
          "name": "tokenId",
          "type": "uint256"
        },
        {
          "internalType": "bytes",
          "name": "_data",
          "type": "bytes"
        }
      ],
      "name": "safeTransferFrom",
      "outputs": [],
      "stateMutability": "nonpayable",
      "type": "function"
    },
    {
      "inputs": [
        {
          "internalType": "address",
          "name": "operator",
          "type": "address"
        },
        {
          "internalType": "bool",
          "name": "approved",
          "type": "bool"
        }
      ],
      "name": "setApprovalForAll",
      "outputs": [],
      "stateMutability": "nonpayable",
      "type": "function"
    },
    {
      "inputs": [
        {
          "internalType": "bytes4",
          "name": "interfaceId",
          "type": "bytes4"
        }
      ],
      "name": "supportsInterface",
      "outputs": [
        {
          "internalType": "bool",
          "name": "",
          "type": "bool"
        }
      ],
      "stateMutability": "view",
      "type": "function"
    },
    {
      "inputs": [],
      "name": "symbol",
      "outputs": [
        {
          "internalType": "string",
          "name": "",
          "type": "string"
        }
      ],
      "stateMutability": "view",
      "type": "function"
    },
    {
      "inputs": [
        {
          "internalType": "uint256",
          "name": "tokenId",
          "type": "uint256"
        }
      ],
      "name": "tokenURI",
      "outputs": [
        {
          "internalType": "string",
          "name": "",
          "type": "string"
        }
      ],
      "stateMutability": "view",
      "type": "function"
    },
    {
      "inputs": [
        {
          "internalType": "address",
          "name": "from",
          "type": "address"
        },
        {
          "internalType": "address",
          "name": "to",
          "type": "address"
        },
        {
          "internalType": "uint256",
          "name": "tokenId",
          "type": "uint256"
        }
      ],
      "name": "transferFrom",
      "outputs": [],
      "stateMutability": "nonpayable",
      "type": "function"
    }
  ],
  "bytecode": "0x60806040523480156200001157600080fd5b506040516200342638038062003426833981810160405281019062000037919062000417565b828281600090805190602001906200005192919062000165565b5080600190805190602001906200006a92919062000165565b5050506200007d6200015d60201b60201c565b600960006101000a81548173ffffffffffffffffffffffffffffffffffffffff021916908373ffffffffffffffffffffffffffffffffffffffff1602179055508073ffffffffffffffffffffffffffffffffffffffff16637e802025848430600960009054906101000a900473ffffffffffffffffffffffffffffffffffffffff166040518563ffffffff1660e01b81526004016200012094939291906200051f565b600060405180830381600087803b1580156200013b57600080fd5b505af115801562000150573d6000803e3d6000fd5b50505050505050620005df565b600033905090565b8280546200017390620005a9565b90600052602060002090601f016020900481019282620001975760008555620001e3565b82601f10620001b257805160ff1916838001178555620001e3565b82800160010185558215620001e3579182015b82811115620001e2578251825591602001919060010190620001c5565b5b509050620001f29190620001f6565b5090565b5b8082111562000211576000816000905550600101620001f7565b5090565b6000604051905090565b600080fd5b600080fd5b600080fd5b600080fd5b6000601f19601f8301169050919050565b7f4e487b7100000000000000000000000000000000000000000000000000000000600052604160045260246000fd5b6200027e8262000233565b810181811067ffffffffffffffff82111715620002a0576200029f62000244565b5b80604052505050565b6000620002b562000215565b9050620002c3828262000273565b919050565b600067ffffffffffffffff821115620002e657620002e562000244565b5b620002f18262000233565b9050602081019050919050565b60005b838110156200031e57808201518184015260208101905062000301565b838111156200032e576000848401525b50505050565b60006200034b6200034584620002c8565b620002a9565b9050828152602081018484840111156200036a57620003696200022e565b5b62000377848285620002fe565b509392505050565b600082601f83011262000397576200039662000229565b5b8151620003a984826020860162000334565b91505092915050565b600073ffffffffffffffffffffffffffffffffffffffff82169050919050565b6000620003df82620003b2565b9050919050565b620003f181620003d2565b8114620003fd57600080fd5b50565b6000815190506200041181620003e6565b92915050565b6000806000606084860312156200043357620004326200021f565b5b600084015167ffffffffffffffff81111562000454576200045362000224565b5b62000462868287016200037f565b935050602084015167ffffffffffffffff81111562000486576200048562000224565b5b62000494868287016200037f565b9250506040620004a78682870162000400565b9150509250925092565b600081519050919050565b600082825260208201905092915050565b6000620004da82620004b1565b620004e68185620004bc565b9350620004f8818560208601620002fe565b620005038162000233565b840191505092915050565b6200051981620003d2565b82525050565b600060808201905081810360008301526200053b8187620004cd565b90508181036020830152620005518186620004cd565b90506200056260408301856200050e565b6200057160608301846200050e565b95945050505050565b7f4e487b7100000000000000000000000000000000000000000000000000000000600052602260045260246000fd5b60006002820490506001821680620005c257607f821691505b60208210811415620005d957620005d86200057a565b5b50919050565b612e3780620005ef6000396000f3fe6080604052600436106100e85760003560e01c8063589a17431161008a578063a22cb46511610059578063a22cb4651461031f578063b88d4fde14610348578063c87b56dd14610371578063e985e9c5146103ae576100e8565b8063589a17431461023d5780636352211e1461027a57806370a08231146102b757806395d89b41146102f4576100e8565b8063095ea7b3116100c6578063095ea7b31461019257806323b872dd146101bb57806342842e0e146101e457806345576f941461020d576100e8565b806301ffc9a7146100ed57806306fdde031461012a578063081812fc14610155575b600080fd5b3480156100f957600080fd5b50610114600480360381019061010f9190611bac565b6103eb565b6040516101219190611bf4565b60405180910390f35b34801561013657600080fd5b5061013f6104cd565b60405161014c9190611ca8565b60405180910390f35b34801561016157600080fd5b5061017c60048036038101906101779190611d00565b61055f565b6040516101899190611d6e565b60405180910390f35b34801561019e57600080fd5b506101b960048036038101906101b49190611db5565b6105e4565b005b3480156101c757600080fd5b506101e260048036038101906101dd9190611df5565b610751565b005b3480156101f057600080fd5b5061020b60048036038101906102069190611df5565b6107b1565b005b61022760048036038101906102229190611f7d565b6107d1565b6040516102349190611fd5565b60405180910390f35b34801561024957600080fd5b50610264600480360381019061025f9190611d00565b610818565b6040516102719190611d6e565b60405180910390f35b34801561028657600080fd5b506102a1600480360381019061029c9190611d00565b610858565b6040516102ae9190611d6e565b60405180910390f35b3480156102c357600080fd5b506102de60048036038101906102d99190611ff0565b61090a565b6040516102eb9190611fd5565b60405180910390f35b34801561030057600080fd5b506103096109c2565b6040516103169190611ca8565b60405180910390f35b34801561032b57600080fd5b5061034660048036038101906103419190612049565b610a54565b005b34801561035457600080fd5b5061036f600480360381019061036a919061212a565b610a6a565b005b34801561037d57600080fd5b5061039860048036038101906103939190611d00565b610ac5565b6040516103a59190611ca8565b60405180910390f35b3480156103ba57600080fd5b506103d560048036038101906103d091906121ad565b610c17565b6040516103e29190611bf4565b60405180910390f35b60007f80ac58cd000000000000000000000000000000000000000000000000000000007bffffffffffffffffffffffffffffffffffffffffffffffffffffffff1916827bffffffffffffffffffffffffffffffffffffffffffffffffffffffff191614806104b657507f5b5e139f000000000000000000000000000000000000000000000000000000007bffffffffffffffffffffffffffffffffffffffffffffffffffffffff1916827bffffffffffffffffffffffffffffffffffffffffffffffffffffffff1916145b806104c657506104c582610cab565b5b9050919050565b6060600080546104dc9061221c565b80601f01602080910402602001604051908101604052809291908181526020018280546105089061221c565b80156105555780601f1061052a57610100808354040283529160200191610555565b820191906000526020600020905b81548152906001019060200180831161053857829003601f168201915b5050505050905090565b600061056a82610d15565b6105a9576040517f08c379a00000000000000000000000000000000000000000000000000000000081526004016105a0906122c0565b60405180910390fd5b6004600083815260200190815260200160002060009054906101000a900473ffffffffffffffffffffffffffffffffffffffff169050919050565b60006105ef82610858565b90508073ffffffffffffffffffffffffffffffffffffffff168373ffffffffffffffffffffffffffffffffffffffff161415610660576040517f08c379a000000000000000000000000000000000000000000000000000000000815260040161065790612352565b60405180910390fd5b8073ffffffffffffffffffffffffffffffffffffffff1661067f610d81565b73ffffffffffffffffffffffffffffffffffffffff1614806106ae57506106ad816106a8610d81565b610c17565b5b806106eb57508073ffffffffffffffffffffffffffffffffffffffff166106d3610d89565b73ffffffffffffffffffffffffffffffffffffffff16145b806107035750610702816106fd610d89565b610c17565b5b610742576040517f08c379a0000000000000000000000000000000000000000000000000000000008152600401610739906123e4565b60405180910390fd5b61074c8383610d91565b505050565b61076261075c610d89565b82610e4a565b6107a1576040517f08c379a000000000000000000000000000000000000000000000000000000000815260040161079890612476565b60405180910390fd5b6107ac838383610f28565b505050565b6107cc83838360405180602001604052806000815250610a6a565b505050565b60006107dd600761118f565b60006107e960076111a5565b90506107fc6107f6610d89565b826111b3565b610806818461138d565b61080f81611401565b80915050919050565b60006008600083815260200190815260200160002060020160009054906101000a900473ffffffffffffffffffffffffffffffffffffffff169050919050565b6000806002600084815260200190815260200160002060009054906101000a900473ffffffffffffffffffffffffffffffffffffffff169050600073ffffffffffffffffffffffffffffffffffffffff168173ffffffffffffffffffffffffffffffffffffffff161415610901576040517f08c379a00000000000000000000000000000000000000000000000000000000081526004016108f890612508565b60405180910390fd5b80915050919050565b60008073ffffffffffffffffffffffffffffffffffffffff168273ffffffffffffffffffffffffffffffffffffffff16141561097b576040517f08c379a00000000000000000000000000000000000000000000000000000000081526004016109729061259a565b60405180910390fd5b600360008373ffffffffffffffffffffffffffffffffffffffff1673ffffffffffffffffffffffffffffffffffffffff168152602001908152602001600020549050919050565b6060600180546109d19061221c565b80601f01602080910402602001604051908101604052809291908181526020018280546109fd9061221c565b8015610a4a5780601f10610a1f57610100808354040283529160200191610a4a565b820191906000526020600020905b815481529060010190602001808311610a2d57829003601f168201915b5050505050905090565b610a66610a5f610d89565b8383611500565b5050565b610a743383610e4a565b610ab3576040517f08c379a0000000000000000000000000000000000000000000000000000000008152600401610aaa90612476565b60405180910390fd5b610abf8484848461166d565b50505050565b6060610ad082610d15565b610b0f576040517f08c379a0000000000000000000000000000000000000000000000000000000008152600401610b069061262c565b60405180910390fd5b6000600660008481526020019081526020016000208054610b2f9061221c565b80601f0160208091040260200160405190810160405280929190818152602001828054610b5b9061221c565b8015610ba85780601f10610b7d57610100808354040283529160200191610ba8565b820191906000526020600020905b815481529060010190602001808311610b8b57829003601f168201915b505050505090506000610bb96116c9565b9050600081511415610bcf578192505050610c12565b600082511115610c04578082604051602001610bec929190612688565b60405160208183030381529060405292505050610c12565b610c0d846116e0565b925050505b919050565b6000600560008473ffffffffffffffffffffffffffffffffffffffff1673ffffffffffffffffffffffffffffffffffffffff16815260200190815260200160002060008373ffffffffffffffffffffffffffffffffffffffff1673ffffffffffffffffffffffffffffffffffffffff16815260200190815260200160002060009054906101000a900460ff16905092915050565b60007f01ffc9a7000000000000000000000000000000000000000000000000000000007bffffffffffffffffffffffffffffffffffffffffffffffffffffffff1916827bffffffffffffffffffffffffffffffffffffffffffffffffffffffff1916149050919050565b60008073ffffffffffffffffffffffffffffffffffffffff166002600084815260200190815260200160002060009054906101000a900473ffffffffffffffffffffffffffffffffffffffff1673ffffffffffffffffffffffffffffffffffffffff1614159050919050565b600032905090565b600033905090565b816004600083815260200190815260200160002060006101000a81548173ffffffffffffffffffffffffffffffffffffffff021916908373ffffffffffffffffffffffffffffffffffffffff160217905550808273ffffffffffffffffffffffffffffffffffffffff16610e0483610858565b73ffffffffffffffffffffffffffffffffffffffff167f8c5be1e5ebec7d5bd14f71427d1e84f3dd0314c0f7b2291e5b200ac8c7c3b92560405160405180910390a45050565b6000610e5582610d15565b610e94576040517f08c379a0000000000000000000000000000000000000000000000000000000008152600401610e8b9061271e565b60405180910390fd5b6000610e9f83610858565b90508073ffffffffffffffffffffffffffffffffffffffff168473ffffffffffffffffffffffffffffffffffffffff161480610ee15750610ee08185610c17565b5b80610f1f57508373ffffffffffffffffffffffffffffffffffffffff16610f078461055f565b73ffffffffffffffffffffffffffffffffffffffff16145b91505092915050565b8273ffffffffffffffffffffffffffffffffffffffff16610f4882610858565b73ffffffffffffffffffffffffffffffffffffffff1614610f9e576040517f08c379a0000000000000000000000000000000000000000000000000000000008152600401610f95906127b0565b60405180910390fd5b600073ffffffffffffffffffffffffffffffffffffffff168273ffffffffffffffffffffffffffffffffffffffff16141561100e576040517f08c379a000000000000000000000000000000000000000000000000000000000815260040161100590612842565b60405180910390fd5b611019838383611787565b611024600082610d91565b6001600360008573ffffffffffffffffffffffffffffffffffffffff1673ffffffffffffffffffffffffffffffffffffffff16815260200190815260200160002060008282546110749190612891565b925050819055506001600360008473ffffffffffffffffffffffffffffffffffffffff1673ffffffffffffffffffffffffffffffffffffffff16815260200190815260200160002060008282546110cb91906128c5565b92505081905550816002600083815260200190815260200160002060006101000a81548173ffffffffffffffffffffffffffffffffffffffff021916908373ffffffffffffffffffffffffffffffffffffffff160217905550808273ffffffffffffffffffffffffffffffffffffffff168473ffffffffffffffffffffffffffffffffffffffff167fddf252ad1be2c89b69c2b068fc378daa952ba7f163c4a11628f55a4df523b3ef60405160405180910390a461118a83838361178c565b505050565b6001816000016000828254019250508190555050565b600081600001549050919050565b600073ffffffffffffffffffffffffffffffffffffffff168273ffffffffffffffffffffffffffffffffffffffff161415611223576040517f08c379a000000000000000000000000000000000000000000000000000000000815260040161121a90612967565b60405180910390fd5b61122c81610d15565b1561126c576040517f08c379a0000000000000000000000000000000000000000000000000000000008152600401611263906129d3565b60405180910390fd5b61127860008383611787565b6001600360008473ffffffffffffffffffffffffffffffffffffffff1673ffffffffffffffffffffffffffffffffffffffff16815260200190815260200160002060008282546112c891906128c5565b92505081905550816002600083815260200190815260200160002060006101000a81548173ffffffffffffffffffffffffffffffffffffffff021916908373ffffffffffffffffffffffffffffffffffffffff160217905550808273ffffffffffffffffffffffffffffffffffffffff16600073ffffffffffffffffffffffffffffffffffffffff167fddf252ad1be2c89b69c2b068fc378daa952ba7f163c4a11628f55a4df523b3ef60405160405180910390a46113896000838361178c565b5050565b61139682610d15565b6113d5576040517f08c379a00000000000000000000000000000000000000000000000000000000081526004016113cc90612a65565b60405180910390fd5b806006600084815260200190815260200160002090805190602001906113fc929190611a9d565b505050565b60405180606001604052803073ffffffffffffffffffffffffffffffffffffffff168152602001828152602001611436610d89565b73ffffffffffffffffffffffffffffffffffffffff168152506008600083815260200190815260200160002060008201518160000160006101000a81548173ffffffffffffffffffffffffffffffffffffffff021916908373ffffffffffffffffffffffffffffffffffffffff1602179055506020820151816001015560408201518160020160006101000a81548173ffffffffffffffffffffffffffffffffffffffff021916908373ffffffffffffffffffffffffffffffffffffffff16021790555090505050565b8173ffffffffffffffffffffffffffffffffffffffff168373ffffffffffffffffffffffffffffffffffffffff16141561156f576040517f08c379a000000000000000000000000000000000000000000000000000000000815260040161156690612ad1565b60405180910390fd5b80600560008573ffffffffffffffffffffffffffffffffffffffff1673ffffffffffffffffffffffffffffffffffffffff16815260200190815260200160002060008473ffffffffffffffffffffffffffffffffffffffff1673ffffffffffffffffffffffffffffffffffffffff16815260200190815260200160002060006101000a81548160ff0219169083151502179055508173ffffffffffffffffffffffffffffffffffffffff168373ffffffffffffffffffffffffffffffffffffffff167f17307eab39ab6107e8899845ad3d59bd9653f200f220920489ca2b5937696c31836040516116609190611bf4565b60405180910390a3505050565b611678848484610f28565b61168484848484611791565b6116c3576040517f08c379a00000000000000000000000000000000000000000000000000000000081526004016116ba90612b63565b60405180910390fd5b50505050565b606060405180602001604052806000815250905090565b60606116eb82610d15565b61172a576040517f08c379a000000000000000000000000000000000000000000000000000000000815260040161172190612bf5565b60405180910390fd5b60006117346116c9565b90506000815111611754576040518060200160405280600081525061177f565b8061175e84611919565b60405160200161176f929190612688565b6040516020818303038152906040525b915050919050565b505050565b505050565b60006117b28473ffffffffffffffffffffffffffffffffffffffff16611a7a565b1561190c578373ffffffffffffffffffffffffffffffffffffffff1663150b7a026117db610d89565b8786866040518563ffffffff1660e01b81526004016117fd9493929190612c6a565b6020604051808303816000875af192505050801561183957506040513d601f19601f820116820180604052508101906118369190612ccb565b60015b6118bc573d8060008114611869576040519150601f19603f3d011682016040523d82523d6000602084013e61186e565b606091505b506000815114156118b4576040517f08c379a00000000000000000000000000000000000000000000000000000000081526004016118ab90612b63565b60405180910390fd5b805181602001fd5b63150b7a0260e01b7bffffffffffffffffffffffffffffffffffffffffffffffffffffffff1916817bffffffffffffffffffffffffffffffffffffffffffffffffffffffff191614915050611911565b600190505b949350505050565b60606000821415611961576040518060400160405280600181526020017f30000000000000000000000000000000000000000000000000000000000000008152509050611a75565b600082905060005b6000821461199357808061197c90612cf8565b915050600a8261198c9190612d70565b9150611969565b60008167ffffffffffffffff8111156119af576119ae611e52565b5b6040519080825280601f01601f1916602001820160405280156119e15781602001600182028036833780820191505090505b5090505b60008514611a6e576001826119fa9190612891565b9150600a85611a099190612da1565b6030611a1591906128c5565b60f81b818381518110611a2b57611a2a612dd2565b5b60200101907effffffffffffffffffffffffffffffffffffffffffffffffffffffffffffff1916908160001a905350600a85611a679190612d70565b94506119e5565b8093505050505b919050565b6000808273ffffffffffffffffffffffffffffffffffffffff163b119050919050565b828054611aa99061221c565b90600052602060002090601f016020900481019282611acb5760008555611b12565b82601f10611ae457805160ff1916838001178555611b12565b82800160010185558215611b12579182015b82811115611b11578251825591602001919060010190611af6565b5b509050611b1f9190611b23565b5090565b5b80821115611b3c576000816000905550600101611b24565b5090565b6000604051905090565b600080fd5b600080fd5b60007fffffffff0000000000000000000000000000000000000000000000000000000082169050919050565b611b8981611b54565b8114611b9457600080fd5b50565b600081359050611ba681611b80565b92915050565b600060208284031215611bc257611bc1611b4a565b5b6000611bd084828501611b97565b91505092915050565b60008115159050919050565b611bee81611bd9565b82525050565b6000602082019050611c096000830184611be5565b92915050565b600081519050919050565b600082825260208201905092915050565b60005b83811015611c49578082015181840152602081019050611c2e565b83811115611c58576000848401525b50505050565b6000601f19601f8301169050919050565b6000611c7a82611c0f565b611c848185611c1a565b9350611c94818560208601611c2b565b611c9d81611c5e565b840191505092915050565b60006020820190508181036000830152611cc28184611c6f565b905092915050565b6000819050919050565b611cdd81611cca565b8114611ce857600080fd5b50565b600081359050611cfa81611cd4565b92915050565b600060208284031215611d1657611d15611b4a565b5b6000611d2484828501611ceb565b91505092915050565b600073ffffffffffffffffffffffffffffffffffffffff82169050919050565b6000611d5882611d2d565b9050919050565b611d6881611d4d565b82525050565b6000602082019050611d836000830184611d5f565b92915050565b611d9281611d4d565b8114611d9d57600080fd5b50565b600081359050611daf81611d89565b92915050565b60008060408385031215611dcc57611dcb611b4a565b5b6000611dda85828601611da0565b9250506020611deb85828601611ceb565b9150509250929050565b600080600060608486031215611e0e57611e0d611b4a565b5b6000611e1c86828701611da0565b9350506020611e2d86828701611da0565b9250506040611e3e86828701611ceb565b9150509250925092565b600080fd5b600080fd5b7f4e487b7100000000000000000000000000000000000000000000000000000000600052604160045260246000fd5b611e8a82611c5e565b810181811067ffffffffffffffff82111715611ea957611ea8611e52565b5b80604052505050565b6000611ebc611b40565b9050611ec88282611e81565b919050565b600067ffffffffffffffff821115611ee857611ee7611e52565b5b611ef182611c5e565b9050602081019050919050565b82818337600083830152505050565b6000611f20611f1b84611ecd565b611eb2565b905082815260208101848484011115611f3c57611f3b611e4d565b5b611f47848285611efe565b509392505050565b600082601f830112611f6457611f63611e48565b5b8135611f74848260208601611f0d565b91505092915050565b600060208284031215611f9357611f92611b4a565b5b600082013567ffffffffffffffff811115611fb157611fb0611b4f565b5b611fbd84828501611f4f565b91505092915050565b611fcf81611cca565b82525050565b6000602082019050611fea6000830184611fc6565b92915050565b60006020828403121561200657612005611b4a565b5b600061201484828501611da0565b91505092915050565b61202681611bd9565b811461203157600080fd5b50565b6000813590506120438161201d565b92915050565b600080604083850312156120605761205f611b4a565b5b600061206e85828601611da0565b925050602061207f85828601612034565b9150509250929050565b600067ffffffffffffffff8211156120a4576120a3611e52565b5b6120ad82611c5e565b9050602081019050919050565b60006120cd6120c884612089565b611eb2565b9050828152602081018484840111156120e9576120e8611e4d565b5b6120f4848285611efe565b509392505050565b600082601f83011261211157612110611e48565b5b81356121218482602086016120ba565b91505092915050565b6000806000806080858703121561214457612143611b4a565b5b600061215287828801611da0565b945050602061216387828801611da0565b935050604061217487828801611ceb565b925050606085013567ffffffffffffffff81111561219557612194611b4f565b5b6121a1878288016120fc565b91505092959194509250565b600080604083850312156121c4576121c3611b4a565b5b60006121d285828601611da0565b92505060206121e385828601611da0565b9150509250929050565b7f4e487b7100000000000000000000000000000000000000000000000000000000600052602260045260246000fd5b6000600282049050600182168061223457607f821691505b60208210811415612248576122476121ed565b5b50919050565b7f4552433732313a20617070726f76656420717565727920666f72206e6f6e657860008201527f697374656e7420746f6b656e0000000000000000000000000000000000000000602082015250565b60006122aa602c83611c1a565b91506122b58261224e565b604082019050919050565b600060208201905081810360008301526122d98161229d565b9050919050565b7f4552433732313a20617070726f76616c20746f2063757272656e74206f776e6560008201527f7200000000000000000000000000000000000000000000000000000000000000602082015250565b600061233c602183611c1a565b9150612347826122e0565b604082019050919050565b6000602082019050818103600083015261236b8161232f565b9050919050565b7f4552433732313a20617070726f76652063616c6c6572206973206e6f74206f7760008201527f6e6572206e6f7220617070726f76656420666f7220616c6c0000000000000000602082015250565b60006123ce603883611c1a565b91506123d982612372565b604082019050919050565b600060208201905081810360008301526123fd816123c1565b9050919050565b7f4552433732313a207472616e736665722063616c6c6572206973206e6f74206f60008201527f776e6572206e6f7220617070726f766564000000000000000000000000000000602082015250565b6000612460603183611c1a565b915061246b82612404565b604082019050919050565b6000602082019050818103600083015261248f81612453565b9050919050565b7f4552433732313a206f776e657220717565727920666f72206e6f6e657869737460008201527f656e7420746f6b656e0000000000000000000000000000000000000000000000602082015250565b60006124f2602983611c1a565b91506124fd82612496565b604082019050919050565b60006020820190508181036000830152612521816124e5565b9050919050565b7f4552433732313a2062616c616e636520717565727920666f7220746865207a6560008201527f726f206164647265737300000000000000000000000000000000000000000000602082015250565b6000612584602a83611c1a565b915061258f82612528565b604082019050919050565b600060208201905081810360008301526125b381612577565b9050919050565b7f45524337323155524953746f726167653a2055524920717565727920666f722060008201527f6e6f6e6578697374656e7420746f6b656e000000000000000000000000000000602082015250565b6000612616603183611c1a565b9150612621826125ba565b604082019050919050565b6000602082019050818103600083015261264581612609565b9050919050565b600081905092915050565b600061266282611c0f565b61266c818561264c565b935061267c818560208601611c2b565b80840191505092915050565b60006126948285612657565b91506126a08284612657565b91508190509392505050565b7f4552433732313a206f70657261746f7220717565727920666f72206e6f6e657860008201527f697374656e7420746f6b656e0000000000000000000000000000000000000000602082015250565b6000612708602c83611c1a565b9150612713826126ac565b604082019050919050565b60006020820190508181036000830152612737816126fb565b9050919050565b7f4552433732313a207472616e736665722066726f6d20696e636f72726563742060008201527f6f776e6572000000000000000000000000000000000000000000000000000000602082015250565b600061279a602583611c1a565b91506127a58261273e565b604082019050919050565b600060208201905081810360008301526127c98161278d565b9050919050565b7f4552433732313a207472616e7366657220746f20746865207a65726f2061646460008201527f7265737300000000000000000000000000000000000000000000000000000000602082015250565b600061282c602483611c1a565b9150612837826127d0565b604082019050919050565b6000602082019050818103600083015261285b8161281f565b9050919050565b7f4e487b7100000000000000000000000000000000000000000000000000000000600052601160045260246000fd5b600061289c82611cca565b91506128a783611cca565b9250828210156128ba576128b9612862565b5b828203905092915050565b60006128d082611cca565b91506128db83611cca565b9250827fffffffffffffffffffffffffffffffffffffffffffffffffffffffffffffffff038211156129105761290f612862565b5b828201905092915050565b7f4552433732313a206d696e7420746f20746865207a65726f2061646472657373600082015250565b6000612951602083611c1a565b915061295c8261291b565b602082019050919050565b6000602082019050818103600083015261298081612944565b9050919050565b7f4552433732313a20746f6b656e20616c7265616479206d696e74656400000000600082015250565b60006129bd601c83611c1a565b91506129c882612987565b602082019050919050565b600060208201905081810360008301526129ec816129b0565b9050919050565b7f45524337323155524953746f726167653a2055524920736574206f66206e6f6e60008201527f6578697374656e7420746f6b656e000000000000000000000000000000000000602082015250565b6000612a4f602e83611c1a565b9150612a5a826129f3565b604082019050919050565b60006020820190508181036000830152612a7e81612a42565b9050919050565b7f4552433732313a20617070726f766520746f2063616c6c657200000000000000600082015250565b6000612abb601983611c1a565b9150612ac682612a85565b602082019050919050565b60006020820190508181036000830152612aea81612aae565b9050919050565b7f4552433732313a207472616e7366657220746f206e6f6e20455243373231526560008201527f63656976657220696d706c656d656e7465720000000000000000000000000000602082015250565b6000612b4d603283611c1a565b9150612b5882612af1565b604082019050919050565b60006020820190508181036000830152612b7c81612b40565b9050919050565b7f4552433732314d657461646174613a2055524920717565727920666f72206e6f60008201527f6e6578697374656e7420746f6b656e0000000000000000000000000000000000602082015250565b6000612bdf602f83611c1a565b9150612bea82612b83565b604082019050919050565b60006020820190508181036000830152612c0e81612bd2565b9050919050565b600081519050919050565b600082825260208201905092915050565b6000612c3c82612c15565b612c468185612c20565b9350612c56818560208601611c2b565b612c5f81611c5e565b840191505092915050565b6000608082019050612c7f6000830187611d5f565b612c8c6020830186611d5f565b612c996040830185611fc6565b8181036060830152612cab8184612c31565b905095945050505050565b600081519050612cc581611b80565b92915050565b600060208284031215612ce157612ce0611b4a565b5b6000612cef84828501612cb6565b91505092915050565b6000612d0382611cca565b91507fffffffffffffffffffffffffffffffffffffffffffffffffffffffffffffffff821415612d3657612d35612862565b5b600182019050919050565b7f4e487b7100000000000000000000000000000000000000000000000000000000600052601260045260246000fd5b6000612d7b82611cca565b9150612d8683611cca565b925082612d9657612d95612d41565b5b828204905092915050565b6000612dac82611cca565b9150612db783611cca565b925082612dc757612dc6612d41565b5b828206905092915050565b7f4e487b7100000000000000000000000000000000000000000000000000000000600052603260045260246000fdfea2646970667358221220617aba435e5d2ea49fe44c6bd79778c77020fb08e66618bb46a762a479c3744264736f6c634300080b0033",
  "linkReferences": {},
  "deployedLinkReferences": {}
}