{
  "_format": "hh-sol-artifact-1",
  "contractName": "MyToken",
  "sourceName": "contracts/MyToken.sol",
  "abi": [
    {
      "inputs": [
        {
          "internalType": "address",
          "name": "account",
          "type": "address"
        }
      ],
      "name": "balanceOf",
      "outputs": [
        {
          "internalType": "uint256",
          "name": "",
          "type": "uint256"
        }
      ],
      "stateMutability": "view",
      "type": "function"
    },
    {
      "inputs": [],
      "name": "initialize",
      "outputs": [],
      "stateMutability": "nonpayable",
      "type": "function"
    },
    {
      "inputs": [
        {
          "internalType": "uint256",
          "name": "amount",
          "type": "uint256"
        }
      ],
      "name": "mintToken",
      "outputs": [],
      "stateMutability": "nonpayable",
      "type": "function"
    },
    {
      "inputs": [],
      "name": "totalSupply",
      "outputs": [
        {
          "internalType": "uint256",
          "name": "",
          "type": "uint256"
        }
      ],
      "stateMutability": "view",
      "type": "function"
    },
    {
      "inputs": [
        {
          "internalType": "address",
          "name": "to",
          "type": "address"
        },
        {
          "internalType": "uint256",
          "name": "amount",
          "type": "uint256"
        }
      ],
      "name": "transfer",
      "outputs": [],
      "stateMutability": "nonpayable",
      "type": "function"
    },
    {
      "inputs": [
        {
          "internalType": "address",
          "name": "from",
          "type": "address"
        },
        {
          "internalType": "address",
          "name": "to",
          "type": "address"
        },
        {
          "internalType": "uint256",
          "name": "amount",
          "type": "uint256"
        }
      ],
      "name": "transferFrom",
      "outputs": [],
      "stateMutability": "nonpayable",
      "type": "function"
    }
  ],
  "bytecode": "0x608060405234801561001057600080fd5b50610a9e806100206000396000f3fe608060405234801561001057600080fd5b50600436106100625760003560e01c806318160ddd1461006757806323b872dd1461008557806370a08231146100a15780638129fc1c146100d1578063a9059cbb146100db578063c634d032146100f7575b600080fd5b61006f610113565b60405161007c9190610662565b60405180910390f35b61009f600480360381019061009a919061070c565b61011d565b005b6100bb60048036038101906100b6919061075f565b6101af565b6040516100c89190610662565b60405180910390f35b6100d96101f8565b005b6100f560048036038101906100f0919061078c565b6102e6565b005b610111600480360381019061010c91906107cc565b610377565b005b6000600354905090565b80600460008573ffffffffffffffffffffffffffffffffffffffff1673ffffffffffffffffffffffffffffffffffffffff16815260200190815260200160002054101561019f576040517f08c379a000000000000000000000000000000000000000000000000000000000815260040161019690610856565b60405180910390fd5b6101aa838383610412565b505050565b6000600460008373ffffffffffffffffffffffffffffffffffffffff1673ffffffffffffffffffffffffffffffffffffffff168152602001908152602001600020549050919050565b6040518060400160405280600781526020017f4d79546f6b656e00000000000000000000000000000000000000000000000000815250600190805190602001906102439291906105a6565b506040518060400160405280600281526020017f56530000000000000000000000000000000000000000000000000000000000008152506002908051906020019061028f9291906105a6565b506102a43369152d02c7e14af68000006104c3565b336000806101000a81548173ffffffffffffffffffffffffffffffffffffffff021916908373ffffffffffffffffffffffffffffffffffffffff160217905550565b80600460003373ffffffffffffffffffffffffffffffffffffffff1673ffffffffffffffffffffffffffffffffffffffff168152602001908152602001600020541015610368576040517f08c379a000000000000000000000000000000000000000000000000000000000815260040161035f90610856565b60405180910390fd5b610373338383610412565b5050565b60008054906101000a900473ffffffffffffffffffffffffffffffffffffffff1673ffffffffffffffffffffffffffffffffffffffff163373ffffffffffffffffffffffffffffffffffffffff1614610405576040517f08c379a00000000000000000000000000000000000000000000000000000000081526004016103fc906108c2565b60405180910390fd5b61040f33826104c3565b50565b80600460008573ffffffffffffffffffffffffffffffffffffffff1673ffffffffffffffffffffffffffffffffffffffff16815260200190815260200160002060008282546104619190610911565b9250508190555080600460008473ffffffffffffffffffffffffffffffffffffffff1673ffffffffffffffffffffffffffffffffffffffff16815260200190815260200160002060008282546104b79190610945565b92505081905550505050565b600073ffffffffffffffffffffffffffffffffffffffff168273ffffffffffffffffffffffffffffffffffffffff161415610533576040517f08c379a000000000000000000000000000000000000000000000000000000000815260040161052a906109e7565b60405180910390fd5b80600360008282546105459190610945565b9250508190555080600460008473ffffffffffffffffffffffffffffffffffffffff1673ffffffffffffffffffffffffffffffffffffffff168152602001908152602001600020600082825461059b9190610945565b925050819055505050565b8280546105b290610a36565b90600052602060002090601f0160209004810192826105d4576000855561061b565b82601f106105ed57805160ff191683800117855561061b565b8280016001018555821561061b579182015b8281111561061a5782518255916020019190600101906105ff565b5b509050610628919061062c565b5090565b5b8082111561064557600081600090555060010161062d565b5090565b6000819050919050565b61065c81610649565b82525050565b60006020820190506106776000830184610653565b92915050565b600080fd5b600073ffffffffffffffffffffffffffffffffffffffff82169050919050565b60006106ad82610682565b9050919050565b6106bd816106a2565b81146106c857600080fd5b50565b6000813590506106da816106b4565b92915050565b6106e981610649565b81146106f457600080fd5b50565b600081359050610706816106e0565b92915050565b6000806000606084860312156107255761072461067d565b5b6000610733868287016106cb565b9350506020610744868287016106cb565b9250506040610755868287016106f7565b9150509250925092565b6000602082840312156107755761077461067d565b5b6000610783848285016106cb565b91505092915050565b600080604083850312156107a3576107a261067d565b5b60006107b1858286016106cb565b92505060206107c2858286016106f7565b9150509250929050565b6000602082840312156107e2576107e161067d565b5b60006107f0848285016106f7565b91505092915050565b600082825260208201905092915050565b7f4e6f7420656e6f7567682062616c616e636520746f207472616e736665720000600082015250565b6000610840601e836107f9565b915061084b8261080a565b602082019050919050565b6000602082019050818103600083015261086f81610833565b9050919050565b7f6f6e6c792061646d696e2063616e206d696e7400000000000000000000000000600082015250565b60006108ac6013836107f9565b91506108b782610876565b602082019050919050565b600060208201905081810360008301526108db8161089f565b9050919050565b7f4e487b7100000000000000000000000000000000000000000000000000000000600052601160045260246000fd5b600061091c82610649565b915061092783610649565b92508282101561093a576109396108e2565b5b828203905092915050565b600061095082610649565b915061095b83610649565b9250827fffffffffffffffffffffffffffffffffffffffffffffffffffffffffffffffff038211156109905761098f6108e2565b5b828201905092915050565b7f45524332303a206d696e7420746f20746865207a65726f206164647265737300600082015250565b60006109d1601f836107f9565b91506109dc8261099b565b602082019050919050565b60006020820190508181036000830152610a00816109c4565b9050919050565b7f4e487b7100000000000000000000000000000000000000000000000000000000600052602260045260246000fd5b60006002820490506001821680610a4e57607f821691505b60208210811415610a6257610a61610a07565b5b5091905056fea26469706673582212204104b3774c710b9a849b37460284d63cd4afb2adcf042f9963a81a171b8a3db464736f6c634300080b0033",
  "linkReferences": {},
  "deployedLinkReferences": {}
}